S01200002E2E2F464548526F626F742E7331397E
S32D0000C000000000205DC2000011C3000017C300001DC3000023C3000029C3000000000000000000000000000073
S32D0000C028000000002FC3000035C30000000000003BC3000041C3000039E2000045E2000051E200005DE200004A
S32D0000C05069E2000075E2000081E200008DE2000099E20000A5E20000B1E20000BDE20000C9E20000D5E20000B8
S32D0000C078E1E20000EDE20000F9E2000005E3000011E300001DE3000029E3000035E3000041E300004DE30000D9
S32D0000C0A059E3000065E3000071E300007DE3000089E3000095E30000A1E30000ADE30000B9E30000C5E30000FE
S32D0000C0C8D1E30000DDE30000E9E30000F5E3000001E400000DE4000019E4000025E4000031E400003DE4000020
S32D0000C0F049E40000D95F010055E4000061E400006DE4000079E4000085E4000091E400009DE40000A9E40000A4
S32D0000C118B5E40000C1E40000CDE40000D9E40000E5E40000F1E40000FDE4000009E5000015E5000021E50000E0
S32D0000C1402DE5000039E5000045E5000051E50000293601005DE5000069E5000075E5000081E500008DE500001F
S32D0000C16899E50000A5E50000B1E50000BDE50000C9E50000D5E50000E1E50000EDE50000F9E5000005E60000A0
S32D0000C19011E600001DE6000029E6000015320100C530010075310100B5DF0000B932010035E6000041E60000D1
S32D0000C1B84DE60000C0C7020000000020DC160000C0C702000000FF1F00000000DC1600202C0700000000FF1F81
S32D0000C1E00000000080B489B000AFF860B9607A60BB68FB61FB68BB6100237B617A697B689A420BD2BA69131DFB
S32D0000C208BB61FB69191DF96112681A607B6904337B61EFE700BF2437BD4680BC704780B485B000AF786039609E
S32D0000C2307B68FB600023BB60BA683B689A4208D2FB681A1DFA6000221A60BB680433BB60F2E700BF1437BD46FE
S32D0000C25880BC704780B586B000AF72B6234B4CF220521A80214B4DF628121A80204B4FF4E9721A801F4B7B615F
S32D0000C2807B691F4A934214D27B691A1D7A611B683B617B691A1D7A611B68FB607B691A1D7A611B68BB60BA68E9
S32D0000C2A8F9683869FFF79AFFE6E77B69134A93420ED27B691A1D7A611B68FB607B691A1D7A611B68BB60B9688B
S32D0000C2D0F868FFF7A8FFECE70B4B7B600B4A7B681A6015F057F962B601F02AFF01F0A4FDFEE700BF0E2005405D
S32D0000C2F800200540BCC10000D4C10000E4C1000008ED00E000C0000080B400AFFEE780B400AFFEE780B400AFF4
S32D0000C320FEE780B400AFFEE780B400AFFEE780B400AFFEE780B400AFFEE780B400AFFEE780B400AFFEE780B426
S32D0000C34800AFFEE7FFFFFFFFFFFFFFFFFFFFFFFFFFFFFFFFFFFFFFFFFFFFFFFFFFFFFFFFFFFFFFFFFFFFFFFF57
S32D0000C370FFFFFFFFFFFFFFFFFFFFFFFFFFFFFFFFFFFFFFFFFFFFFFFFFFFFFFFFFFFFFFFFFFFFFFFFFFFFFFFFC7
S32D0000C398FFFFFFFFFFFFFFFFFFFFFFFFFFFFFFFFFFFFFFFFFFFFFFFFFFFFFFFFFFFFFFFFFFFFFFFFFFFFFFFF9F
S32D0000C3C0FFFFFFFFFFFFFFFFFFFFFFFFFFFFFFFFFFFFFFFFFFFFFFFFFFFFFFFFFFFFFFFFFFFFFFFFFFFFFFFF77
S32D0000C3E8FFFFFFFFFFFFFFFFFFFFFFFFFFFFFFFFFFFFFFFFFFFFFFFFFFFFFFFFFFFFFFFFFFFFFFFFFEFFFFFF50
S32D0000C41010B5054C237833B9044B13B10448AFF300800123237010BDDC1600200000000030C6020008B5034B47
S32D0000C4381BB103490348AFF3008008BD00000000E016002030C6020080B483B000AF78607B6883F00043184699
S32D0000C4600C37BD4680BC704780B500AF054802F031F9054802F02EF9044802F02BF900BF80BD00BF1817002056
S32D0000C488201700202817002080B582B000AF78601449786813F09EFE0346002B01D0114B1CE01149786813F02C
S32D0000C4B077FE0346002B01D00D4B13E04FF07E51786813F06DFE0346002B0AD04FF00001786813F083FE0346C2
S32D0000C4D8002B02D04FF0000300E07B6818460837BD4680BD0000C8420000C8C2FFFFFFFF80B588B000AFF86053
S32D0000C500B9607A60F86813F015F85DA3D3E9002313F068F802460B46104619465AA3D3E9002313F089F9024671
S32D0000C5280B46104619464FF00002574B13F056F802460B461046194613F032FB0346FB61B86812F0F3FF4CA385
S32D0000C550D3E9002313F046F802460B461046194649A3D3E9002313F067F902460B46104619464FF00002464B01
S32D0000C57813F034F802460B461046194613F010FB0346BB61786812F0D1FF3BA3D3E9002313F024F802460B467E
S32D0000C5A01046194638A3D3E9002313F045F902460B46104619464FF00002354B13F012F802460B461046194653
S32D0000C5C813F0EEFA03467B61F869FFF75DFFF861B869FFF759FFB8617869FFF755FF78612A4B1B684FF0000165
S32D0000C5F0184613F0D5FD0346002B04D0F969264802F0AAF807E0F869FFF722FF03461946214802F0A1F8214BD7
S32D0000C6181B684FF00001184613F0BEFD0346002B04D0B9691C4802F093F807E0B869FFF70BFF034619461848BA
S32D0000C64002F08AF8174B1B684FF00001184613F0A7FD0346002B04D07969134802F07CF807E07869FFF7F4FE93
S32D0000C668034619460E4802F073F800BF2037BD4680BD00BFAFF30080FB2BED663D192340C7478B3346916D4090
S32D0000C6900000594058170020181700205C170020201700206017002028170020FFFFFFFF80B584B000AF786039
S32D0000C6B839607A683B68D31AFB60F86813F07AFB0346184612F032FF0DA3D3E9002312F085FF02460B46104638
S32D0000C6E019460BA3D3E9002313F0A6F802460B461046194613F058FA034618461037BD4680BD00BFAFF30080ED
S32D0000C708182D4454FB2119400000000000E0734090B583B000AF0346FB71FB79002B1FD0254806F049FE0346C1
S32D0000C730012214464FF07F51184613F031FD0346002B01D100231C46E3B2002B06D04FF47F011C4807F0BEFD86
S32D0000C758022327E00321194807F0A4FD002321E0154806F029FE0346184612F0DFFE01231C460FA3D3E900232F
S32D0000C78013F0A2F90346002B01D100231C46E3B2002B06D04FF47F010A4807F09BFD022304E0FF21074807F079
S32D0000C7A895FD012318460C37BD4690BDAFF300809A9999999999F13F54170020501A00202DE9F04FB9B006AF4B
S32D0000C7D0F861B9611346FB756B463B610023C7F880300023FB670023BB670023C7F890300023C7F894300023EB
S32D0000C7F8C7F898304FF00003C7F89C304FF00003C7F8A0304FF00003C7F8A4304FF000037B674FF000033B6711
S32D0000C8204FF00003FB664FF00003C7F8A8304FF00003C7F8AC304FF00003C7F8B0304FF00003C7F8B4304FF08C
S32D0000C8480003C7F8B8304FF00003C7F8BC304FF00003C7F8C0304FF00003C7F8C4304FF00003C7F88C30B74B86
S32D0000C870BB664FF07E537B664FF000033B66B44BFB65012387F85B30B24AF969B2480AF001FB7865B14AB249F7
S32D0000C898AF480AF0FBFA3865AE4AB049AC480AF0F5FAF864AB4AAE49A9480AF0EFFAB864BB695C1E7C64234602
S32D0000C8C0013318464FF000014FF000024FF000034B0143EAD0634201234601339E002346013318464FF0000190
S32D0000C8E802460B469518BD605B41FB60D7E90223121841EB03034FF000004FF00001590141EAD26150010246B7
S32D0000C9100B4623465A1C13465B0013449B002346013318464FF0000102460B4695183D605B417B60D7E90023AB
S32D0000C938121841EB03034FF000004FF00001590141EAD261500102460B4623465A1C13465B0013449B00073395
S32D0000C960DB08DB00ADEB030D06AB03339B089B003B64BB695D1EFD632B46013318464FF000014FF000024FF0BD
S32D0000C98800034B0143EAD06342012B4601339C002B46013318464FF0000102460B4612EB020A43EB030B524695
S32D0000C9B05B46121841EB03034FF000004FF00001590141EAD261500102460B462B465A1C13465B0013449B00AE
S32D0000C9D82B46013318464FF0000102460B4612EB020843EB030942464B46121841EB03034FF000004FF0000120
S32D0000CA00590141EAD261500102460B462B465A1C13465B0013449B000733DB08DB00ADEB030D06AB03339B08AF
S32D0000CA289B00BB63796D4A480AF07CFB0346002B14BF01230023DBB2002B04D00221494807F030FC5BE30023EC
S32D0000CA50C7F88830796D40480AF068FB0346002B0CBF01230023DBB2002B4AD007F1280207F12C03049307F146
S32D0000CA783003039307F13403029307F12003019307F1240300931346374A796D30480AF089FBB96A3B6CD7F853
S32D0000CAA0882043F82210B008796A3B6CD7F88820024443F82210B208396A3B6C5000D7F88820024443F8221069
S32D0000CAC8796BBB6BD7F8882043F82210A008396BBB6BD7F88820024443F82210A208F96ABB6B5000D7F88820BC
S32D0000CAF0024443F82210D7F888300133C7F88830A8E7BA69D7F888309A4204DA0221174807F0CCFBF7E2D7F858
S32D0000CB188830BB61796D0E480AF084FAFB7D002B24D003210F4807F0BDFB0120FFF7F0FD0346002B0CBF01233F
S32D0000CB400023DBB2002B15D0F3E700BF0000A041CDCCCC3D8CA50200D81A002090A5020094A50200A4A50200E9
S32D0000CB68B0A50200501A0020BCA50200364806F0FFFB364806F0FCFB354806F0F9FB0023C7F88430D7F8842012
S32D0000CB90BB699A4280F2A5822D4806F0DBFBC7F880002C4806F0D6FBF8672B4806F0D2FBB8672A4B1B684FF038
S32D0000CBB80001184613F0F0FA0346002B0BD0D7F89010D7F88000FFF76FFD034683F00043C7F89C3007E0D7F854
S32D0000CBE09010D7F88000FFF763FDC7F89C001C4B1B684FF00001184613F0D2FA0346002B0AD0D7F89410F86F08
S32D0000CC08FFF752FD034683F00043C7F8A03006E0D7F89410F86FFFF747FDC7F8A0000F4B1B684FF00001184657
S32D0000CC3013F0B6FA0346002B16D0D7F89810B86FFFF736FD034683F00043C7F8A43012E03017002034170020AC
S32D0000CC5838170020581700205C17002060170020D7F89810B86FFFF71FFDC7F8A400D7F88030C7F89030FB6F0B
S32D0000CC80C7F89430BB6FC7F89830D7F89C10D7F8A80012F0DFFF0346C7F8A830D7F8A010D7F8AC0012F0D6FFCF
S32D0000CCA80346C7F8AC30D7F8A410D7F8B00012F0CDFF0346C7F8B030D7F89C0012F036FCBBA3D3E9002312F0E4
S32D0000CCD0B3FD02460B461046194612F065FF03467B67D7F8A00012F025FCB3A3D3E9002312F0A2FD02460B46A6
S32D0000CCF81046194612F054FF03463B67D7F8A40012F014FCAAA3D3E9002312F091FD02460B461046194612F088
S32D0000CD2043FF0346FB66D7F89C0012F003FC80468946D7F8A00012F0FDFB82468B46D7F8A40012F0F7FB024647
S32D0000CD480B46CDE90423CDE902ABCDE900899A4AF96C9A480AF0FAF93B6CD7F8842053F82230D7F8A810184639
S32D0000CD7012F06EFF03461A46934B1A60B1083B6CD7F884200A4453F82230D7F8AC10184612F05EFF03461A4676
S32D0000CD988C4B1A60B2083B6C5100D7F884200A4453F82230D7F8B010184612F04DFF03461A46854B1A60824B11
S32D0000CDC01B688449184613F009FA0346002B40F099817D4B1B68184612F0ACFB804689467A4B1B68184612F044
S32D0000CDE8A5FB82468B46784B1B68184612F09EFB02460B46CDE90423CDE902ABCDE900896D4A396D6D480AF081
S32D0000CE10A1F96D4B1B681946D7F8C00012F01AFF0346C7F8C030694B1B681946D7F8C40012F010FF0346C7F8DC
S32D0000CE38C430654B1B681946D7F88C0012F006FF0346C7F88C305E4B1B68B96E184613F005F80346184612F0C6
S32D0000CE6069FB80468946786E12F064FB52A3D3E9002312F0B7FB02460B4692469B46D7F8C00012F057FB02465F
S32D0000CE880B465046594612F0A9FB02460B464046494612F0EDF902460B461046194612F07FFE0346C7F8B43001
S32D0000CEB0464B1B68B96E184612F0D4FF0346184612F038FB80468946786E12F033FB3AA3D3E9002312F086FB20
S32D0000CED802460B4692469B46D7F8C40012F026FB02460B465046594612F078FB02460B464046494612F0BCF97C
S32D0000CF0002460B461046194612F04EFE0346C7F8B8302F4B1B68B96E184612F0A3FF0346184612F007FB8046E0
S32D0000CF288946786E12F002FB21A3D3E9002312F055FB02460B4692469B46D7F88C0012F0F5FA02460B46504665
S32D0000CF50594612F047FB02460B464046494612F08BF902460B461046194612F01DFE0346C7F8BC30BB6BD7F848
S32D0000CF78842053F822304FF00001184613F00CF90346002B24D10E4B1B684FF00001184613F002F90346002B4F
S32D0000CFA020D04FF00001D7F8B40013F0F9F80346002B17D010E000BF9A9999999999B93FCCA50200D81A00209E
S32D0000CFC8581700205C1700206017002000004040D7F8B43083F00043C7F8B430A108BB6BD7F884200A4453F81B
S32D0000CFF022304FF00001184613F0D2F80346002B12D1444B1B684FF00001184613F0C8F80346002B0ED04FF0FB
S32D0000D0180001D7F8B80013F0BFF80346002B05D0D7F8B83083F00043C7F8B830A208BB6B5100D7F884200A4469
S32D0000D04053F822304FF00001184613F0A9F80346002B12D1304B1B684FF00001184613F09FF80346002B0ED004
S32D0000D0684FF00001D7F8BC0013F096F80346002B05D0D7F8BC3083F00043C7F8BC30D7F8B40012F053FA804641
S32D0000D0908946D7F8B80012F04DFA82468B46D7F8BC0012F047FA02460B46CDE90423CDE902ABCDE90089194AF1
S32D0000D0B8B96C19480AF04AF8D7F8BC20D7F8B810D7F8B400FFF714FA642005F0FBFDD7F884300133C7F8843024
S32D0000D0E054E5FFF7C1F9396D0D4809F09FFFF96C0B4809F09BFFB96C094809F097FFD7F810D002E000BFD7F838
S32D0000D10810D0CC37BD46BDE8F08F00BF5C17002060170020CCA50200D81A0020FFFFFFFFF0B583B000AF786026
S32D0000D13039602F4806F020F92E4806F01DF92E4806F01AF97868FFF783F9034619462B4801F002FB7868FFF780
S32D0000D1587BF903461946284801F0FAFA7868FFF773F903461946254801F0F2FA1E4806F0EDF804461D4806F01E
S32D0000D180E9F803461C441C4806F0E4F8034623441D4A82FB0312DB17D31A184612F0B8F904460D46386812F0E9
S32D0000D1A8B3F90FA3D3E9002312F018FA02460B4601210E462046294612F082FC0346002B01D100231E46F3B232
S32D0000D1D0002B00D0CEE7FFF747F900BF0C37BD46F0BD00BFAFF30080CB10C7BAB88D0540301700203417002000
S32D0000D1F83817002018170020201700202817002056555555B0B584B000AF7860396005F095FD02460B46104611
S32D0000D220194612F0C1FC0346FB602A4806F0A4F8294806F0A1F8294806F09EF87868FFF707F903461946264831
S32D0000D24801F086FA7968254801F082FA05F076FD04460D46F86812F069F902460B462046294612F003F8024610
S32D0000D2700B4614461D461C4B1B68184612F05AF902460B462046294612F01EFC0346002B16D0114806F05EF85C
S32D0000D2980446104806F05AF803462344DA0F13445B1019463A6813469B001344DA00D31A994201DA012300E056
S32D0000D2C00023002B00D0C5E7FFF7CEF800BF1037BD46B0BD30170020341700203817002020170020281700204D
S32D0000D2E800000020B0B584B000AF7860396005F025FD02460B461046194612F051FC0346FB602E4806F034F84F
S32D0000D3102D4806F031F82D4806F02EF87868FFF797F8034619462A4801F016FA7968294801F012FA05F006FD03
S32D0000D33804460D46F86812F0F9F802460B462046294611F093FF02460B4614461D46204B1B68184612F0EAF850
S32D0000D36002460B462046294612F0AEFB0346002B1DD0144805F0EEFF0446144805F0EAFF03462344DA0F134473
S32D0000D3885B10184612F016FD04461249386812F065FD03461946204612F0FEFE0346002B01D0012300E0002378
S32D0000D3B0002B00D0BEE7FFF757F800BF1037BD46B0BD00BF301700203417002038170020281700201817002046
S32D0000D3D80000002000000C42B0B584B000AF7860396005F0ABFC02460B461046194612F0D7FB0346FB602E4828
S32D0000D40005F0BAFF2D4805F0B7FF2D4805F0B4FF7868FFF71DF8034619462A4801F09CF97968294801F098F9B4
S32D0000D42805F08CFC04460D46F86812F07FF802460B462046294611F019FF02460B4614461D46204B1B681846BA
S32D0000D45012F070F802460B462046294612F034FB0346002B1DD0144805F074FF0446134805F070FF03462344C7
S32D0000D478DA0F13445B10184612F09CFC04461249386812F0EBFC03461946204612F084FE0346002B01D00123BA
S32D0000D4A000E00023002B00D0BEE7FEF7DDFF00BF1037BD46B0BD00BF3017002034170020381700201817002025
S32D0000D4C8201700200000002000000C42B0B584B000AF7860396005F031FC02460B461046194612F05DFB0346A5
S32D0000D4F0FB60324805F040FF314805F03DFF314805F03AFF4FF08041786812F05FFD034619462D4801F020F94F
S32D0000D5184FF08041786812F055FD03461946294801F016F97868FEF78FFF03461946264801F00EF905F002FC34
S32D0000D54004460D46F86811F0F5FF02460B462046294611F08FFE02460B4614461D461D4B1B68184611F0E6FF4A
S32D0000D56802460B462046294612F0AAFA0346002B15D0124805F0EAFE0346184612F01AFC04461349386812F0EA
S32D0000D59069FC03461946204612F002FE0346002B01D0012300E00023002B00D0C6E7FEF75BFF00BF1037BD468C
S32D0000D5B8B0BD00BF3017002034170020381700201817002020170020281700200000002000000C4280B584B0FC
S32D0000D5E000AF78603960294809F060FBF8604FF00001F86812F0D4FD0346002B0BD0234809F054FBF8600221F0
S32D0000D608214806F04FFE322005F05CFBEBE7F968786812F019FB034623F00043BB601B49B86812F0B9FD034642
S32D0000D630002B0BD07968F86812F0D0FD0346002B15D03B6883F000433B6010E0B968124812F0FEFA0346BB60A0
S32D0000D6587968F86812F0A0FD0346002B03D03B6883F000433B60B86812F0BEFD034619463868FFF755FD642098
S32D0000D68005F024FB00BF1037BD4680BDB81A0020501A0020000034430000B44380B500AF0649074806F012FAB4
S32D0000D6A840F2EE2005F00EFB0449034806F00AFA00BF80BD00001643481700200000DC4290B587B000AF012244
S32D0000D6D01521B348FFF778F8642005F0F7FA0020FFF71AF87861AF49AF48FFF777FF7B69022B0AD100223D2163
S32D0000D6F8AC48FFF765F800223D21AB48FFF760F80CE07B69012B09D100221F21A748FFF757F800221F21A64840
S32D0000D720FFF752F8A54B1B68A5491846FFF756FFA44809F09FFA3861A34B1B683969184612F086FA034623F02B
S32D0000D7480043FB609E4B1B681946386912F024FD0346002B04D0F9689A48FFF73DFE03E0F9689948FFF738FE79
S32D0000D77000221F219748FFF727F8642005F0A6FA8E4B1B6887491846FFF728FF8D4809F07FFAB8608B4809F04A
S32D0000D7987BFA0346184611F0C9FE02460B467CA1D1E9000111F062FD02460B461046194612F0F6F9034623F013
S32D0000D7C000437B60B86811F0B5FE73A3D3E9002312F07AF90346002B04D079687C48FFF779FE03E07968794800
S32D0000D7E8FFF774FE6D494FF00000FFF7F3FE734809F03CFA38613969754812F025FA034623F00043FB60734B14
S32D0000D810734A1A607049386912F0C2FC0346002B04D0F9686948FFF7DBFD03E0F9686848FFF7D6FD694B6B4A4B
S32D0000D8381A606B496B4806F045F9962005F042FA6949684806F03EF9322005F03BFA6749644806F037F93220E7
S32D0000D86005F034FA6449614806F030F90A2005F02DFA62495D4806F029F90A2005F026FA5F495A4806F022F9BA
S32D0000D888322005F01FFA45494FF00000FFF7A2FE5549544806F016F9642005F013FA00221F215648FEF78CFF6A
S32D0000D8B053494E4806F00AF9642005F007FA414809F0D8F93861504B1C683E4809F0D2F903461946204612F040
S32D0000D8D8BBF9034623F00043FB60494B1B681946386912F059FC0346002B04D0F9683548FFF772FD03E0F96837
S32D0000D9003348FFF76DFD414B1B6826491846FFF765FE2C4809F0BCF9B8603D4B1C68294809F0B6F903461946E2
S32D0000D928204612F091F9034623F000437B60364B1B681946B86812F02FFC0346002B08D0786812F051FC0346F1
S32D0000D95019461E48FFF75AFC07E0786812F048FC034619461A48FFF751FC164809F048F938603B68002B51D11E
S32D0000D97800221F212548FEF723FFFFF78BFE00221F212348FEF71CFF6BE000BFAFF300803333333333B34440DD
S32D0000D9A014A6020000000C420000874320A602002CA6020038A6020044A602000017002033333A42B81A002012
S32D0000D9C8F81600200000C8410000C8C150A6020000007841000000200000E03F000020410000704248170020EF
S32D0000D9F00000A0420000C8420000F0420000E6420000DC425CA60200041700200C170020081700206CA60200D0
S32D0000DA1878A602003B68012B0CD100221F213C48FEF7CEFEFFF736FE00221F213948FEF7C7FE16E000221F214E
S32D0000DA403548FEF7C1FE36493648FFF74FFCFFF725FEC82005F03AF931493348FFF746FC00221F212D48FEF727
S32D0000DA68AFFE4FF082412F4806F02CF82C492E48FFF7B0FD2D4809F0F9F838612C4B1C682A4809F0F3F8034630
S32D0000DA901946204612F0DCF8034623F00043FB60254B1B681946386912F07AFB0346002B04D0F9682148FFF761
S32D0000DAB893FC03E0F9682048FFF78EFC18491F48FFF788FD1E4B1F4A1A601F4B1C68174809F0DAF80346194636
S32D0000DAE0204612F0B5F8034619461548FFF7FEFB154B184A1A6018490C4805F0E7FF4FF4FA6005F0E3F84FF097
S32D0000DB088241084805F0DEFF00BF1C37BD4690BD84A6020090A602000000704000000CC200000C4248170020F9
S32D0000DB3000003443B81A0020101700200000C8C10000C84100004843000000200000E03F14170020000020410F
S32D0000DB580000AA4280B582B000AF4FF47A7005F0B1F80021A14806F09DFBA1499F4806F045FE9F499D4806F06D
S32D0000DB8041FE9D499B4806F03DFE9B49994806F039FE9949974806F035FE9849954806F031FE3A463B1D194648
S32D0000DBA8924806F065FC034683F00103DBB2002B00D0F2E74FF496724FF444718E4805F0F1FE8E4809F052F8E7
S32D0000DBD003468D4A13608C4B1B688C49184612F0D5FA0346002B06D0864809F043F80346854A1360EFE78348BE
S32D0000DBF809F04AF80346844A1360804809F052F80346824A13604FF4967240F297417A4805F0C8FE4FF4FA7028
S32D0000DC2005F054F80621734806F040FB7249714806F0E8FD70496F4806F0E4FD6E496D4806F0E0FD6C496B4845
S32D0000DC4806F0DCFD6A49694806F0D8FD7049674806F0D4FD3A463B1D1946644806F008FC034683F00103DBB257
S32D0000DC70002B00D0F2E74FF496724FF44471604805F094FE5F4808F0F5FF0346634A1360624B1B685D49184610
S32D0000DC9812F078FA0346002B06D0584808F0E6FF03465C4A1360EFE7544808F0EDFF0346594A1360514808F07B
S32D0000DCC0F5FF0346574A13604FF4967240F297414B4805F06BFE4FF4FA7004F0F7FF0521444806F0E3FA4449F6
S32D0000DCE8424806F08BFD4249404806F087FD40493E4806F083FD3E493C4806F07FFD3C493A4806F07BFD464973
S32D0000DD10384806F077FD3A463B1D1946354806F0ABFB034683F00103DBB2002B00D0F2E74FF496724FF4447147
S32D0000DD38314805F037FE314808F098FF0346394A1360384B1B682F49184612F01BFA0346002B06D0294808F02D
S32D0000DD6089FF0346314A1360EFE7264808F090FF03462F4A13604FF4967240F29741204805F014FE4FF4FA7065
S32D0000DD8804F0A0FF0421194806F08CFA1849174806F034FD1649154806F030FD1449134806F02CFD1249114887
S32D0000DDB006F028FD10490F4806F024FD1D490D4806F020FD3A463B1D19460A4806F054FB034683F00103DBB27A
S32D0000DDD8002B00D0F2E74FF496724FF44471064805F0E0FD00BF0837BD4680BD501A00209CA60200A0A6020092
S32D0000DE004C1A0020B81A0020F8160020000080BFFC16002000170020B4A6020004170020081700200C1700208D
S32D0000DE28C8A602001017002014170020DCA6020080B500AF4FF42F71274805F009FE40F64C11254805F021FE00
S32D0000DE504FF4FE71234805F0FFFD4FF41A61214805F017FE4FF082411E4805F02FFE1E491B4805F02BFE1D488E
S32D0000DE7805F07EFA1C4805F07BFA1C4805F078FA1B4808F0ADFCFFF765FE1A49134805F019FEFFF715FC1648EA
S32D0000DEA008F0E8FE03461946154806F033FC1549134806F0F0FB104808F0EAFE034619460F4806F027FC104909
S32D0000DEC80D4806F0E4FB0A4808F0ECFE03461946094806F0A6FCDEE73C170020481700200000A040301700203F
S32D0000DEF03417002038170020B81A002000003442501A0020E8A60200ECA6020080B582B000AF786039607B68AA
S32D0000DF18012B2BD13B684FF6FF72934226D1154A0021154800F094FB124A0121134800F08FFB104A0221124808
S32D0000DF4000F08AFB0021114804F046FF0221104804F042FF04210F4804F03EFF00210E4805F05EFD01210D48F0
S32D0000DF6805F05AFD06210C4805F014FA00BF0837BD4680BD0000104118170020201700202817002030170020C6
S32D0000DF9034170020381700203C170020481700205417002080B500AF4FF6FF710120FFF7ADFF80BD80B500AF8F
S32D0000DFB80F4BD3F8A03003F48053002B14BF01230023DBB2002B10D0094BD3F8A030084A23F48053C2F8A030EA
S32D0000DFE0064809F06DF8064B1B68054A23F40053136000BF80BD00BF00C00440D81A0020C0F00F4080B400AFB4
S32D0000E008124B4FF480725A63114B5B69104A43F4005353610E4B1B680D4A43F4005313600A4B0C4A1A630C4B34
S32D0000E030D3F888310A4A43F08063C2F88831084B9B68074A43F08063936000BFBD4680BC704700BF00C0044039
S32D0000E058C0F00F4003010A0000E100E080B400AF324B00225A70314B98221A702F4B9B79DBB203F01003002B74
S32D0000E08014BF01230023DBB2002B00D0F2E7294B9B79DBB29B0803F00303022B14BF01230023DBB2002B00D077
S32D0000E0A8F1E7224B18221A71204B00225A71204B03F5825304331F4A1A601C4B54225A711A4B9B79DBB203F0F5
S32D0000E0D02003002B0CBF01230023DBB2002B00D0F2E7144B9B79DBB203F04003002B0CBF01230023DBB2002B36
S32D0000E0F800D0F2E70D4B1B78DBB20C4A03F03F03DBB21370094B9B79DBB29B0803F00303032B14BF0123002365
S32D0000E120DBB2002B00D0F1E700231846BD4680BC704700BF00400640007004400000130180B500AF344B03F592
S32D0000E148815318331B68324943F4785201F5815318331A60FFF752FFFFF780FF2D4B58221A602C4B1B684FF497
S32D0000E1707A7202FB03F32A4A1360294B1B681A46254B03F5825304331B681B0E03F00F030133B2FBF3F31A4618
S32D0000E198224B1A601E4B03F581531C331B681C4943F0225201F581531C331A60184B03F5815310331B68164978
S32D0000E1C043F0006201F5815310331A60164B4FF480721A61642004F063FC134B5B69124A23F010035361104B7A
S32D0000E1E800221A600E4B10225A610E4805F014FF05F0CAF905F028FA0B4804F0B1FC0B4809F0C6F84FF4FA605F
S32D0000E21004F05CFD00BF80BD007004409C19002098190020A019002000D00340501A002094190020801D00203D
S32D0000E23880B500AFFEF783F800BF80BD80B500AFFEF77DF800BF80BD80B500AFFEF777F800BF80BD80B500AFF6
S32D0000E260FEF771F800BF80BD80B500AFFEF76BF800BF80BD80B500AFFEF765F800BF80BD80B500AFFEF75FF89C
S32D0000E28800BF80BD80B500AFFEF759F800BF80BD80B500AFFEF753F800BF80BD80B500AFFEF74DF800BF80BD0C
S32D0000E2B080B500AFFEF747F800BF80BD80B500AFFEF741F800BF80BD80B500AFFEF73BF800BF80BD80B500AF32
S32D0000E2D8FEF735F800BF80BD80B500AFFEF72FF800BF80BD80B500AFFEF729F800BF80BD80B500AFFEF723F814
S32D0000E30000BF80BD80B500AFFEF71DF800BF80BD80B500AFFEF717F800BF80BD80B500AFFEF711F800BF80BD47
S32D0000E32880B500AFFEF70BF800BF80BD80B500AFFEF705F800BF80BD80B500AFFDF7FFFF00BF80BD80B500AF67
S32D0000E350FDF7F9FF00BF80BD80B500AFFDF7F3FF00BF80BD80B500AFFDF7EDFF00BF80BD80B500AFFDF7E7FF73
S32D0000E37800BF80BD80B500AFFDF7E1FF00BF80BD80B500AFFDF7DBFF00BF80BD80B500AFFDF7D5FF00BF80BD71
S32D0000E3A080B500AFFDF7CFFF00BF80BD80B500AFFDF7C9FF00BF80BD80B500AFFDF7C3FF00BF80BD80B500AF97
S32D0000E3C8FDF7BDFF00BF80BD80B500AFFDF7B7FF00BF80BD80B500AFFDF7B1FF00BF80BD80B500AFFDF7ABFFEB
S32D0000E3F000BF80BD80B500AFFDF7A5FF00BF80BD80B500AFFDF79FFF00BF80BD80B500AFFDF799FF00BF80BDAD
S32D0000E41880B500AFFDF793FF00BF80BD80B500AFFDF78DFF00BF80BD80B500AFFDF787FF00BF80BD80B500AFD2
S32D0000E440FDF781FF00BF80BD80B500AFFDF77BFF00BF80BD80B500AFFDF775FF00BF80BD80B500AFFDF76FFF62
S32D0000E46800BF80BD80B500AFFDF769FF00BF80BD80B500AFFDF763FF00BF80BD80B500AFFDF75DFF00BF80BDE8
S32D0000E49080B500AFFDF757FF00BF80BD80B500AFFDF751FF00BF80BD80B500AFFDF74BFF00BF80BD80B500AF0E
S32D0000E4B8FDF745FF00BF80BD80B500AFFDF73FFF00BF80BD80B500AFFDF739FF00BF80BD80B500AFFDF733FFDA
S32D0000E4E000BF80BD80B500AFFDF72DFF00BF80BD80B500AFFDF727FF00BF80BD80B500AFFDF721FF00BF80BD24
S32D0000E50880B500AFFDF71BFF00BF80BD80B500AFFDF715FF00BF80BD80B500AFFDF70FFF00BF80BD80B500AF49
S32D0000E530FDF709FF00BF80BD80B500AFFDF703FF00BF80BD80B500AFFDF7FDFE00BF80BD80B500AFFDF7F7FE53
S32D0000E55800BF80BD80B500AFFDF7F1FE00BF80BD80B500AFFDF7EBFE00BF80BD80B500AFFDF7E5FE00BF80BD62
S32D0000E58080B500AFFDF7DFFE00BF80BD80B500AFFDF7D9FE00BF80BD80B500AFFDF7D3FE00BF80BD80B500AF88
S32D0000E5A8FDF7CDFE00BF80BD80B500AFFDF7C7FE00BF80BD80B500AFFDF7C1FE00BF80BD80B500AFFDF7BBFECD
S32D0000E5D000BF80BD80B500AFFDF7B5FE00BF80BD80B500AFFDF7AFFE00BF80BD80B500AFFDF7A9FE00BF80BD9E
S32D0000E5F880B500AFFDF7A3FE00BF80BD80B500AFFDF79DFE00BF80BD80B500AFFDF797FE00BF80BD80B500AFC4
S32D0000E620FDF791FE00BF80BD80B500AFFDF78BFE00BF80BD80B500AFFDF785FE00BF80BD80B500AFFDF77FFE44
S32D0000E64800BF80BD80B500AFFDF779FE00BF80BD80B584B000AFF8600B467A60FB72FB68FA7A1A71FB6800226E
S32D0000E6705A711749786811F0B1FD0346002B02D0134B7B600AE04FF07E51786811F092FD0346002B02D04FF056
S32D0000E6987E537B60786810F049FF09A3D3E9002310F09CFF02460B461046194611F078FA0246FB681A60FB6811
S32D0000E6C018461037BD4680BDABAAAAAAAAAA20400000404180B582B000AF78607B685B79002B09D07B680022BB
S32D0000E6E85A717B6819791E230022034804F072FA00BF0837BD4680BD9419002080B584B000AF786039603B687F
S32D0000E7107F2B02DD7F23FB7308E03B6813F1800F02DA8023FB7301E03B68FB737B685B79FA7B9A4209D07B6881
S32D0000E738FA7B5A717B681979FA7B1E23034804F049FA00BF1037BD4680BD00BF94190020B0B584B000AF7860D4
S32D0000E76039603749386811F01BFD0346002B02D0334B3B6008E03349386811F02FFD0346002B01D02F4B3B60CF
S32D0000E788386810F0D3FE04460D467B681B68184610F0CCFE4FF00002294B11F049F802460B462046294610F062
S32D0000E7B019FF02460B461046194611F0F5F903463B604FF00001386811F0FEFC0346002B10D0386810F0AEFE87
S32D0000E7D817A3D3E9002310F001FF02460B461046194611F095F90346FB6018E0386810F09DFE4FF00002134B27
S32D0000E80010F0F0FE02460B46104619464FF000020D4B11F011F802460B461046194611F07BF90346FB60F96843
S32D0000E8287868FFF76BFF00BF1037BD46B0BD00BF52B81E85EB51F43F0000C8C20000C842000059400000604064
S32D0000E85080B483B000AF03460A46FB711346BB71BB79002B03D1134B00221A7002E0114B01221A703823FB710B
S32D0000E8780E4B1A78FB791343FB710D4B9B78DBB20B4A43F01003DBB29370094B9B78DBB2074A43F02003DBB206
S32D0000E8A09370054AFB79137100BF0C37BD4680BC704700BF641700200060064080B483B000AF01237B607B6810
S32D0000E8C8312B04DC00BF7B6801337B60F7E700BF0C37BD4680BC704780B582B000AF03460A46FB711346BB71BF
S32D0000E8F0134B1B7800211846FFF7AAFF00F024F8104AFB79137100F01FF80E4ABB79137100F01AF80B4B9B780B
S32D0000E918DBB20A4A23F02003DBB29370074B9B78DBB2064A23F01003DBB29370FFF7C2FF00BF0837BD4680BD3D
S32D0000E940651700200060064080B483B000AF174B1B78002B24D100237B60154BDB78DBB203F00203002B0CBF10
S32D0000E96801230023DBB2002B0DD07B6842F21072934203DD0B4B01221A7004E07B6801337B6000BFE5E7084BA0
S32D0000E990DB78DBB2064A43F00203DBB2D37000E000BF0C37BD4680BC704700BF661700200060064080B582B0E0
S32D0000E9B800AF0346FB71FB79184600F05FF800BF0837BD4680BD80B582B000AF03460A46FB711346BB7100F0E6
S32D0000E9E035F8FB795B00DBB21846FFF7E3FFBB791846FFF7DFFF00F037F800BF0837BD4680BD80B500AFFF2084
S32D0000EA0800F03CF80346184680BD80B584B000AF0346FB7100F016F8FB795B005BB243F001035BB2DBB2184602
S32D0000EA30FFF7C0FFFFF7E5FF0346FB7300F014F8FB7B18461037BD4680BDFFFF80B400AF044B9B68034A43F464
S32D0000EA588013936000BFBD4680BC704740F00F4080B400AF044B5B68034A43F48013536000BFBD4680BC704762
S32D0000EA8040F00F4080B485B000AF0346FB710023BB73164BDB6A03F00043012B0CBF01230023DBB2002B03D026
S32D0000EAA8FB7B0133FB73F0E70E4BDB6A0D4A43F00043D3620B4AFB7953630A4BDB6A03F40033002B0CBF012354
S32D0000EAD00023DBB2002B00D0F3E7044B9B6BBB73BB7B18461437BD4680BC704700C00A4080B582B000AF224BAE
S32D0000EAF803F5815310331B681F4943F4805201F5815310331A601D4B4FF480721A651C4B5B691B4A43F48013F0
S32D0000EB205361FFF7A1FF174B4FF400725A65154B4FF400729A65134B4FF40072DA65134B134A1A60114B134A53
S32D0000EB48DA6000237B607B68092B06DCFF20FFF72DFF7B6801337B60F5E705A1D1E9000104F0C6F800BF08374E
S32D0000EB70BD4680BDAFF300809A9999999999B93F0070044000A0044040F00F4000C00A40000C00800500003E96
S32D0000EB9890B486B000AFF860B9607A60FB68594A93420CD1584B03F5815314331B68564943F4806201F5815368
S32D0000EBC014331A604FE0FB68524A93420CD1504B03F5815314331B684D4943F4006201F5815314331A603EE07D
S32D0000EBE8FB684B4A93420CD1474B03F5815314331B68454943F4805201F5815314331A602DE0FB68434A934239
S32D0000EC100CD13F4B03F5815314331B683C4943F4005201F5815314331A601CE0FB683C4A93420CD1364B03F530
S32D0000EC38815308331B68344943F4806201F5815308331A600BE0304B03F5815308331B682D4943F4006201F512
S32D0000EC60815308331A60FB68DB78DBB223F00C03DAB2FB68DA70FB6800229A70BB684FF47A7202FB03F27B68A9
S32D0000EC881B0192FBF3F39CB2FB681B78DBB223F01F03FB7523461B12DBB203F01F03DAB2FB7D1343DAB2FB68D8
S32D0000ECB01A70E2B2FB685A70BB684FF4FA4202FB03F27B681B0192FBF3F39AB263019BB2D31A9CB2FB689B7A35
S32D0000ECD8DBB223F01F03FB75E3B203F01F03DAB2FB7D1343DAB2FB689A72FB68DB78DBB243F00C03DAB2FB6869
S32D0000ED00DA7000BF1837BD4690BC704700A006400070044000B0064000C0064000D0064000A00E4080B483B086
S32D0000ED2800AF78607B681B79DBB203F02003002B0CBF01230023DBB2002B00D0F2E77B68DB79DBB218460C3719
S32D0000ED50BD4680BC704780B483B000AF78600B46FB707B681B79DBB25BB2DB43DBB2DB09DBB2002B00D0F4E7F2
S32D0000ED787B68FA78DA7100BF0C37BD4680BC704780B487B000AFF860B9607A60FB687B61BB683B617B685A1E17
S32D0000EDA07A60002B14BF01230023DBB2002B08D03A69531C3B617B69591C796112781A70ECE700BF1C37BD46B9
S32D0000EDC880BC704780B487B000AFF860B9607A60FB687B617B685A1E7A60002B14BF01230023DBB2002B06D07E
S32D0000EDF07B695A1C7A61BA68D2B21A70EEE700BF1C37BD4680BC704780B489B000AFF860B9607A60FB68FB618D
S32D0000EE18BB68BB6100237B617B685A1E7A60002B0FD0FB695A1CFA611B781946BB695A1CBA611B78CB1A7B611F
S32D0000EE407B69002B01D1012300E00023002B00D0E6E77B6918462437BD4680BC704780B483B000AF78603960BA
S32D0000EE687B681B78002B09D07B681B781A463B68934203D07B6801337B60F1E77B681B7818460C37BD4680BCC1
S32D0000EE90704780B584B000AF786039607B681B6BFB60FA683B689A4252D07B681B79002B35D07B6858787B6810
S32D0000EEB803F134010123FA6803F08CFC0346002B14BF01230023DBB2002B01D001233CE07B6800221A717B6838
S32D0000EEE05A6A7B681B6A1344FA689A4217D27B68DB78FB72FB7A012B11D97B681B6AFA681344FB607B685878FD
S32D0000EF087B6803F134010123FA6803F063FCFB7A013BFB72EAE73B68002B15D07B6858787B6803F13401012372
S32D0000EF303A6803F06FFB0346002B14BF01230023DBB2002B01D0012303E07B683A681A63002318461037BD46C9
S32D0000EF5880BD80B584B000AF786000217868FFF794FF0346FB73FB7B002B40F091807B681B78032B7BD17B6868
S32D0000EF805B79002B77D07B6800221A637B6834334FF4007200211846FFF718FF7B68552283F832227B68AA2238
S32D0000EFA883F833227B68522283F834207B68522283F835207B68612283F836207B68412283F837207B68722258
S32D0000EFD083F818227B68722283F819227B68412283F81A227B68612283F81B227B681B69DAB27B6883F81C2287
S32D0000EFF87B681B699BB21B12DAB27B6883F81D227B681B691B0CDAB27B6883F81E227B681B691B0EDAB27B682A
S32D0000F02083F81F227B68DB68DAB27B6883F820227B68DB689BB21B12DAB27B6883F821227B68DB681B0CDAB20E
S32D0000F0487B6883F822227B68DB681B0EDAB27B6883F823227B6858787B6803F134017B685A69012303F0B6FB4D
S32D0000F0707B6800225A717B685B7800220021184603F078FC0346002B14BF01230023DBB2002B01D00123FB733B
S32D0000F098FB7B18461037BD4680BD80B483B000AF786039603B68023B3B607B68DB69023B3A689A4201D3002314
S32D0000F0C008E07B689B781A463B6803FB02F27B68DB6A134418460C37BD4680BC704780B586B000AF78603960AE
S32D0000F0E83B68012B04D97B68DB693A689A4201D30123B5E07B681B78032B7AD0032B00F3AD80012B02D0022BB5
S32D0000F1104DD0A7E03B683B613B695B083A6913443B617B685A6A3B695B0A134419467868FFF7AFFE0346002BF4
S32D0000F13814BF01230023DBB2002B40F088803B69C3F308037A68134493F83430FB603B6901333B617B685A6A9C
S32D0000F1603B695B0A134419467868FFF792FE0346002B14BF01230023DBB2002B6DD13B69C3F308037A6813443A
S32D0000F18893F834301B021A46FB681343FB603B6803F00103002B02D0FB681B0960E0FB68C3F30B035CE07B6835
S32D0000F1B05A6A3B681B0A134419467868FFF769FE0346002B14BF01230023DBB2002B46D13B685B0003F4FF73EE
S32D0000F1D830337A68134404337B617B6901331B781B021AB27B691B781BB213431BB29BB236E07B685A6A3B68B2
S32D0000F200DB09134419467868FFF743FE0346002B14BF01230023DBB2002B22D13B689B0003F4FE7330337A680B
S32D0000F228134404337B617B6903331B781A067B6902331B781B0413437A6901321278120213437A691278134393
S32D0000F25023F0704308E000BF04E000BF02E000BF00E000BF4FF0FF3318461837BD4680BD80B588B000AFF8606E
S32D0000F278B9607A60BB68012B04D9FB68DB69BA689A4202D30223FB77ECE0FB681B78032B00F09680032B00F321
S32D0000F2A0D880012B02D0022B6BD0D2E0BB687B617B695B087A6913447B61FB685A6A7B695B0A13441946F868EE
S32D0000F2C8FFF7E3FD0346FB77FB7F002B40F0C0807B69C3F308033033FA6813440433BB61BB6803F00103002B19
S32D0000F2F00DD0BB691B785BB203F00F035AB27B68DBB21B015BB213435BB2DBB201E07B68DBB2BA6913707B69DA
S32D0000F31801337B61FB6801221A71FB685A6A7B695B0A13441946F868FFF7AFFD0346FB77FB7F002B40F08E80E0
S32D0000F3407B69C3F308033033FA6813440433BB61BB6803F00103002B03D07B681B09DBB20CE0BB691B7823F029
S32D0000F3680F03DAB27B681B0ADBB203F00F03DBB21343DBB2BA69137071E0FB685A6ABB681B0A13441946F86853
S32D0000F390FFF77FFD0346FB77FB7F002B60D1BB685B0003F4FF733033FA6813440433BB617B68DAB2BB691A70D9
S32D0000F3B87B689BB21A12BB690133D2B21A704EE0FB685A6ABB68DB0913441946F868FFF75CFD0346FB77FB7F6F
S32D0000F3E0002B3FD1BB689B0003F4FE733033FA6813440433BB61BB6903331B781A06BB6902331B781B041343C1
S32D0000F408BA690132127812021343BA691278134303F070437A6813437B607B68DAB2BB691A707B689BB21A1257
S32D0000F430BB690133D2B21A707B681A0CBB690233D2B21A707B681A0EBB690333D2B21A7009E00223FB7706E0FF
S32D0000F45800BF04E000BF02E000BF00E000BFFB6801221A71FB7F18462037BD4680BD80B584B000AF78603960DB
S32D0000F4803B68012B04D97B68DB693A689A4202D30223FB7338E00023FB737B68DB693A689A4231D239687868D3
S32D0000F4A8FFF719FEB860BB68002B26D0BB68012B02D10223FB7323E0BB68B3F1FF3F02D10123FB731CE000228D
S32D0000F4D039687868FFF7CCFE0346FB73FB7B002B11D17B681B69B3F1FF3F07D07B681B695A1C7B681A617B6855
S32D0000F4F801225A71BB683B60CBE700BF00E000BFFB7B18461037BD4680BD80B586B000AF786039603B68002B76
S32D0000F5200DD17B68DB683B613B69002B04D07B68DB693A699A4215D301233B6112E039687868FFF7CCFDB860E2
S32D0000F548BB68012B01D8012364E07B68DB69BA689A4201D2BB685DE03B683B613B697B617B6901337B617B6817
S32D0000F570DB697A699A4207D302237B617A693B699A4201D9002349E079697868FFF7A7FDB860BB68002B0ED066
S32D0000F598BB68B3F1FF3F02D0BB68012B01D1BB6838E07A693B699A42DAD1002332E000BF6FF07042796978683D
S32D0000F5C0FFF756FE0346FB73FB7B002B09D13B68002B06D07A6939687868FFF749FE0346FB73FB7B002B10D123
S32D0000F5E87B687A69DA607B681B69B3F1FF3F10D07B681B695A1E7B681A617B6801225A7107E0FB7B012B02D162
S32D0000F6104FF0FF3300E001237B617B6918461837BD4680BD80B487B000AF786039607B685B6A04333B613B6801
S32D0000F6385B0A7A6812689278B3FBF2F37B613B691A1D3A611B68FB60FB68002B01D1002310E07A69FB689A4281
S32D0000F66007D37A69FB68D31A7B613B6904333B61E9E700BF3B691A687B69134418461C37BD4680BC704780B550
S32D0000F68884B000AF78600B467B807B687A88DA807B689B68FB60FB68012B05D07B681B68DB69FA689A4201D3AD
S32D0000F6B0022364E0FB68002B08D17B681B681B78032B03D17B681B689B6AFB60FB68002B13D17B68FA68DA60AA
S32D0000F6D87B681B681B897A889A4201D302234AE07B681B689A6A7B881B091A447B681A6135E07B681B689B781E
S32D0000F7009BB21B017B817A887B899A421CD37B681B68F9681846FFF7E2FCF860FB68B3F1FF3F01D101232AE00F
S32D0000F728FB68012B05D97B681B68DB69FA689A4201D302231FE07A887B89D31A7B80DEE77B68FA68DA607B6851
S32D0000F7501B68F9681846FFF7A4FC02467B881B091A447B681A617B681B6803F134027B8803F00F035B011A4436
S32D0000F7787B685A61002318461037BD4680BD90B585B000AF786039607B68DB8801333B813B89002B03D07B6848
S32D0000F7A01B69002B01D10423C4E03B8903F00F03002B40F0B0807B681B695A1C7B681A617B68DB68002B08D136
S32D0000F7C87B681B681B893A899A42C0F0A0800423ACE03B891B097A6812689278013A1340002B40F094807B68B9
S32D0000F7F01A687B68DB6819461046FFF770FCF860FB68012B01D8022394E0FB68B3F1FF3F01D101238EE07B6847
S32D0000F8181B68DB69FA689A426DD33B68002B01D1042383E07B681A687B68DB6819461046FFF76BFEF860FB68F9
S32D0000F840002B01D1072375E0FB68012B01D1022370E0FB68B3F1FF3F01D101236AE07B681B6800211846FFF7E8
S32D0000F86814FB0346002B14BF01230023DBB2002B01D001235AE07B681B6834334FF4007200211846FFF79EFA5F
S32D0000F8907B681A687B681C68F9681046FFF701FC034623630023FB727B681B689B78FA7A9A421CD27B681B6858
S32D0000F8B801221A717B681B6800211846FFF7E5FA0346002B14BF01230023DBB2002B01D001232BE07B681B680E
S32D0000F8E01A6B01321A63FB7A0133FB72DCE77B681B68196BFA7A7B681B688A1A1A637B68FA68DA607B681B6822
S32D0000F908F9681846FFF7C9FB02467B681A617B683A89DA807B681B6803F134023B8903F00F035B011A447B68BC
S32D0000F9305A61002318461437BD4690BD80B586B000AF786000217868FFF79DFE0346FB75FB7D002B01D0FB7DA9
S32D0000F9583CE07B681A687B681B6919461046FFF794FA0346FB75FB7D002B2BD17B685B693B613B691B78FB7320
S32D0000F980FB7B002B02D10423FB7522E03B690B331B7803F00803002B0BD17B689B690B2219463869FFF730FA9E
S32D0000F9A80346002B01D1012300E00023002B0BD100217868FFF7E3FE0346FB75FB7D002B03D1C6E700BF00E069
S32D0000F9D000BFFB7D18461837BD4680BD80B584B000AF786000217868FFF74DFE0346FB73FB7B002B21D17B6886
S32D0000F9F81A687B681B6919461046FFF746FA0346FB73FB7B002B13D17B685B691B78BB73BB7BE52B0DD0BB7B10
S32D0000FA20002B0AD001217868FFF7ADFE0346FB73FB7B002B01D1DEE700BFFB7B002B1FD17B681A687B681B6905
S32D0000FA4819461046FFF721FA0346FB73FB7B002B12D17B685B69BB6020220021B868FFF7B1F97B689B690B2296
S32D0000FA701946B868FFF788F97B681B6801221A71FB7B18461037BD4680BDFFFF80B588B000AF786039603B68D5
S32D0000FA981B68FB60FB681B782F2B03D0FB681B785C2B03D1FB680133FB60F3E77B689B69BB600B222021B86892
S32D0000FAC0FFF784F90023FB7700233B613B697B610823BB61FA687B6913441B782E2B2FD17B695A1C7A61FA686A
S32D0000FAE813441B78BB77BB7F2E2B0AD17B69022B07D83B695A1C3A61BA681344BA7F1A70EAE7BB7F2F2B07D049
S32D0000FB10BB7F5C2B04D0BB7F202B01D90623A7E0FA687B691A443B681A60BB7F202B01D8242200E02022BB6879
S32D0000FB380B331A70002397E07B695A1C7A61FA6813441B78BB77BB7F202B58D9BB7F2F2B55D0BB7F5C2B52D038
S32D0000FB60BB7F2E2B03D03A69BB699A420FD3BB69082B02D1BB7F2E2B01D0062378E008233B610B23BB61FB7FF2
S32D0000FB889B00FB773AE097F91E30002B08DAFB7F43F00303FB77BB7F803B354AD35CBB77BB7F19463348FFF739
S32D0000FBB056F90346002B14BF01230023DBB2002B01D0062354E0BB7F402B07D9BB7F5A2B04D8FB7F43F0020392
S32D0000FBD8FB770CE0BB7F602B09D9BB7F7A2B06D8FB7F43F00103FB77BB7F203BBB773B695A1C3A61BA68134425
S32D0000FC00BA7F1A709CE7FA687B691A443B681A60BB7F202B01D8042300E00023BB773B69002B01D1062323E048
S32D0000FC28BB681B78E52B02D1BB6805221A70BB69082B02D1FB7F9B00FB77FB7F03F00303012B03D1BB7F43F0B0
S32D0000FC501003BB77FB7F03F00C03042B03D1BB7F43F00803BB77BB680B33BA7F1A70002318462037BD4680BDDC
S32D0000FC78F0A6020070A7020080B584B000AF786039603B681B782F2B03D03B681B785C2B06D13B6801333B60BB
S32D0000FCA07B6800229A6004E07B681B689A697B689A603B681B781F2B09D800217868FFF7E2FC0346FB737B683D
S32D0000FCC800225A6169E03B4619467868FFF7DAFE0346FB73FB7B002B58D17868FFF72AFE0346FB737B689B693D
S32D0000FCF0DB7ABB73FB7B002B1DD0FB7B042B4BD1BB7B03F02003002B0DD07B6800229A607B6800225A610023DE
S32D0000FD18FB73BB7B03F00403002B3BD135E0BB7B03F00403002B35D10523FB7332E0BB7B03F00403002B2FD16F
S32D0000FD407B685B69BB60BB680B331B7803F01003002B02D10523FB7323E0BB6815331B781B021AB2BB681433F1
S32D0000FD681B781BB213431BB29BB21B04BA681B321278120211B2BA681A32127812B20A4312B292B21A437B685D
S32D0000FD909A609CE700BF04E000BF02E000BF00E000BFFB7B18461037BD4680BD80B582B000AF786039607B6861
S32D0000FDB858787B6803F1340101233A6802F026FC0346002B14BF01230023DBB2002B01D003234AE07B6803F228
S32D0000FDE0322301331B781B021AB27B6893F832321BB213431BB2214A934201D0022338E07B686A3303331B7897
S32D0000FE081A067B686A3302331B781B0413437A686A3201321278120213437A6892F86A20134323F07F43144ACB
S32D0000FE30934201D100231CE07B68863303331B781A067B68863302331B781B0413437A68863201321278120215
S32D0000FE5813437A6892F88620134323F07F43064A934201D1002300E0012318460837BD4680BD00BF55AAFFFF32
S32D0000FE804641540080B592B000AFF860B9601346FB71FB681B68FB62FB6A1B78303B3B643B6C092B0BD8FB6AB5
S32D0000FEA801331B783A2B06D1FB6A0233FB62FB68FA6A1A6002E0A94B1B783B643B6C002B01D00B2366E2A64AE0
S32D0000FED03B6C52F82330BB62BB68BA6A1A60BB6A002B01D10C2359E2BB6A1B78002B1AD0BB6A5B78184602F041
S32D0000FEF8BFFD034687F8273097F8273003F00103002B0CD1FB79002B07D097F8273003F00403002B01D00A239D
S32D0000FF203CE200233AE2BB6A00221A703B6CDAB2BB6A5A70BB6A5B78184602F02FF9034687F8273097F82730EE
S32D0000FF4803F00103002B01D0032323E2FB79002B07D097F8273003F00403002B01D00A2318E20023FB63F96B0F
S32D0000FF70B86AFFF71BFF034687F8473097F84730012B22D1BB6A03F5F9733B623B6A04331B78002B19D03B6A7F
S32D0000FF980B331B781A063B6A0A331B781B0413433A6A09321278120213433A6A083212781343FB63F96BB86AEB
S32D0000FFC0FFF7F4FE034687F8473097F84730032B01D10123E2E197F84730002B01D00D23DCE1BB6A93F84030F0
S32D0000FFE81B021AB2BB6A93F83F301BB213431BB2B3F5007F01D00D23CCE1BB6A93F84B301B021AB2BB6A93F85A
S32D000100104A301BB213431BB29BB2BB63BB6B002B12D1BB6A93F85B301A06BB6A93F85A301B041343BA6A92F800
S32D00010038592012021343BA6A92F858201343BB63BB6ABA6B1A62BB6A93F84430FB77BB6AFA7FDA70FB7F012B32
S32D0001006004D0FB7F022B01D00D2397E1FA7FBB6B02FB03F3BB63BB6A93F84130FB77BB6AFA7F9A70FB7F002BED
S32D0001008805D0FA7FFB7F013B1340002B01D00D2380E1BB6A93F846301B021AB2BB6A93F845301BB213431BB241
S32D000100B09AB2BB6A1A81BB6A1B8903F00F03002B01D00D236AE1BB6A93F848301B021AB2BB6A93F847301BB2CB
S32D000100D813431BB29BB27B637B6B002B12D1BB6A93F857301A06BB6A93F856301B041343BA6A92F8552012027E
S32D000101001343BA6A92F8542013437B63BB6A93F843301B021AB2BB6A93F842301BB213431BB2BB83BB8B002B57
S32D0001012801D10D2336E1BA8BBB6B1A44BB6A1B891B091344BB617A6BBB699A4201D20D2328E17A6BBB69D31A7F
S32D00010150BA6A9278B3FBF2F37B617B69002B05D10D231BE16E17002068170020012387F847307B6940F6F572F3
S32D00010178934202D9022387F847307B694FF6F572934202D9032387F847307B699A1CBB6ADA61FA6BBB691A4450
S32D000101A0BB6ADA62BA8BFB6B1A44BB6A5A6297F84730032B1ED1BB6A1B89002B01D00D23ECE0BB6A93F86330BE
S32D000101C81A06BB6A93F862301B041343BA6A92F8612012021343BA6A92F860201A43BB6A9A62BB6ADB699B00E8
S32D000101F03B631FE0BB6A1B89002B01D10D23CDE0BB6A5A6ABB6B1A44BB6A9A6297F84730022B03D1BB6ADB69A2
S32D000102185B000AE0BB6ADA6913465B0013445A08BB6ADB6903F0010313443B63BB6A1A6A3B6B03F2FF135B0A8D
S32D000102409A4201D20D23A9E0BB6A4FF0FF321A61BB6A0022DA6097F84730032B40F08680BB6A00225A71BB6AF5
S32D0001026893F865301B021AB2BB6A93F864301BB213431BB29BB21A46FB6B1A44BB6A5A61BB6A5878BB6A03F1CB
S32D000102903401BB6A5A69012302F0BCF90346002B39D1BB6A93F833321B021AB2BB6A93F832321BB213431BB2D7
S32D000102B83A4A93422BD1BB6A93F837301A06BB6A93F836301B041343BA6A92F8352012021343BA6A92F8342091
S32D000102E01343314A934216D1BB6A93F81B321A06BB6A93F81A321B041343BA6A92F8192212021343BA6A92F8D3
S32D0001030818221343274A934201D1012300E00023002B27D0BB6A93F823321A06BB6A93F822321B041343BA6A13
S32D0001033092F8212212021343BA6A92F820221A43BB6ADA60BB6A93F81F321A06BB6A93F81E321B041343BA6A01
S32D0001035892F81D2212021343BA6A92F81C221A43BB6A1A61BB6A97F847201A700E4B1B8801339AB20C4B1A8048
S32D000103800B4B1A88BB6ADA80BB6A00221A63BB6A00221A71BB6A00229A61002318464837BD4680BD55AAFFFFC2
S32D000103A852526141727241616C17002080B582B000AF78600B467B807B68002B08D07B681B78002B04D07B683F
S32D000103D0DB887A889A4201D0092311E07B685B78184602F049FB034603F00103002B14BF01230023DBB2002B48
S32D000103F801D0032300E0002318460837BD4680BD80B485B000AF03463960FB71FB79002B01D00B2316E0FB7991
S32D000104200D4A52F82330FB60FB68002B02D0FB6800221A703B68002B02D03B6800221A70FB7905493A6841F863
S32D000104482320002318461437BD4680BC704700BF6817002080B592B000AFF860B9601346FB71FB6800221A60C7
S32D00010470FB7903F01F03FB71FB7923F00103DAB207F11C0107F108031846FFF7FBFC034687F8473007F11003A4
S32D000104987B6397F84730002B09D1BA6807F11C0311461846FFF7E8FB034687F847303B6B3B6497F84730002BD0
S32D000104C005D13B6C002B02D1062387F84730FB7903F01C03002B00F0B08097F84730002B12D097F84730042B5A
S32D000104E807D107F11C031846FFF774FA034687F84730FB7943F00803FB713B6B3B6412E03B6C0B331B7803F035
S32D000105101103002B03D0072387F8473007E0FB7903F00403002B02D0082387F8473097F84730002B40F09F8097
S32D00010538FB7903F00803002B00F099800023FB633B6C0E33FA6BD2B21A70FB6B9BB21A123B6C0F33D2B21A703C
S32D00010560FB6B1A0C3B6C1033D2B21A70FB6B1A0E3B6C1133D2B21A703B6C0B3300221A703B6C1C3300221A702E
S32D000105883B6C1D3300221A703B6C1E3300221A703B6C1F3300221A703B6C15331B781B021AB23B6C14331B786C
S32D000105B01BB213431BB29BB21B043A6C1B321278120211B23A6C1A32127812B20A4312B292B21343BB633B6CBC
S32D000105D81A3300221A703B6C1B3300221A703B6C143300221A703B6C153300221A70FB6901221A71BB6B002BC2
S32D0001060039D0FB691B6BFB63FB69B96B1846FEF732FF034687F8473097F84730002B2AD1FB69BA6B013ADA6005
S32D00010628FB69F96B1846FEF730FC034687F847301DE097F84730002B19D13B6C0B331B7803F01003002B03D089
S32D00010650042387F847300EE0FB7903F00203002B09D03B6C0B331B7803F00103002B02D0072387F8473097F8E5
S32D000106784730002B0FD1FB7903F00803002B03D0FB7943F02003FB71FB691A6BFB68DA61FB683A6C1A6297F890
S32D000106A04730002B42D1FB68FA799A713B6C15331B781B021AB23B6C14331B781BB213431BB29BB21B043A6CA7
S32D000106C81B321278120211B23A6C1A32127812B20A4312B292B21A43FB681A613B6C1F331B781A063B6C1E33E1
S32D000106F01B781B0413433A6C1D321278120213433A6C1C3212781A43FB68DA60FB6800229A60FB6800229A6173
S32D00010718FB6800225A62FA69FB681A60FB69DA88FB689A8097F8473018464837BD4680BD80B58CB000AFF86053
S32D00010740B9607A603B60BB683B623B6800221A60FB681A68FB689B8819461046FFF72AFE0346FB77FB7F002B5F
S32D0001076801D0FB7F4EE1FB689B795BB2002B01DA022347E1FB689B7903F00103002B01D107233FE1FB68DA68B7
S32D00010790FB689B68D31ABB617A68BB699A4201D9BB697B607B68002B00F02F81FB689B68C3F30803002B40F0E0
S32D000107B8FA80FB689B685B0ADAB2FB681B689B78013BDBB21340FB75FB7D002B38D1FB689B68002B03D1FB6848
S32D000107E01B69FB6214E0FB685B6A002B07D0FB689B681946F868FEF715FFF86208E0FB681A68FB685B69194610
S32D000108081046FEF768FCF862FB6A012B08D8FB689B7963F07F03DAB2FB689A710223F1E0FB6AB3F1FF3F08D1EB
S32D00010830FB689B7963F07F03DAB2FB689A710123E4E0FB68FA6A5A61FB681A68FB685B6919461046FEF725FC12
S32D0001085838613B69002B08D1FB689B7963F07F03DAB2FB689A710223CCE0FB7D3A6913443B617B685B0A7B62E6
S32D000108807B6A002B47D0FA7D7B6A1344FA6812689278934206D9FB681B689B781A46FB7DD31A7B62FB681B6854
S32D000108A858787B6ADBB23A69396A01F0AFFE0346002B14BF01230023DBB2002B08D0FB689B7963F07F03DAB205
S32D000108D0FB689A71012399E0FB689B7903F04003002B14D0FB689A693B69D31A7A6A9A420DD9FB689A693B698B
S32D000108F8D31A5B023A6AD018FB6828334FF400721946FEF73DFA7B6A5B02BB6264E0FB689B693A699A4243D061
S32D00010920FB689B7903F04003002B22D0FB681B685878FB6803F12801FB689A69012301F04DFF0346002B14BF9A
S32D0001094801230023DBB2002B08D0FB689B7963F07F03DAB2FB689A71012353E0FB689B7923F04003DAB2FB6850
S32D000109709A71FB681B685878FB6803F1280101233A6901F047FE0346002B14BF01230023DBB2002B08D0FB6899
S32D000109989B7963F07F03DAB2FB689A71012331E0FB683A699A61FB689B68C3F30803C3F50073BB62BA6A7B68A1
S32D000109C09A4201D97B68BB62FB689B68C3F308032833FA681344BA6A1946386AFEF7D4F93A6ABB6A13443B6273
S32D000109E8FB689A68BB6A1A44FB689A603B681A68BB6A1A443B681A607A68BB6AD31A7B60CCE60023184630376D
S32D00010A10BD4680BD80B58AB000AFF860B9607A603B60BB68BB613B6800221A60FB681A68FB689B8819461046D5
S32D00010A38FFF7BCFC0346FB75FB7D002B01D0FB7D7EE1FB689B795BB2002B01DA022377E1FB689B7903F0020367
S32D00010A60002B01D107236FE1FB68DA687B681A44FB68DB689A4201D200237B607B68002B00F05081FB689B6882
S32D00010A88C3F30803002B40F01381FB689B685B0ADAB2FB681B689B78013BDBB21340BB75BB7D002B49D1FB6813
S32D00010AB09B68002B10D1FB681B697B627B6A002B1FD1FB681B6800211846FEF722FD7862FB687A6A1A6114E03B
S32D00010AD8FB685B6A002B07D0FB689B681946F868FEF79CFD786208E0FB681A68FB685B6919461046FEF709FD94
S32D00010B0078627B6A002B00F00C817B6A012B08D1FB689B7963F07F03DAB2FB689A71022312E17B6AB3F1FF3F50
S32D00010B2808D1FB689B7963F07F03DAB2FB689A71012305E1FB687A6A5A61FB689B7903F04003002B22D0FB6846
S32D00010B501B685878FB6803F12801FB689A69012301F03CFE0346002B14BF01230023DBB2002B08D0FB689B7959
S32D00010B7863F07F03DAB2FB689A710123E0E0FB689B7923F04003DAB2FB689A71FB681A68FB685B691946104613
S32D00010BA0FEF77FFA38613B69002B08D1FB689B7963F07F03DAB2FB689A710223C4E0BB7D3A6913443B617B68B7
S32D00010BC85B0AFB61FB69002B49D0BA7DFB691344FA6812689278934206D9FB681B689B781A46BB7DD31AFB612F
S32D00010BF0FB681B685878FB69DBB23A69B96901F0EDFD0346002B14BF01230023DBB2002B08D0FB689B7963F0A7
S32D00010C187F03DAB2FB689A71012391E0FB689A693B69D31AFA699A4215D9FB6803F12800FB689A693B69D31A02
S32D00010C405B02BA6913444FF400721946FEF79CF8FB689B7923F04003DAB2FB689A71FB695B023B6248E0FB6861
S32D00010C689B693A699A4220D0FB689A68FB68DB689A420ED2FB681B685878FB6803F1280101233A6901F0C2FC77
S32D00010C900346002B01D0012300E00023002B08D0FB689B7963F07F03DAB2FB689A7101234AE0FB683A699A6131
S32D00010CB8FB689B68C3F30803C3F500733B623A6A7B689A4201D97B683B62FB689B68C3F308032833FA68134426
S32D00010CE03A6AB9691846FEF74FF8FB689B7943F04003DAB2FB689A71BA693B6A1344BB61FB689A683B6A1A44FB
S32D00010D08FB689A603B681A683B6A1A443B681A607A683B6AD31A7B60ACE600BFFB689A68FB68DB689A4203D9B7
S32D00010D30FB689A68FB68DA60FB689B7943F02003DAB2FB689A71002318462837BD4680BD80B586B000AF7860B9
S32D00010D587B681A687B689B8819461046FFF726FB0346FB75FB7D002B40F0A8807B689B7903F02003002B00F059
S32D00010D80A1807B689B7903F04003002B1BD07B681B6858787B6803F128017B689A69012301F01CFD0346002B22
S32D00010DA814BF01230023DBB2002B01D0012386E07B689B7923F04003DAB27B689A717B681A687B68DB6919463D
S32D00010DD01046FEF75EF80346FB75FB7D002B71D17B681B6A3B613B690B331A783B690B3342F02002D2B21A70F9
S32D00010DF87B68DA683B691C33D2B21A707B68DB689BB21A123B691D33D2B21A707B68DB681A0C3B691E33D2B240
S32D00010E201A707B68DB681A0E3B691F33D2B21A707B681A693B691A33D2B21A707B681B699BB21A123B691B3390
S32D00010E48D2B21A707B681B691A0C3B691433D2B21A707B681B691B0C9BB21A123B691533D2B21A700023FB6068
S32D00010E703B691633FA68D2B21A70FB689BB21A123B691733D2B21A70FB681A0C3B691833D2B21A70FB681A0E0D
S32D00010E983B691933D2B21A707B689B7923F02003DAB27B689A717B681B6801221A717B681B681846FEF74DF874
S32D00010EC00346FB75FB7D18461837BD4680BD80B584B000AF78607868FFF73AFF0346FB73FB7B002B02D17B68D8
S32D00010EE800221A60FB7B18461037BD4680BD80B588B000AFF860B9607A600023FB61FB68BB61BB68013BFA69BD
S32D00010F109A421BDA07F1100307F1140101227868FFF70AFC3B69012B0DD13B7DFB75BB695A1CBA61FA7D1A703E
S32D00010F38FB690133FB61FB7D0A2B02D0E1E700BF00E000BFBB6900221A70FB69002B01D0FB6800E000231846FD
S32D00010F602037BD4680BD80B586B000AF03463960FB71FB793B7301237B6107F1100307F10C017A693868FFF7B8
S32D00010F8845FD3B697A699A4201D1012301E04FF0FF3318461837BD4680BD80B584B000AF786039600023FB6059
S32D00010FB07B681B78002B18D07B681B7839681846FFF7D1FF0346B3F1FF3F0CBF01230023DBB2002B02D04FF048
S32D00010FD8FF3307E07B6801337B60FB680133FB60E2E7FB6818461037BD4680BD80B485B000AF7860396001232F
S32D00011000FB600023BB600023BB60BA683B689A4208DAFB687A6802FB03F3FB60BB680133BB60F2E7FB681846C8
S32D000110281437BD4680BC704780B598B000AFF860B9607A6000233B643B6CFB63FB6BB3F1FF3F00F0EF82BB684E
S32D000110505A1CBA601B7887F8473097F84730002B00F0E18297F84730252B0ED097F84730F9681846FFF777FF6F
S32D00011078F863FB6BB3F1FF3F00F0C7820123FB63C3E2002387F85F3000233B65BB685A1CBA601B7887F8473016
S32D000110A097F84730302B09D1012387F85F30BB685A1CBA601B7887F847300CE097F847302D2B08D1022387F8B1
S32D000110C85F30BB685A1CBA601B7887F8473097F847302E2B05D1BB685A1CBA601B7887F8473097F847302F2B5D
S32D000110F015D997F84730392B11D83A6D13469B0013445B001A4697F847301344303B3B65BB685A1CBA601B7835
S32D0001111887F84730E5E797F847306C2B03D097F847304C2B0BD197F85F3043F0040387F85F30BB685A1CBA6004
S32D000111401B7887F8473097F84730002B00F06D8297F8473087F8463097F84630602B08D997F846307A2B04D8F5
S32D0001116897F84630203B87F8463097F84630423B162B00F2748101A252F823F04714010031140100571401004B
S32D000111906714010089120100671401006714010067140100671401006714010067140100671401006714010038
S32D000111B84F140100671401006714010067140100E1110100671401005714010067140100671401005F140100E9
S32D000111E07B681A1D7A601B687B6200237B657A6A7B6D13441B78002B03D07B6D01337B65F5E700233B6497F8AC
S32D000112085F3003F00203002B07D17B6D5A1C7A653A6D9A4201D9012300E00023002B09D0F9682020FFF79BFE38
S32D00011230F863FB6B3A6C13443B64E4E7F968786AFFF7AFFEF863FB6B3A6C13443B647B6D5A1C7A653A6D9A4264
S32D000112588CBF01230023DBB2002B09D0F9682020FFF77DFEF863FB6B3A6C13443B64EAE7FB6BB3F1FF3F00F0CC
S32D00011280CA813B6CFB63C6E17B68073323F0070303F108027A60D3E90023C7E90C23D7E90C23C7E90A23002389
S32D000112A8FB644FF000024FF00003D7E90C010EF007FC0346002B14D0F9682D20FFF74FFEF863FB6B3A6C134460
S32D000112D03B643B6B3B637B6B83F000437B63BB6ABB62FB6A83F00043FB62D7E90A010EF013FC0346002B0ED0AE
S32D000112F84FF00002AA4BD7E90A010EF099FA02460B46C7E90A23FB6C0133FB64E9E7FB6C013B7B657B6DB3F1E6
S32D00011320FF3F35D07B6D19460A20FFF763FE034618460EF0EDF802460B46D7E90C010EF07BFA02460B46104641
S32D0001134819460EF0E5FB03463B623A6A954B83FB02139910D317C91A0B469B000B445B00D31A3B623B6A30339E
S32D000113703B623B6ADBB2F9681846FFF7F4FDF863FB6B3A6C13443B647B6D013B7B65C5E7F9682E20FFF7E7FD43
S32D00011398F863FB6B3A6C13443B643B6D002B01D103233B650123BB65BA6D3B6D9A4233D8BB6D19460A20FFF7BD
S32D000113C019FE034618460EF0A3F8D7E90C230EF009F902460B46104619460EF09DFB03463B623A6A714B83FB10
S32D000113E802139910D317C91A0B469B000B445B00D31A3B623B6A30333B623B6ADBB2F9681846FFF7ACFDF8639B
S32D00011410FB6B3A6C13443B64BB6D0133BB65C7E7FB6BB3F1FF3F00F0F8803B6CFB63F4E07B681A1D7A601B6881
S32D00011438DBB2F9681846FFF792FDF863EAE0022387F85E3013E0082387F85E300FE00A2387F85E300BE01023EB
S32D0001146087F85E3007E097F84730F9681846FFF77AFDF863D2E097F85F3003F00403002B04D07B681A1D7A601F
S32D000114881B680CE097F84630442B04D17B681A1D7A601B6803E07B681A1D7A601B68BB6497F84630442B0BD13D
S32D000114B0BB6C002B08DABB6C5B42BB6497F85F3043F0080387F85F300023BB6597F85E20BB6CB3FBF2F102FB87
S32D000114D801F29B1A87F8463097F85E30BA6CB2FBF3F3BB6497F84630092B0BD997F84730782B01D1272200E092
S32D00011500072297F84630134487F84630BB6D5A1CBA6597F846203032D2B207F160010B4403F8502CBB6C002B39
S32D0001152803D0BB6D0F2B00D8CCE797F85F3003F00803002B08D0BB6D5A1CBA6507F1600213442D2203F8502C81
S32D00011550BB6D7B6597F85F3003F00103002B01D0302300E0202387F8463000233B6497F85F3003F00203002BE5
S32D0001157807D17B6D5A1C7A653A6D9A4201D9012300E00023002B0FD097F84630F9681846FFF7E5FCF863FB6B45
S32D000115A03A6C13443B64E2E70000244067666666BB6D013BBB6507F11002BB6D13441B78F9681846FFF7CFFC9A
S32D000115C8F863FB6B3A6C13443B64BB6D002B00D0EAE77B6D5A1C7A653A6D9A428CBF01230023DBB2002B09D0C0
S32D000115F0F9682020FFF7B7FCF863FB6B3A6C13443B64EAE7FB6BB3F1FF3F07D03B6CFB6304E000BF02E000BFEC
S32D0001161800E000BF3A6CFB6B13443B640EE500BF00E000BFFB6BB3F1FF3F01D1FB6B00E03B6C18466037BD46B2
S32D0001164080BD00BF80B588B000AF7860396080233B610F23FB604FF0FF337B610223FB61FB69B3F5807F23D852
S32D000116680123BB61BB69102B1AD8FB69BA6902FB03F33A6802FB03F27B68D31ABB60BB68002B09DBBB687A6991
S32D000116909A4205D9BB687B61FB693B61BB69FB60BB690133BB61E1E7FB695B00FB61D7E71D4BDB6A1C4A23F0B8
S32D000116B80803D3621A4BDB6A23F47F2323F47F63BB613B695B081B029AB2FB68013B1B01DBB21A43BB691343BC
S32D000116E0114A43F46023D3620F4B5B6A03F00803002B0CBF01230023DBB2002B03D00A2001F0E4FAF0E7084B89
S32D00011708DB6A074A43F00803D362054B1B6B044A43F48013136300BF2037BD4680BD00BF00100B4080B582B06E
S32D0001173000AF786039607B6800221A60424B434ADA62414BDB6A03F08073002B14BF01230023DBB2002B00D011
S32D00011758F3E73B4B0022C3F8C020394B4FF481325A60374B28229A62354B4FF001125A643B689B683449184638
S32D00011780FFF760FF304B5B6A03F00303002B14BF01230023DBB2002B00D0F3E72D4B40F243421A602B4B40F2B4
S32D000117A843425A60294B4FF488629A60274B40F24342DA60254B40F243421A61234B40F243425A61224B03F5EE
S32D000117D0815310331B68204943F4003201F5815310331A60184B4FF6FF721A63164B1B4A5A63154BDB6A144ADB
S32D000117F843F00063D362124BDB6A03F00063002B14BF01230023DBB2002B00D0F3E70C4B5B6A03F48033002B67
S32D0001182014BF01230023DBB2002B02D07B6801221A60054B1B6B044A43F080031363002318460837BD4680BD25
S32D0001184800100B400080000160CC050000D0044000700440B3007F0080B400AF064B5A6A40F207331340002B88
S32D0001187014BF01230023DBB21846BD4680BC704700100B4080B485B000AF7860074B1B6B7A681340FB60FB6838
S32D00011898002B00D1F6E7FB6818461437BD4680BC704700BF00100B4080B584B000AF78607B681B7803F03F0391
S32D000118C0764A52F82330FB60FB68002B05D17B681B78002B01D00123DCE0714B1B6B704A43F0800313636E4BAA
S32D000118E85B6A03F00103002B14BF01230023DBB2002B00D0F3E7684A7B685B689360FB6823F44003FB607B6828
S32D000119105B789B0503F44003FA681343FB607B685B78022B03D1FB6843F40013FB607B685B78042B16D1FB68FA
S32D0001193803F44033B3F5003F08D1FB6823F44033FB60FB6843F44033FB6007E0FB6823F44033FB60FB6843F4DD
S32D000119600033FB604E4B5B684D4A9BB253607B68DB68002B2AD0FB6803F44033B3F5403F03D0FB6843F4001318
S32D00011988FB607B681B7A002B03D0FB6843F01003FB607B68DB68012B03D9FB6843F02003FB607B68DB68B3F14F
S32D000119B0FF3F0BD03A4B5A687B68DB681B04384913434B60FB6843F00203FB60344B00221A60334AFB68D360BD
S32D000119D83248FFF753FF0346012B14BF01230023DBB2002B09D02C4B1B6B2B4A43F4702343F0010313630123F1
S32D00011A0048E0274B1B6B03F08003002B14BF01230023DBB2002B07D0214B1B6B204A43F001131363012335E0FB
S32D00011A281D4B1B6B03F48033002B14BF01230023DBB2002B08D0184B1B6B174A43F0011313634FF0FF3321E0A9
S32D00011A50FB6803F44033002B15D0114B1A697B681A61FB6803F44033B3F5803F0BD10C4B5A697B685A610A4B30
S32D00011A789A697B689A61084BDA697B68DA61064B1B6B054A43F001031363002318461037BD4680BD8CA702009A
S32D00011AA000100B4001000E0080B592B000AF7860396000237B643B68BB63994B7B637B6B002B02D140F6012353
S32D00011AC862E3964B3B633B6B002B02D140F60B235AE33B6B1B68FB62FB6A002B02D140F60B2351E37B6841F24F
S32D00011AF00932934200F242837B68B3F5985F08D87B68032B00F01D837B68092B00F00C8334E37B68A3F59853EA
S32D00011B18013B082B00F22E8301A252F823F000BF4D1B01003D1E01009B200100531E0100911E0100BB1F01004F
S32D00011B4003200100451F01005F1F01007649786BFFF7ECFD78647B6C002B40F01383002387F84330002387F882
S32D00011B682B30002387F82A30002387F82930002387F84230002387F8283000233B7200237B720023FB6000236D
S32D00011B903B7400237B6107F108031846FFF788FE0346002B14BF01230023DBB2002B02D001237B64EBE240F281
S32D00011BB84C4001F087F808233B7200237B724FF4D573FB6000233B7400237B6107F108031846FFF769FEF8634A
S32D00011BE0FB6B002B09D1BA69FB689A4202D001237B64CCE2012387F84230012387F8283097F82830002B00F074
S32D00011C08A58037233B7200237B720023FB6000233B7400237B6107F108031846FFF744FEF863FB6B002B02D0CB
S32D00011C3001237B64ABE269233B7200237B720023FB6000233B7400237B6107F108031846FFF72EFE0346002B66
S32D00011C5814BF01230023DBB2002B02D001237B6491E2BB6903F44013002B6FD00023FB630A2001F027F8FB6B4A
S32D00011C800133FB6337233B7200237B720023FB6000233B7400237B6107F108031846FFF707FE0346002B14BF9A
S32D00011CA801230023DBB2002B02D001237B6428E069233B7200237B7297F84230002B02D0184BFB6002E04FF407
S32D00011CD04013FB6000233B7400237B6107F108031846FFF7E5FD0346002B14BF01230023DBB2002B02D00123F1
S32D00011CF87B6406E0BB69002B03DBFB6B632B00D8B6E77B6C002B40F03B82FB6B632B0BD9002387F8423019E07E
S32D00011D20881700208C19002080A7020000003040012387F8433097F84230002B0AD0002387F84230BB6903F030
S32D00011D488043002B02D0012387F8423097F82A30002B02D07B6B07221A6097F82930002B02D07B6B08221A60B9
S32D00011D7097F82B30002B02D07B6B04221A6097F84330002B09D07B6B02221A6097F84230002B02D07B6B032244
S32D00011D981A6097F82B30002B0DD097F84330002B09D07B6B05221A6097F84230002B02D07B6B06221A60A04BB2
S32D00011DC000221A609E4B00225A609D4B00229A609B4B0022DA609A4B00221A61984B00225A61FB6A9A68FB6A3F
S32D00011DE85B6819461046FFF729FC934B40F243421A60914B40F243425A608F4B4FF488629A608D4B40F243424D
S32D00011E10DA608B4B40F243421A61894B40F243425A61884B03F5815310331B68854943F4003201F58153103372
S32D00011E381A60A8E1B86BFFF737FDF863FB6B002B00F0A08102237B649CE1BB6B002B02D10C237B6497E17A4B3E
S32D00011E60DB6A1B0A5B0003F4FF73FB63764BDB6A1B0903F00F035A1CFB6B02FB03F3FB63FB6A9A68FB6BB2FBF1
S32D00011E88F3F2BB6B1A607EE1BB6B002B02D10C237B6478E1BB6B1B68002B02D10C237B6471E1FFF7D9FC0346A1
S32D00011EB0002B0CBF01230023DBB2002B3ED0604B00221A605E4B00225A605D4B00229A605B4B0022DA605A4BC9
S32D00011ED800221A61584B00225A61FB6A9A68BB6B1B6819461046FFF7A9FB534B40F243421A60514B40F243423D
S32D00011F005A604F4B4FF488629A604D4B40F24342DA604B4B40F243421A61494B40F243425A61484B03F5815381
S32D00011F2810331B68454943F4003201F5815310331A6028E140F60A237B6424E1BB6B002B02D10C237B641EE1C5
S32D00011F503D4B5B68C3F30C02BB6B1A6017E1BB6B002B02D10C237B6411E1FFF779FC0346002B0CBF01230023A6
S32D00011F78DBB2002B19D0BB6B1B68B3F5805F02D30C237B64FFE02E4B5B682D4A23F4FF5323F01F0353602A4B2E
S32D00011FA05A68BB6B1B68C3F30C03274913434B60EDE040F60A237B64E9E0BB6B002B02D10C237B64E3E0204B39
S32D00011FC89B6A5B0803F00303FB63FB6B002B03D1BB6B00221A60D6E0FB6B012B03D1BB6B01221A60CFE0FB6B10
S32D00011FF0102B03D1BB6B02221A60C8E005237B64C5E0BB6B002B02D10C237B64BFE0FFF727FC0346002B0CBF72
S32D0001201801230023DBB2002B37D0BB6B1B68002B10D1074B9B6A064A23F006039362044B034A9B6A9362A6E00A
S32D0001204000D004400070044000100B40BB6B1B68012B0CD1504B9B6A4F4A23F0060393624D4B9B6A4C4A43F0EC
S32D00012068020393628FE0BB6B1B68022B0AD1484B9B6A474A23F006039362454B444A9B6A936280E005237B6476
S32D000120907DE040F60A237B6479E0BB6B002B02D10C237B6473E03C4BDB6A3B4A43F00063D362394BDB6A03F0CC
S32D000120B80063002B14BF01230023DBB2002B00D0F3E7334B1B6B03F08003002B14BF01230023DBB2002B08D0A0
S32D000120E02D4B1B6B2C4A43F0800313637B6B00221A60294B5B6A03F48033002B14BF01230023DBB2002B07D0F8
S32D000121087B6B1B68002B06D17B6B01221A6002E07B6B00221A607B6B1A68BB6B1A6032E0BB6B1C221A60BB6B38
S32D00012130043304221A60BB6B08334FF41E721A6025E00220FFF79EFB134B1B6B03F4E003002B14BF0123002342
S32D00012158DBB2002B07D00E4B1B6B0D4A43F4E003136304237B640A4B1B6B094A43F03203136308E040F60923A7
S32D000121807B6404E000BF02E000BF00E000BF7B6C18464837BD4680BD00100B4080B590B000AF0346FB71A74B44
S32D000121A8FB63A74BBB63BB6BA64A1A60FB79002B01D00123ABE1A44B1B78DBB203F00203002B14BF012300239E
S32D000121D0DBB2002B03D09E4B1B78DBB29BE19C4B1B78DBB203F00303002B0CBF01230023DBB2002B01D00023E7
S32D000121F88DE1BB6B002B03D0BB6B1B68002B01D1002384E1FB6B914A1A60FB6B01225A60BB6B00225A60BB6BD2
S32D0001222000229A60BB6B00221A61BB6B00221A73BB6B00225A73884B03F5815310331B68854943F4003201F534
S32D00012248815310331A60002141F20130FFF728FC0346002B14BF01230023DBB2002B01D0002354E10023BB6288
S32D0001227007F12803194641F20330FFF715FC0346002B14BF01230023DBB2002B01D0002341E1BB6A022B08D0CA
S32D00012298BB6A032B05D0BB6A052B02D0BB6A062B09D1BB6A032B02D0BB6A062B05D1BB6B01221A7301E000236D
S32D000122C029E100BF02233B7200237B720023FB6000233B7400237B6107F10803194641F20230FFF7E1FB034613
S32D000122E8002B14BF01230023DBB2002B01D000230DE103233B7200237B720023FB6000233B7400237B6107F1BE
S32D000123100803194641F20230FFF7C6FB0346002B14BF01230023DBB2002B01D00023F2E0BB691B0C1B04BA6B7D
S32D00012338136109233B7200237B72BB6B1B69FB6000233B7400237B6107F10803194641F20230FFF7A5FB03469D
S32D00012360002B14BF01230023DBB2002B01D00023D1E07B6A03F44003002B1ED13B6A1B0A03F00F033B633B6A61
S32D0001238803F003037B637B6B9A02FB699B0D13437B63FB69DB0903F00703FB627B6B5A1CFB6A02339A403B6B75
S32D000123B0093B9A40BB6B9A600CE0BB6B01225A73FB691B0AC3F315037B637B6B01339A02BB6B9A6007233B72DC
S32D000123D800237B72BB6B1B69FB6000233B7400237B6107F10803194641F20230FFF758FB0346002B14BF012375
S32D000124000023DBB2002B01D0002384E010233B7200237B724FF40073FB6000233B7400237B6107F10803194646
S32D0001242841F20230FFF73CFB0346002B14BF01230023DBB2002B0DD0002368E08C19002070170020841700203E
S32D000124500400002080A7020000700440BB6B1B681B68012B49D137233B7200237B72BB6B1B69FB6000233B74FC
S32D0001247800237B6107F10803194641F20230FFF70FFB0346002B14BF01230023DBB2002B01D000233BE04623B1
S32D000124A03B7200237B720223FB6000233B7400237B6107F10803194641F20230FFF7F4FA0346002B14BF0123E9
S32D000124C80023DBB2002B01D0002320E00123BB6207F12803194641F20730FFF7E1FA0346002B14BF012300238A
S32D000124F0DBB2002B01D000230DE0094B1B78DBB223F00103DAB2064B1A70054B1B78DBB203F00303DBB21846DE
S32D000125184037BD4680BD00BF0400002080B489B000AF786039607B687B61364B3B613B69002B01D100235FE08E
S32D000125403B691B68022B0BD03B691B68032B07D03B691B68072B03D03B691B68082B0BD12B4B5B6A03F004037A
S32D00012568002B14BF01230023DBB2002B00D0F3E73B68FB61FB69002B3DD0FB69B3F5007F28BF4FF40073FB607F
S32D00012590FB6803339B08BB61BB69002B2AD01C4B1B6B03F4E003002B14BF01230023DBB2002B09D0164B1B6BF7
S32D000125B8154A43F4E00343F02003136300231BE0114B5B6A03F40063002B0CBF01230023DBB2002B00D0F3E777
S32D000125E00B497B691A1D7A610A6A1A60BB69013BBB61D1E7FA69FB68D31AFB61BEE7012318462437BD4680BC90
S32D00012608704700BF8817002000100B4080B58EB000AFB9607A601A460346FB731346BB73414B7B63FB7B002B55
S32D0001263002D1BB7B002B01D1042375E03D4B1B78DBB203F00103002B14BF01230023DBB2002B01D0032367E01F
S32D00012658BB68002B01D1002362E07B6B1B7B002B02D17B685B027B60BB7B012B28D111233B7500237B757B6804
S32D00012680BB6101233B77BB7B3B6207F11403194641F20230FFF708FA0346002B0CBF01230023DBB2002B38D055
S32D000126A84FF40071B868FFF739FF0346002B14BF01230023DBB2002B2BD00023BB7328E012233B7500237B756F
S32D000126D07B68BB6101233B77BB7B3B6207F11403194641F20230FFF7DFF90346002B0CBF01230023DBB2002B54
S32D000126F80FD0BB7B5B021946B868FFF70FFF0346002B14BF01230023DBB2002B01D00023BB73BB7B002B01D024
S32D00012720012300E0002300BF18463837BD4680BD701700200400002080B487B000AF786039607B68FB603B6860
S32D000127487B617B69002B3DD07B69B3F5007F28BF4FF400733B617A693B69D31A7B613B6903339B083B613B6919
S32D00012770002BEAD0184B1B6B03F4E003002B14BF01230023DBB2002B0AD0134B1B6B124A43F4E00343F010031B
S32D0001279813634FF0FF3316E00D4B5B6A03F48063002B0CBF01230023DBB2002B00D0F3E7FB681A1DFA60064A5B
S32D000127C01B6813623B69013B3B61D0E7012318461C37BD4680BC704700100B4080B58EB000AFB9607A601A4624
S32D000127E80346FB731346BB735D4B7B63FB7B002B02D1BB7B002B01D10423ADE0594B1B78DBB203F00103002BBD
S32D0001281014BF01230023DBB2002B01D003239FE0524B1B78DBB203F00403002B14BF01230023DBB2002B01D0CC
S32D00012838022391E0BB68002B01D100238CE07B6B1B7B002B02D17B685B027B60BB7B012B28D118233B7500232E
S32D000128607B757B68BB6100233B77BB7B3B6207F11403194641F20230FFF716F90346002B0CBF01230023DBB2C7
S32D00012888002B38D04FF40071B868FFF751FF0346002B14BF01230023DBB2002B2BD00023BB7328E019233B754E
S32D000128B000237B757B68BB6100233B77BB7B3B6207F11403194641F20230FFF7EDF80346002B0CBF012300230B
S32D000128D8DBB2002B0FD0BB7B5B021946B868FFF727FF0346002B14BF01230023DBB2002B01D00023BB730D2374
S32D000129003B7500237B757B6B1B69BB6100233B7700233B6207F11403194641F20230FFF7C3F80346002B14BFFF
