S01200002E2E2F464548526F626F742E7331397E
S32D0000C000000000205DC2000011C3000017C300001DC3000023C3000029C3000000000000000000000000000073
S32D0000C028000000002FC3000035C30000000000003BC3000041C3000055C8000061C800006DC8000079C8000042
S32D0000C05085C8000091C800009DC80000A9C80000B5C80000C1C80000CDC80000D9C80000E5C80000F1C80000A4
S32D0000C078FDC8000009C9000015C9000021C900002DC9000039C9000045C9000051C900005DC9000069C90000C3
S32D0000C0A075C9000081C900008DC9000099C90000A5C90000B1C90000BDC90000C9C90000D5C90000E1C90000EA
S32D0000C0C8EDC90000F9C9000005CA000011CA00001DCA000029CA000035CA000041CA00004DCA000059CA00000A
S32D0000C0F065CA0000B919010071CA00007DCA000089CA000095CA0000A1CA0000ADCA0000B9CA0000C5CA0000F8
S32D0000C118D1CA0000DDCA0000E9CA0000F5CA000001CB00000DCB000019CB000025CB000031CB00003DCB0000C9
S32D0000C14049CB000055CB000061CB00006DCB0000D5F0000079CB000085CB000091CB00009DCB0000A9CB0000A8
S32D0000C168B5CB0000C1CB0000CDCB0000D9CB0000E5CB0000F1CB0000FDCB000009CC000015CC000021CC00008A
S32D0000C1902DCC000039CC000045CC000009EE0000B9EC000069ED0000D1C50000ADEE000051CC00005DCC000009
S32D0000C1B869CC00001C8C010000000020C81600001C8C01000000FF1F00000000C8160020A40400000000FF1FF2
S32D0000C1E00000000080B489B000AFF860B9607A60BB68FB61FB68BB6100237B617A697B689A420BD2BA69131DFB
S32D0000C208BB61FB69191DF96112681A607B6904337B61EFE700BF2437BD4680BC704780B485B000AF786039609E
S32D0000C2307B68FB600023BB60BA683B689A4208D2FB681A1DFA6000221A60BB680433BB60F2E700BF1437BD46FE
S32D0000C25880BC704780B586B000AF72B6234B4CF220521A80214B4DF628121A80204B4FF4E9721A801F4B7B615F
S32D0000C2807B691F4A934214D27B691A1D7A611B683B617B691A1D7A611B68FB607B691A1D7A611B68BB60BA68E9
S32D0000C2A8F9683869FFF79AFFE6E77B69134A93420ED27B691A1D7A611B68FB607B691A1D7A611B68BB60B9688B
S32D0000C2D0F868FFF7A8FFECE70B4B7B600B4A7B681A6007F009FB62B600F038FA00F0B0F8FEE700BF0E200540A9
S32D0000C2F800200540BCC10000D4C10000E4C1000008ED00E000C0000080B400AFFEE780B400AFFEE780B400AFF4
S32D0000C320FEE780B400AFFEE780B400AFFEE780B400AFFEE780B400AFFEE780B400AFFEE780B400AFFEE780B426
S32D0000C34800AFFEE7FFFFFFFFFFFFFFFFFFFFFFFFFFFFFFFFFFFFFFFFFFFFFFFFFFFFFFFFFFFFFFFFFFFFFFFF57
S32D0000C370FFFFFFFFFFFFFFFFFFFFFFFFFFFFFFFFFFFFFFFFFFFFFFFFFFFFFFFFFFFFFFFFFFFFFFFFFFFFFFFFC7
S32D0000C398FFFFFFFFFFFFFFFFFFFFFFFFFFFFFFFFFFFFFFFFFFFFFFFFFFFFFFFFFFFFFFFFFFFFFFFFFFFFFFFF9F
S32D0000C3C0FFFFFFFFFFFFFFFFFFFFFFFFFFFFFFFFFFFFFFFFFFFFFFFFFFFFFFFFFFFFFFFFFFFFFFFFFFFFFFFF77
S32D0000C3E8FFFFFFFFFFFFFFFFFFFFFFFFFFFFFFFFFFFFFFFFFFFFFFFFFFFFFFFFFFFFFFFFFFFFFFFFFEFFFFFF50
S32D0000C41010B5054C237833B9044B13B10448AFF300800123237010BDC8160020000000001C8C010008B5034BAA
S32D0000C4381BB103490348AFF3008008BD00000000CC1600201C8C010080B500AF4FF42F71284803F005F840F684
S32D0000C4604C11264803F01DF84FF4FE71244802F0FBFF4FF41A61224803F013F82149204803F02CF820491D48F4
S32D0000C48803F028F81F4802F05BFD1F4802F058FD1E4802F055FD1E4805F092FE4FF00001154803F017F841F2AD
S32D0000C4B0883002F033FA1949114803F00FF84FF4FA6002F02BFA4FF000010D4803F006F8114806F0B1F8034657
S32D0000C4D81946114803F00AFE10490F4803F0DFFD0B4806F0B3F8034619460B4803F089FEEAE700BF08170020CC
S32D0000C50014170020000034420000A040FC1600200017002004170020681A002000005C42001A00207483010056
S32D0000C52880B582B000AF786039607B68012B2BD13B684FF6FF72934226D1154A0021154800F096FB124A012152
S32D0000C550134800F091FB104A0221124800F08CFB0021114802F032FA0221104802F02EFA04210F4802F02AFAD9
S32D0000C57800210E4802F058FF01210D4802F054FF06210C4802F0EEFC00BF0837BD4680BD00001041E416002019
S32D0000C5A0EC160020F4160020FC160020001700200417002008170020141700202017002080B500AF4FF6FF7103
S32D0000C5C80120FFF7ADFF80BD80B500AF0F4BD3F8A03003F48053002B14BF01230023DBB2002B10D0094BD3F8A6
S32D0000C5F0A030084A23F48053C2F8A030064806F00BF9064B1B68054A23F40053136000BF80BD00BF00C0044080
S32D0000C618881A0020C0F00F4080B400AF124B4FF480725A63114B5B69104A43F4005353610E4B1B680D4A43F4DF
S32D0000C640005313600A4B0C4A1A630C4BD3F888310A4A43F08063C2F88831084B9B68074A43F08063936000BFB7
S32D0000C668BD4680BC704700BF00C00440C0F00F4003010A0000E100E080B400AF324B00225A70314B98221A7011
S32D0000C6902F4B9B79DBB203F01003002B14BF01230023DBB2002B00D0F2E7294B9B79DBB29B0803F00303022BD7
S32D0000C6B814BF01230023DBB2002B00D0F1E7224B18221A71204B00225A71204B03F5825304331F4A1A601C4B97
S32D0000C6E054225A711A4B9B79DBB203F02003002B0CBF01230023DBB2002B00D0F2E7144B9B79DBB203F04003FB
S32D0000C708002B0CBF01230023DBB2002B00D0F2E70D4B1B78DBB20C4A03F03F03DBB21370094B9B79DBB29B08BA
S32D0000C73003F00303032B14BF01230023DBB2002B00D0F1E700231846BD4680BC704700BF0040064000700440CA
S32D0000C7580000130180B500AF344B03F5815318331B68324943F4785201F5815318331A60FFF752FFFFF780FFDB
S32D0000C7802D4B58221A602C4B1B684FF47A7202FB03F32A4A1360294B1B681A46254B03F5825304331B681B0EA5
S32D0000C7A803F00F030133B2FBF3F31A46224B1A601E4B03F581531C331B681C4943F0225201F581531C331A60AA
S32D0000C7D0184B03F5815310331B68164943F0006201F5815310331A60164B4FF480721A61642001F0ABFF134B3D
S32D0000C7F85B69124A23F010035361104B00221A600E4B10225A610E4803F00EF902F012FC02F070FC0B4801F0EA
S32D0000C820F9FF0B4806F04CF84FF4FA6002F076F800BF80BD007004404C190020481900205019002000D0034016
S32D0000C848001A002044190020F81A002080B500AFFFF775FD00BF80BD80B500AFFFF76FFD00BF80BD80B500AF6B
S32D0000C870FFF769FD00BF80BD80B500AFFFF763FD00BF80BD80B500AFFFF75DFD00BF80BD80B500AFFFF757FDAE
S32D0000C89800BF80BD80B500AFFFF751FD00BF80BD80B500AFFFF74BFD00BF80BD80B500AFFFF745FD00BF80BD1C
S32D0000C8C080B500AFFFF73FFD00BF80BD80B500AFFFF739FD00BF80BD80B500AFFFF733FD00BF80BD80B500AF42
S32D0000C8E8FFF72DFD00BF80BD80B500AFFFF727FD00BF80BD80B500AFFFF721FD00BF80BD80B500AFFFF71BFD26
S32D0000C91000BF80BD80B500AFFFF715FD00BF80BD80B500AFFFF70FFD00BF80BD80B500AFFFF709FD00BF80BD57
S32D0000C93880B500AFFFF703FD00BF80BD80B500AFFFF7FDFC00BF80BD80B500AFFFF7F7FC00BF80BD80B500AF7F
S32D0000C960FFF7F1FC00BF80BD80B500AFFFF7EBFC00BF80BD80B500AFFFF7E5FC00BF80BD80B500AFFFF7DFFCA1
S32D0000C98800BF80BD80B500AFFFF7D9FC00BF80BD80B500AFFFF7D3FC00BF80BD80B500AFFFF7CDFC00BF80BD96
S32D0000C9B080B500AFFFF7C7FC00BF80BD80B500AFFFF7C1FC00BF80BD80B500AFFFF7BBFC00BF80BD80B500AFBC
S32D0000C9D8FFF7B5FC00BF80BD80B500AFFFF7AFFC00BF80BD80B500AFFFF7A9FC00BF80BD80B500AFFFF7A3FC19
S32D0000CA0000BF80BD80B500AFFFF79DFC00BF80BD80B500AFFFF797FC00BF80BD80B500AFFFF791FC00BF80BDD1
S32D0000CA2880B500AFFFF78BFC00BF80BD80B500AFFFF785FC00BF80BD80B500AFFFF77FFC00BF80BD80B500AFF7
S32D0000CA50FFF779FC00BF80BD80B500AFFFF773FC00BF80BD80B500AFFFF76DFC00BF80BD80B500AFFFF767FC90
S32D0000CA7800BF80BD80B500AFFFF761FC00BF80BD80B500AFFFF75BFC00BF80BD80B500AFFFF755FC00BF80BD0D
S32D0000CAA080B500AFFFF74FFC00BF80BD80B500AFFFF749FC00BF80BD80B500AFFFF743FC00BF80BD80B500AF33
S32D0000CAC8FFF73DFC00BF80BD80B500AFFFF737FC00BF80BD80B500AFFFF731FC00BF80BD80B500AFFFF72BFC08
S32D0000CAF000BF80BD80B500AFFFF725FC00BF80BD80B500AFFFF71FFC00BF80BD80B500AFFFF719FC00BF80BD49
S32D0000CB1880B500AFFFF713FC00BF80BD80B500AFFFF70DFC00BF80BD80B500AFFFF707FC00BF80BD80B500AF6E
S32D0000CB40FFF701FC00BF80BD80B500AFFFF7FBFB00BF80BD80B500AFFFF7F5FB00BF80BD80B500AFFFF7EFFB82
S32D0000CB6800BF80BD80B500AFFFF7E9FB00BF80BD80B500AFFFF7E3FB00BF80BD80B500AFFFF7DDFB00BF80BD87
S32D0000CB9080B500AFFFF7D7FB00BF80BD80B500AFFFF7D1FB00BF80BD80B500AFFFF7CBFB00BF80BD80B500AFAD
S32D0000CBB8FFF7C5FB00BF80BD80B500AFFFF7BFFB00BF80BD80B500AFFFF7B9FB00BF80BD80B500AFFFF7B3FBFB
S32D0000CBE000BF80BD80B500AFFFF7ADFB00BF80BD80B500AFFFF7A7FB00BF80BD80B500AFFFF7A1FB00BF80BDC3
S32D0000CC0880B500AFFFF79BFB00BF80BD80B500AFFFF795FB00BF80BD80B500AFFFF78FFB00BF80BD80B500AFE8
S32D0000CC30FFF789FB00BF80BD80B500AFFFF783FB00BF80BD80B500AFFFF77DFB00BF80BD80B500AFFFF777FB72
S32D0000CC5800BF80BD80B500AFFFF771FB00BF80BD80B500AFFFF76BFB00BF80BDFFFFFFFF80B584B000AFF860C8
S32D0000CC800B467A60FB72FB68FA7A1A71FB6800225A711749786806F0FFFD0346002B02D0134B7B600AE04FF062
S32D0000CCA87E51786806F0E0FD0346002B02D04FF07E537B60786805F097FF09A3D3E9002305F0EAFF02460B463E
S32D0000CCD01046194606F0C6FA0246FB681A60FB6818461037BD4680BDABAAAAAAAAAA20400000404180B483B019
S32D0000CCF800AF03460A46FB711346BB71BB79002B03D1134B00221A7002E0114B01221A703823FB710E4B1A78FB
S32D0000CD20FB791343FB710D4B9B78DBB20B4A43F01003DBB29370094B9B78DBB2074A43F02003DBB29370054A12
S32D0000CD48FB79137100BF0C37BD4680BC704700BF211700200060064080B483B000AF01237B607B68312B04DCDC
S32D0000CD7000BF7B6801337B60F7E700BF0C37BD4680BC704780B582B000AF03460A46FB711346BB71134B1B787D
S32D0000CD9800211846FFF7AAFF00F024F8104AFB79137100F01FF80E4ABB79137100F01AF80B4B9B78DBB20A4A8E
S32D0000CDC023F02003DBB29370074B9B78DBB2064A23F01003DBB29370FFF7C2FF00BF0837BD4680BD2217002039
S32D0000CDE80060064080B483B000AF174B1B78002B24D100237B60154BDB78DBB203F00203002B0CBF01230023D9
S32D0000CE10DBB2002B0DD07B6842F21072934203DD0B4B01221A7004E07B6801337B6000BFE5E7084BDB78DBB27A
S32D0000CE38064A43F00203DBB2D37000E000BF0C37BD4680BC704700BF231700200060064080B582B000AF03467E
S32D0000CE60FB71FB79184600F05FF800BF0837BD4680BD80B582B000AF03460A46FB711346BB7100F035F8FB79B0
S32D0000CE885B00DBB21846FFF7E3FFBB791846FFF7DFFF00F037F800BF0837BD4680BD80B500AFFF2000F03CF874
S32D0000CEB00346184680BD80B584B000AF0346FB7100F016F8FB795B005BB243F001035BB2DBB21846FFF7C0FFE5
S32D0000CED8FFF7E5FF0346FB7300F014F8FB7B18461037BD4680BDFFFF80B400AF044B9B68034A43F48013936007
S32D0000CF0000BFBD4680BC704740F00F4080B400AF044B5B68034A43F48013536000BFBD4680BC704740F00F40DC
S32D0000CF2880B485B000AF0346FB710023BB73164BDB6A03F00043012B0CBF01230023DBB2002B03D0FB7B01336E
S32D0000CF50FB73F0E70E4BDB6A0D4A43F00043D3620B4AFB7953630A4BDB6A03F40033002B0CBF01230023DBB2C1
S32D0000CF78002B00D0F3E7044B9B6BBB73BB7B18461437BD4680BC704700C00A40FFFFFFFF80B582B000AF224BD5
S32D0000CFA003F5815310331B681F4943F4805201F5815310331A601D4B4FF480721A651C4B5B691B4A43F4801363
S32D0000CFC85361FFF79FFF174B4FF400725A65154B4FF400729A65134B4FF40072DA65134B134A1A60114B134AC9
S32D0000CFF0DA6000237B607B68092B06DCFF20FFF72BFF7B6801337B60F5E705A1D1E9000101F09AFC00BF0837EF
S32D0000D018BD4680BDAFF300809A9999999999B93F0070044000A0044040F00F4000C00A40000C00800500003E09
S32D0000D04090B486B000AFF860B9607A60FB68594A93420CD1584B03F5815314331B68564943F4806201F58153DB
S32D0000D06814331A604FE0FB68524A93420CD1504B03F5815314331B684D4943F4006201F5815314331A603EE0F0
S32D0000D090FB684B4A93420CD1474B03F5815314331B68454943F4805201F5815314331A602DE0FB68434A9342AC
S32D0000D0B80CD13F4B03F5815314331B683C4943F4005201F5815314331A601CE0FB683C4A93420CD1364B03F5A4
S32D0000D0E0815308331B68344943F4806201F5815308331A600BE0304B03F5815308331B682D4943F4006201F586
S32D0000D108815308331A60FB68DB78DBB223F00C03DAB2FB68DA70FB6800229A70BB684FF47A7202FB03F27B681C
S32D0000D1301B0192FBF3F39CB2FB681B78DBB223F01F03FB7523461B12DBB203F01F03DAB2FB7D1343DAB2FB684B
S32D0000D1581A70E2B2FB685A70BB684FF4FA4202FB03F27B681B0192FBF3F39AB263019BB2D31A9CB2FB689B7AA8
S32D0000D180DBB223F01F03FB75E3B203F01F03DAB2FB7D1343DAB2FB689A72FB68DB78DBB243F00C03DAB2FB68DC
S32D0000D1A8DA7000BF1837BD4690BC704700A006400070044000B0064000C0064000D0064000A00E4080B483B0FA
S32D0000D1D000AF78607B681B79DBB203F02003002B0CBF01230023DBB2002B00D0F2E77B68DB79DBB218460C378D
S32D0000D1F8BD4680BC704780B483B000AF78600B46FB707B681B79DBB25BB2DB43DBB2DB09DBB2002B00D0F4E766
S32D0000D2207B68FA78DA7100BF0C37BD4680BC704780B487B000AFF860B9607A60FB687B617B685A1E7A60002B44
S32D0000D24814BF01230023DBB2002B06D07B695A1C7A61BA68D2B21A70EEE700BF1C37BD4680BC704780B584B065
S32D0000D27000AF786039607B681B6BFB60FA683B689A4252D07B681B79002B35D07B6858787B6803F1340101231F
S32D0000D298FA6801F0F5F80346002B14BF01230023DBB2002B01D001233CE07B6800221A717B685A6A7B681B6A32
S32D0000D2C01344FA689A4217D27B68DB78FB72FB7A012B11D97B681B6AFA681344FB607B6858787B6803F1340159
S32D0000D2E80123FA6801F0CCF8FB7A013BFB72EAE73B68002B15D07B6858787B6803F1340101233A6800F0D8FFEF
S32D0000D3100346002B14BF01230023DBB2002B01D0012303E07B683A681A63002318461037BD4680BD80B584B05E
S32D0000D33800AF786000217868FFF794FF0346FB73FB7B002B40F091807B681B78032B7BD17B685B79002B77D004
S32D0000D3607B6800221A637B6834334FF4007200211846FFF75DFF7B68552283F832227B68AA2283F833227B68C2
S32D0000D388522283F834207B68522283F835207B68612283F836207B68412283F837207B68722283F818227B68AF
S32D0000D3B0722283F819227B68412283F81A227B68612283F81B227B681B69DAB27B6883F81C227B681B699BB2A7
S32D0000D3D81B12DAB27B6883F81D227B681B691B0CDAB27B6883F81E227B681B691B0EDAB27B6883F81F227B687B
S32D0000D400DB68DAB27B6883F820227B68DB689BB21B12DAB27B6883F821227B68DB681B0CDAB27B6883F8222247
S32D0000D4287B68DB681B0EDAB27B6883F823227B6858787B6803F134017B685A69012301F01FF87B6800225A71F7
S32D0000D4507B685B7800220021184601F0E1F80346002B14BF01230023DBB2002B01D00123FB73FB7B18461037C9
S32D0000D478BD4680BD80B582B000AF78600B467B807B68002B08D07B681B78002B04D07B68DB887A889A4201D0BC
S32D0000D4A0092311E07B685B78184601F03BF9034603F00103002B14BF01230023DBB2002B01D0032300E00023D1
S32D0000D4C818460837BD4680BD80B586B000AF78607B681A687B689B8819461046FFF7CAFF0346FB75FB7D002B2C
S32D0000D4F040F0A8807B689B7903F02003002B00F0A1807B689B7903F04003002B1BD07B681B6858787B6803F11D
S32D0000D51828017B689A69012300F0B2FF0346002B14BF01230023DBB2002B01D0012386E07B689B7923F0400323
S32D0000D540DAB27B689A717B681A687B68DB6919461046FFF78BFE0346FB75FB7D002B71D17B681B6A3B613B693D
S32D0000D5680B331A783B690B3342F02002D2B21A707B68DA683B691C33D2B21A707B68DB689BB21A123B691D33C8
S32D0000D590D2B21A707B68DB681A0C3B691E33D2B21A707B68DB681A0E3B691F33D2B21A707B681A693B691A3367
S32D0000D5B8D2B21A707B681B699BB21A123B691B33D2B21A707B681B691A0C3B691433D2B21A707B681B691B0C43
S32D0000D5E09BB21A123B691533D2B21A700023FB603B691633FA68D2B21A70FB689BB21A123B691733D2B21A70F7
S32D0000D608FB681A0C3B691833D2B21A70FB681A0E3B691933D2B21A707B689B7923F02003DAB27B689A717B685B
S32D0000D6301B6801221A717B681B681846FFF77AFE0346FB75FB7D18461837BD4680BD80B584B000AF786078687B
S32D0000D658FFF73AFF0346FB73FB7B002B02D17B6800221A60FB7B18461037BD4680BDFFFF80B588B000AF78607E
S32D0000D680396080233B610F23FB604FF0FF337B610223FB61FB69B3F5807F23D80123BB61BB69102B1AD8FB694E
S32D0000D6A8BA6902FB03F33A6802FB03F27B68D31ABB60BB68002B09DBBB687A699A4205D9BB687B61FB693B61CE
S32D0000D6D0BB69FB60BB690133BB61E1E7FB695B00FB61D7E71D4BDB6A1C4A23F00803D3621A4BDB6A23F47F23CF
S32D0000D6F823F47F63BB613B695B081B029AB2FB68013B1B01DBB21A43BB691343114A43F46023D3620F4B5B6AF7
S32D0000D72003F00803002B0CBF01230023DBB2002B03D00A2001F0F2F8F0E7084BDB6A074A43F00803D362054B8D
S32D0000D7481B6B044A43F48013136300BF2037BD4680BD00BF00100B4080B582B000AF786039607B6800221A6029
S32D0000D770424B434ADA62414BDB6A03F08073002B14BF01230023DBB2002B00D0F3E73B4B0022C3F8C020394B10
S32D0000D7984FF481325A60374B28229A62354B4FF001125A643B689B6834491846FFF760FF304B5B6A03F003034C
S32D0000D7C0002B14BF01230023DBB2002B00D0F3E72D4B40F243421A602B4B40F243425A60294B4FF488629A6069
S32D0000D7E8274B40F24342DA60254B40F243421A61234B40F243425A61224B03F5815310331B68204943F400325D
S32D0000D81001F5815310331A60184B4FF6FF721A63164B1B4A5A63154BDB6A144A43F00063D362124BDB6A03F0E7
S32D0000D8380063002B14BF01230023DBB2002B00D0F3E70C4B5B6A03F48033002B14BF01230023DBB2002B02D023
S32D0000D8607B6801221A60054B1B6B044A43F080031363002318460837BD4680BD00100B400080000160CC0500BD
S32D0000D88800D0044000700440B3007F0080B400AF064B5A6A40F207331340002B14BF01230023DBB21846BD468E
S32D0000D8B080BC704700100B4080B485B000AF7860074B1B6B7A681340FB60FB68002B00D1F6E7FB68184614375C
S32D0000D8D8BD4680BC704700BF00100B4080B584B000AF78607B681B7803F03F03764A52F82330FB60FB68002B31
S32D0000D90005D17B681B78002B01D00123DCE0714B1B6B704A43F0800313636E4B5B6A03F00103002B14BF012312
S32D0000D9280023DBB2002B00D0F3E7684A7B685B689360FB6823F44003FB607B685B789B0503F44003FA681343A1
S32D0000D950FB607B685B78022B03D1FB6843F40013FB607B685B78042B16D1FB6803F44033B3F5003F08D1FB68D3
S32D0000D97823F44033FB60FB6843F44033FB6007E0FB6823F44033FB60FB6843F40033FB604E4B5B684D4A9BB29D
S32D0000D9A053607B68DB68002B2AD0FB6803F44033B3F5403F03D0FB6843F40013FB607B681B7A002B03D0FB68B3
S32D0000D9C843F01003FB607B68DB68012B03D9FB6843F02003FB607B68DB68B3F1FF3F0BD03A4B5A687B68DB68FE
S32D0000D9F01B04384913434B60FB6843F00203FB60344B00221A60334AFB68D3603248FFF753FF0346012B14BF3A
S32D0000DA1801230023DBB2002B09D02C4B1B6B2B4A43F4702343F001031363012348E0274B1B6B03F08003002B3A
S32D0000DA4014BF01230023DBB2002B07D0214B1B6B204A43F001131363012335E01D4B1B6B03F48033002B14BF27
S32D0000DA6801230023DBB2002B08D0184B1B6B174A43F0011313634FF0FF3321E0FB6803F44033002B15D0114B07
S32D0000DA901A697B681A61FB6803F44033B3F5803F0BD10C4B5A697B685A610A4B9A697B689A61084BDA697B6810
S32D0000DAB8DA61064B1B6B054A43F001031363002318461037BD4680BD8483010000100B4001000E0080B592B041
S32D0000DAE000AF7860396000237B643B68BB63994B7B637B6B002B02D140F6012362E3964B3B633B6B002B02D1CD
S32D0000DB0840F60B235AE33B6B1B68FB62FB6A002B02D140F60B2351E37B6841F20932934200F242837B68B3F565
S32D0000DB30985F08D87B68032B00F01D837B68092B00F00C8334E37B68A3F59853013B082B00F22E8301A252F83D
S32D0000DB5823F000BF81DB000071DE0000CFE0000087DE0000C5DE0000EFDF000037E0000079DF000093DF0000BC
S32D0000DB807649786BFFF7ECFD78647B6C002B40F01383002387F84330002387F82B30002387F82A30002387F892
S32D0000DBA82930002387F84230002387F8283000233B7200237B720023FB6000233B7400237B6107F10803184658
S32D0000DBD0FFF788FE0346002B14BF01230023DBB2002B02D001237B64EBE240F24C4000F095FE08233B72002387
S32D0000DBF87B724FF4D573FB6000233B7400237B6107F108031846FFF769FEF863FB6B002B09D1BA69FB689A4275
S32D0000DC2002D001237B64CCE2012387F84230012387F8283097F82830002B00F0A58037233B7200237B720023E2
S32D0000DC48FB6000233B7400237B6107F108031846FFF744FEF863FB6B002B02D001237B64ABE269233B7200233F
S32D0000DC707B720023FB6000233B7400237B6107F108031846FFF72EFE0346002B14BF01230023DBB2002B02D0AF
S32D0000DC9801237B6491E2BB6903F44013002B6FD00023FB630A2000F035FEFB6B0133FB6337233B7200237B7233
S32D0000DCC00023FB6000233B7400237B6107F108031846FFF707FE0346002B14BF01230023DBB2002B02D001234F
S32D0000DCE87B6428E069233B7200237B7297F84230002B02D0184BFB6002E04FF44013FB6000233B7400237B617E
S32D0000DD1007F108031846FFF7E5FD0346002B14BF01230023DBB2002B02D001237B6406E0BB69002B03DBFB6B18
S32D0000DD38632B00D8B6E77B6C002B40F03B82FB6B632B0BD9002387F8423019E0381700203C19002078830100F6
S32D0000DD6000003040012387F8433097F84230002B0AD0002387F84230BB6903F08043002B02D0012387F8423009
S32D0000DD8897F82A30002B02D07B6B07221A6097F82930002B02D07B6B08221A6097F82B30002B02D07B6B04229C
S32D0000DDB01A6097F84330002B09D07B6B02221A6097F84230002B02D07B6B03221A6097F82B30002B0DD097F83D
S32D0000DDD84330002B09D07B6B05221A6097F84230002B02D07B6B06221A60A04B00221A609E4B00225A609D4B65
S32D0000DE0000229A609B4B0022DA609A4B00221A61984B00225A61FB6A9A68FB6A5B6819461046FFF729FC934B17
S32D0000DE2840F243421A60914B40F243425A608F4B4FF488629A608D4B40F24342DA608B4B40F243421A61894BA8
S32D0000DE5040F243425A61884B03F5815310331B68854943F4003201F5815310331A60A8E1B86BFFF737FDF863DE
S32D0000DE78FB6B002B00F0A08102237B649CE1BB6B002B02D10C237B6497E17A4BDB6A1B0A5B0003F4FF73FB635E
S32D0000DEA0764BDB6A1B0903F00F035A1CFB6B02FB03F3FB63FB6A9A68FB6BB2FBF3F2BB6B1A607EE1BB6B002B49
S32D0000DEC802D10C237B6478E1BB6B1B68002B02D10C237B6471E1FFF7D9FC0346002B0CBF01230023DBB2002BE2
S32D0000DEF03ED0604B00221A605E4B00225A605D4B00229A605B4B0022DA605A4B00221A61584B00225A61FB6A3D
S32D0000DF189A68BB6B1B6819461046FFF7A9FB534B40F243421A60514B40F243425A604F4B4FF488629A604D4BAC
S32D0000DF4040F24342DA604B4B40F243421A61494B40F243425A61484B03F5815310331B68454943F4003201F5E2
S32D0000DF68815310331A6028E140F60A237B6424E1BB6B002B02D10C237B641EE13D4B5B68C3F30C02BB6B1A60CA
S32D0000DF9017E1BB6B002B02D10C237B6411E1FFF779FC0346002B0CBF01230023DBB2002B19D0BB6B1B68B3F564
S32D0000DFB8805F02D30C237B64FFE02E4B5B682D4A23F4FF5323F01F0353602A4B5A68BB6B1B68C3F30C03274981
S32D0000DFE013434B60EDE040F60A237B64E9E0BB6B002B02D10C237B64E3E0204B9B6A5B0803F00303FB63FB6BB5
S32D0000E008002B03D1BB6B00221A60D6E0FB6B012B03D1BB6B01221A60CFE0FB6B102B03D1BB6B02221A60C8E0BA
S32D0000E03005237B64C5E0BB6B002B02D10C237B64BFE0FFF727FC0346002B0CBF01230023DBB2002B37D0BB6BC1
S32D0000E0581B68002B10D1074B9B6A064A23F006039362044B034A9B6A9362A6E000D004400070044000100B4014
S32D0000E080BB6B1B68012B0CD1504B9B6A4F4A23F0060393624D4B9B6A4C4A43F0020393628FE0BB6B1B68022BD1
S32D0000E0A80AD1484B9B6A474A23F006039362454B444A9B6A936280E005237B647DE040F60A237B6479E0BB6B98
S32D0000E0D0002B02D10C237B6473E03C4BDB6A3B4A43F00063D362394BDB6A03F00063002B14BF01230023DBB2B6
S32D0000E0F8002B00D0F3E7334B1B6B03F08003002B14BF01230023DBB2002B08D02D4B1B6B2C4A43F08003136336
S32D0000E1207B6B00221A60294B5B6A03F48033002B14BF01230023DBB2002B07D07B6B1B68002B06D17B6B012224
S32D0000E1481A6002E07B6B00221A607B6B1A68BB6B1A6032E0BB6B1C221A60BB6B043304221A60BB6B08334FF432
S32D0000E1701E721A6025E00220FFF79EFB134B1B6B03F4E003002B14BF01230023DBB2002B07D00E4B1B6B0D4AF9
S32D0000E19843F4E003136304237B640A4B1B6B094A43F03203136308E040F609237B6404E000BF02E000BF00E06A
S32D0000E1C000BF7B6C18464837BD4680BD00100B4080B489B000AF786039607B687B61364B3B613B69002B01D109
S32D0000E1E800235FE03B691B68022B0BD03B691B68032B07D03B691B68072B03D03B691B68082B0BD12B4B5B6AAF
S32D0000E21003F00403002B14BF01230023DBB2002B00D0F3E73B68FB61FB69002B3DD0FB69B3F5007F28BF4FF4EF
S32D0000E2380073FB60FB6803339B08BB61BB69002B2AD01C4B1B6B03F4E003002B14BF01230023DBB2002B09D0AC
S32D0000E260164B1B6B154A43F4E00343F02003136300231BE0114B5B6A03F40063002B0CBF01230023DBB2002BD6
S32D0000E28800D0F3E70B497B691A1D7A610A6A1A60BB69013BBB61D1E7FA69FB68D31AFB61BEE7012318462437C1
S32D0000E2B0BD4680BC704700BF3817002000100B4080B58EB000AFB9607A601A460346FB731346BB73414B7B63A4
S32D0000E2D8FB7B002B02D1BB7B002B01D1042375E03D4B1B78DBB203F00103002B14BF01230023DBB2002B01D088
S32D0000E300032367E0BB68002B01D1002362E07B6B1B7B002B02D17B685B027B60BB7B012B28D111233B75002306
S32D0000E3287B757B68BB6101233B77BB7B3B6207F11403194641F20230FFF7CCFB0346002B0CBF01230023DBB28C
S32D0000E350002B38D04FF40071B868FFF739FF0346002B14BF01230023DBB2002B2BD00023BB7328E012233B75EB
S32D0000E37800237B757B68BB6101233B77BB7B3B6207F11403194641F20230FFF7A3FB0346002B0CBF01230023CF
S32D0000E3A0DBB2002B0FD0BB7B5B021946B868FFF70FFF0346002B14BF01230023DBB2002B01D00023BB73BB7B04
S32D0000E3C8002B01D0012300E0002300BF18463837BD4680BD241700200000002080B487B000AF786039607B684F
S32D0000E3F0FB603B687B617B69002B3DD07B69B3F5007F28BF4FF400733B617A693B69D31A7B613B6903339B08F8
S32D0000E4183B613B69002BEAD0184B1B6B03F4E003002B14BF01230023DBB2002B0AD0134B1B6B124A43F4E003BD
S32D0000E44043F0100313634FF0FF3316E00D4B5B6A03F48063002B0CBF01230023DBB2002B00D0F3E7FB681A1D5B
S32D0000E468FA60064A1B6813623B69013B3B61D0E7012318461C37BD4680BC704700100B4080B58EB000AFB96050
S32D0000E4907A601A460346FB731346BB735D4B7B63FB7B002B02D1BB7B002B01D10423ADE0594B1B78DBB203F04E
S32D0000E4B80103002B14BF01230023DBB2002B01D003239FE0524B1B78DBB203F00403002B14BF01230023DBB236
S32D0000E4E0002B01D0022391E0BB68002B01D100238CE07B6B1B7B002B02D17B685B027B60BB7B012B28D11823A2
S32D0000E5083B7500237B757B68BB6100233B77BB7B3B6207F11403194641F20230FFF7DAFA0346002B0CBF01237B
S32D0000E5300023DBB2002B38D04FF40071B868FFF751FF0346002B14BF01230023DBB2002B2BD00023BB7328E026
S32D0000E55819233B7500237B757B68BB6100233B77BB7B3B6207F11403194641F20230FFF7B1FA0346002B0CBF3C
S32D0000E58001230023DBB2002B0FD0BB7B5B021946B868FFF727FF0346002B14BF01230023DBB2002B01D0002327
S32D0000E5A8BB730D233B7500237B757B6B1B69BB6100233B7700233B6207F11403194641F20230FFF787FA034676
S32D0000E5D0002B14BF01230023DBB2002B01D0012314E07A6A0D4B1340002B01D001230DE07B6A03F4F853B3F5CC
S32D0000E5F8106F00D0D5E7BB7B002B01D0012300E0002300BF18463837BD4680BD24170020000000200880D9FFEA
S32D0000E62080B58CB000AF03463A60FB710B46BB713A4BBB62FB79002B01D0042369E0012387F82F30364B1B7848
S32D0000E648DBB203F00103002B14BF01230023DBB2002B01D0032358E0BB79032B50D801A252F823F07DE6000007
S32D0000E67085E6000095E60000A5E60000002387F82F3044E0BB6A9A683B681A60002387F82F303CE03B684FF49F
S32D0000E69800721A80002387F82F3034E009233B7200237B72BB6A1B69FB6000233B7400237B6107F10803194613
S32D0000E6C041F20230FFF70AFA0346002B14BF01230023DBB2002B01D001231AE07B6A03F44003002B0CD13B6ACC
S32D0000E6E89B0C03F07F035A1C7B6A1B0A03F00303013B9A403B681A60002387F82F3002E0042387F82F3097F8C5
S32D0000E7102F3018463037BD4680BD00BF241700200000002080B483B000AF0346FB71FB79002B01D0012302E0FC
S32D0000E738034B1B78DBB218460C37BD4680BC70470000002080B483B000AF7860174B03F5815318331B68154946
S32D0000E76043F0010201F5815318331A60124A7B689360114B05225A600F4B1B680E4A43F0010313600C4B1B689E
S32D0000E78803F08003002B0CBF01230023DBB2002B00D0F3E7064B1B68054A23F00103136000BF0C37BD4680BC60
S32D0000E7B0704700BF007004400000044080B582B000AF786039607B68012B07D13B684FF6FF72934202D1034813
S32D0000E7D800F00EF800BF0837BD4680BD4419002080B500AF4FF6FF710120FFF7E3FF80BD80B483B000AF7860A5
S32D0000E8007B6800221A707B6818460C37BD4680BC7047FFFF80B582B000AF78607B681B7883F00103DBB2002B50
S32D0000E82821D0134B03F5815308334FF400621A60104B4FF440721A620E4B4FF440725A620D4B1B68DA0F13445C
S32D0000E8505B104FF4614219460A48FEF7F1FB642000F05CF87B6801221A70012300E0002318460837BD4680BD5B
S32D0000E8780070044000D004404819002000B00E4080B487B000AFF860B9607A60FB681F4AA2FB03239B09BA6871
S32D0000E8A013447B61FB681B4AA2FB031292094FF47A7101FB02F29B1AFB60FB68DB03154AA2FB03239B097A68EB
S32D0000E8C813443B613B69DB0B7A6913447B613B69C3F30E033B610E4B1B687A699A4209D80B4B1B687A699A4274
S32D0000E8F006D1094B5B683A699A4201D9012300E00023002B00D0EAE700BF1C37BD4680BC704700BFD34D621067
S32D0000E91800D0034080B584B000AF7860074B1B68FB60064B5B68BB607B68BA68F9681846FFF7A6FF00BF10370A
S32D0000E940BD4680BD00D0034080B584B000AFC7E900010E4B1B68FB600C4B5B68BB604FF000020B4BD7E90001C9
S32D0000E96804F09AF902460B461046194604F056FC0346BA68F9681846FFF782FF00BF1037BD4680BD00D003406C
S32D0000E99000408F4080B483B000AF0B4B1B684FF47A7202FB03F37B60074B5B684FF47A7202FB03F3DB0B7A685F
S32D0000E9B813447B607B6818460C37BD4680BC704700D0034080B584B000AF78600B46FB700B23FB73FA7BFB7842
S32D0000E9E01946786800F094F87B6818461037BD4680BDFFFF80B485B000AF78607B68103B002B00DA1F335B11A7
S32D0000EA08FB60FB68022B53D0FB68022B75DCFB68002B03D0FB68012B25D06EE0394BD3F880217B68103B594205
S32D0000EA3003F01F0301F01F0158BF4B42012101FA03F332491343C1F88031304B1A687B68103B594203F01F03C5
S32D0000EA5801F01F0158BF4B42012101FA03F3294913430B6049E0274BD3F884217B68103B594203F01F0301F0BB
S32D0000EA801F0158BF4B42012101FA03F31F491343C1F884311D4B5A687B68103B594203F01F0301F01F0158BF35
S32D0000EAA84B42012101FA03F3164913434B6024E0144BD3F888217B68103B594203F01F0301F01F0158BF4B42D6
S32D0000EAD0012101FA03F30D491343C1F888310B4B9A687B68103B594203F01F0301F01F0158BF4B42012101FADF
S32D0000EAF803F3044913438B6000BF00BF1437BD4680BC704700E100E080B584B000AF78600B46FB701346BB70BC
S32D0000EB207B68FA781A70BB78FB737B681B781A46574B9B5C042B00F2A68001A252F823F055EB0000A1EB0000C5
S32D0000EB48EDEB000085EC000039EC0000FB7B1B0403F470234D497A68127810464C4A52F8202043F4897343F034
S32D0000EB70010341F82230494B5A697B681B781946454B53F8213003F01F03012101FA03F3DB43424913404B61C0
S32D0000EB986720FFF72BFF72E0FB7B1B0403F470233D497A6812781046394A52F8202043F4897343F0010341F83F
S32D0000EBC02230384B5A697B681B781946324B53F8213003F01F03012101FA03F3DB43314913404B616820FFF764
S32D0000EBE805FF4CE0FB7B1B0403F470232C497A6812781046264A52F8202043F4897343F0010341F82230274B18
S32D0000EC105A697B681B7819461F4B53F8213003F01F03012101FA03F3DB43204913404B616920FFF7DFFE26E028
S32D0000EC38FB7B1B0403F470231B497A6812781046134A52F8202043F4897343F0010341F82230164B5A697B6886
S32D0000EC601B7819460C4B53F8213003F01F03012101FA03F3DB430F4913404B616B20FFF7B9FE00E000BF00BF6E
S32D0000EC881037BD4680BD00BF8484010000900440C884010000F00F4000A0044040F00F4000B0044080F00F4099
S32D0000ECB000D0044000F10F4080B58AB000AF3B1D20220021184605F059FA0B237B600A23BB600723FB60062364
S32D0000ECD83B6105237B610423BB610123FB6100237B627B6A072B32DC1B4BD3F8A0207B6A9B0007F128010B44A5
S32D0000ED0053F8243C012101FA03F31340002B14BF01230023DBB2002B19D0124A7B6A52F823305A1C0F497B6A5D
S32D0000ED2841F823200C4BD3F8A0207B6A9B0007F128010B4453F8243C012101FA03F306491340C1F8A0307B6AA1
S32D0000ED5001337B62C9E700BF2837BD4680BD00BF00A0044074190020B0B489B000AF234B3C1D1D460FCD0FC401
S32D0000ED7895E8030084E803000023FB61FB69052B32DC1D4BD3F8A020FB699B0007F120010B4453F81C3C01213E
S32D0000EDA001FA03F31340002B14BF01230023DBB2002B19D0FB690833124A52F823200132104941F823200E4B32
S32D0000EDC8D3F8A020FB699B0007F120010B4453F81C3C012101FA03F307491340C1F8A030FB690133FB61C9E7A5
S32D0000EDF000BF2437BD46B0BC704700BFCC85010000B0044074190020B0B48DB000AF244B3C461D460FCD0FC4B0
S32D0000EE180FCD0FC495E8070084E807000023FB62FB6A0A2B32DC1D4BD3F8A020FB6A9B0007F130010B4453F848
S32D0000EE40303C012101FA03F31340002B14BF01230023DBB2002B19D0FB6A0E33124A52F823200132104941F898
S32D0000EE6823200E4BD3F8A020FB6A9B0007F130010B4453F8303C012101FA03F307491340C1F8A030FB6A01334E
S32D0000EE90FB62C9E700BF3437BD46B0BC704700BFE48501000090044074190020B0B487B000AF224B3C461D46B1
S32D0000EEB80FCD0FC42B68236000237B617B69042B32DC1D4BD3F8A0207B699B0007F118010B4453F8183C0121B4
S32D0000EEE001FA03F31340002B14BF01230023DBB2002B19D07B691933124A52F823200132104941F823200E4B60
S32D0000EF08D3F8A0207B699B0007F118010B4453F8183C012101FA03F307491340C1F8A0307B6901337B61C9E7EF
S32D0000EF3000BF1C37BD46B0BC704700BF1086010000D004407419002080B483B000AF78607B681B781946044B52
S32D0000EF58002243F8212000BF0C37BD4680BC70477419002080B483B000AF78600B46FB707B68FA781A707B68DC
S32D0000EF8018460C37BD4680BC7047FFFF80B586B000AF78607B681B781A46234B53F822303B617B681B781A4689
S32D0000EFA8204B9B5CFB733B69DBB203F01F03DAB21D4B1A723B69DBB203F01F03DAB21A4B5A72FB7B002B13D11D
S32D0000EFD01749184800F0CEF9164B1B6803F08003802B14BF01230023DBB2002B00D0F3E7104B1B697B6112E06E
S32D0000EFF80D490F4800F0BAF90D4B1B6803F08003802B14BF01230023DBB2002B00D0F3E7074B1B697B617B698D
S32D0000F02018461837BD4680BD48850100A48401006419002000B0034000B00B4098B500AF204B5C221A701F4B7A
S32D0000F04810225A701D4B41F234225A801B4B45F278629A80194B10229A71184B0722DA71164B4FF4C022DA600A
S32D0000F070144B1F221A72134B1F225A721149124800F078F90F49114800F074F90F4800F0D2F80D4800F0CFF89B
S32D0000F0980A490C4800F06AF90849094800F066F9094A064B14460FCB84E80F00064B5C221A70054B0422DA71F2
S32D0000F0C000BF98BD5419002000B0034000B00B406419002080B500AF064B1B680133054A136000F03DF8044BD4
S32D0000F0E80122C3F80C2100BF80BD00BFF81900200070034080B500AF0C4B01221A600C4800F01AF8094B0322A9
S32D0000F110C3F80821094BD3F88831084A43F01003C2F88831054B9B68044A43F01003936000BF80BD0070034081
S32D0000F138A086010000E100E080B483B000AF7860044A7B68C2F8003100BF0C37BD4680BC704700BF007003404D
S32D0000F16080B584B000AF174B1B68FB60FB68002B24D0FB685B78FB71FB689B68184600F023F80346BB71BB798D
S32D0000F188002B13D0FB685B68012B0FDDFB689B681B69BB60BB68002B08D0BB685B685A1CBB685A60BB681B6902
S32D0000F1B0BB60F3E7FB68DB68FB60D7E700BF1037BD4680BDF419002080B584B000AF78607868FFF7DBFEF86013
S32D0000F1D87B689B695B78FB72FB7A002B0FD17B68DB68FA689A420ADD7B689B6901225A707B685B685A1C7B6844
S32D0000F2005A60012313E0FB7A012B0FD17B689B68FA689A420ADA7B689B6900225A707B685B685A1C7B685A60FA
S32D0000F228012300E0002318461037BD4680BD80B485B000AF78607B681B6A23F040027B681A627B685B6A23F0E5
S32D0000F2500B027B685A627B685B6A43F007027B685A627B685B6A43F080027B685A627B681B6803F08003002B5E
S32D0000F2780CBF01230023DBB2002B00D0F3E77B685B6A03F04003402B0CBF01230023DBB2002B01D0012364E0A8
S32D0000F2A00023FB817B68DB6CFB817B689B6C9AB2FB891344FB817B685B6C9AB2FB891344FB817B681B6C9AB26B
S32D0000F2C8FB891344FB817B68DB6B9AB2FB891344FB817B689B6B9AB2FB891344FB81FB895B08FB81FB896FEA29
S32D0000F2F043436FEA5343FB81FA897B68DA620023FB817B68DB6EFB817B689B6E9AB2FB891344FB817B685B6EDB
S32D0000F3189AB2FB891344FB817B681B6E9AB2FB891344FB817B68DB6D9AB2FB891344FB817B689B6D9AB2FB898C
S32D0000F3401344FB81FB895B08FB81FB896FEA43436FEA5343FB81FA897B681A637B685B6A23F080027B685A62DC
S32D0000F368002318461437BD4680BC704780B483B000AF786039603B681B781A467B689A603B685B781A467B6802
S32D0000F390DA603B685B881A467B689A613B689B881A467B68DA613B689B791A467B681A623B68DB791A467B685D
S32D0000F3B85A623B68DA687B681A653B681B7A1A467B681A603B685B7A1A467B685A6000BF0C37BD4680BC7047C2
S32D0000F3E080B483B000AF78607B6818460C37BD4680BC704780B582B000AF786039607B68012B07D13B684FF641
S32D0000F408FF72934202D10348FFF7E6FF00BF0837BD4680BDFC19002080B500AF4FF6FF710120FFF7E3FF80BD55
S32D0000F43080B483B000AF78600B46FB707B68FA781A707B684FF4FA725A807B6840F6C4129A807B68034A9A6086
S32D0000F4587B6818460C37BD4680BC7047000080BF80B483B000AF786039603B68B3F5FA7F04DB3B6840F6C412F4
S32D0000F480934204DD7B684FF4FA725A8004E03B689AB27B685A8000BF00BF0C37BD4680BC704780B483B000AFDF
S32D0000F4A8786039603B68B3F5FA7F04DB3B6840F6C412934204DD7B6840F6C4129A8004E03B689AB27B689A80E4
S32D0000F4D000BF00BF0C37BD4680BC70472DE9904385B000AF786039604FF00001386804F0B5F90346002B02D051
S32D0000F4F84FF000033B603149386804F0C9F90346002B01D02D4B3B607B689B681946386804F096F90346002B05
S32D0000F52000D04AE07B683A689A607B685C887B689B881A467B685B88D31A184603F046FB4FF00002204B03F033
S32D0000F548D5FC02460B4690469946386803F04CFB02460B464046494603F09EFB02460B461046194603F05AFEC9
S32D0000F57003469BB22344FB81FB897B73FB891B123B737F211148FDF73AFE05210F48FDF736FE7B681B78194684
S32D0000F5980C48FDF730FE3B7B19460A48FDF72BFE7B7B19460748FDF726FEFF210548FDF722FE00BF1437BD4601
S32D0000F5C0BDE89083000034430080664000B00E4080B582B000AF7860B84B4FF48072DA60B74B4FF480729A6435
S32D0000F5E8B54B4FF480721A64B34B4FF480725A64B14B4FF48072DA60B04B5B69AF4A43F008035361AE4B5B697F
S32D0000F610AD4A43F480235361AB4B5B69AA4A43F480335361A84B5B69A74A43F400335361A54B1B68A44A43F0A1
S32D0000F63808031360A24B5B69A14A43F0080353619E4B1B689D4A43F0080313609A4B4FF480725A62984B4FF498
S32D0000F66080721A62954B4FF480721A61934B4FF480725A61914B4FF480729A618F4B4FF48072DA618D4B4FF43F
S32D0000F68880721A638B4B4FF480725A63894B4FF480729A63874B4FF48072DA63854B4FF480721A64834B4FF43F
S32D0000F6B080725A64814B4FF480729A647F4B4FF48072DA64814B4FF480721A607F4B4FF480729A607D4B4FF4C1
S32D0000F6D88072DA607B4B4FF480721A61784B5B69774A43F440735361744B5B69734A43F47F2343F0F003536189
S32D0000F700734B5B69724A43F01D035361E221786800F0A4FD1D21786800F046FE0221786800F042FE0421786898
S32D0000F72800F03EFEE021786800F094FD0121786800F036FE6420FFF7EDF8E021786800F089FD0321786800F055
S32D0000F7502BFE0121786800F081FD0120FFF7DEF8E621786800F07AFD0121786800F01CFEA021786800F018FE04
S32D0000F778FF21786800F014FEB021786800F06AFD1C21786800F00CFE0F21786800F008FE0121786800F004FE48
S32D0000F7A03F21786800F000FE0021786800F0FCFDEF21786800F0F8FD0021786800F0F4FDB421786800F04AFD80
S32D0000F7C80121786800F0ECFD9921786800F0E8FD0021786800F0E4FD4521786800F0E0FD0221786800F0DCFD18
S32D0000F7F00021786800F0D8FD0021786800F0D4FD0021786800F0D0FDB621786800F026FD0121786800F0C8FD24
S32D0000F8180921786800F0C4FD0021786800F0C0FD0E21786800F0BCFD0221786800F0B8FD0021786800F0B4FD57
S32D0000F8400021786800F0B0FDBA21786800F006FD0F21786800F0A8FD6420FFF75FF83A21786800F0FBFC602135
S32D0000F868786800F09DFD2A21786800F0F3FC0021786800F095FD0021786800F091FD0121786800F08DFD3F2120
S32D0000F890786800F089FD2B21786800F0DFFC0021786800F081FD0021786800F07DFD0021786800F079FDEF21AC
S32D0000F8B878680BE000B0044000A0044080F00F4040F00F4000C00440C0F00F4000F068FD3621786800F0BEFC08
S32D0000F8E00021786800F060FDF021786800F0B6FC0421786800F058FDB821786800F0AEFC0F21786800F050FD2F
S32D0000F9080121786800F04CFD314B1B68304A43F0080313606420FEF7FDFF3621786800F099FC0021786800F04A
S32D0000F9303BFDF021786800F091FC0421786800F033FD0121786800F0B9F91E226F21786800F082F8AF225621D8
S32D0000F958786800F0DBF80021786800F007FA012301221C49786800F028FA2921786800F071FC6420FEF7CEFF81
S32D0000F980BE21786800F06AFC0E21786800F00CFDF021786800F008FD0121786800F004FD0021786800F000FD75
S32D0000F9A80021786800F0FCFC0F21786800F0F8FC786800F025FA0121786800F0D7F90021786800F0ACF900BF4E
S32D0000F9D00837BD4680BD00BF40F00F402486010080B582B000AF78607B680022DA617B6801221A627B680E22DE
S32D0000F9F85A607B681A229A607B6800225A617B6800229A617B684FF4A072DA607B68F0221A617B6800221A70DD
S32D0000FA20786801F0F5F97B6818460837BD4680BD80B582B000AF7860064B1B78002B05D1044B01221A7078688A
S32D0000FA48FFF7C2FD00BF0837BD4680BD441A002080B58AB002AFF860B9607A607E23009362237A68B968F86898
S32D0000FA7000F089FE40F24E733B610023FB61FA693B699A4240DA0023BB61214AFB6913441B781A46BB69934295
S32D0000FA9832DAFB6901331C4AD35C002B06D1FF23FB75FF23BB75FF237B7512E0FB690133154AD35C012B06D1F4
S32D0000FAC0D423FB750023BB7526237B7505E0B523FB75BA23BB75B0237B757B7DBA7DF97DF86800F0C9F802462A
S32D0000FAE8FB68DA61F86801F08FF9F86801F0C8F8BB690133BB61C4E7FB690233FB61BAE700BF2037BD4680BD5D
S32D0000FB100400002080B58AB002AFF860B9607A602723009395237A68B968F86800F02BFE40F2E6333B6100231D
S32D0000FB38FB61FA693B699A4240DA0023BB61214AFB6913441B781A46BB69934232DAFB6901331C4AD35C002B91
S32D0000FB6006D1FF23FB75FF23BB75FF237B7512E0FB690133154AD35C012B06D10023FB750023BB7500237B7596
S32D0000FB8805E0D423FB750023BB7526237B757B7DBA7DF97DF86800F06BF80246FB68DA61F86801F031F9F8685E
S32D0000FBB001F06AF8BB690133BB61C4E7FB690233FB61BAE700BF2037BD4680BD5407002080B485B000AF78605E
S32D0000FBD80B46FB70FB78062B29D801A252F823F00DFC000005FC000013FC00001BFC000023FC000029FC00002A
S32D0000FC0031FC00006FF07F43FB6014E00023FB6011E04FF47F03FB600DE04FF47F43FB6009E0FF23FB6006E011
S32D0000FC284FF41903FB6002E0044BFB6000BFFB6818461437BD4680BC704700BF9999990080B584B000AF78602D
S32D0000FC5039603B681B0CFB733B681B0ABB733B687B737B7BBA7BF97B786800F005F8034618461037BD4680BD94
S32D0000FC7880B487B000AF7860084611461A460346FB700B46BB7013467B70FB789B107B61BB789B103B617B788C
S32D0000FCA09B10FB607B691A033B699B011A43FB68134318461C37BD4680BC704780B582B000AF78600B46FB7088
S32D0000FCC8FB7819467868FFF77FFF03461946786800F004F800BF0837BD4680BD80B582B000AF7860396039680E
S32D0000FCF07868FFF7A9FF02467B681A62786801F087F8786800F0E8FB00BF0837BD4680BD80B582B000AF786092
S32D0000FD18786800F0DDFB00BF0837BD4680BD80B582B000AF78600B46FB70FB7819467868FFF74AFF0346194694
S32D0000FD40786800F004F800BF0837BD4680BD80B582B000AF7860396039687868FFF774FF02467B681A62786893
S32D0000FD6801F052F800BF0837BD4680BD80B582B000AF78600B46FB70FB7819467868FFF723FF034619467868F8
S32D0000FD9000F004F800BF0837BD4680BD80B582B000AF7860396039687868FFF74DFF02467B68DA61786801F09A
S32D0000FDB82BF800BF0837BD4680BD80B586B000AFF860B9607A603B6000237B617B69BA6813441B78002B0FD0C3
S32D0000FDE07B69BA6813441B783A687968F86800F009FE7B680C337B607B6901337B61E9E700BF1837BD4680BD1C
S32D0000FE0880B582B000AF7860FDF7C2F867210120FDF72BF800210220FDF727F8A0210320FDF723F85021042092
S32D0000FE30FDF71FF820210520FDF71BF820210620FDF717F877210720FDF713F800210820FDF70FF80021092076
S32D0000FE58FDF70BF800210A20FDF707F804210B20FDF703F87B684FF0FF32DA637B684FF0FF321A6400BF0837A9
S32D0000FE80BD4680BDFFFFFFFF80B586B000AFF860B9607A600020FDF70EF80346FB75FB7D03F00203002B00F055
S32D0000FEA8CE80FDF721F8E020FCF7D2FF0220FEF731FDFDF727F80120FEF72CFDFDF714F8A520FCF7C5FF0120D9
S32D0000FED0FEF724FDFCF7E7FF03469BB21B02BB82FCF7E1FF03469AB2BB8A1343BB82FCF7DAFF03469BB21B0266
S32D0000FEF87B82FCF7D4FF03469AB27B8A13437B82BB8A1B11BB827B8A1B117B82FCF7FAFFFB68DB6BB3F1FF3FD9
S32D0000FF2034D1FB681B6CB3F1FF3F2FD1BA8AFB68DA637A8AFB681A647B8AC3F57F630F337B82BB8A184602F0A6
S32D0000FF4841FE49A3D3E9002302F0A6FE02460B461046194603F082F90246BB681A607B8A184602F02FFE42A3E3
S32D0000FF70D3E9002302F094FE02460B461046194603F070F902467B681A605AE0FB68DA6BBB8AD31A1946F868DE
S32D0000FF9800F074F80346632B0CDCFB681A6C7B8AD31A1946F86800F069F80346632B01DC012300E00023002B2F
S32D0000FFC02FD0BA8AFB68DA637A8AFB681A647B8AC3F57F630F337B82BB8A184602F0F6FD23A3D3E9002302F04E
S32D0000FFE85BFE02460B461046194603F037F90246BB681A607B8A184602F0E4FD1CA3D3E9002302F049FE0246E7
S32D000100100B461046194603F025F902467B681A600FE0BB68164A1A607B68154A1A60FB684FF0FF32DA63FB68EA
S32D000100384FF0FF321A64002310E001230EE0BB680D4A1A607B680C4A1A60FB684FF0FF32DA63FB684FF0FF32FC
S32D000100601A64002318461837BD4680BDAFF30080144001144001B43F1EE0011EE001AE3F000080BF80B483B093
S32D0001008800AF786039603B68002B02DA3B685B423B603B6818460C37BD4680BC704780B584B000AF78603960E1
S32D000100B00023FB60786800F0D2FAFB683A6813441B78002B12D07B6859697B689869FB683A6813441B7802464B
S32D000100D8786800F079FC786800F0D1FAFB680133FB60E6E700BF1037BD4680BD80B592B000AF786039604FF03E
S32D000101000001386803F0BEFB0346002B1FD0386803F0CCFB03467B64786C03F0ADF903461946386803F0F2F8FC
S32D0001012803461F49184603F0F7F90346184603F0B9FB03463B6407F10C003B6C7A6C194904F076FA22E03B6884
S32D0001015083F000433B60386803F0A8FB03467B64786C03F089F903461946386803F0CEF803460D49184603F087
S32D00010178D3F90346184603F095FB03463B6407F10C003B6C7A6C084904F052FA07F10C0319467868FFF783FF9A
S32D000101A000BF4837BD4680BD00007A44408601003486010080B582B000AF78600B46FB70786800F04CFA7B68CF
S32D000101C859697B689A69FB78786800F0FDFB786800F055FA00BF0837BD4680BD80B582B000AF78603960786861
S32D000101F000F035FA39687868FFF755FF786800F019FA00BF0837BD4680BD80B582B000AF78603960786800F07E
S32D0001021822FA39687868FFF769FF786800F006FA00BF0837BD4680BD80B582B000AF78600B46FB70786800F034
S32D000102400EFAFB7819467868FFF7B4FF786800F0F1F900BF0837BD4680BDFFFF80B483B000AF78600B46FB708C
S32D000102684D4B1B684C4A23F0080313604B4B1B684A4A23F480231360484B1B68474A43F480331360454B1B6834
S32D00010290444A23F440731360414B1B68404A23F4435323F0300313603E4B1A68FB785B0203F400733B49134356
S32D000102B80B603A4B1A68FB785B101B0203F48073364913430B60344B1A68FB789B101B0103F010033049134370
S32D000102E00B602F4B1A68FB78DB105B0103F020032B4913430B602A4B1A68FB781B119B0103F040032649134356
S32D000103080B60254B1A68FB785B11DB01DBB2224913430B60204B1A68FB789B111B0303F480531D4913430B60DA
S32D000103301B4B1A6897F90330DB115BB25B0303F40053174913430B60164B1B68154A23F400331360134B1B6850
S32D00010358124A43F4003313600F4B1B680E4A43F0080313600D4B1B680C4A43F440731360094B1B68084A43F469
S32D00010380435343F030031360064B1B68054A43F48023136000BF0C37BD4680BC704700BF80F00F4040F00F407A
S32D000103A880B483B000AF78600B46FB70464B1B68454A23F008031360444B1B68434A43F480331360414B1B683D
S32D000103D0404A43F4802313603E4B1B683D4A23F4407313603A4B1B68394A23F4435323F030031360374B1A6862
S32D000103F8FB785B0203F40073344913430B60334B1A68FB785B101B0203F480732F4913430B602D4B1A68FB78D3
S32D000104209B101B0103F01003294913430B60284B1A68FB78DB105B0103F02003244913430B60234B1A68FB7857
S32D000104481B119B0103F040031F4913430B601E4B1A68FB785B11DB01DBB21B4913430B60194B1A68FB789B1101
S32D000104701B0303F48053164913430B60144B1A6897F90330DB115BB25B0303F40053104913430B600F4B1B6819
S32D000104980E4A23F4003313600C4B1B680B4A43F400331360084B1B68074A43F008031360064B1B68054A23F402
S32D000104C08023136000BF0C37BD4680BC704700BF80F00F4040F00F4080B586B000AF78607B6800225A617B686D
S32D000104E800229A617B681B6AFB60FB68FB72FB681B0ABB72FB681B0CDBB203F003037B722A217868FFF7A6FEBE
S32D0001051000217868FFF748FF00217868FFF744FF01217868FFF740FF3F217868FFF73CFF2B217868FFF792FEEA
S32D0001053800217868FFF734FF00217868FFF730FF00217868FFF72CFFEF217868FFF728FF2C217868FFF77EFE76
S32D00010560314B1B68304A23F4407313602F4B1B682E4A23F47F2323F0F00313602C4B1B682B4A23F01D031360FA
S32D00010588274B1A687B681B6B254913430B60254B1A687B685B6B234913430B60224B1A687B689B6B2049134359
S32D000105B00B601E4B1B681D4A23F0080313601A4B1B68194A43F48023136000237B617B69EF2B19D800233B6188
S32D000105D83B69B3F5A07F0FD2114B1B68104A23F4003313600E4B1B680D4A43F4003313603B6901333B61EBE75C
S32D000106007B6901337B61E2E7084B1B68074A43F008031360044B1B68034A23F48023136000BF1837BD4680BD9C
S32D0001062840F00F4080F00F40C0F00F4080B483B000AF78607B689B69002B07DD7B685B695A1C7B685A617B68E4
S32D0001065000229A6100BF0C37BD4680BC704780B582B000AF78607B685A697B685B689A4205DB7B6800225A61B0
S32D000106787868FFF72DFF00BF0837BD4680BD80B582B000AF78607B689B695A1C7B689A617B689A697B689B681E
S32D000106A09A4205D17868FFF7C5FF7868FFF7D7FF00BF0837BD4680BD80B586B002AFF860B9607A6001230093D7
S32D000106C801237A68B968F86800F059F8F86800F0D7FA00BF1037BD4680BD80B485B000AF786039607B681B68E5
S32D000106F0FB603B681A687B681A603B68FA681A6000BF1437BD4680BC704780B586B002AFF860B9607A603B607D
S32D00010718BA683B681A447B68009313467A68B968F86800F0ABF8BA683B68D118BA683B68D0187A68BB69134412
S32D00010740009303467A68F86800F09CF8BA683B68D1187A68BB69D0187A68BB6913440093BB680246F86800F0A1
S32D000107688DF87A68BB691A447B680093BB68B968F86800F083F800BF1037BD4680BD80B588B000AFF860B96021
S32D000107907A603B60FB681B78022B03D0FB681B78032B11D17B68FB61BA6AFB691344013BBB61FB68DA68BB688B
S32D000107B8D31A3B613B683A69D31A01337B610DE0BB68FB613A68FB691344013BBB617B687B61BA6A7B69134407
S32D000107E0013B3B612A21F868FFF738FDFB691B0ADBB203F00F03DBB21946F868FFF7D4FDFB69DBB21946F8685E
S32D00010808FFF7CEFDBB691B0ADBB203F00F03DBB21946F868FFF7C4FDBB69DBB21946F868FFF7BEFD2B21F86855
S32D00010830FFF714FD7B691B0ADBB203F00F03DBB21946F868FFF7B0FD7B69DBB21946F868FFF7AAFD3B691B0A72
S32D00010858DBB203F00F03DBB21946F868FFF7A0FD3B69DBB21946F868FFF79AFD2C21F868FFF7F0FC00BF2037DE
S32D00010880BD4680BD90B58BB000AFF860B9607A603B603A68BB68D31A1946F868FFF7F2FBF861BA6B7B68D31A52
S32D000108A81946F868FFF7EAFBB861BA69FB699A42CCBF01230023FB75FB7D002B0CD03A1D07F10803114618463B
S32D000108D0FFF707FF3B4607F138011846FFF701FFBA683B689A420CDD3A4607F1080311461846FFF7F6FE3B1DF3
S32D000108F807F138011846FFF7F0FE3A68BB689A4206D1BB687A681946F868FFF7D1FE55E0BA6B7B68D31A1846D5
S32D0001092002F0AAFD04463A68BB68D31A184602F0A3FD03461946204602F0A6FE03463B617B68184602F098FDD2
S32D0001094803467B62BB683B623B683A6A9A4235DCFB7D002B14D0786A02F046F94FF00002184B01F0E3FF02460D
S32D000109700B461046194602F02DFC03463A6A1946F868FFF799FE13E0786A02F031F94FF000020E4B01F0CEFFB5
S32D0001099802460B461046194602F018FC03461A46396AF868FFF784FE3969786A02F0ACFC03467B623B6A01339B
S32D000109C03B62C5E72C37BD4690BD00BF0000E03F80B584B000AFF860B9607A60FB707A6813465B0013449B00D8
S32D000109E8991CBA6813461B011344DA1CFB78F86800F004F800BF1037BD4680BD80B58EB002AFF860B9607A60D3
S32D00010A10FB70FB780A2B06D1F868FFF720FEF868FFF708FEF2E0FB787D2B02D8FB781F2B01D82023FB70FB787F
S32D00010A38203BFB70112300930C237A68B968F868FFF79DFEFA7813469B0013446F4AD35C3B75FA7813469B0024
S32D00010A60134401336B4AD35C7B75FA7813469B0013440233674AD35CBB75FA7813469B0013440333634AD35C37
S32D00010A88FB75FA7813469B00134404335F4AD35C3B760023BB62BB6A062B00F3A180F86800F050F9F86800F0BF
S32D00010AB0B3F8002387F82F3000237B627B6A042B35DC07F114027B6A13441B7803F00103002B14BF012300232D
S32D00010AD8FB76FB7E002B11D097F82F3083F00103DBB2002B03D0F86800F0CAF802E0F86800F08EF8F86800F0EF
S32D00010B008BF80DE097F82F30002B03D0F86800F01DF902E0F86800F07FF8F86800F07CF8FB7E87F82F307B6A5B
S32D00010B2801337B62C6E797F82F30002B03D0F86800F008F902E0F86800F06AF8F86800F067F8002387F82F305F
S32D00010B5000233B623B6A042B42DC07F114023B6A13441B7803F00103002B14BF01230023BB76BB7E002B11D075
S32D00010B7897F82F3083F00103DBB2002B03D0F86800F07EF802E0F86800F042F8F86800F03FF80DE097F82F30CA
S32D00010BA0002B03D0F86800F0D1F802E0F86800F033F8F86800F030F8BB7E87F82F3007F114023B6A13441B7886
S32D00010BC85B10D9B207F114023B6A13440A461A703B6A01333B62B9E7BB6A0133BB625AE7F86800F0AFF800233D
S32D00010BF087F82F300123FB61FB69232B06DCF86800F00AF8FB690133FB61F5E73037BD4680BD00BF3C0B0020F5
S32D00010C1880B483B000AF7860174B1B68164A43F480331360154B1B68144A23F008031360114B1B68104A43F4DB
S32D00010C40802313600E4B1B680D4A23F4003313600B4B1B680A4A43F400331360094B1B68084A43F0080313609B
S32D00010C68054B1B68044A23F48023136000BF0C37BD4680BC704700BF40F00F4080F00F4080B483B000AF78602C
S32D00010C902B4B1B682A4A43F480331360294B1B68284A23F008031360254B1B68244A43F480231360224B1B68D3
S32D00010CB8214A23F440731360204B1B681F4A23F47F2323F0F00313601D4B1B681C4A23F01D031360184B1A6800
S32D00010CE07B685B6A164913430B60164B1A687B689B6A144913430B60134B1A687B68DB6A114913430B600E4BB8
S32D00010D081B680D4A23F4003313600B4B1B680A4A43F400331360094B1B68084A43F008031360054B1B68044A20
S32D00010D3023F48023136000BF0C37BD4680BC704740F00F4080F00F40C0F00F4080B483B000AF78602B4B1B684B
S32D00010D582A4A43F480331360294B1B68284A23F008031360254B1B68244A43F480231360224B1B68214A23F481
S32D00010D8040731360204B1B681F4A23F47F2323F0F00313601D4B1B681C4A23F01D031360184B1A687B681B6B50
S32D00010DA8164913430B60164B1A687B685B6B144913430B60134B1A687B689B6B114913430B600E4B1B680D4A3B
S32D00010DD023F4003313600B4B1B680A4A43F400331360094B1B68084A43F008031360054B1B68044A23F4802378
S32D00010DF8136000BF0C37BD4680BC704740F00F4080F00F40C0F00F4080B485B000AF78607B681B6AFB60FB680E
S32D00010E20FB72FB681B0ABB72FB681B0CDBB203F003037B727B6800225A627B6800229A627B680022DA627B689E
S32D00010E4800221A637B6800225A637B6800229A637B681A6BFB7A5B0203F400731A437B681A637B681A6BFB7ADA
S32D00010E705B101B0203F480731A437B681A637B685A6BFB7A9B101B0103F010031A437B685A637B685A6BFB7A20
S32D00010E98DB105B0103F020031A437B685A637B685A6BFB7A1B119B0103F040031A437B685A637B685A6BFB7A9C
S32D00010EC05B11DB01DBB21A437B685A637B685A6BFB7A9B111B0303F480531A437B685A637B685A6B97F90B3010
S32D00010EE8DB115BB25B0303F400531A437B685A637B685A6BBB7A9B0303F480431A437B685A637B685A6BBB7A2E
S32D00010F105B10DB039BB21A437B685A637B685A6BBB7A9B101B0403F480331A437B685A637B685A6BBB7ADB1009
S32D00010F385B0403F400331A437B685A637B685A6BBB7A1B119B0403F480231A437B685A637B685A6BBB7A5B117C
S32D00010F60DB0403F400231A437B685A637B689A6BBB7A9B1103F001031A437B689A637B689A6B97F90A30DB11D1
S32D00010F885BB29B0003F004031A437B689A637B689A6B7B7ADB0003F008031A437B689A637B689A6B7B7A5B1020
S32D00010FB01B0103F010031A437B689A637B68DB69FB60FB68FB72FB681B0ABB72FB681B0CDBB203F003037B72AF
S32D00010FD87B685A6AFB7A5B0203F400731A437B685A627B685A6AFB7A5B101B0203F480731A437B685A627B689E
S32D000110009A6AFB7A9B101B0103F010031A437B689A627B689A6AFB7ADB105B0103F020031A437B689A627B6867
S32D000110289A6AFB7A1B119B0103F040031A437B689A627B689A6AFB7A5B11DB01DBB21A437B689A627B689A6A92
S32D00011050FB7A9B111B0303F480531A437B689A627B689A6A97F90B30DB115BB25B0303F400531A437B689A629D
S32D000110787B689A6ABB7A9B0303F480431A437B689A627B689A6ABB7A5B10DB039BB21A437B689A627B689A6AC4
S32D000110A0BB7A9B101B0403F480331A437B689A627B689A6ABB7ADB105B0403F400331A437B689A627B689A6A89
S32D000110C8BB7A1B119B0403F480231A437B689A627B689A6ABB7A5B11DB0403F400231A437B689A627B68DA6A3F
S32D000110F0BB7A9B1103F001031A437B68DA627B68DA6A97F90A30DB115BB29B0003F004031A437B68DA627B689F
S32D00011118DA6A7B7ADB0003F008031A437B68DA627B68DA6A7B7A5B101B0103F010031A437B68DA6200BF1437EB
S32D00011140BD4680BC704780B483B000AF78607B6818460C37BD4680BC704780B584B000AFF860B9607A603B6024
S32D00011168FB682033B968184603F084FAFB687A681A60FB683A689A60FB68BA691A61FB68FA695A61FB681A688D
S32D00011190FB681B691A44FB685A60FB689A68FB685B691A44FB68DA60FB683A6A9A61FB687A6ADA61FB6800223E
S32D000111B8C3F8E82000BF1037BD4680BDF0B585B002AF78607B689B6919461F48FEF7E2FD7B6819687B689A68D2
S32D000111E07B6818697B685B69009303461848FFF78CFA7B68DB6919461548FEF7CFFD7B6803F120047B681B6818
S32D000112081D467B681B691E467B682033184603F093FA024613465B0013449B00F31A5B082B4418467B689A6865
S32D000112307B685B69113BD90F0B445B101344024621460348FEF7BDFD00BF0C37BD46F0BD001A002080B584B0A5
S32D0001125802AF78607B689B6919461F48FEF79AFD7B681B68591C7B689B685A1C7B681B69981E7B685B69023B6D
S32D00011280009303461648FFF740FA7B681B68991C7B689B689A1C7B681B69181F7B685B69043B009303460E4868
S32D000112A8FFF72FFA7B681B68D91C7B689B68DA1C7B681B69981F7B685B69063B009303460548FFF71EFA7B68A1
S32D000112D00122C3F8E82000BF0837BD4680BD00BF001A002080B584B002AF786000211F48FEF754FD7B681B68AC
S32D000112F8D91C7B689B68DA1C7B681B69981F7B685B69063B009303461648FFF7FAF97B681B68991C7B689B68CC
S32D000113209A1C7B681B69181F7B685B69043B009303460E48FFF7E9F97B681B68591C7B689B685A1C7B681B69BC
S32D00011348981E7B685B69023B009303460548FFF7D8F97B680022C3F8E82000BF0837BD4680BD00BF001A0020ED
S32D0001137080B584B000AFF860B9607A603B60FB681B68184602F078F80246BB681946104602F06EFA0346002BBC
S32D0001139800F08280FB685B68184602F069F80246BB681946104602F069FA0346002B73D0FB689B68184602F07B
S32D000113C05BF802467B681946104602F051FA0346002B65D0FB68DB68184602F04DF802467B681946104602F0D8
S32D000113E84DFA0346002B57D03A1D07F1080319462C48FEF745FDFB681B68184602F038F80246BB68194610460A
S32D0001141002F02EFA0346002B44D0FB685B68184602F02AF80246BB681946104602F02AFA0346002B00D135E0E3
S32D00011438FB689B68184602F01BF802467B681946104602F011FA0346002B00D126E0FB68DB68184602F00CF89A
S32D0001146002467B681946104602F00CFA0346002B00D117E03B68002B10D1FB68D3F8E830002B03D1F868FFF7FF
S32D00011488E5FE07E0FB68D3F8E830002B02D0F868FFF724FF012301E00023FFE718461037BD4680BD001A002082
S32D000114B080B586B000AFF860B9607A60BB687B617B683B6179693A690123F868FFF750FF0346002B14BF012371
S32D000114D80023DBB2002B08D007F1100207F1140319460448FEF7CCFCE8E700BF18461837BD4680BD001A0020FC
S32D00011500B0B592B004AFF860B9607A603B60FB6C7B633B683B63F86C01F058FB02460B464FF000004E4901F0EE
S32D0001152803FA02460B4614461D46386D01F04AFB02460B462046294601F0F6F902460B461046194601F08AFE51
S32D0001155003463B62386801F039FB02460B464FF00000404901F0E4F902460B4614461D46B86C01F02BFB0246B9
S32D000115780B462046294601F0D7F902460B461046194601F06BFE0346FB61786801F070FF03461946386A02F094
S32D000115A073F80346184602F081F90346BB61B86801F062FF03461946F86902F065F80346184602F073F9034621
S32D000115C87B6100237B620123BB62BA6ABB689A423DDC0123FB62FA6A7B689A422DDC7B6AEC2202FB03F3FA68A6
S32D000115F0D0187A6A13469B0013449B001A467B6D9918FB6D0393BB6D02937B690193BB6900933B6B7A6BFFF7B6
S32D00011618A0FD7B6AEC2202FB03F3FA6813441846FFF7CCFD7B6A01337B627A6BBB6913447B63FB6A0133FB6220
S32D00011640CDE73A6B7B6913443B63FB6C7B63BB6A0133BB62BDE700BF3837BD46B0BD00BF0000744000006E402B
S32D0001166880B582B000AF786039607B68012B07D13B684FF6FF72934202D10348FEF7ACF900BF0837BD4680BDC1
S32D00011690001A002080B500AF4FF6FF710120FFF7E3FF80BD80B582B000AF7860174B03F5815314331B681549DE
S32D000116B843F0400201F5815314331A60124B4FF400725A62104B4FF400721A620F4B14225A700E4B1B7ADBB2D4
S32D000116E00C4A43F00103DBB213720A4B80229A7002212B20FBF746FB3D212A20FBF742FB7B6818460837BD4640
S32D0001170880BD00BF0070044000C004400060064080B582B000AF786039607B68012B07D13B684FF6FF729342BC
S32D0001173002D10348FFF7B6FF00BF0837BD4680BD481A002080B500AF4FF6FF710120FFF7E3FF80BD80B582B0CB
S32D0001175800AF78600B46FB707B68FA7811461846FDF700FC7B6818460837BD4680BDFFFF80B582B000AF786079
S32D0001178039607B68012B08D13B684FF6FF72934203D120210348FFF7DDFF00BF0837BD4680BD00BF4C1A0020D6
S32D000117A880B500AF4FF6FF710120FFF7E1FF80BD80B483B000AF78607B6800221A707B6818460C37BD4680BC05
S32D000117D07047FFFF80B582B000AF78607B681B7883F00103DBB2002B54D07B6801221A702B4B03F58153143365
S32D000117F81B68294943F4806201F5815314331A60264B4FF400725A60244B4FF400729A60234B1B684FF416528F
S32D0001182019462248FBF70CFC204BDB78DBB21F4A23F00C03DBB2D3701C4BDB78DBB21B4A43F02003DBB2D3705E
S32D00011848184BDB7ADBB2174A23F02003DBB2D372154BD3F88431144A43F40053C2F88431114B5B68104A43F4DC
S32D00011870005353600D4BDB78DBB20C4A43F00C03DBB2D3706420FDF749F87B6801221A70012300E000231846D5
S32D000118980837BD4680BD00BF00700440009004404819002000A0064000E100E080B483B000AF78607B681B78CF
S32D000118C018460C37BD4680BC7047FFFF80B487B000AFF860B9607A60FB700023FB7400237B617A697B689A4261
S32D000118E82BD2194B1B78002B00D1FAE7BA687B691344164A12781A70134B00221A70BA687B6913441B780D2BFD
S32D0001191016D0FB7C83F00103DBB2002B0CD0BA687B6913441B78FA789A4202D10123FB7402E07B69013B7B61BE
S32D000119387B6901337B61D0E700BF7B6918461C37BD4680BC704700BF661A0020671A002080B586B000AFF86019
S32D00011960B9607A6000237B617A697B689A420BD2BA687B6913441B7819460648FBF73FFC7B6901337B61EFE753
S32D000119887B6918461837BD4680BD00BF00A0064080B483B000AF78603960044A3B68136000BF0C37BD4680BC8E
S32D000119B0704700BF501A002080B582B000AF3248FBF704FC0346FB71304AFB791370304B01221A702F4B1B782B
S32D000119D8022B33D0022B4FDC002B02D0012B14D04AE0FB79FF2B44D1284B01221A70284B00221A70264B1B782B
S32D00011A005A1CD1B2244A11701946244AFB79535433E0214B1B785A1CD1B21F4A117019461E4AFB7953541C4BA9
S32D00011A281B780D2B27D11C4B1B68194A1278114618489847154B02221A701CE0FB79FF2B10D1124B01221A70CC
S32D00011A50114B00221A70104B1B785A1CD1B20E4A117019460D4AFB79535409E00A4B00221A70084B00221A70E5
S32D00011A7802E000BF00E000BF00BF0837BD4680BD00A00640671A0020661A0020651A0020641A0020541A0020CF
S32D00011AA0501A002080B582B000AF78607B681846FFF782FE7B6811491846FFF76DFF7B684FF0FF325A600E4B85
S32D00011AC84FF000021A600D4B4FF000021A600C4B4FF000021A600B4B00221A600A4B00221A700A4B00221A701B
S32D00011AF07B6818460837BD4680BD00BF71260100741A0020781A00207C1A0020801A0020841A0020851A002063
S32D00011B1880B594B000AF786039607B681846FFF7C5FE034683F00103DBB2002B03D07B681846FFF74BFEAC4B49
S32D00011B401B7883F00103DBB2002B00F00B837B681846FFF73FFEA64B1B7883F00103DBB2002B00F0FF823B68FB
S32D00011B68002B02DA00233B6004E03B680B2B01DD0B233B607B683A685A609C48FEF7C4F800233B620023FB640F
S32D00011B90002387F84B3097F84B30002B66D196499448FEF780FA2B233B752B237B752B23BB757B6807F11401C9
S32D00011BB803221846FFF7CCFE3862786807F108014F230A22FFF77EFEF864FB6C012B02D93B7A4F2B42D0874955
S32D00011BE08448FEF7FFFA86498248FEF7FBFA40F6C410FCF793FE786807F1080130230A22FFF764FEF864FB6C90
S32D00011C08012B02D93B7A4F2B24D07C497748FEF7E5FA7B497548FEF742FA00237B647B6CFA6C9A420CD907F171
S32D00011C3008027B6C13441B7819466E48FEF7BAFA7B6C01337B64EEE76C496A48FEF7CAFA6E496848FEF7C6FAE1
S32D00011C5800BF06E0012387F84B3002E0012387F84B3094E768496148FEF719FA00233B643B6CFA6C9A420CD92D
S32D00011C8007F108023B6C13441B7819465948FEF791FA3B6C01333B64EEE758495548FEF7A1FA5C495348FEF7D0
S32D00011CA8FEF941233B7554237B754D23BB755923FB757B685B68002B00DA03339B10DBB23133DBB23B76312300
S32D00011CD07B763023BB767B685B685A4203F0030302F0030258BF5342DBB23033DBB2FB760D233B777B6807F1E7
S32D00011CF8140109221846FFF72BFE3862786807F108014F230A22FFF7DDFDF864FB6C012B02D93B7A4F2B04D04A
S32D00011D203D493448FEF75EFA1CE20023FB63FB6BFA6C9A420CD907F10802FB6B13441B7819462C48FEF736FAEF
S32D00011D48FB6B0133FB63EEE72A492848FEF746FA30492648FEF7A3F941233B7554237B754923BB754423FB7521
S32D00011D707B685B68002B00DA03339B10DBB23133DBB23B7630237B763023BB763023FB760D233B777B6807F140
S32D00011D98140109221846FFF7DBFD3862786807F108014F230A22FFF78DFDF864FB6C012B02D93B7A4F2B04D04A
S32D00011DC015490C48FEF70EFACCE10023BB63BB6BFA6C9A4224D907F10802BB6B13441B7819460448FEF7E6F961
S32D00011DE8BB6B0133BB63EEE7701A0020001A0020588601006C8601007086010088860100A0860100AC86010069
S32D00011E10BC860100C4860100D8860100F8860100B549B648FEF7DEF9B549B448FEF73BF941233B7554237B75D1
S32D00011E384423BB754C23FB757B685B68002B00DA03339B10DBB23133DBB23B7630237B763023BB767B685B68DC
S32D00011E605A4203F0030302F0030258BF5342DBB23033DBB2FB760D233B777B6807F1140109221846FFF768FD77
S32D00011E883862786807F108014F230A22FFF71AFDF864FB6C012B02D93B7A4F2B04D097499448FEF79BF959E1B9
S32D00011EB000237B637B6BFA6C9A420CD907F108027B6B13441B7819468C48FEF773F97B6B01337B63EEE78849F1
S32D00011ED88848FEF783F98A498648FEF7E0F841233B7554237B754423BB754823FB7530233B7630237B763023A4
S32D00011F00BB763023FB760D233B777B6807F1140109221846FFF720FD3862786807F108014F230A22FFF7D2FC72
S32D00011F28F864FB6C012B02D93B7A4F2B04D073497048FEF753F911E100233B633B6BFA6C9A420CD907F1080286
S32D00011F503B6B13441B7819466848FEF72BF93B6B01333B63EEE764496448FEF73BF967496248FEF798F8412398
S32D00011F783B7554237B754323BB754823FB7530233B7630237B763123BB764123FB760D233B777B6807F114013E
S32D00011FA009221846FFF7D8FC3862786807F108014F230A22FFF78AFCF864FB6C012B02D93B7A4F2B04D04F49C5
S32D00011FC84C48FEF70BF9C9E00023FB62FB6AFA6C9A420CD907F10802FB6A13441B7819464448FEF7E3F8FB6A37
S32D00011FF00133FB62EEE740494048FEF7F3F844493E48FEF750F841233B7554237B755723BB755223FB750D23E1
S32D000120183B767B6807F1140105221846FFF798FC3862786807F108014F230A22FFF74AFCF864FB6C012B02D9CA
S32D000120403B7A4F2B04D02F492C48FEF7CBF889E00023BB62BB6AFA6C9A420CD907F10802BB6A13441B78194665
S32D000120682448FEF7A3F8BB6A0133BB62EEE720492048FEF7B3F825491E48FEF710F841233B7554237B754323DF
S32D00012090BB754E23FB750D233B767B6807F1140105221846FFF758FC3862786807F108014F230A22FFF70AFC5B
S32D000120B8F864FB6C012B02D93B7A4F2B04D00F490C48FEF78BF849E000237B627B6AFA6C9A421DD907F10802C0
S32D000120E07B6A13441B7819460448FEF763F87B6A01337B62EEE700BF6C860100001A00200C870100D88601005D
S32D00012108248701003C870100548701006887010014491548FEF762F814491348FDF7BFFF786800F04BFA03469B
S32D0001213019460F48FEF77CF80F4B01221A70786800F04EFA0346002B0CBF01230023DBB2002B00D0F3E7094908
S32D000121580548FEF743F80448FDF7D6FD5037BD4680BD00BF6C860100001A002080870100701A0020A487010037
S32D0001218080B582B000AF78600B46FB70FB78402B09D9FB784C2B06D8FB78413B19467868FFF7BAFC0BE0FB78C6
S32D000121A8602B08D9FB786C2B05D8FB78613B19467868FFF7ADFC00BF0837BD4680BDFFFFB0B5ADF5446D06AF1F
S32D000121D03B1D18600123C7F8243C0023C7F8203C0023C7F81C3C07F5326300241D46002C05DB2846FEF7A7FF28
S32D000121F8EC35013CF7E707F60C33944A1C4615460FCD0FC42B68236007F56B7307241D46002C05DB2846FEF709
S32D0001222092FFEC35013CF7E707F543738A4A18461146A0231A4601F09BFE07F5087300241D46002C05DB284662
S32D00012248FEF77DFFEC35013CF7E707F503731A460023136053609360D360136107F1340301241D46002C05DB42
S32D000122702846FEF768FFEC35013CF7E707F10C03764A1C4615460FCD0FC40FCD0FC495E8030084E80300D7F899
S32D00012298243C002B00F082810023C7F8203C0023C7F81C3C00216C48FDF718FD07F532606FF07F4305930023D9
S32D000122C0049307F60C3303930123029301230193C9230093012301220121FFF711F907F56B706FF07F4305939D
S32D000122E86FF07F43049307F543730393012302930123019301230093282304220221FFF7FBF8D7F8203C002BCC
S32D0001231042D107F60C4207F5416319465048FDF7B3FD0346002BF0D00023C7F8183CD7F8183C072BE9DC07F585
S32D000123386B72D7F8183CEC2101FB03F3D018D7F8101CD7F80C2C0023FFF70EF80346002B14BF01230023DBB253
S32D00012360002B13D007F56B72D7F8183CEC2101FB03F31344D7F8101CD7F80C2C1846FFF797F8D7F8183C0133B2
S32D00012388C7F8203CD7F8183C0133C7F8183CCAE7D7F8203C013B072B78D801A252F823F0C9230100DD23010019
S32D000123B0F123010005240100192401002D2401004124010081240100412387F8173C07F50373244A07CA03C376
S32D000123D81A805BE0422387F8173C07F50373204A07CA03C31A8051E0432387F8173C07F503731C4A07CA03C3E5
S32D000124001A8047E0442387F8173C07F50373184A07CA03C31A803DE0452387F8173C07F50373144A07CA03C3F0
S32D000124281A8033E0462387F8173C07F50373104A07CA03C31A8029E0472387F8173C07F503730C4A07CA03C3FC
S32D000124501A801FE0688801007C8801001C890100001A00200888010014880100208801002C88010038880100A1
S32D000124784488010050880100482387F8173C07F503734C4A07CA03C31A8000BF00214A48FDF724FC07F508701F
S32D000124A06FF07F4305930023049307F5037303930123029301230193C92300933C2301220121FFF71DF807F1FB
S32D000124C834006FF07F4305936FF07F43049307F10C03039301230293012301933C2300933C2302220121FFF7A5
S32D000124F007F8D7F81C3C002B42D107F60C4207F5416319462E48FDF7BFFC0346002BF0D00023C7F8183CD7F8B1
S32D00012518183C012BE9DC07F13402D7F8183CEC2101FB03F3D018D7F8101CD7F80C2C0023FEF71AFF0346002B70
S32D0001254014BF01230023DBB2002B13D007F13402D7F8183CEC2101FB03F31344D7F8101CD7F80C2C1846FEF7BB
S32D00012568A3FFD7F8183C0133C7F81C3CD7F8183C0133C7F8183CCAE7D7F81C3C012B04D0D7F81C3C022B04D0CA
S32D0001259007E00023C7F8243C03E00123C7F8243C00BF78E697F8172C3B1D11461868FFF7E7FD00BF07F62847AA
S32D000125B8BD46B0BD5C880100001A002080B483B000AF78607B685B68DBB24133DBB218460C37BD4680BC7047AC
S32D000125E080B584B000AF7860FCF7D4F9F860114B1B7883F00103DBB2002B09D0FCF7CAF90246FB68D31AB3F5D7
S32D000126087A7F01D2012300E00023002B00D0EAE7064B1B78002B04D0044B00221A70FF2300E00023184610373C
S32D00012630BD4680BD861A002080B483B000AF7860034B1B6818460C37BD4680BC704700BF741A002080B483B051
S32D0001265800AF7860034B1B6818460C37BD4680BC704700BF781A002080B582B000AF78600B46FB70424B1B7829
S32D00012680002B7DD07B6801331B781B027A68023212781344184600F0EFFE03463B49184600F0F2FF03463A49E2
S32D000126A8184600F02FFE03461A46384B1A607B6803331B781B027A68043212781344184600F0D6FE03462F493D
S32D000126D0184600F0D9FF03462D49184600F016FE03461A462C4B1A607B6805331B781B027A6806321278134434
S32D000126F8184600F0BDFE03462249184600F0C0FF03462149184600F0FDFD03461A46214B1A607B6807331B78AF
S32D000127201A067B6808331B781B041A437B6809331B781B0213437A680A32127813431A46174B1A607B68DA7AA7
S32D00012748164B1A707B680C331B78AA2B0CBF01230023DAB2124B1A70124B01221A70104B1B78002B08D0104815
S32D0001277000F052F80F4B1B680E4A23F40053136000BF0837BD4680BD701A0020000020410000C844741A0020EB
S32D00012798781A00207C1A0020801A0020841A0020851A0020861A0020881A0020C0F00F4080B582B000AF786004
S32D000127C039607B68012B07D13B684FF6FF72934202D10348FFF766F900BF0837BD4680BD681A002080B500AF05
S32D000127E84FF6FF710120FFF7E3FF80BD80B483B000AF7860054B00221A60044B00225A607B6818460C37BD464B
S32D0001281080BC7047881A002080B584B000AF7860154B1B68002B21D00023FB60124B5B68FA689A4214DA114AD0
S32D00012838FB6852F82330002B0AD00E4AFB6852F823301846FAF7FFFE03461A460A4B1A70FB680133FB60E5E782
S32D00012860054B00225A60044B00221A60044B1B7818461037BD4680BD881A0020941A0020901A002080B582B0AA
S32D0001288800AF786039607B68012B07D13B684FF6FF72934202D10348FFF7A8FF00BF0837BD4680BD881A002031
S32D000128B080B500AF4FF6FF710120FFF7E3FF80BD80B483B000AF78600B4B03F5815310331B68094943F00102CC
S32D000128D801F5815310331A60064B5B68054A43F03203536000BF0C37BD4680BC704700BF0070044000000A4017
S32D0001290038B5084C4FF41E652846E56001F01CF8A06020B10023C0E90053606038BDE060606038BDFC1A002019
