S01200002E2E2F464548526F626F742E7331397E
S32D0000C000000000205DC2000011C3000017C300001DC3000023C3000029C3000000000000000000000000000073
S32D0000C028000000002FC3000035C30000000000003BC3000041C3000011CD00001DCD000029CD000035CD00003E
S32D0000C05041CD00004DCD000059CD000065CD000071CD00007DCD000089CD000095CD0000A1CD0000ADCD00001A
S32D0000C078B9CD0000C5CD0000D1CD0000DDCD0000E9CD0000F5CD000001CE00000DCE000019CE000025CE00003E
S32D0000C0A031CE00003DCE000049CE000055CE000061CE00006DCE000079CE000085CE000091CE00009DCE000060
S32D0000C0C8A9CE0000B5CE0000C1CE0000CDCE0000D9CE0000E5CE0000F1CE0000FDCE000009CF000015CF000086
S32D0000C0F021CF0000AD1001002DCF000039CF000045CF000051CF00005DCF000069CF000075CF000081CF000044
S32D0000C1188DCF000099CF0000A5CF0000B1CF0000BDCF0000C9CF0000D5CF0000E1CF0000EDCF0000F9CF000045
S32D0000C14005D0000011D000001DD0000029D00000BDF6000035D0000041D000004DD0000059D0000065D00000F1
S32D0000C16871D000007DD0000089D0000095D00000A1D00000ADD00000B9D00000C5D00000D1D00000DDD0000003
S32D0000C190E9D00000F5D0000001D1000015F40000C5F2000075F300008DCA0000B9F400000DD1000019D100003D
S32D0000C1B825D1000058590100000000205C150000585901000000FF1F000000005C150020880400000000FF1F15
S32D0000C1E00000000080B489B000AFF860B9607A60BB68FB61FB68BB6100237B617A697B689A420BD2BA69131DFB
S32D0000C208BB61FB69191DF96112681A607B6904337B61EFE700BF2437BD4680BC704780B485B000AF786039609E
S32D0000C2307B68FB600023BB60BA683B689A4208D2FB681A1DFA6000221A60BB680433BB60F2E700BF1437BD46FE
S32D0000C25880BC704780B586B000AF72B6234B4CF220521A80214B4DF628121A80204B4FF4E9721A801F4B7B615F
S32D0000C2807B691F4A934214D27B691A1D7A611B683B617B691A1D7A611B68FB607B691A1D7A611B68BB60BA68E9
S32D0000C2A8F9683869FFF79AFFE6E77B69134A93420ED27B691A1D7A611B68FB607B691A1D7A611B68BB60B9688B
S32D0000C2D0F868FFF7A8FFECE70B4B7B600B4A7B681A6008F0A5F962B600F096FC00F05EFBFEE700BF0E200540FD
S32D0000C2F800200540BCC10000D4C10000E4C1000008ED00E000C0000080B400AFFEE780B400AFFEE780B400AFF4
S32D0000C320FEE780B400AFFEE780B400AFFEE780B400AFFEE780B400AFFEE780B400AFFEE780B400AFFEE780B426
S32D0000C34800AFFEE7FFFFFFFFFFFFFFFFFFFFFFFFFFFFFFFFFFFFFFFFFFFFFFFFFFFFFFFFFFFFFFFFFFFFFFFF57
S32D0000C370FFFFFFFFFFFFFFFFFFFFFFFFFFFFFFFFFFFFFFFFFFFFFFFFFFFFFFFFFFFFFFFFFFFFFFFFFFFFFFFFC7
S32D0000C398FFFFFFFFFFFFFFFFFFFFFFFFFFFFFFFFFFFFFFFFFFFFFFFFFFFFFFFFFFFFFFFFFFFFFFFFFFFFFFFF9F
S32D0000C3C0FFFFFFFFFFFFFFFFFFFFFFFFFFFFFFFFFFFFFFFFFFFFFFFFFFFFFFFFFFFFFFFFFFFFFFFFFFFFFFFF77
S32D0000C3E8FFFFFFFFFFFFFFFFFFFFFFFFFFFFFFFFFFFFFFFFFFFFFFFFFFFFFFFFFFFFFFFFFFFFFFFFFEFFFFFF50
S32D0000C41010B5054C237833B9044B13B10448AFF300800123237010BD5C150020000000005859010008B5034B0E
S32D0000C4381BB103490348AFF3008008BD00000000601500205859010080B582B000AF7860786805F0D3F803466E
S32D0000C46018460837BD4680BD80B500AF054800F09DFE054800F09AFE044800F097FE00BF80BD00BF7815002007
S32D0000C488801500208815002080B582B000AF78600C49786808F098F80346002B01D0094B0BE04FF000017868C5
S32D0000C4B008F070F80346002B02D04FF0000300E07B6818460837BD4680BD00BF0000C84280B588B000AFF86099
S32D0000C4D8B9607A60F86807F023FA3FA3D3E9002307F076FA02460B46104619463CA3D3E9002307F097FB0246CA
S32D0000C5000B46104619464FF00002394B07F064FA02460B461046194607F040FD0346FB61B86807F001FA2EA3E3
S32D0000C528D3E9002307F054FA02460B46104619462BA3D3E9002307F075FB02460B46104619464FF00002284B5D
S32D0000C55007F042FA02460B461046194607F01EFD0346BB61786807F0DFF91DA3D3E9002307F032FA02460B46BB
S32D0000C578104619461AA3D3E9002307F053FB02460B46104619464FF00002174B07F020FA02460B4610461946AF
S32D0000C5A007F0FCFC03467B61F869FFF771FFF861B869FFF76DFFB8617869FFF769FF7861F9690C4800F034FEAD
S32D0000C5C8B9690B4800F030FE79690A4800F02CFE00BF2037BD4680BDFB2BED663D192340C7478B3346916D408C
S32D0000C5F0000059407815002080150020881500202DE9B04F8AB000AF78613961FA60BB60F86807F089F9CAA339
S32D0000C618D3E9002307F026F802460B461046194604F094FF02460B46924683F0004BF868FFF70AFF03461846F6
S32D0000C64007F072F902460B465046594607F0C4F902460B4692469B46786907F065F902460B465046594607F09B
S32D0000C668B7F902460B46C7E90023F86807F058F9B1A3D3E9002306F0F5FF02460B461046194604F00DFF8246AD
S32D0000C6908B46F868FFF7DCFE0346184607F044F902460B465046594607F096F902460B4692469B46386907F062
S32D0000C6B837F902460B465046594607F089F902460B46D7E9000106F0CDFF02460B4692469B46B86807F024F93B
S32D0000C6E099A3D3E9002307F077F902460B465046594606F0BBFF02460B461046194694A3D3E9002307F092FA45
S32D0000C70802460B461046194607F044FC03467B62F86807F005F98EA3D3E9002306F0A2FF02460B46104619460E
S32D0000C73004F010FF02460B46904683F00049F868FFF786FE0346184607F0EEF802460B464046494607F040F971
S32D0000C75802460B4690469946786907F0E1F802460B464046494607F033F902460B4692469B46F86807F0D4F86E
S32D0000C78075A3D3E9002306F071FF02460B461046194604F089FE80468946F868FFF758FE0346184607F0C0F8CE
S32D0000C7A802460B464046494607F012F902460B4690469946386907F0B3F802460B464046494607F005F9024637
S32D0000C7D00B465046594606F049FF02460B4690469946B86807F0A0F857A3D3E9002307F0F3F802460B464046A0
S32D0000C7F8494606F037FF02460B461046194652A3D3E9002307F00EFA02460B461046194607F0C0FB03463B6251
S32D0000C820F86807F081F84EA3D3E9002306F01EFF02460B461046194604F08CFE02460B46144683F00045F86860
S32D0000C848FFF702FE0346184607F06AF802460B462046294607F0BCF802460B4614461D46786907F05DF80246E8
S32D0000C8700B462046294607F0AFF802460B4690469946F86807F050F835A3D3E9002306F0EDFE02460B46104662
S32D0000C898194604F005FE04460D46F868FFF7D4FD0346184607F03CF802460B462046294607F08EF802460B4602
S32D0000C8C014461D46386907F02FF802460B462046294607F081F802460B464046494606F0C5FE02460B46144696
S32D0000C8E81D46B86807F01CF815A3D3E9002307F06FF802460B462046294606F0B3FE02460B461046194610A389
S32D0000C910D3E9002307F08AF902460B461046194607F03CFB0346FB61FA69396A786AFFF7CFFD00BF2837BD46B4
S32D0000C938BDE8B08FAFF3008065732D3852C1E03FEA3E00A94D9CBC3FB81E85EB51B89E3F3FD038C6A6F1044093
S32D0000C960D221337F7CD9124080B582B000AF786039604FF000033A6879684FF00000FFF73FFE00BF0837BD469E
S32D0000C98880BD80B582B000AF786039604FF000033A684FF000017868FFF72EFE00BF0837BD4680BD80B500AF75
S32D0000C9B04FF000011048FFF7D7FF4FF000000F4902F0E4FA4FF000010D48FFF7CDFF4FF000000A4902F0DAFADF
S32D0000C9D84FF000010948FFF7D4FF4FF000004FF0804102F0CFFAFFF73BFD0023184680BDF6285C3E00000840F1
S32D0000CA00F6285CBE9A99993E80B582B000AF786039607B68012B1FD13B684FF6FF7293421AD10F4A00210F4856
S32D0000CA2800F082FB0C4A01210D4800F07DFB0A4A02210C4800F078FB00210B4802F0C8FA01210A4802F0C4FAC4
S32D0000CA500221094802F0C0FA00BF0837BD4680BD0000104178150020801500208815002090150020941500205C
S32D0000CA789815002080B500AF4FF6FF710120FFF7BFFF80BD80B500AF0F4BD3F8A03003F48053002B14BF012353
S32D0000CAA00023DBB2002B10D0094BD3F8A030084A23F48053C2F8A030064804F06DFC064B1B68054A23F40053C0
S32D0000CAC8136000BF80BD00BF00C0044000190020C0F00F4080B400AF124B4FF480725A63114B5B69104A43F4F3
S32D0000CAF0005353610E4B1B680D4A43F4005313600A4B0C4A1A630C4BD3F888310A4A43F08063C2F88831084BAE
S32D0000CB189B68074A43F08063936000BFBD4680BC704700BF00C00440C0F00F4003010A0000E100E080B400AF69
S32D0000CB40324B00225A70314B98221A702F4B9B79DBB203F01003002B14BF01230023DBB2002B00D0F2E7294B63
S32D0000CB689B79DBB29B0803F00303022B14BF01230023DBB2002B00D0F1E7224B18221A71204B00225A71204BC6
S32D0000CB9003F5825304331F4A1A601C4B54225A711A4B9B79DBB203F02003002B0CBF01230023DBB2002B00D007
S32D0000CBB8F2E7144B9B79DBB203F04003002B0CBF01230023DBB2002B00D0F2E70D4B1B78DBB20C4A03F03F039F
S32D0000CBE0DBB21370094B9B79DBB29B0803F00303032B14BF01230023DBB2002B00D0F1E700231846BD4680BC1E
S32D0000CC08704700BF00400640007004400000130180B500AF344B03F5815318331B68324943F4785201F58153F7
S32D0000CC3018331A60FFF752FFFFF780FF2D4B58221A602C4B1B684FF47A7202FB03F32A4A1360294B1B681A468F
S32D0000CC58254B03F5825304331B681B0E03F00F030133B2FBF3F31A46224B1A601E4B03F581531C331B681C490F
S32D0000CC8043F0225201F581531C331A60184B03F5815310331B68164943F0006201F5815310331A60164B4FF438
S32D0000CCA880721A61642002F041F8134B5B69124A23F010035361104B00221A600E4B10225A610E4803F0D2F89A
S32D0000CCD002F0A8FC02F006FD0B4802F08FF80B4804F0AEFB4FF4FA6002F03AF900BF80BD00700440C417002082
S32D0000CCF8C0170020C817002000D0034078180020BC1700207019002080B500AFFFF717FB00BF80BD80B500AFED
S32D0000CD20FFF711FB00BF80BD80B500AFFFF70BFB00BF80BD80B500AFFFF705FB00BF80BD80B500AFFFF7FFFA62
S32D0000CD4800BF80BD80B500AFFFF7F9FA00BF80BD80B500AFFFF7F3FA00BF80BD80B500AFFFF7EDFA00BF80BD78
S32D0000CD7080B500AFFFF7E7FA00BF80BD80B500AFFFF7E1FA00BF80BD80B500AFFFF7DBFA00BF80BD80B500AF9E
S32D0000CD98FFF7D5FA00BF80BD80B500AFFFF7CFFA00BF80BD80B500AFFFF7C9FA00BF80BD80B500AFFFF7C3FADD
S32D0000CDC000BF80BD80B500AFFFF7BDFA00BF80BD80B500AFFFF7B7FA00BF80BD80B500AFFFF7B1FA00BF80BDB4
S32D0000CDE880B500AFFFF7ABFA00BF80BD80B500AFFFF7A5FA00BF80BD80B500AFFFF79FFA00BF80BD80B500AFDA
S32D0000CE10FFF799FA00BF80BD80B500AFFFF793FA00BF80BD80B500AFFFF78DFA00BF80BD80B500AFFFF787FA54
S32D0000CE3800BF80BD80B500AFFFF781FA00BF80BD80B500AFFFF77BFA00BF80BD80B500AFFFF775FA00BF80BDEF
S32D0000CE6080B500AFFFF76FFA00BF80BD80B500AFFFF769FA00BF80BD80B500AFFFF763FA00BF80BD80B500AF15
S32D0000CE88FFF75DFA00BF80BD80B500AFFFF757FA00BF80BD80B500AFFFF751FA00BF80BD80B500AFFFF74BFACC
S32D0000CEB000BF80BD80B500AFFFF745FA00BF80BD80B500AFFFF73FFA00BF80BD80B500AFFFF739FA00BF80BD2B
S32D0000CED880B500AFFFF733FA00BF80BD80B500AFFFF72DFA00BF80BD80B500AFFFF727FA00BF80BD80B500AF51
S32D0000CF00FFF721FA00BF80BD80B500AFFFF71BFA00BF80BD80B500AFFFF715FA00BF80BD80B500AFFFF70FFA43
S32D0000CF2800BF80BD80B500AFFFF709FA00BF80BD80B500AFFFF703FA00BF80BD80B500AFFFF7FDF900BF80BD67
S32D0000CF5080B500AFFFF7F7F900BF80BD80B500AFFFF7F1F900BF80BD80B500AFFFF7EBF900BF80BD80B500AF8F
S32D0000CF78FFF7E5F900BF80BD80B500AFFFF7DFF900BF80BD80B500AFFFF7D9F900BF80BD80B500AFFFF7D3F9BF
S32D0000CFA000BF80BD80B500AFFFF7CDF900BF80BD80B500AFFFF7C7F900BF80BD80B500AFFFF7C1F900BF80BDA5
S32D0000CFC880B500AFFFF7BBF900BF80BD80B500AFFFF7B5F900BF80BD80B500AFFFF7AFF900BF80BD80B500AFCB
S32D0000CFF0FFF7A9F900BF80BD80B500AFFFF7A3F900BF80BD80B500AFFFF79DF900BF80BD80B500AFFFF797F937
S32D0000D01800BF80BD80B500AFFFF791F900BF80BD80B500AFFFF78BF900BF80BD80B500AFFFF785F900BF80BDE0
S32D0000D04080B500AFFFF77FF900BF80BD80B500AFFFF779F900BF80BD80B500AFFFF773F900BF80BD80B500AF06
S32D0000D068FFF76DF900BF80BD80B500AFFFF767F900BF80BD80B500AFFFF761F900BF80BD80B500AFFFF75BF9AE
S32D0000D09000BF80BD80B500AFFFF755F900BF80BD80B500AFFFF74FF900BF80BD80B500AFFFF749F900BF80BD1C
S32D0000D0B880B500AFFFF743F900BF80BD80B500AFFFF73DF900BF80BD80B500AFFFF737F900BF80BD80B500AF42
S32D0000D0E0FFF731F900BF80BD80B500AFFFF72BF900BF80BD80B500AFFFF725F900BF80BD80B500AFFFF71FF926
S32D0000D10800BF80BD80B500AFFFF719F900BF80BD80B500AFFFF713F900BF80BD80B500AFFFF70DF900BF80BD57
S32D0000D13080B584B000AFF8600B467A60FB72FB68FA7A1A71FB6800225A711749786807F03FFA0346002B02D061
S32D0000D158134B7B600AE04FF07E51786807F020FA0346002B02D04FF07E537B60786806F0D7FB09A3D3E9002323
S32D0000D18006F02AFC02460B461046194606F006FF0246FB681A60FB6818461037BD4680BDABAAAAAAAAAA204052
S32D0000D1A80000404180B582B000AF78607B685B79002B09D07B6800225A717B6819791E230022034801F050FEFD
S32D0000D1D000BF0837BD4680BDBC17002080B584B000AF786039603B687F2B02DD7F23FB7308E03B6813F1800F1D
S32D0000D1F802DA8023FB7301E03B68FB737B685B79FA7B9A4209D07B68FA7B5A717B681979FA7B1E23034801F0BF
S32D0000D22027FE00BF1037BD4680BD00BFBC170020B0B584B000AF786039603749386807F0A9F90346002B02D00B
S32D0000D248334B3B6008E03349386807F0BDF90346002B01D02F4B3B60386806F061FB04460D467B681B68184641
S32D0000D27006F05AFB4FF00002294B06F0D7FC02460B462046294606F0A7FB02460B461046194606F083FE0346B3
S32D0000D2983B604FF00001386807F08CF90346002B10D0386806F03CFB17A3D3E9002306F08FFB02460B46104648
S32D0000D2C0194606F023FE0346FB6018E0386806F02BFB4FF00002134B06F07EFB02460B46104619464FF00002D5
S32D0000D2E80D4B06F09FFC02460B461046194606F009FE0346FB60F9687868FFF76BFF00BF1037BD46B0BD00BF6A
S32D0000D31052B81E85EB51F43F0000C8C20000C842000059400000604080B483B000AF03460A46FB711346BB7166
S32D0000D338BB79002B03D1134B00221A7002E0114B01221A703823FB710E4B1A78FB791343FB710D4B9B78DBB2BF
S32D0000D3600B4A43F01003DBB29370094B9B78DBB2074A43F02003DBB29370054AFB79137100BF0C37BD4680BCC1
S32D0000D388704700BF991500200060064080B483B000AF01237B607B68312B04DC00BF7B6801337B60F7E700BF0B
S32D0000D3B00C37BD4680BC704780B582B000AF03460A46FB711346BB71134B1B7800211846FFF7AAFF00F024F85B
S32D0000D3D8104AFB79137100F01FF80E4ABB79137100F01AF80B4B9B78DBB20A4A23F02003DBB29370074B9B7847
S32D0000D400DBB2064A23F01003DBB29370FFF7C2FF00BF0837BD4680BD9A1500200060064080B483B000AF174B89
S32D0000D4281B78002B24D100237B60154BDB78DBB203F00203002B0CBF01230023DBB2002B0DD07B6842F2107282
S32D0000D450934203DD0B4B01221A7004E07B6801337B6000BFE5E7084BDB78DBB2064A43F00203DBB2D37000E02A
S32D0000D47800BF0C37BD4680BC704700BF9B1500200060064080B582B000AF0346FB71FB79184600F03BF800BFDA
S32D0000D4A00837BD4680BD80B582B000AF03460A46FB711346BB7100F011F8FB795B00DBB21846FFF7E3FFBB7980
S32D0000D4C81846FFF7DFFF00F013F800BF0837BD4680BDFFFF80B400AF044B9B68034A43F48013936000BFBD46CC
S32D0000D4F080BC704740F00F4080B400AF044B5B68034A43F48013536000BFBD4680BC704740F00F4080B485B040
S32D0000D51800AF0346FB710023BB73164BDB6A03F00043012B0CBF01230023DBB2002B03D0FB7B0133FB73F0E79C
S32D0000D5400E4BDB6A0D4A43F00043D3620B4AFB7953630A4BDB6A03F40033002B0CBF01230023DBB2002B00D015
S32D0000D568F3E7044B9B6BBB73BB7B18461437BD4680BC704700C00A4080B582B000AF224B03F5815310331B6844
S32D0000D5901F4943F4805201F5815310331A601D4B4FF480721A651C4B5B691B4A43F480135361FFF7A1FF174B53
S32D0000D5B84FF400725A65154B4FF400729A65134B4FF40072DA65134B134A1A60114B134ADA6000237B607B6862
S32D0000D5E0092B06DCFF20FFF751FF7B6801337B60F5E705A1D1E9000101F0C8FC00BF0837BD4680BDAFF300805E
S32D0000D6089A9999999999B93F0070044000A0044040F00F4000C00A40000C00800500003E90B486B000AFF860F4
S32D0000D630B9607A60FB68594A93420CD1584B03F5815314331B68564943F4806201F5815314331A604FE0FB6813
S32D0000D658524A93420CD1504B03F5815314331B684D4943F4006201F5815314331A603EE0FB684B4A93420CD1A3
S32D0000D680474B03F5815314331B68454943F4805201F5815314331A602DE0FB68434A93420CD13F4B03F581532D
S32D0000D6A814331B683C4943F4005201F5815314331A601CE0FB683C4A93420CD1364B03F5815308331B683449D2
S32D0000D6D043F4806201F5815308331A600BE0304B03F5815308331B682D4943F4006201F5815308331A60FB68B3
S32D0000D6F8DB78DBB223F00C03DAB2FB68DA70FB6800229A70BB684FF47A7202FB03F27B681B0192FBF3F39CB236
S32D0000D720FB681B78DBB223F01F03FB7523461B12DBB203F01F03DAB2FB7D1343DAB2FB681A70E2B2FB685A70E7
S32D0000D748BB684FF4FA4202FB03F27B681B0192FBF3F39AB263019BB2D31A9CB2FB689B7ADBB223F01F03FB75CB
S32D0000D770E3B203F01F03DAB2FB7D1343DAB2FB689A72FB68DB78DBB243F00C03DAB2FB68DA7000BF1837BD46BD
S32D0000D79890BC704700A006400070044000B0064000C0064000D0064000A00E4080B483B000AF78607B681B7961
S32D0000D7C0DBB203F02003002B0CBF01230023DBB2002B00D0F2E77B68DB79DBB218460C37BD4680BC704780B46B
S32D0000D7E883B000AF78600B46FB707B681B79DBB25BB2DB43DBB2DB09DBB2002B00D0F4E77B68FA78DA7100BF3B
S32D0000D8100C37BD4680BC704780B487B000AFF860B9607A60FB687B617B685A1E7A60002B14BF01230023DBB206
S32D0000D838002B06D07B695A1C7A61BA68D2B21A70EEE700BF1C37BD4680BC704780B584B000AF786039607B6813
S32D0000D8601B6BFB60FA683B689A4252D07B681B79002B35D07B6858787B6803F134010123FA6801F0F5F80346A3
S32D0000D888002B14BF01230023DBB2002B01D001233CE07B6800221A717B685A6A7B681B6A1344FA689A4217D247
S32D0000D8B07B68DB78FB72FB7A012B11D97B681B6AFA681344FB607B6858787B6803F134010123FA6801F0CCF8A6
S32D0000D8D8FB7A013BFB72EAE73B68002B15D07B6858787B6803F1340101233A6800F0D8FF0346002B14BF0123C9
S32D0000D9000023DBB2002B01D0012303E07B683A681A63002318461037BD4680BD80B584B000AF7860002178684B
S32D0000D928FFF794FF0346FB73FB7B002B40F091807B681B78032B7BD17B685B79002B77D07B6800221A637B6831
S32D0000D95034334FF4007200211846FFF75DFF7B68552283F832227B68AA2283F833227B68522283F834207B680B
S32D0000D978522283F835207B68612283F836207B68412283F837207B68722283F818227B68722283F819227B68B2
S32D0000D9A0412283F81A227B68612283F81B227B681B69DAB27B6883F81C227B681B699BB21B12DAB27B6883F8C7
S32D0000D9C81D227B681B691B0CDAB27B6883F81E227B681B691B0EDAB27B6883F81F227B68DB68DAB27B6883F86F
S32D0000D9F020227B68DB689BB21B12DAB27B6883F821227B68DB681B0CDAB27B6883F822227B68DB681B0EDAB2A4
S32D0000DA187B6883F823227B6858787B6803F134017B685A69012301F01FF87B6800225A717B685B7800220021E3
S32D0000DA40184601F0E1F80346002B14BF01230023DBB2002B01D00123FB73FB7B18461037BD4680BD80B582B025
S32D0000DA6800AF78600B467B807B68002B08D07B681B78002B04D07B68DB887A889A4201D0092311E07B685B789A
S32D0000DA90184601F03BF9034603F00103002B14BF01230023DBB2002B01D0032300E0002318460837BD4680BDD1
S32D0000DAB880B586B000AF78607B681A687B689B8819461046FFF7CAFF0346FB75FB7D002B40F0A8807B689B79C4
S32D0000DAE003F02003002B00F0A1807B689B7903F04003002B1BD07B681B6858787B6803F128017B689A69012343
S32D0000DB0800F0B2FF0346002B14BF01230023DBB2002B01D0012386E07B689B7923F04003DAB27B689A717B6803
S32D0000DB301A687B68DB6919461046FFF78BFE0346FB75FB7D002B71D17B681B6A3B613B690B331A783B690B33F2
S32D0000DB5842F02002D2B21A707B68DA683B691C33D2B21A707B68DB689BB21A123B691D33D2B21A707B68DB6850
S32D0000DB801A0C3B691E33D2B21A707B68DB681A0E3B691F33D2B21A707B681A693B691A33D2B21A707B681B6930
S32D0000DBA89BB21A123B691B33D2B21A707B681B691A0C3B691433D2B21A707B681B691B0C9BB21A123B6915335D
S32D0000DBD0D2B21A700023FB603B691633FA68D2B21A70FB689BB21A123B691733D2B21A70FB681A0C3B691833EE
S32D0000DBF8D2B21A70FB681A0E3B691933D2B21A707B689B7923F02003DAB27B689A717B681B6801221A717B68CA
S32D0000DC201B681846FFF77AFE0346FB75FB7D18461837BD4680BD80B584B000AF78607868FFF73AFF0346FB73B3
S32D0000DC48FB7B002B02D17B6800221A60FB7B18461037BD4680BDFFFF80B588B000AF7860396080233B610F2364
S32D0000DC70FB604FF0FF337B610223FB61FB69B3F5807F23D80123BB61BB69102B1AD8FB69BA6902FB03F33A68AA
S32D0000DC9802FB03F27B68D31ABB60BB68002B09DBBB687A699A4205D9BB687B61FB693B61BB69FB60BB690133B9
S32D0000DCC0BB61E1E7FB695B00FB61D7E71D4BDB6A1C4A23F00803D3621A4BDB6A23F47F2323F47F63BB613B69F7
S32D0000DCE85B081B029AB2FB68013B1B01DBB21A43BB691343114A43F46023D3620F4B5B6A03F00803002B0CBFC6
S32D0000DD1001230023DBB2002B03D00A2001F020F9F0E7084BDB6A074A43F00803D362054B1B6B044A43F48013BE
S32D0000DD38136300BF2037BD4680BD00BF00100B4080B582B000AF786039607B6800221A60424B434ADA62414BEF
S32D0000DD60DB6A03F08073002B14BF01230023DBB2002B00D0F3E73B4B0022C3F8C020394B4FF481325A60374BCA
S32D0000DD8828229A62354B4FF001125A643B689B6834491846FFF760FF304B5B6A03F00303002B14BF0123002343
S32D0000DDB0DBB2002B00D0F3E72D4B40F243421A602B4B40F243425A60294B4FF488629A60274B40F24342DA6055
S32D0000DDD8254B40F243421A61234B40F243425A61224B03F5815310331B68204943F4003201F5815310331A6043
S32D0000DE00184B4FF6FF721A63164B1B4A5A63154BDB6A144A43F00063D362124BDB6A03F00063002B14BF0123F3
S32D0000DE280023DBB2002B00D0F3E70C4B5B6A03F48033002B14BF01230023DBB2002B02D07B6801221A60054BE2
S32D0000DE501B6B044A43F080031363002318460837BD4680BD00100B400080000160CC050000D0044000700440CF
S32D0000DE78B3007F0080B400AF064B5A6A40F207331340002B14BF01230023DBB21846BD4680BC704700100B4012
S32D0000DEA080B485B000AF7860074B1B6B7A681340FB60FB68002B00D1F6E7FB6818461437BD4680BC704700BFFF
S32D0000DEC800100B4080B584B000AF78607B681B7803F03F03764A52F82330FB60FB68002B05D17B681B78002B79
S32D0000DEF001D00123DCE0714B1B6B704A43F0800313636E4B5B6A03F00103002B14BF01230023DBB2002B00D0E9
S32D0000DF18F3E7684A7B685B689360FB6823F44003FB607B685B789B0503F44003FA681343FB607B685B78022B18
S32D0000DF4003D1FB6843F40013FB607B685B78042B16D1FB6803F44033B3F5003F08D1FB6823F44033FB60FB68D3
S32D0000DF6843F44033FB6007E0FB6823F44033FB60FB6843F40033FB604E4B5B684D4A9BB253607B68DB68002BEB
S32D0000DF902AD0FB6803F44033B3F5403F03D0FB6843F40013FB607B681B7A002B03D0FB6843F01003FB607B683D
S32D0000DFB8DB68012B03D9FB6843F02003FB607B68DB68B3F1FF3F0BD03A4B5A687B68DB681B04384913434B60EB
S32D0000DFE0FB6843F00203FB60344B00221A60334AFB68D3603248FFF753FF0346012B14BF01230023DBB2002BE6
S32D0000E00809D02C4B1B6B2B4A43F4702343F001031363012348E0274B1B6B03F08003002B14BF01230023DBB29C
S32D0000E030002B07D0214B1B6B204A43F001131363012335E01D4B1B6B03F48033002B14BF01230023DBB2002BD9
S32D0000E05808D0184B1B6B174A43F0011313634FF0FF3321E0FB6803F44033002B15D0114B1A697B681A61FB68CC
S32D0000E08003F44033B3F5803F0BD10C4B5A697B685A610A4B9A697B689A61084BDA697B68DA61064B1B6B054AFD
S32D0000E0A843F001031363002318461037BD4680BD8850010000100B4001000E0080B592B000AF78603960002398
S32D0000E0D07B643B68BB63994B7B637B6B002B02D140F6012362E3964B3B633B6B002B02D140F60B235AE33B6BD3
S32D0000E0F81B68FB62FB6A002B02D140F60B2351E37B6841F20932934200F242837B68B3F5985F08D87B68032BCF
S32D0000E12000F01D837B68092B00F00C8334E37B68A3F59853013B082B00F22E8301A252F823F000BF69E1000013
S32D0000E14859E40000B7E600006FE40000ADE40000D7E500001FE6000061E500007BE500007649786BFFF7ECFD03
S32D0000E17078647B6C002B40F01383002387F84330002387F82B30002387F82A30002387F82930002387F84230B0
S32D0000E198002387F8283000233B7200237B720023FB6000233B7400237B6107F108031846FFF788FE0346002BDF
S32D0000E1C014BF01230023DBB2002B02D001237B64EBE240F24C4000F0C3FE08233B7200237B724FF4D573FB6080
S32D0000E1E800233B7400237B6107F108031846FFF769FEF863FB6B002B09D1BA69FB689A4202D001237B64CCE2CF
S32D0000E210012387F84230012387F8283097F82830002B00F0A58037233B7200237B720023FB6000233B7400231F
S32D0000E2387B6107F108031846FFF744FEF863FB6B002B02D001237B64ABE269233B7200237B720023FB6000230B
S32D0000E2603B7400237B6107F108031846FFF72EFE0346002B14BF01230023DBB2002B02D001237B6491E2BB69AD
S32D0000E28803F44013002B6FD00023FB630A2000F063FEFB6B0133FB6337233B7200237B720023FB6000233B7459
S32D0000E2B000237B6107F108031846FFF707FE0346002B14BF01230023DBB2002B02D001237B6428E069233B7289
S32D0000E2D800237B7297F84230002B02D0184BFB6002E04FF44013FB6000233B7400237B6107F108031846FFF751
S32D0000E300E5FD0346002B14BF01230023DBB2002B02D001237B6406E0BB69002B03DBFB6B632B00D8B6E77B6C8F
S32D0000E328002B40F03B82FB6B632B0BD9002387F8423019E0B0150020B41700207C50010000003040012387F81A
S32D0000E350433097F84230002B0AD0002387F84230BB6903F08043002B02D0012387F8423097F82A30002B02D040
S32D0000E3787B6B07221A6097F82930002B02D07B6B08221A6097F82B30002B02D07B6B04221A6097F84330002BE5
S32D0000E3A009D07B6B02221A6097F84230002B02D07B6B03221A6097F82B30002B0DD097F84330002B09D07B6B91
S32D0000E3C805221A6097F84230002B02D07B6B06221A60A04B00221A609E4B00225A609D4B00229A609B4B0022A8
S32D0000E3F0DA609A4B00221A61984B00225A61FB6A9A68FB6A5B6819461046FFF729FC934B40F243421A60914B39
S32D0000E41840F243425A608F4B4FF488629A608D4B40F24342DA608B4B40F243421A61894B40F243425A61884B7A
S32D0000E44003F5815310331B68854943F4003201F5815310331A60A8E1B86BFFF737FDF863FB6B002B00F0A0818B
S32D0000E46802237B649CE1BB6B002B02D10C237B6497E17A4BDB6A1B0A5B0003F4FF73FB63764BDB6A1B0903F0ED
S32D0000E4900F035A1CFB6B02FB03F3FB63FB6A9A68FB6BB2FBF3F2BB6B1A607EE1BB6B002B02D10C237B6478E136
S32D0000E4B8BB6B1B68002B02D10C237B6471E1FFF7D9FC0346002B0CBF01230023DBB2002B3ED0604B00221A60D1
S32D0000E4E05E4B00225A605D4B00229A605B4B0022DA605A4B00221A61584B00225A61FB6A9A68BB6B1B68194692
S32D0000E5081046FFF7A9FB534B40F243421A60514B40F243425A604F4B4FF488629A604D4B40F24342DA604B4B39
S32D0000E53040F243421A61494B40F243425A61484B03F5815310331B68454943F4003201F5815310331A6028E1D9
S32D0000E55840F60A237B6424E1BB6B002B02D10C237B641EE13D4B5B68C3F30C02BB6B1A6017E1BB6B002B02D152
S32D0000E5800C237B6411E1FFF779FC0346002B0CBF01230023DBB2002B19D0BB6B1B68B3F5805F02D30C237B64C8
S32D0000E5A8FFE02E4B5B682D4A23F4FF5323F01F0353602A4B5A68BB6B1B68C3F30C03274913434B60EDE040F649
S32D0000E5D00A237B64E9E0BB6B002B02D10C237B64E3E0204B9B6A5B0803F00303FB63FB6B002B03D1BB6B00227C
S32D0000E5F81A60D6E0FB6B012B03D1BB6B01221A60CFE0FB6B102B03D1BB6B02221A60C8E005237B64C5E0BB6B3A
S32D0000E620002B02D10C237B64BFE0FFF727FC0346002B0CBF01230023DBB2002B37D0BB6B1B68002B10D1074BBC
S32D0000E6489B6A064A23F006039362044B034A9B6A9362A6E000D004400070044000100B40BB6B1B68012B0CD14D
S32D0000E670504B9B6A4F4A23F0060393624D4B9B6A4C4A43F0020393628FE0BB6B1B68022B0AD1484B9B6A474A89
S32D0000E69823F006039362454B444A9B6A936280E005237B647DE040F60A237B6479E0BB6B002B02D10C237B649A
S32D0000E6C073E03C4BDB6A3B4A43F00063D362394BDB6A03F00063002B14BF01230023DBB2002B00D0F3E7334B79
S32D0000E6E81B6B03F08003002B14BF01230023DBB2002B08D02D4B1B6B2C4A43F0800313637B6B00221A60294B9D
S32D0000E7105B6A03F48033002B14BF01230023DBB2002B07D07B6B1B68002B06D17B6B01221A6002E07B6B0022C0
S32D0000E7381A607B6B1A68BB6B1A6032E0BB6B1C221A60BB6B043304221A60BB6B08334FF41E721A6025E002206F
S32D0000E760FFF79EFB134B1B6B03F4E003002B14BF01230023DBB2002B07D00E4B1B6B0D4A43F4E003136304237D
S32D0000E7887B640A4B1B6B094A43F03203136308E040F609237B6404E000BF02E000BF00E000BF7B6C18464837A8
S32D0000E7B0BD4680BD00100B4080B489B000AF786039607B687B61364B3B613B69002B01D100235FE03B691B680D
S32D0000E7D8022B0BD03B691B68032B07D03B691B68072B03D03B691B68082B0BD12B4B5B6A03F00403002B14BF4A
S32D0000E80001230023DBB2002B00D0F3E73B68FB61FB69002B3DD0FB69B3F5007F28BF4FF40073FB60FB6803338A
S32D0000E8289B08BB61BB69002B2AD01C4B1B6B03F4E003002B14BF01230023DBB2002B09D0164B1B6B154A43F4A0
S32D0000E850E00343F02003136300231BE0114B5B6A03F40063002B0CBF01230023DBB2002B00D0F3E70B497B697B
S32D0000E8781A1D7A610A6A1A60BB69013BBB61D1E7FA69FB68D31AFB61BEE7012318462437BD4680BC704700BFF8
S32D0000E8A0B015002000100B4080B58EB000AFB9607A601A460346FB731346BB73414B7B63FB7B002B02D1BB7B43
S32D0000E8C8002B01D1042375E03D4B1B78DBB203F00103002B14BF01230023DBB2002B01D0032367E0BB68002B81
S32D0000E8F001D1002362E07B6B1B7B002B02D17B685B027B60BB7B012B28D111233B7500237B757B68BB610123B9
S32D0000E9183B77BB7B3B6207F11403194641F20230FFF7CCFB0346002B0CBF01230023DBB2002B38D04FF40071C2
S32D0000E940B868FFF739FF0346002B14BF01230023DBB2002B2BD00023BB7328E012233B7500237B757B68BB61CA
S32D0000E96801233B77BB7B3B6207F11403194641F20230FFF7A3FB0346002B0CBF01230023DBB2002B0FD0BB7B1E
S32D0000E9905B021946B868FFF70FFF0346002B14BF01230023DBB2002B01D00023BB73BB7B002B01D0012300E0DB
S32D0000E9B8002300BF18463837BD4680BD9C1500200000002080B487B000AF786039607B68FB603B687B617B6925
S32D0000E9E0002B3DD07B69B3F5007F28BF4FF400733B617A693B69D31A7B613B6903339B083B613B69002BEAD09B
S32D0000EA08184B1B6B03F4E003002B14BF01230023DBB2002B0AD0134B1B6B124A43F4E00343F0100313634FF0F1
S32D0000EA30FF3316E00D4B5B6A03F48063002B0CBF01230023DBB2002B00D0F3E7FB681A1DFA60064A1B681362BE
S32D0000EA583B69013B3B61D0E7012318461C37BD4680BC704700100B4080B58EB000AFB9607A601A460346FB730B
S32D0000EA801346BB735D4B7B63FB7B002B02D1BB7B002B01D10423ADE0594B1B78DBB203F00103002B14BF012323
S32D0000EAA80023DBB2002B01D003239FE0524B1B78DBB203F00403002B14BF01230023DBB2002B01D0022391E0D4
S32D0000EAD0BB68002B01D100238CE07B6B1B7B002B02D17B685B027B60BB7B012B28D118233B7500237B757B6898
S32D0000EAF8BB6100233B77BB7B3B6207F11403194641F20230FFF7DAFA0346002B0CBF01230023DBB2002B38D049
S32D0000EB204FF40071B868FFF751FF0346002B14BF01230023DBB2002B2BD00023BB7328E019233B7500237B7514
S32D0000EB487B68BB6100233B77BB7B3B6207F11403194641F20230FFF7B1FA0346002B0CBF01230023DBB2002B46
S32D0000EB700FD0BB7B5B021946B868FFF727FF0346002B14BF01230023DBB2002B01D00023BB730D233B750023FF
S32D0000EB987B757B6B1B69BB6100233B7700233B6207F11403194641F20230FFF787FA0346002B14BF012300236C
S32D0000EBC0DBB2002B01D0012314E07A6A0D4B1340002B01D001230DE07B6A03F4F853B3F5106F00D0D5E7BB7BDA
S32D0000EBE8002B01D0012300E0002300BF18463837BD4680BD9C150020000000200880D9FF80B58CB000AF034656
S32D0000EC103A60FB710B46BB713A4BBB62FB79002B01D0042369E0012387F82F30364B1B78DBB203F00103002B0C
S32D0000EC3814BF01230023DBB2002B01D0032358E0BB79032B50D801A252F823F065EC00006DEC00007DEC000010
S32D0000EC608DEC0000002387F82F3044E0BB6A9A683B681A60002387F82F303CE03B684FF400721A80002387F8F3
S32D0000EC882F3034E009233B7200237B72BB6A1B69FB6000233B7400237B6107F10803194641F20230FFF70AFA6C
S32D0000ECB00346002B14BF01230023DBB2002B01D001231AE07B6A03F44003002B0CD13B6A9B0C03F07F035A1CA3
S32D0000ECD87B6A1B0A03F00303013B9A403B681A60002387F82F3002E0042387F82F3097F82F3018463037BD463A
S32D0000ED0080BD00BF9C1500200000002080B483B000AF0346FB71FB79002B01D0012302E0034B1B78DBB21846EB
S32D0000ED280C37BD4680BC70470000002080B483B000AF7860174B03F5815318331B68154943F0010201F581531C
S32D0000ED5018331A60124A7B689360114B05225A600F4B1B680E4A43F0010313600C4B1B6803F08003002B0CBF3C
S32D0000ED7801230023DBB2002B00D0F3E7064B1B68054A23F00103136000BF0C37BD4680BC704700BF00700440AC
S32D0000EDA00000044080B582B000AF786039607B68012B07D13B684FF6FF72934202D1034800F00EF800BF083753
S32D0000EDC8BD4680BDBC17002080B500AF4FF6FF710120FFF7E3FF80BD80B483B000AF78607B6800221A707B68BB
S32D0000EDF018460C37BD4680BC7047FFFF80B582B000AF78607B681B7883F00103DBB2002B21D0134B03F58153B2
S32D0000EE1808334FF400621A60104B4FF440721A620E4B4FF440725A620D4B1B68DA0F13445B104FF461421946D1
S32D0000EE400A48FEF7F1FB642000F08AF87B6801221A70012300E0002318460837BD4680BD0070044000D004401F
S32D0000EE68C017002000B00E4080B582B000AF7860084611461A460346FB700B46BB7013467B707F210E48FEF735
S32D0000EE90AAFC08210C48FEF7A6FCFB7819460A48FEF7A1FCBB7819460748FEF79CFC7B7819460548FEF797FC4F
S32D0000EEB8FF210348FEF793FC00BF0837BD4680BD00B00E4080B487B000AFF860B9607A60FB681F4AA2FB03230D
S32D0000EEE09B09BA6813447B61FB681B4AA2FB031292094FF47A7101FB02F29B1AFB60FB68DB03154AA2FB032365
S32D0000EF089B097A6813443B613B69DB0B7A6913447B613B69C3F30E033B610E4B1B687A699A4209D80B4B1B6866
S32D0000EF307A699A4206D1094B5B683A699A4201D9012300E00023002B00D0EAE700BF1C37BD4680BC704700BFF3
S32D0000EF58D34D621000D0034080B584B000AF7860074B1B68FB60064B5B68BB607B68BA68F9681846FFF7A6FF38
S32D0000EF8000BF1037BD4680BD00D0034080B584B000AFC7E900010E4B1B68FB600C4B5B68BB604FF000020B4B3E
S32D0000EFA8D7E9000104F014FD02460B461046194604F0D0FF0346BA68F9681846FFF782FF00BF1037BD4680BD7D
S32D0000EFD000D0034000408F4080B584B000AF78600B46FB700B23FB73FA7BFB781946786800F094F87B681846C5
S32D0000EFF81037BD4680BDFFFF80B485B000AF78607B68103B002B00DA1F335B11FB60FB68022B53D0FB68022BE7
S32D0000F02075DCFB68002B03D0FB68012B25D06EE0394BD3F880217B68103B594203F01F0301F01F0158BF4B42BB
S32D0000F048012101FA03F332491343C1F88031304B1A687B68103B594203F01F0301F01F0158BF4B42012101FA9F
S32D0000F07003F3294913430B6049E0274BD3F884217B68103B594203F01F0301F01F0158BF4B42012101FA03F398
S32D0000F0981F491343C1F884311D4B5A687B68103B594203F01F0301F01F0158BF4B42012101FA03F31649134399
S32D0000F0C04B6024E0144BD3F888217B68103B594203F01F0301F01F0158BF4B42012101FA03F30D491343C1F895
S32D0000F0E888310B4B9A687B68103B594203F01F0301F01F0158BF4B42012101FA03F3044913438B6000BF00BF37
S32D0000F1101437BD4680BC704700E100E080B584B000AF78600B46FB701346BB707B68FA781A70BB78FB737B683C
S32D0000F1381B781A46574B9B5C042B00F2A68001A252F823F061F10000ADF10000F9F1000091F2000045F2000042
S32D0000F160FB7B1B0403F470234D497A68127810464C4A52F8202043F4897343F0010341F82230494B5A697B68BB
S32D0000F1881B781946454B53F8213003F01F03012101FA03F3DB43424913404B616720FFF72BFF72E0FB7B1B04DD
S32D0000F1B003F470233D497A6812781046394A52F8202043F4897343F0010341F82230384B5A697B681B78194642
S32D0000F1D8324B53F8213003F01F03012101FA03F3DB43314913404B616820FFF705FF4CE0FB7B1B0403F4702364
S32D0000F2002C497A6812781046264A52F8202043F4897343F0010341F82230274B5A697B681B7819461F4B53F8FB
S32D0000F228213003F01F03012101FA03F3DB43204913404B616920FFF7DFFE26E0FB7B1B0403F470231B497A68F2
S32D0000F25012781046134A52F8202043F4897343F0010341F82230164B5A697B681B7819460C4B53F8213003F0F5
S32D0000F2781F03012101FA03F3DB430F4913404B616B20FFF7B9FE00E000BF00BF1037BD4680BD00BF8851010008
S32D0000F2A000900440CC51010000F00F4000A0044040F00F4000B0044080F00F4000D0044000F10F4080B58AB036
S32D0000F2C800AF3B1D20220021184605F097FC0B237B600A23BB600723FB6006233B6105237B610423BB610123C2
S32D0000F2F0FB6100237B627B6A072B32DC1B4BD3F8A0207B6A9B0007F128010B4453F8243C012101FA03F313407D
S32D0000F318002B14BF01230023DBB2002B19D0124A7B6A52F823305A1C0F497B6A41F823200C4BD3F8A0207B6A0D
S32D0000F3409B0007F128010B4453F8243C012101FA03F306491340C1F8A0307B6A01337B62C9E700BF2837BD46E4
S32D0000F36880BD00BF00A00440EC170020B0B489B000AF234B3C1D1D460FCD0FC495E8030084E803000023FB61E1
S32D0000F390FB69052B32DC1D4BD3F8A020FB699B0007F120010B4453F81C3C012101FA03F31340002B14BF012328
S32D0000F3B80023DBB2002B19D0FB690833124A52F823200132104941F823200E4BD3F8A020FB699B0007F12001D7
S32D0000F3E00B4453F81C3C012101FA03F307491340C1F8A030FB690133FB61C9E700BF2437BD46B0BC704700BF2B
S32D0000F408D052010000B00440EC170020B0B48DB000AF244B3C461D460FCD0FC40FCD0FC495E8070084E80700A3
S32D0000F4300023FB62FB6A0A2B32DC1D4BD3F8A020FB6A9B0007F130010B4453F8303C012101FA03F31340002BD3
S32D0000F45814BF01230023DBB2002B19D0FB6A0E33124A52F823200132104941F823200E4BD3F8A020FB6A9B0050
S32D0000F48007F130010B4453F8303C012101FA03F307491340C1F8A030FB6A0133FB62C9E700BF3437BD46B0BCB1
S32D0000F4A8704700BFE852010000900440EC170020B0B487B000AF224B3C461D460FCD0FC42B68236000237B612E
S32D0000F4D07B69042B32DC1D4BD3F8A0207B699B0007F118010B4453F8183C012101FA03F31340002B14BF0123F4
S32D0000F4F80023DBB2002B19D07B691933124A52F823200132104941F823200E4BD3F8A0207B699B0007F118018D
S32D0000F5200B4453F8183C012101FA03F307491340C1F8A0307B6901337B61C9E700BF1C37BD46B0BC704700BFF5
S32D0000F5481453010000D00440EC17002080B483B000AF78600B46FB707B68FA781A707B6818460C37BD4680BCAA
S32D0000F5707047FFFF80B586B000AF78607B681B781A46234B53F822303B617B681B781A46204B9B5CFB733B69FF
S32D0000F598DBB203F01F03DAB21D4B1A723B69DBB203F01F03DAB21A4B5A72FB7B002B13D11749184800F0CCF926
S32D0000F5C0164B1B6803F08003802B14BF01230023DBB2002B00D0F3E7104B1B697B6112E00D490F4800F0B8F9A1
S32D0000F5E80D4B1B6803F08003802B14BF01230023DBB2002B00D0F3E7074B1B697B617B6918461837BD4680BDFA
S32D0000F6104C520100A8510100DC17002000B0034000B00B4098B500AF204B5C221A701F4B10225A701D4B41F2C2
S32D0000F63834225A801B4B45F278629A80194B10229A71184B0722DA71164B4FF4C022DA60144B1F221A72134B21
S32D0000F6601F225A721149124800F076F90F49114800F072F90F4800F0D0F80D4800F0CDF80A490C4800F068F93F
S32D0000F6880849094800F064F9094A064B14460FCB84E80F00064B5C221A70054B0422DA7100BF98BDCC170020E1
S32D0000F6B000B0034000B00B40DC17002080B500AF064B1B680133054A136000F03BF8044B0122C3F80C2100BF41
S32D0000F6D880BD00BF701800200070034080B500AF0B4800F01BF80B4B0322C3F808210A4BD3F88831084A43F0B6
S32D0000F7001003C2F88831064B9B68054A43F01003936000BF80BD00BFA08601000070034000E100E080B483B0BC
S32D0000F72800AF7860044A7B68C2F8003100BF0C37BD4680BC704700BF0070034080B584B000AF174B1B68FB604E
S32D0000F750FB68002B24D0FB685B78FB71FB689B68184600F023F80346BB71BB79002B13D0FB685B68012B0FDDA3
S32D0000F778FB689B681B69BB60BB68002B08D0BB685B685A1CBB685A60BB681B69BB60F3E7FB68DB68FB60D7E7A4
S32D0000F7A000BF1037BD4680BD6C18002080B584B000AF78607868FFF7DDFEF8607B689B695B78FB72FB7A002B91
S32D0000F7C80FD17B68DB68FA689A420ADD7B689B6901225A707B685B685A1C7B685A60012313E0FB7A012B0FD1C3
S32D0000F7F07B689B68FA689A420ADA7B689B6900225A707B685B685A1C7B685A60012300E0002318461037BD4688
S32D0000F81880BD80B485B000AF78607B681B6A23F040027B681A627B685B6A23F00B027B685A627B685B6A43F037
S32D0000F84007027B685A627B685B6A43F080027B685A627B681B6803F08003002B0CBF01230023DBB2002B00D055
S32D0000F868F3E77B685B6A03F04003402B0CBF01230023DBB2002B01D0012364E00023FB817B68DB6CFB817B6824
S32D0000F8909B6C9AB2FB891344FB817B685B6C9AB2FB891344FB817B681B6C9AB2FB891344FB817B68DB6B9AB2D1
S32D0000F8B8FB891344FB817B689B6B9AB2FB891344FB81FB895B08FB81FB896FEA43436FEA5343FB81FA897B68A8
S32D0000F8E0DA620023FB817B68DB6EFB817B689B6E9AB2FB891344FB817B685B6E9AB2FB891344FB817B681B6E2D
S32D0000F9089AB2FB891344FB817B68DB6D9AB2FB891344FB817B689B6D9AB2FB891344FB81FB895B08FB81FB89EB
S32D0000F9306FEA43436FEA5343FB81FA897B681A637B685B6A23F080027B685A62002318461437BD4680BC7047DE
S32D0000F95880B483B000AF786039603B681B781A467B689A603B685B781A467B68DA603B685B881A467B689A61D0
S32D0000F9803B689B881A467B68DA613B689B791A467B681A623B68DB791A467B685A623B68DA687B681A653B68BF
S32D0000F9A81B7A1A467B681A603B685B7A1A467B685A6000BF0C37BD4680BC704780B483B000AF78607B68184643
S32D0000F9D00C37BD4680BC704780B582B000AF786039607B68012B07D13B684FF6FF72934202D10348FFF7E6FF3B
S32D0000F9F800BF0837BD4680BD7418002080B500AF4FF6FF710120FFF7E3FF80BD80B582B000AF7860B84B4FF4F4
S32D0000FA208072DA60B74B4FF480729A64B54B4FF480721A64B34B4FF480725A64B14B4FF48072DA60B04B5B6989
S32D0000FA48AF4A43F008035361AE4B5B69AD4A43F480235361AB4B5B69AA4A43F480335361A84B5B69A74A43F438
S32D0000FA7000335361A54B1B68A44A43F008031360A24B5B69A14A43F0080353619E4B1B689D4A43F008031360DD
S32D0000FA989A4B4FF480725A62984B4FF480721A62954B4FF480721A61934B4FF480725A61914B4FF480729A616C
S32D0000FAC08F4B4FF48072DA618D4B4FF480721A638B4B4FF480725A63894B4FF480729A63874B4FF48072DA6332
S32D0000FAE8854B4FF480721A64834B4FF480725A64814B4FF480729A647F4B4FF48072DA64814B4FF480721A60F5
S32D0000FB107F4B4FF480729A607D4B4FF48072DA607B4B4FF480721A61784B5B69774A43F440735361744B5B69B8
S32D0000FB38734A43F47F2343F0F0035361734B5B69724A43F01D035361E221786800F0AEFB1D21786800F050FC14
S32D0000FB600221786800F04CFC0421786800F048FCE021786800F09EFB0121786800F040FC6420FFF7EDF9E0210A
S32D0000FB88786800F093FB0321786800F035FC0121786800F08BFB0120FFF7DEF9E621786800F084FB012178680E
S32D0000FBB000F026FCA021786800F022FCFF21786800F01EFCB021786800F074FB1C21786800F016FC0F2178681D
S32D0000FBD800F012FC0121786800F00EFC3F21786800F00AFC0021786800F006FCEF21786800F002FC00217868FD
S32D0000FC0000F0FEFBB421786800F054FB0121786800F0F6FB9921786800F0F2FB0021786800F0EEFB452178687F
S32D0000FC2800F0EAFB0221786800F0E6FB0021786800F0E2FB0021786800F0DEFB0021786800F0DAFBB6217868F0
S32D0000FC5000F030FB0121786800F0D2FB0921786800F0CEFB0021786800F0CAFB0E21786800F0C6FB0221786870
S32D0000FC7800F0C2FB0021786800F0BEFB0021786800F0BAFBBA21786800F010FB0F21786800F0B2FB6420FFF784
S32D0000FCA05FF93A21786800F005FB6021786800F0A7FB2A21786800F0FDFA0021786800F09FFB0021786800F032
S32D0000FCC89BFB0121786800F097FB3F21786800F093FB2B21786800F0E9FA0021786800F08BFB0021786800F0CF
S32D0000FCF087FB0021786800F083FBEF2178680BE000B0044000A0044080F00F4040F00F4000C00440C0F00F4001
S32D0000FD1800F072FB3621786800F0C8FA0021786800F06AFBF021786800F0C0FA0421786800F062FBB82178687B
S32D0000FD4000F0B8FA0F21786800F05AFB0121786800F056FB314B1B68304A43F0080313606420FFF7FDF836216B
S32D0000FD68786800F0A3FA0021786800F045FBF021786800F09BFA0421786800F03DFB0121786800F0B9F91E2248
S32D0000FD906F21786800F082F8AF225621786800F0DBF80021786800F0FCF9012301221C49786800F01DFA2921BD
S32D0000FDB8786800F07BFA6420FFF7CEF8BE21786800F074FA0E21786800F016FBF021786800F012FB012178687B
S32D0000FDE000F00EFB0021786800F00AFB0021786800F006FB0F21786800F002FB786800F01AFA0121786800F041
S32D0000FE08CCF90021786800F0A1F900BF0837BD4680BD00BF40F00F402853010080B582B000AF78607B68002291
S32D0000FE30DA617B6801221A627B680E225A607B681A229A607B6800225A617B6800229A617B684FF4A072DA60CF
S32D0000FE587B68F0221A617B6800221A70786800F0BFFE7B6818460837BD4680BD80B582B000AF7860064B1B785E
S32D0000FE80002B05D1044B01221A707868FFF7C2FD00BF0837BD4680BDBC18002080B58AB002AFF860B9607A6025
S32D0000FEA87E23009362237A68B968F86800F013FC40F24E733B610023FB61FA693B699A4240DA0023BB61214A5C
S32D0000FED0FB6913441B781A46BB69934232DAFB6901331C4AD35C002B06D1FF23FB75FF23BB75FF237B7512E03A
S32D0000FEF8FB690133154AD35C012B06D1D423FB750023BB7526237B7505E0B523FB75BA23BB75B0237B757B7DCB
S32D0000FF20BA7DF97DF86800F0C9F80246FB68DA61F86800F059FEF86800F092FDBB690133BB61C4E7FB690233D1
S32D0000FF48FB61BAE700BF2037BD4680BD0400002080B58AB002AFF860B9607A602723009395237A68B968F868B1
S32D0000FF7000F0B5FB40F2E6333B610023FB61FA693B699A4240DA0023BB61214AFB6913441B781A46BB6993420F
S32D0000FF9832DAFB6901331C4AD35C002B06D1FF23FB75FF23BB75FF237B7512E0FB690133154AD35C012B06D1EF
S32D0000FFC00023FB750023BB7500237B7505E0D423FB750023BB7526237B757B7DBA7DF97DF86800F06BF80246A2
S32D0000FFE8FB68DA61F86800F0FBFDF86800F034FDBB690133BB61C4E7FB690233FB61BAE700BF2037BD4680BD79
S32D000100105407002080B485B000AF78600B46FB70FB78062B29D801A252F823F051000100490001005700010001
S32D000100385F000100670001006D000100750001006FF07F43FB6014E00023FB6011E04FF47F03FB600DE04FF4BE
S32D000100607F43FB6009E0FF23FB6006E04FF41903FB6002E0044BFB6000BFFB6818461437BD4680BC704700BF42
S32D000100889999990080B584B000AF786039603B681B0CFB733B681B0ABB733B687B737B7BBA7BF97B786800F0C7
S32D000100B005F8034618461037BD4680BD80B487B000AF7860084611461A460346FB700B46BB7013467B70FB7818
S32D000100D89B107B61BB789B103B617B789B10FB607B691A033B699B011A43FB68134318461C37BD4680BC704701
S32D0001010080B582B000AF78600B46FB70FB7819467868FFF77FFF03461946786800F004F800BF0837BD4680BD4E
S32D0001012880B582B000AF7860396039687868FFF7A9FF02467B681A62786800F051FD786800F0F2F900BF083784
S32D00010150BD4680BD80B582B000AF78600B46FB70FB7819467868FFF755FF03461946786800F004F800BF083728
S32D00010178BD4680BD80B582B000AF7860396039687868FFF77FFF02467B681A62786800F027FD00BF0837BD4600
S32D000101A080BD80B582B000AF78600B46FB70FB7819467868FFF72EFF03461946786800F004F800BF0837BD46FF
S32D000101C880BD80B582B000AF7860396039687868FFF758FF02467B68DA61786800F000FD00BF0837BD4680BD05
S32D000101F080B586B000AFF860B9607A603B6000237B617B69BA6813441B78002B0FD07B69BA6813441B783A6855
S32D000102187968F86800F0DEFA7B680C337B607B6901337B61E9E700BF1837BD4680BD80B582B000AF7860FDF7BD
S32D000102409FF967210120FDF72EF900210220FDF72AF9A0210320FDF726F950210420FDF722F920210520FDF7E4
S32D000102681EF920210620FDF71AF977210720FDF716F900210820FDF712F900210920FDF70EF900210A20FDF754
S32D000102900AF904210B20FDF706F97B684FF0FF32DA637B684FF0FF321A6400BF0837BD4680BDFFFF80B483B0F5
S32D000102B800AF78600B46FB704D4B1B684C4A23F0080313604B4B1B684A4A23F480231360484B1B68474A43F4DA
S32D000102E080331360454B1B68444A23F440731360414B1B68404A23F4435323F0300313603E4B1A68FB785B0211
S32D0001030803F400733B4913430B603A4B1A68FB785B101B0203F48073364913430B60344B1A68FB789B101B01B0
S32D0001033003F01003304913430B602F4B1A68FB78DB105B0103F020032B4913430B602A4B1A68FB781B119B012B
S32D0001035803F04003264913430B60254B1A68FB785B11DB01DBB2224913430B60204B1A68FB789B111B0303F489
S32D0001038080531D4913430B601B4B1A6897F90330DB115BB25B0303F40053174913430B60164B1B68154A23F48D
S32D000103A800331360134B1B68124A43F4003313600F4B1B680E4A43F0080313600D4B1B680C4A43F440731360F2
S32D000103D0094B1B68084A43F4435343F030031360064B1B68054A43F48023136000BF0C37BD4680BC704700BF08
S32D000103F880F00F4040F00F4080B483B000AF78600B46FB70464B1B68454A23F008031360444B1B68434A43F4E4
S32D0001042080331360414B1B68404A43F4802313603E4B1B683D4A23F4407313603A4B1B68394A23F4435323F086
S32D0001044830031360374B1A68FB785B0203F40073344913430B60334B1A68FB785B101B0203F480732F491343B0
S32D000104700B602D4B1A68FB789B101B0103F01003294913430B60284B1A68FB78DB105B0103F0200324491343FD
S32D000104980B60234B1A68FB781B119B0103F040031F4913430B601E4B1A68FB785B11DB01DBB21B4913430B60E8
S32D000104C0194B1A68FB789B111B0303F48053164913430B60144B1A6897F90330DB115BB25B0303F40053104962
S32D000104E813430B600F4B1B680E4A23F4003313600C4B1B680B4A43F400331360084B1B68074A43F0080313604E
S32D00010510064B1B68054A23F48023136000BF0C37BD4680BC704700BF80F00F4040F00F4080B586B000AF786085
S32D000105387B6800225A617B6800229A617B681B6AFB60FB68FB72FB681B0ABB72FB681B0CDBB203F003037B728F
S32D000105602A217868FFF7A6FE00217868FFF748FF00217868FFF744FF01217868FFF740FF3F217868FFF73CFF87
S32D000105882B217868FFF792FE00217868FFF734FF00217868FFF730FF00217868FFF72CFFEF217868FFF728FF13
S32D000105B02C217868FFF77EFE314B1B68304A23F4407313602F4B1B682E4A23F47F2323F0F00313602C4B1B6826
S32D000105D82B4A23F01D031360274B1A687B681B6B254913430B60254B1A687B685B6B234913430B60224B1A6896
S32D000106007B689B6B204913430B601E4B1B681D4A23F0080313601A4B1B68194A43F48023136000237B617B6959
S32D00010628EF2B19D800233B613B69B3F5A07F0FD2114B1B68104A23F4003313600E4B1B680D4A43F40033136087
S32D000106503B6901333B61EBE77B6901337B61E2E7084B1B68074A43F008031360044B1B68034A23F48023136054
S32D0001067800BF1837BD4680BD40F00F4080F00F40C0F00F4080B483B000AF78607B689B69002B07DD7B685B693D
S32D000106A05A1C7B685A617B6800229A6100BF0C37BD4680BC704780B582B000AF78607B685A697B685B689A4209
S32D000106C805DB7B6800225A617868FFF72DFF00BF0837BD4680BD80B588B000AFF860B9607A603B60FB681B782B
S32D000106F0022B03D0FB681B78032B11D17B68FB61BA6AFB691344013BBB61FB68DA68BB68D31A3B613B683A69C8
S32D00010718D31A01337B610DE0BB68FB613A68FB691344013BBB617B687B61BA6A7B691344013B3B612A21F868F3
S32D00010740FFF7B8FDFB691B0ADBB203F00F03DBB21946F868FFF754FEFB69DBB21946F868FFF74EFEBB691B0AF5
S32D00010768DBB203F00F03DBB21946F868FFF744FEBB69DBB21946F868FFF73EFE2B21F868FFF794FD7B691B0A6E
S32D00010790DBB203F00F03DBB21946F868FFF730FE7B69DBB21946F868FFF72AFE3B691B0ADBB203F00F03DBB202
S32D000107B81946F868FFF720FE3B69DBB21946F868FFF71AFE2C21F868FFF770FD00BF2037BD4680BD80B58EB068
S32D000107E002AFF860B9607A60FB70FB780A2B06D1F868FFF760FFF868FFF748FFF2E0FB787D2B02D8FB781F2B2E
S32D0001080801D82023FB70FB78203BFB70112300930C237A68B968F868FFF75DFFFA7813469B0013446F4AD35CB1
S32D000108303B75FA7813469B00134401336B4AD35C7B75FA7813469B0013440233674AD35CBB75FA7813469B00BC
S32D0001085813440333634AD35CFB75FA7813469B00134404335F4AD35C3B760023BB62BB6A062B00F3A180F86811
S32D0001088000F050F9F86800F0B3F8002387F82F3000237B627B6A042B35DC07F114027B6A13441B7803F001031B
S32D000108A8002B14BF01230023FB76FB7E002B11D097F82F3083F00103DBB2002B03D0F86800F0CAF802E0F868A2
S32D000108D000F08EF8F86800F08BF80DE097F82F30002B03D0F86800F01DF902E0F86800F07FF8F86800F07CF804
S32D000108F8FB7E87F82F307B6A01337B62C6E797F82F30002B03D0F86800F008F902E0F86800F06AF8F86800F0B6
S32D0001092067F8002387F82F3000233B623B6A042B42DC07F114023B6A13441B7803F00103002B14BF01230023BD
S32D00010948BB76BB7E002B11D097F82F3083F00103DBB2002B03D0F86800F07EF802E0F86800F042F8F86800F098
S32D000109703FF80DE097F82F30002B03D0F86800F0D1F802E0F86800F033F8F86800F030F8BB7E87F82F3007F14B
S32D0001099814023B6A13441B785B10D9B207F114023B6A13440A461A703B6A01333B62B9E7BB6A0133BB625AE7E4
S32D000109C0F86800F0AFF8002387F82F300123FB61FB69232B06DCF86800F00AF8FB690133FB61F5E73037BD4670
S32D000109E880BD00BF3C0B002080B483B000AF7860174B1B68164A43F480331360154B1B68144A23F0080313601B
S32D00010A10114B1B68104A43F4802313600E4B1B680D4A23F4003313600B4B1B680A4A43F400331360094B1B6860
S32D00010A38084A43F008031360054B1B68044A23F48023136000BF0C37BD4680BC704700BF40F00F4080F00F4049
S32D00010A6080B483B000AF78602B4B1B682A4A43F480331360294B1B68284A23F008031360254B1B68244A43F41D
S32D00010A8880231360224B1B68214A23F440731360204B1B681F4A23F47F2323F0F00313601D4B1B681C4A23F0A4
S32D00010AB01D031360184B1A687B685B6A164913430B60164B1A687B689B6A144913430B60134B1A687B68DB6AE6
S32D00010AD8114913430B600E4B1B680D4A23F4003313600B4B1B680A4A43F400331360094B1B68084A43F0080373
S32D00010B001360054B1B68044A23F48023136000BF0C37BD4680BC704740F00F4080F00F40C0F00F4080B483B069
S32D00010B2800AF78602B4B1B682A4A43F480331360294B1B68284A23F008031360254B1B68244A43F480231360A5
S32D00010B50224B1B68214A23F440731360204B1B681F4A23F47F2323F0F00313601D4B1B681C4A23F01D0313605E
S32D00010B78184B1A687B681B6B164913430B60164B1A687B685B6B144913430B60134B1A687B689B6B11491343BD
S32D00010BA00B600E4B1B680D4A23F4003313600B4B1B680A4A43F400331360094B1B68084A43F008031360054B97
S32D00010BC81B68044A23F48023136000BF0C37BD4680BC704740F00F4080F00F40C0F00F4080B485B000AF7860DB
S32D00010BF07B681B6AFB60FB68FB72FB681B0ABB72FB681B0CDBB203F003037B727B6800225A627B6800229A62CF
S32D00010C187B680022DA627B6800221A637B6800225A637B6800229A637B681A6BFB7A5B0203F400731A437B6842
S32D00010C401A637B681A6BFB7A5B101B0203F480731A437B681A637B685A6BFB7A9B101B0103F010031A437B68D2
S32D00010C685A637B685A6BFB7ADB105B0103F020031A437B685A637B685A6BFB7A1B119B0103F040031A437B68CE
S32D00010C905A637B685A6BFB7A5B11DB01DBB21A437B685A637B685A6BFB7A9B111B0303F480531A437B685A63DB
S32D00010CB87B685A6B97F90B30DB115BB25B0303F400531A437B685A637B685A6BBB7A9B0303F480431A437B6887
S32D00010CE05A637B685A6BBB7A5B10DB039BB21A437B685A637B685A6BBB7A9B101B0403F480331A437B685A636A
S32D00010D087B685A6BBB7ADB105B0403F400331A437B685A637B685A6BBB7A1B119B0403F480231A437B685A632F
S32D00010D307B685A6BBB7A5B11DB0403F400231A437B685A637B689A6BBB7A9B1103F001031A437B689A637B6875
S32D00010D589A6B97F90A30DB115BB29B0003F004031A437B689A637B689A6B7B7ADB0003F008031A437B689A63DF
S32D00010D807B689A6B7B7A5B101B0103F010031A437B689A637B68DB69FB60FB68FB72FB681B0ABB72FB681B0C0C
S32D00010DA8DBB203F003037B727B685A6AFB7A5B0203F400731A437B685A627B685A6AFB7A5B101B0203F480733C
S32D00010DD01A437B685A627B689A6AFB7A9B101B0103F010031A437B689A627B689A6AFB7ADB105B0103F02003DA
S32D00010DF81A437B689A627B689A6AFB7A1B119B0103F040031A437B689A627B689A6AFB7A5B11DB01DBB21A436C
S32D00010E207B689A627B689A6AFB7A9B111B0303F480531A437B689A627B689A6A97F90B30DB115BB25B0303F498
S32D00010E4800531A437B689A627B689A6ABB7A9B0303F480431A437B689A627B689A6ABB7A5B10DB039BB21A432D
S32D00010E707B689A627B689A6ABB7A9B101B0403F480331A437B689A627B689A6ABB7ADB105B0403F400331A43BB
S32D00010E987B689A627B689A6ABB7A1B119B0403F480231A437B689A627B689A6ABB7A5B11DB0403F400231A43B1
S32D00010EC07B689A627B68DA6ABB7A9B1103F001031A437B68DA627B68DA6A97F90A30DB115BB29B0003F004032A
S32D00010EE81A437B68DA627B68DA6A7B7ADB0003F008031A437B68DA627B68DA6A7B7A5B101B0103F010031A43E8
S32D00010F107B68DA6200BF1437BD4680BC7047FFFF80B582B000AF786039607B68012B07D13B684FF6FF729342F9
S32D00010F3802D10348FEF772FF00BF0837BD4680BD7818002080B500AF4FF6FF710120FFF7E3FF80BD80B582B0E2
S32D00010F6000AF7860174B03F5815314331B68154943F0400201F5815314331A60124B4FF400725A62104B4FF419
S32D00010F8800721A620F4B14225A700E4B1B7ADBB20C4A43F00103DBB213720A4B80229A7002212B20FCF704FA78
S32D00010FB03D212A20FCF700FA7B6818460837BD4680BD00BF0070044000C004400060064080B582B000AF7860B2
S32D00010FD839607B68012B07D13B684FF6FF72934202D10348FFF7B6FF00BF0837BD4680BDC018002080B500AF59
S32D000110004FF6FF710120FFF7E3FF80BD80B582B000AF78600B46FB707B68FA7811461846FEF798FA7B6818465A
S32D000110280837BD4680BDFFFF80B582B000AF786039607B68012B08D13B684FF6FF72934203D120210348FFF729
S32D00011050DDFF00BF0837BD4680BD00BFC418002080B500AF4FF6FF710120FFF7E1FF80BD80B483B000AF7860E1
S32D000110787B6800221A707B6818460C37BD4680BC7047FFFF80B483B000AF78603960044A3B68136000BF0C3755
S32D000110A0BD4680BC704700BFC818002080B582B000AF3248FCF77EFB0346FB71304AFB791370304B01221A7022
S32D000110C82F4B1B78022B33D0022B4FDC002B02D0012B14D04AE0FB79FF2B44D1284B01221A70284B00221A703B
S32D000110F0264B1B785A1CD1B2244A11701946244AFB79535433E0214B1B785A1CD1B21F4A117019461E4AFB79CD
S32D0001111853541C4B1B780D2B27D11C4B1B68194A1278114618489847154B02221A701CE0FB79FF2B10D1124B84
S32D0001114001221A70114B00221A70104B1B785A1CD1B20E4A117019460D4AFB79535409E00A4B00221A70084BFD
S32D0001116800221A7002E000BF00E000BF00BF0837BD4680BD00A00640DF180020DE180020DD180020DC180020F2
S32D00011190CC180020C818002080B582B000AF78607B681846FFF764FF7B6811491846FFF76DFF7B684FF0FF3254
S32D000111B85A600E4B4FF000021A600D4B4FF000021A600C4B4FF000021A600B4B00221A600A4B00221A700A4BCD
S32D000111E000221A707B6818460837BD4680BD00BF0D120100EC180020F0180020F4180020F8180020FC180020B9
S32D00011208FD18002080B582B000AF78600B46FB703B4B1B78002B6ED07B6801331B781B027A6802321278134498
S32D00011230184602F0BDFF03463449184603F0C0F803463349184602F0FDFE03461A46314B1A607B6803331B7859
S32D000112581B027A68043212781344184602F0A4FF03462849184603F0A7F803462649184602F0E4FE03461A4621
S32D00011280254B1A607B6805331B781B027A68063212781344184602F08BFF03461B49184603F08EF803461A4985
S32D000112A8184602F0CBFE03461A461A4B1A607B680A331B781A46184B1A607B68DA7A174B1A707B680C331B78AE
S32D000112D0AA2B0CBF01230023DAB2134B1A70134B01221A70104B1B78002B08D0104800F053F8104B1B680F4ACE
S32D000112F823F40053136000BF0837BD4680BD00BFE8180020000020410000C844EC180020F0180020F4180020E8
S32D00011320F8180020FC180020FD180020FE18002000190020C0F00F4080B582B000AF786039607B68012B07D129
S32D000113483B684FF6FF72934202D10348FFF720FF00BF0837BD4680BDE018002080B500AF4FF6FF710120FFF70F
S32D00011370E3FF80BD80B483B000AF7860054B00221A60044B00225A607B6818460C37BD4680BC70470019002077
S32D0001139880B584B000AF7860154B1B68002B21D00023FB60124B5B68FA689A4214DA114AFB6852F82330002BE7
S32D000113C00AD00E4AFB6852F823301846FCF733FC03461A460A4B1A70FB680133FB60E5E7054B00225A60044B8B
S32D000113E800221A60044B1B7818461037BD4680BD001900200C1900200819002080B582B000AF786039607B684A
S32D00011410012B07D13B684FF6FF72934202D10348FFF7A8FF00BF0837BD4680BD0019002080B500AF4FF6FF71B0
S32D000114380120FFF7E3FF80BD80B483B000AF78600B4B03F5815310331B68094943F0010201F5815310331A606A
S32D00011460064B5B68054A43F03203536000BF0C37BD4680BC704700BF0070044000000A4038B5084C4FF41E6523
S32D000114882846E56003F0F8F8A06020B10023C0E90053606038BDE060606038BD74190020F0B5284D21F00043EA
S32D000114B0AB4287B021DD264DAB4209DD02460B4602F0D2F802460B461046194607B0F0BD02AA00F0D5F800F045
S32D000114D80300012817D0022829D0F8B101230093DDE90201DDE9042301F0B2F90B460246E6E70022002300F062
S32D0001150057FC0B4602461046194607B0F0BDDDE904230090DDE9020101F09EF9024601F10043D1E7DDE90423C7
S32D00011528DDE9020100F040FC0B460246C8E7DDE90423DDE9020100F037FC024601F10043BEE700BFFB21E93F59
S32D00011550FFFFEF7FF0B5294D21F00043AB4287B020DD274DAB4209DD02460B4602F07CF802460B4610461946DC
S32D0001157807B0F0BD02AA00F07FF800F00300012818D002282AD0F0B1DDE90423DDE9020100F00AFC024601F11E
S32D000115A00043E7E7002300930022002301F054F90B4602461046194607B0F0BDDDE90423DDE9020100F0F4FB8B
S32D000115C80B460246D2E701230093DDE90201DDE9042301F03DF90B460246C7E701230093DDE90201DDE904235A
S32D000115F001F032F9024601F10043BBE7FB21E93FFFFFEF7F00B51C4A20F00043934283B018DDB3F1FF4F05DBA4
S32D00011618014602F013FD03B05DF804FB694600F04DFA00F00302012A0ED0022A18D092B101990098012201F0D2
S32D0001164003FEECE7002101F0C9F903B05DF804FB0199009801F0F8FD00F10040DFE70199009801F0BBF9DAE725
S32D000116680199009801F0B6F900F10040D3E700BFD80F493FFFFFFFFF2DE9F04F8C4F21F00045BD428DB0144650
S32D00011690064640F38680894A95428B4627DC00297BA3D3E9002340F3B88101F0DDFF844B9D4206460F4600F08A
S32D000116B88B8077A3D3E9002301F0D2FF02460B46C4E900233046394601F0CAFF70A3D3E9002301F0C5FFC4E9D1
S32D000116E002014FF0010A50460DB0BDE8F08F754A954240F38E80744A95425EDC4FEA255AAAF2164AA5EB0A51D2
S32D000117080F4602F0FFFB02F0F9F8804689463046394642464B46CDE9068901F0A1FF694B002202F055F90F46AA
S32D00011730064602F0EBFB054602F0E4F802460B4630463946CDE9082301F08EFF5F4B002202F042F902460B46CE
S32D00011758CDE90A230022002302F0A2FB002800F05681002D0CBF01230223574A019202215246009106A82146E6
S32D0001178000F042FCBBF1000F8246ACDA6268E36802F1004203F10043C0F1000A6260E360A1E74FF0000AC4E944
S32D000117A80001002200235046C4E902230DB0BDE8F08F02465B4601F053FF4FF0000AC4E90201C4E900018AE73F
S32D000117D033A3D3E9002301F047FF33A3D3E9002306460F4601F040FF02460B46C4E900233046394601F038FFF2
S32D000117F82BA3D3E9002301F033FF4FF0010AC4E9020150460DB0BDE8F08F01F08FFD26A3D3E9002306460F46BB
S32D0001182002F0DAF82B4B002201F020FF02F06EFB824602F067F816A3D3E9002380468946CDE9048902F0C8F897
S32D0001184802460B463046394601F00AFF06460F4640464946B046B9460DA3D3E90023CDE9028902F0B5F8BAF124
S32D000118701F0F06460F4631DC174B0AF1FF3253F82230AB422AD002460B46404649469EE000004054FB21F93F47
S32D000118983163621A61B4D03D0000601A61B4D03D7370032E8A19A33B83C8C96D305FE43FFB21E93F7BD90240B1
S32D000118C0FB21F93FFB213941FFFFEF7F00007041DC5301000000E03F5C5301003B46DDE90201324601F0C0FE82
S32D000118E8C1F30A53C3EB1553102B894680464FEA25556CDD66A3D3E90023DDE9040102F067F806460F460246F1
S32D000119100B46DDE9020101F0A7FE8046894642464B46DDE9020101F09FFE32463B4601F09BFE5BA3D3E9002393
S32D0001193806460F46DDE9040102F04AF832463B4601F08EFE0B46024606460F4640464946CDE9028901F084FE67
S32D00011960C1F30A53ED1A312D8946804633DD4EA3D3E90023DDE9040102F02EF8DDE9025602460B46804689463E
S32D000119882846314601F06CFE02460B4628463146CDE9022301F064FE42464B4601F060FE41A3D3E900230646CD
S32D000119B00F46DDE9040102F00FF832463B4601F053FE06460F4602460B46DDE9020101F04BFE8046894642465A
S32D000119D84B46C4E90023DDE9020101F041FE32463B4601F03DFEBBF1000F02460B46C4E902230546BFF673AE1A
S32D00011A0009F1004301F10041C4E90083C4E90251CAF1000A67E60323ABE601F027FE284B9D4206460F4616D05F
S32D00011A2823A3D3E9002301F01DFE02460B46C4E900233046394601F013FE1DA3D3E9002301F010FE4FF0FF3A68
S32D00011A50C4E9020147E610A3D3E9002301F006FE0FA3D3E9002306460F4601F0FFFD02460B46C4E90023304605
S32D00011A78394601F0F5FD08A3D3E9002301F0F2FD4FF0FF3AC4E9020129E600BFAFF300800000601A61B4D03DBF
S32D00011AA07370032E8A19A33B0000002E8A19A33BC14920259A837B393163621A61B4D03DFB21F93F2DE9F04FD8
S32D00011AC8AB4A20F00044944289B00D466CDDA94A944207461CDC0028A74940F31E8102F0ADFAA64B24F00F0452
S32D00011AF09C4206466BD0A44902F0A4FA01462860304602F09FFAA04902F09CFA01266860304609B0BDE8F08F62
S32D00011B189C4A94426CDDB4F1FF4F4DDAE615863EA4EBC654204602F059FD02F03DFB01462046059102F082FA8E
S32D00011B404FF0874102F088FB804602F04BFD02F02FFB044621464046069402F073FA4FF0874102F079FB002120
S32D00011B68079002F009FD002800F0BA802046002102F002FD002814BF01230223824A019202213246009105A879
S32D00011B90294600F0E9FF002F0646B9DAD5E9002302F1004203F1004346422A606B60AFE70026286000223046CB
S32D00011BB84A6009B0BDE8F08F014602F03FFA002668602860A0E7714902F038FA7049044602F034FA0146296037
S32D00011BE0204602F02FFA6C4902F02CFA01266860304609B0BDE8F08F01F098FC6749804602F02AFB4FF07C5128
S32D00011C0802F01EFA02F0EAFC064602F0CDFA5A49834602F01DFB0146404602F00FFA58498246584602F014FB80
S32D00011C301F2E814622DC5A4A711E24F0FF0352F8212093421AD04946504602F0FBF98046C5F8008041465046B5
S32D00011C5802F0F4F9494602F0F1F9002F6860BFF653AF08F1004800F10040C5F800806860764249E749465046E1
S32D00011C8002F0E0F9C0F3C753C3EBD453082B80464FEAE452DCDD3F490392584602F0DCFA80460146504602F08F
S32D00011CA8CDF904462146504602F0C8F9414602F0C5F937498046584602F0CAFA414602F0BDF9014681462046D9
S32D00011CD002F0B8F9039AC0F3C753D21A192A804604DC2860A246B5E703234BE72D49584602F0B2FA01468046E0
S32D00011CF8204602F0A3F982465146204602F09EF9414602F09BF926490446584602F0A0FA214602F093F98146DF
S32D00011D2091E702F091F9174B24F00F049C4206460ED0154902F088F901462860304602F081F9114902F080F9C8
S32D00011D484FF0FF366860DFE6104902F079F91049044602F075F901462960204602F06EF90B4902F06DF94FF031
S32D00011D70FF366860CCE600BFD80F493FE3CB1640800FC93FD00FC93F43443537800F494364550100004435376D
S32D00011D9808A3852E84F9223FE454010000A3852E32318D24FFFFFFFF2DE9F04D21F0004786B0B7F1795FCDE92A
S32D00011DC00023884606466DDA02F0A0F8002800F0EF80324643463046414601F0FDFD78A3D3E9002304460D46DF
S32D00011DE801F0F6FD76A3D3E9002301F03BFC22462B4601F0EDFD74A3D3E9002301F030FC22462B4601F0E4FD56
S32D00011E1071A3D3E9002301F029FC22462B4601F0DBFD6FA3D3E9002301F01EFC22462B4601F0D2FD6CA3D3E998
S32D00011E38002301F017FC22462B4601F0C9FDCDE90201694B00222046294601F0C1FDDDE9022382468B462046C7
S32D00011E60294601F0B9FD02460B461F46304641461646DDE9002301F0AFFD02460B463046394601F0F1FB0246AD
S32D00011E880B465046594601F0EBFB02460B460020564901F0E5FB06B0BDE8F08D02460B4601F096FD44A3D3E90D
S32D00011EB0002304460D4601F08FFD43A3D3E9002301F0D4FB22462B4601F086FD40A3D3E9002301F0C9FB224615
S32D00011ED82B4601F07DFD3EA3D3E9002301F0C2FB22462B4601F074FD3BA3D3E9002301F0B7FB22462B4601F02C
S32D00011F006BFD39A3D3E9002301F0B0FB2B46224601F062FD384B9F42CDE9020195DD374B9F423CDC4FF0000A77
S32D00011F28A7F5001B314952465B46002001F098FBCDE904012C4B00222046294601F048FD52465B4601F08CFB6C
S32D00011F50DDE9022382468B462046294601F03CFD02460B461F46304641461646DDE9002301F032FD02460B46E6
S32D00011F783046394601F074FB02460B465046594601F06EFB02460B46DDE9040101F068FB06B0BDE8F08D184BCA
S32D00011FA0DFF860B00022CDE904234FF0000AC5E71049002006B0BDE8F08D00BFAFF30080D43888BEE9FAA8BD6B
S32D00011FC8C4B1B4BD9EEE213EAD529C804F7E923E9015CB19A001FA3E7751C1166CC1563F4C5555555555A53FC5
S32D00011FF00000E03F0000F03F3233D33F0000E93F0000E73F0000D23F2DE9F04FADF5197DBA4CA29D089354F8E5
S32D0001201825400594013B12F1140F07460B910393C0F24283B449D31E81FB0301DB17C3EBA10307930133A3EB35
S32D000120408303DB00D3180693079A039BD61A059A12EB03091BD409F10109DDF88CA2B1440DF1800800240025FB
S32D0001206808E05AF8260001F049FC01364E45E8E8020108D0002EF4DA0136204629464E45E8E80201F6D1059B69
S32D00012090002BA7F108030493C0F2BA831946089BDDF80C90DA000292059A01EBC30820A901EBC30AD3180DF527
S32D000120B8E07B0193039B002BC0F2B181049E57460024002577E90223F6E9020101F080FC02460B462046294693
S32D000120E001F0C4FA464504460D46EFD1019B09F101099945EBE802450AF1080ADED1059A04980CA901EB820385
S32D0001210802990144083B8B460BA90993134601EB82020A920193019A98A901EBC203002A53E928452ADD0DF502
S32D00012130E07A0AEBC2080DF13009724B00222046294601F049FC01F0E1FE01F0DBFB6E4B002206460F4601F042
S32D000121583FFC02460B462046294601F081FA01F0D1FE044678E9022349F8044B3046394601F078FAD04504466C
S32D000121800D46DAD1DDF81890204629464A4601F053F900224FF07F5304460D4601F01CFC01F0CEF8594B0022BD
S32D000121A801F016FC02460B462046294601F058FA0D46044601F0A6FE804601F09FFB0B4602462946204601F072
S32D000121D04BFA4B46002B06460F4640F39980019A0CA9013AC9F1180351F8225045FA03F101FA03F3EB1AC9F1F4
S32D000121F817050CA843FA05F5002D40F82230884400F38C80002200233046394601F048FE002800F05082019B38
S32D00012220059A03F1FF3A524510DC03F180430CAA013B0A9802EB8303002253F80419834242EA0102F9D1002A10
S32D0001224840F0F080059B0CAA013B52F82330002B40F0E080099A012352F8041901330029FAD001994A1CCB18A5
S32D0001227002939146079B089902EB030A019B0B44984620AB0AF1804A03EBC808A39B0AF1FF3A03EB8A0A70AB70
S32D0001229803EBC20301935AF8040F01F02FFB039B002BC8E90001474608F108081EDB049E083F0024002501E033
S32D000122C077E80201F6E9022301F086FB02460B462046294601F0CAF95E4504460D46EFD1019BE3E802450193B3
S32D000122E8029B09F101099945D5DD13E700240025F2E700BFC0580100ABAAAA2A0000703E0000704100002040BA
S32D000123106BD1019B0CAA013B52F82350ED15002D7FF774AF019B002B08F1010840F3C5810C9C002C51D1019B7B
S32D00012338012B20D00CAB012253F8044F002C4BD0531C0CA9C4F1807441F822400199994210DD0CAA0CA852F81D
S32D00012360232000EB830300EB81006FF07F4100E01A688A1A43F8042B8342F9D10124069B002B0EDD012B00F018
S32D000123887A81022B09D1019B5A1E0CAB0CA953F82230C3F3150341F82230022D7FF432AF32463B46BC4900200D
S32D000123B001F05AF906460F46002C3FF427AF069AB749002001F038F802460B463046394601F04AF906460F46A0
S32D000123D818E701230022B4E7019901328A42ABD1C9E7AE4B002201F079FD054600283FF409AF019B002B08F191
S32D000124000108C8BF022593DC32463B46A449002001F02AF9022506460F46F7E6019B5A1C9146029226E700241A
S32D0001242800255FE60CAB069A53F82A30CDF81C80183A0395069273B9019B03F18043023B0CA901EB830353F80E
S32D0001245004190AF1FF3A183A0029F8D00692069A8F49002000F0E8FFBAF1000F04460D46C0F2D28170AB03EB5D
S32D00012478CA0B0CAA0AF10103069302EB83084FEACA030BF10809049358F8040D01F036FA22462B4601F09CFA0E
S32D000124A006460F46804B2046294669E90267002201F092FA0CAB984504460D46E8D148ABCDE9013ADDF814A01B
S32D000124C8BAF1000F4FF000092CDB71A3D3E90023DFF8D0815F4600240025002603E0B14510DBF8E80223F7E805
S32D000124F0020101F071FA02460B462046294601F0B5F80136B24504460D46ECDA019B029A03EBC9039145C3E94D
S32D000125180045ABF1080B09F1010306D0BAF1000F9946D2DA00240025ECE7A29BDDF808A0022B23DC002B00F367
S32D00012540F18018D1049CA29A019D08342C4413461046194674E9022301F088F8A54202460B46F5D1039909B14F
S32D0001256803F1004319460B9B1046C3E90001079B03F007000DF5197DBDE8F08FA29B032BF5D1BAF1000F00F0D2
S32D000125905981019B049A03EB020BDBE900455BE902672046294632463B4601F05FF8A046A94604460D46224667
S32D000125B82B463046394601F053F84B46424601F051F8CBE900016BE90245019B5B45E2D1BAF1010F40F332811F
S32D000125E0049B019A1344D3E9004502939A460DF5947B5AE902672046294632463B4601F035F8A046A9460446FD
S32D000126080D4622462B463046394601F029F842464B4601F027F8CAE900016AE90245D345E3D1029C01990023D2
S32D0001263008341A4601F110051846114674E9022301F014F8A54203460A46F5D10399002940F0B3801846019B3C
S32D000126580B9ED3E902451146DDE94823C6E90023079BC6E9040103F00700C6E902450DF5197DBDE8F08F019BAF
S32D000126805A1E0CAB0CA953F82230C3F3160341F8223086E6AFF3008000000040FB21F93F0000F03F0000E03FE0
S32D000126A80000703E8858010000216FF017030791C4E400245FE63946069F03957A423046CDF81C8000F0B4FE40
S32D000126D05E4B002204460D4601F004FC002862D05B4B00222046294601F076F901F00EFC064601F007F9554B53
S32D000126F8002201F06DF90B4602462946204600F0AFFF019C01F0FEFB04F1010A0CAB183743F82400069743F86A
S32D000127202A609CE6019D069A002105EBC2040B460846194674E9022300F098FFA5420B460146F5D11846039B21
S32D00012748002B50D10A460C460B9905460346C1E90045DDE9480100F083FFBAF1000F02460B4610DD48AD012472
S32D0001277010461946F5E9022300F078FF0134A24502460B46F4DA039909B103F1004319460B9B1046C3E9020101
S32D00012798079B03F007000DF5197DBDE8F08F2046294601F0AFFB019B0CAA9A4642F8230051E601990B9C486893
S32D000127C023610E4602F10042B368C968A360079B626100F100403268606001F1004103F00700E16022600DF5AC
S32D000127E8197DBDE8F08F0B9C034600F100400A46C4E90010DDE9480100F032FFBAF1000F02460B46AEDCBCE72A
S32D00012810089BDB00029372E4A29B022B06DC002B0DDC7FF4A8AEA29A13469BE6A29B032B7FF4A1AE002348A9B0
S32D000128381A46019106E70021084680E700231A4600E700BF000070410000703EFFFFFFFF2DE9F04F21F000468C
S32D0001286087B0B6F1795F044601919046994604DA01F04CFB002800F08F80019B22461946204601F0A9F8019BCE
S32D0001288806460F463246194620463B4601F0A0F843A3D3E9002382468B463046394601F097F841A3D3E90023A3
S32D000128B000F0DAFE32463B4601F08EF83EA3D3E9002300F0D3FE32463B4601F085F83CA3D3E9002300F0C8FE65
S32D000128D832463B4601F07CF839A3D3E9002300F0C1FE109BCDE90201002B37D0384B00224046494601F06CF864
S32D00012900DDE90223CDE904015046594601F064F802460B46DDE9040100F0A6FE32463B4601F05AF842464B4633
