S01200002E2E2F464548526F626F742E7331397E
S32D0000C000000000205DC2000011C3000017C300001DC3000023C3000029C3000000000000000000000000000073
S32D0000C028000000002FC3000035C30000000000003BC3000041C3000055CF000061CF00006DCF000079CF000026
S32D0000C05085CF000091CF00009DCF0000A9CF0000B5CF0000C1CF0000CDCF0000D9CF0000E5CF0000F1CF00005E
S32D0000C078FDCF000009D0000015D0000021D000002DD0000039D0000045D0000051D000005DD0000069D000007D
S32D0000C0A075D0000081D000008DD0000099D00000A5D00000B1D00000BDD00000C9D00000D5D00000E1D00000A4
S32D0000C0C8EDD00000F9D0000005D1000011D100001DD1000029D1000035D1000041D100004DD1000059D10000C4
S32D0000C0F065D10000391F010071D100007DD1000089D1000095D10000A1D10000ADD10000B9D10000C5D1000033
S32D0000C118D1D10000DDD10000E9D10000F5D1000001D200000DD2000019D2000025D2000031D200003DD2000083
S32D0000C14049D2000055D2000061D200006DD20000E1F8000079D2000085D2000091D200009DD20000A9D2000055
S32D0000C168B5D20000C1D20000CDD20000D9D20000E5D20000F1D20000FDD2000009D3000015D3000021D3000044
S32D0000C1902DD3000039D3000045D30000F1F50000A1F4000051F50000D1CC000095F6000051D300005DD3000020
S32D0000C1B869D300006C55010000000020641500006C5501000000FF1F00000000681500205C0500000000FF1FC6
S32D0000C1E00000000080B489B000AFF860B9607A60BB68FB61FB68BB6100237B617A697B689A420BD2BA69131DFB
S32D0000C208BB61FB69191DF96112681A607B6904337B61EFE700BF2437BD4680BC704780B485B000AF786039609E
S32D0000C2307B68FB600023BB60BA683B689A4208D2FB681A1DFA6000221A60BB680433BB60F2E700BF1437BD46FE
S32D0000C25880BC704780B586B000AF72B6234B4CF220521A80214B4DF628121A80204B4FF4E9721A801F4B7B615F
S32D0000C2807B691F4A934214D27B691A1D7A611B683B617B691A1D7A611B68FB607B691A1D7A611B68BB60BA68E9
S32D0000C2A8F9683869FFF79AFFE6E77B69134A93420ED27B691A1D7A611B68FB607B691A1D7A611B68BB60B9688B
S32D0000C2D0F868FFF7A8FFECE70B4B7B600B4A7B681A6007F083FF62B600F0B8FD00F07CFCFEE700BF0E200540D8
S32D0000C2F800200540BCC10000D4C10000E4C1000008ED00E000C0000080B400AFFEE780B400AFFEE780B400AFF4
S32D0000C320FEE780B400AFFEE780B400AFFEE780B400AFFEE780B400AFFEE780B400AFFEE780B400AFFEE780B426
S32D0000C34800AFFEE7FFFFFFFFFFFFFFFFFFFFFFFFFFFFFFFFFFFFFFFFFFFFFFFFFFFFFFFFFFFFFFFFFFFFFFFF57
S32D0000C370FFFFFFFFFFFFFFFFFFFFFFFFFFFFFFFFFFFFFFFFFFFFFFFFFFFFFFFFFFFFFFFFFFFFFFFFFFFFFFFFC7
S32D0000C398FFFFFFFFFFFFFFFFFFFFFFFFFFFFFFFFFFFFFFFFFFFFFFFFFFFFFFFFFFFFFFFFFFFFFFFFFFFFFFFF9F
S32D0000C3C0FFFFFFFFFFFFFFFFFFFFFFFFFFFFFFFFFFFFFFFFFFFFFFFFFFFFFFFFFFFFFFFFFFFFFFFFFFFFFFFF77
S32D0000C3E8FFFFFFFFFFFFFFFFFFFFFFFFFFFFFFFFFFFFFFFFFFFFFFFFFFFFFFFFFFFFFFFFFFFFFFFFFEFFFFFF50
S32D0000C41010B5054C237833B9044B13B10448AFF300800123237010BD68150020000000006C55010008B5034BF2
S32D0000C4381BB103490348AFF3008008BD000000006C1500206C55010080B483B000AFC7E900013A68796821F0CE
S32D0000C4600043104619460C37BD4680BC7047FFFF80B500AF1C4BD3E9002310461946FFF7E7FF15A3D3E900232D
S32D0000C48807F0DAFA0346002B1FD0164BD3E9002310461946FFF7D8FF0DA3D3E9002307F0CBFA0346002B10D0F7
S32D0000C4B00F4BD3E9002310461946FFF7C9FF08A3D3E9002307F0BCFA0346002B01D0012300E00023184680BD74
S32D0000C4D8FCA9F1D24D62503F9A5AF8F2E9CEBA3F281600203016002050160020FFFFFFFF80B582B000AFC7E9F6
S32D0000C500000113A3D3E90023D7E9000106F0CCFCC7E900014FF000024FF00003D7E9000107F08EFA0346002B10
S32D0000C5280AD009A3D3E90023D7E9000106F05CFE02460B46C7E90023D7E90023104619460837BD4680BD00BF2D
S32D0000C550EF024454FB21194080B500AF324BD3E900012DA3D3E9002306F0F8FF02460B462E49C1E900232E4BAF
S32D0000C578D3E9000128A3D3E9002306F0EBFF02460B462A49C1E90023294BD3E900014FF000024FF0804307F00A
S32D0000C5A007F902460B462549C1E900231F4BD3E90001224BD3E9002306F018FE02460B461F49C1E900231E4BE3
S32D0000C5C8D3E90001194BD3E9002306F00BFE02460B461A49C1E90023124BD3E90001144BD3E9002306F000FE31
S32D0000C5F002460B461449C1E90023114BD3E900010C4BD3E9002306F0F3FD02460B460F49C1E9002300BF80BD6B
S32D0000C618957D5704FF5BB93FBFB14CE87AB6EB3FB8150020D815002090150020E815002088150020F015002079
S32D0000C640E0150020C8150020C0150020D015002080B588B000AF387339723A7102F060FDC7E9060102F05CFD52
S32D0000C66802460B46D7E9060106F0BCFD02460B46C7E9042307F10803184603F055F80346184606F0FDFED7E92C
S32D0000C690042307F08DF802460B461046194654A3D3E9002306F05AFF02460B465249C1E9002307F10C03184600
S32D0000C6B803F03AF80346184606F0E2FED7E9042307F072F802460B461046194646A3D3E9002306F03FFF0246D8
S32D0000C6E00B464649C1E900233B1D184603F020F80346184606F0C8FED7E9042307F058F802460B4610461946DF
S32D0000C70839A3D3E9002306F025FF02460B463A49C1E90023394806F067FA0346184606F0C1FE02460B463649F9
S32D0000C730C1E90023354BD3E90001354BD3E9002306F00CFF02460B4610461946314BD3E9002306F04DFD024640
S32D0000C7580B462E49C1E900232D4BD3E900012A4BD3E9002306F0F6FE02460B4610461946284BD3E9002306F015
S32D0000C78037FD02460B462549C1E90023244BD3E900011F4BD3E9002306F0E0FE02460B46104619461F4BD3E9C6
S32D0000C7A8002306F021FD02460B461C49C1E900231B4BD3E90001144BD3E9002306F0CAFE02460B4610461946F4
S32D0000C7D0164BD3E9002306F00BFD02460B461349C1E9002300BF2037BD4680BDAFF30080B81E85EB51B89E3F97
S32D0000C7F8C8150020C0150020D0150020C0190020481600208815002068160020F8150020901500200016002022
S32D0000C8209815002018160020A015002020160020B0B584B000AFC7E90201C7E900239E4806F0BAF903461846A0
S32D0000C84806F030FE02460B46D7E9020106F0CAFC02460B469749C1E90023954806F0B6F90346184606F01EFE05
S32D0000C87002460B46D7E9000106F0B8FC02460B468F49C1E900238F49D7E90823C1E9002397F8482097F84410EE
S32D0000C89897F84000FFF7D8FE864BD3E90045844806F086F90346184606F0FCFD02460B462046294606F096FC38
S32D0000C8C002460B468049C1E900237D4BD3E90045794806F07FF90346184606F0E7FD02460B462046294606F03E
S32D0000C8E881FC02460B467749C1E900236CA3D3E90023D7E9080106F077FC02460B46104619466E4BD3E9002379
S32D0000C91006F06CFC02460B4610461946FFF7ECFD02460B4660A1D1E9000106F05FFC02460B466749C1E90023B2
S32D0000C938FFF79AFD0346002B0FD007F12803184600F054FD07F13003184600F04FFD07F13803184600F04AFDA2
S32D0000C96024E15C4BD3E90001574BD3E9002306F03FFC02460B465749C1E90023564BD3E90001524BD3E90023AE
S32D0000C98806F032FC02460B465149C1E90023514BD3E900014C4BD3E9002306F025FC02460B464C49C1E900237C
S32D0000C9B0454BD3E900014FF00002494B06F0CEFD02460B4614461D46424BD3E9000138A3D3E9002306F0C2FD67
S32D0000C9D802460B462046294606F006FC02460B463E49C1E90023374BD3E900014FF00002394B06F0AFFD0246F0
S32D0000CA000B4614461D46344BD3E9000128A3D3E9002306F0A3FD02460B462046294606F0E7FB02460B46304926
S32D0000CA28C1E900232D4BD3E9002310461946FFF70BFD02460B462B49C1E90023284BD3E9002310461946FFF732
S32D0000CA50FFFC02460B462649C1E90023234BD3E900014FF00002234B07F008F80346002B0AD11F4BD3E90001A1
S32D0000CA784FF000021D4B06F0FDFF0346002B5ED0184BD3E90001184BD3E9002306F0F2FF0346002B2CD0134B3C
S32D0000CAA0D3E900232BE000BF182D4454FB210940FCA9F1D24D62403FC0190020081600201016002060160020D4
S32D0000CAC8281600203016002050160020381600204016002058160020000014408815002090150020A8150020D1
S32D0000CAF0B01500200000F03F314BD3E900234FF00000304906F054FE02460B462E49C1E900232E4BD3E9000196
S32D0000CB182B4BD3E9002306F01DFD02460B462949C1E90023284BD3E90001254BD3E9002306F010FD02460B4697
S32D0000CB402349C1E90023234BD3E900014FF00002214B06F003FD02460B4614461D461F4BD3E9000114A3D3E9D0
S32D0000CB68002306F0F7FC02460B462046294606F03BFB02460B461849C1E90023164BD3E900014FF00002154B73
S32D0000CB9006F074FF0346002B05D011494FF00002104BC1E90023FFF7D7FC71E61037BD46B0BD00BFAFF300804A
S32D0000CBB8FCA9F1D24D62403FB01500200000F03F70160020881500209015002050160020000014405816002015
S32D0000CBE0B81500200000494080B598B00CAF02F097FAC7E90A0107F12003324A0021184600F0BAFB07F118036D
S32D0000CC082E4A0121184600F0B3FB07F110032B4A0221184600F0ACFB07F10C030021184602F0C4FA07F1080397
S32D0000CC300121184602F0BEFA3B1D0221184602F0B9FA07F10C03184602F084FD07F10803184602F07FFD3B1D2F
S32D0000CC58184602F07BFD1A4805F072FD3B798DF828303B7A8DF824303B7B8DF8203006AA07F1100393E803003D
S32D0000CC8082E8030004AA07F1180393E8030082E8030002AA07F1200393E8030082E803004FF00002094BCDE970
S32D0000CCA800234FF00002074B4FF000000549FFF7BBFD002318463037BD4680BD00001041C01900200000344087
S32D0000CCD080B500AF0F4BD3F8A03003F48053002B14BF01230023DBB2002B10D0094BD3F8A030084A23F480538B
S32D0000CCF8C2F8A030064806F04BF8064B1B68054A23F40053136000BF80BD00BF00C00440E0190020C0F00F4026
S32D0000CD2080B400AF124B4FF480725A63114B5B69104A43F4005353610E4B1B680D4A43F4005313600A4B0C4A20
S32D0000CD481A630C4BD3F888310A4A43F08063C2F88831084B9B68074A43F08063936000BFBD4680BC704700BF64
S32D0000CD7000C00440C0F00F4003010A0000E100E080B400AF324B00225A70314B98221A702F4B9B79DBB203F0A9
S32D0000CD981003002B14BF01230023DBB2002B00D0F2E7294B9B79DBB29B0803F00303022B14BF01230023DBB22F
S32D0000CDC0002B00D0F1E7224B18221A71204B00225A71204B03F5825304331F4A1A601C4B54225A711A4B9B7975
S32D0000CDE8DBB203F02003002B0CBF01230023DBB2002B00D0F2E7144B9B79DBB203F04003002B0CBF0123002369
S32D0000CE10DBB2002B00D0F2E70D4B1B78DBB20C4A03F03F03DBB21370094B9B79DBB29B0803F00303032B14BFEE
S32D0000CE3801230023DBB2002B00D0F1E700231846BD4680BC704700BF00400640007004400000130180B500AFBD
S32D0000CE60344B03F5815318331B68324943F4785201F5815318331A60FFF752FFFFF780FF2D4B58221A602C4BE1
S32D0000CE881B684FF47A7202FB03F32A4A1360294B1B681A46254B03F5825304331B681B0E03F00F030133B2FB93
S32D0000CEB0F3F31A46224B1A601E4B03F581531C331B681C4943F0225201F581531C331A60184B03F5815310330F
S32D0000CED81B68164943F0006201F5815310331A60164B4FF480721A61642001F0C3FF134B5B69124A23F0100342
S32D0000CF005361104B00221A600E4B10225A610E4803F0C2F802F098FC02F0F6FC0B4802F011F80B4805F08CFF84
S32D0000CF284FF4FA6002F0BCF800BF80BD00700440A4180020A0180020A818002000D00340581900209C180020DC
S32D0000CF50501A002080B500AFFFF7F5F900BF80BD80B500AFFFF7EFF900BF80BD80B500AFFFF7E9F900BF80BDEF
S32D0000CF7880B500AFFFF7E3F900BF80BD80B500AFFFF7DDF900BF80BD80B500AFFFF7D7F900BF80BD80B500AFA3
S32D0000CFA0FFF7D1F900BF80BD80B500AFFFF7CBF900BF80BD80B500AFFFF7C5F900BF80BD80B500AFFFF7BFF9E7
S32D0000CFC800BF80BD80B500AFFFF7B9F900BF80BD80B500AFFFF7B3F900BF80BD80B500AFFFF7ADF900BF80BDB9
S32D0000CFF080B500AFFFF7A7F900BF80BD80B500AFFFF7A1F900BF80BD80B500AFFFF79BF900BF80BD80B500AFDF
S32D0000D018FFF795F900BF80BD80B500AFFFF78FF900BF80BD80B500AFFFF789F900BF80BD80B500AFFFF783F95E
S32D0000D04000BF80BD80B500AFFFF77DF900BF80BD80B500AFFFF777F900BF80BD80B500AFFFF771F900BF80BDF4
S32D0000D06880B500AFFFF76BF900BF80BD80B500AFFFF765F900BF80BD80B500AFFFF75FF900BF80BD80B500AF1A
S32D0000D090FFF759F900BF80BD80B500AFFFF753F900BF80BD80B500AFFFF74DF900BF80BD80B500AFFFF747F9D6
S32D0000D0B800BF80BD80B500AFFFF741F900BF80BD80B500AFFFF73BF900BF80BD80B500AFFFF735F900BF80BD30
S32D0000D0E080B500AFFFF72FF900BF80BD80B500AFFFF729F900BF80BD80B500AFFFF723F900BF80BD80B500AF56
S32D0000D108FFF71DF900BF80BD80B500AFFFF717F900BF80BD80B500AFFFF711F900BF80BD80B500AFFFF70BF94D
S32D0000D13000BF80BD80B500AFFFF705F900BF80BD80B500AFFFF7FFF800BF80BD80B500AFFFF7F9F800BF80BD6D
S32D0000D15880B500AFFFF7F3F800BF80BD80B500AFFFF7EDF800BF80BD80B500AFFFF7E7F800BF80BD80B500AF94
S32D0000D180FFF7E1F800BF80BD80B500AFFFF7DBF800BF80BD80B500AFFFF7D5F800BF80BD80B500AFFFF7CFF8C9
S32D0000D1A800BF80BD80B500AFFFF7C9F800BF80BD80B500AFFFF7C3F800BF80BD80B500AFFFF7BDF800BF80BDAA
S32D0000D1D080B500AFFFF7B7F800BF80BD80B500AFFFF7B1F800BF80BD80B500AFFFF7ABF800BF80BD80B500AFD0
S32D0000D1F8FFF7A5F800BF80BD80B500AFFFF79FF800BF80BD80B500AFFFF799F800BF80BD80B500AFFFF793F841
S32D0000D22000BF80BD80B500AFFFF78DF800BF80BD80B500AFFFF787F800BF80BD80B500AFFFF781F800BF80BDE5
S32D0000D24880B500AFFFF77BF800BF80BD80B500AFFFF775F800BF80BD80B500AFFFF76FF800BF80BD80B500AF0B
S32D0000D270FFF769F800BF80BD80B500AFFFF763F800BF80BD80B500AFFFF75DF800BF80BD80B500AFFFF757F8B8
S32D0000D29800BF80BD80B500AFFFF751F800BF80BD80B500AFFFF74BF800BF80BD80B500AFFFF745F800BF80BD21
S32D0000D2C080B500AFFFF73FF800BF80BD80B500AFFFF739F800BF80BD80B500AFFFF733F800BF80BD80B500AF47
S32D0000D2E8FFF72DF800BF80BD80B500AFFFF727F800BF80BD80B500AFFFF721F800BF80BD80B500AFFFF71BF830
S32D0000D31000BF80BD80B500AFFFF715F800BF80BD80B500AFFFF70FF800BF80BD80B500AFFFF709F800BF80BD5C
S32D0000D33880B500AFFFF703F800BF80BD80B500AFFEF7FDFF00BF80BD80B500AFFEF7F7FF00BF80BD80B500AF76
S32D0000D360FEF7F1FF00BF80BD80B500AFFEF7EBFF00BF80BDFFFFFFFF80B584B000AFF8600B467A60FB72FB6898
S32D0000D388FA7A1A71FB6800225A711749786806F0F3FE0346002B02D0134B7B600AE04FF07E51786806F0D4FEE2
S32D0000D3B00346002B02D04FF07E537B60786806F075F809A3D3E9002306F0C8F802460B461046194606F0BAFBA1
S32D0000D3D80246FB681A60FB6818461037BD4680BDABAAAAAAAAAA20400000404180B582B000AF78607B685B7937
S32D0000D400002B09D07B6800225A717B6819791E230022034801F0D0FD00BF0837BD4680BD9C18002080B483B0D0
S32D0000D42800AF03460A46FB711346BB71BB79002B03D1134B00221A7002E0114B01221A703823FB710E4B1A78C3
S32D0000D450FB791343FB710D4B9B78DBB20B4A43F01003DBB29370094B9B78DBB2074A43F02003DBB29370054ADB
S32D0000D478FB79137100BF0C37BD4680BC704700BF781600200060064080B483B000AF01237B607B68312B04DC4F
S32D0000D4A000BF7B6801337B60F7E700BF0C37BD4680BC704780B582B000AF03460A46FB711346BB71134B1B7846
S32D0000D4C800211846FFF7AAFF00F024F8104AFB79137100F01FF80E4ABB79137100F01AF80B4B9B78DBB20A4A57
S32D0000D4F023F02003DBB29370074B9B78DBB2064A23F01003DBB29370FFF7C2FF00BF0837BD4680BD79160020AC
S32D0000D5180060064080B483B000AF174B1B78002B24D100237B60154BDB78DBB203F00203002B0CBF01230023A1
S32D0000D540DBB2002B0DD07B6842F21072934203DD0B4B01221A7004E07B6801337B6000BFE5E7084BDB78DBB243
S32D0000D568064A43F00203DBB2D37000E000BF0C37BD4680BC704700BF7A1600200060064080B582B000AF0346F1
S32D0000D590FB71FB79184600F05FF800BF0837BD4680BD80B582B000AF03460A46FB711346BB7100F035F8FB7979
S32D0000D5B85B00DBB21846FFF7E3FFBB791846FFF7DFFF00F037F800BF0837BD4680BD80B500AFFF2000F03CF83D
S32D0000D5E00346184680BD80B584B000AF0346FB7100F016F8FB795B005BB243F001035BB2DBB21846FFF7C0FFAE
S32D0000D608FFF7E5FF0346FB7300F014F8FB7B18461037BD4680BDFFFF80B400AF044B9B68034A43F480139360CF
S32D0000D63000BFBD4680BC704740F00F4080B400AF044B5B68034A43F48013536000BFBD4680BC704740F00F40A5
S32D0000D65880B485B000AF0346FB710023BB73164BDB6A03F00043012B0CBF01230023DBB2002B03D0FB7B013337
S32D0000D680FB73F0E70E4BDB6A0D4A43F00043D3620B4AFB7953630A4BDB6A03F40033002B0CBF01230023DBB28A
S32D0000D6A8002B00D0F3E7044B9B6BBB73BB7B18461437BD4680BC704700C00A40FFFFFFFF80B582B000AF224B9E
S32D0000D6D003F5815310331B681F4943F4805201F5815310331A601D4B4FF480721A651C4B5B691B4A43F480132C
S32D0000D6F85361FFF79FFF174B4FF400725A65154B4FF400729A65134B4FF40072DA65134B134A1A60114B134A92
S32D0000D720DA6000237B607B68092B06DCFF20FFF72BFF7B6801337B60F5E705A1D1E9000101F0C8FC00BF083789
S32D0000D748BD4680BDAFF300809A9999999999B93F0070044000A0044040F00F4000C00A40000C00800500003ED2
S32D0000D77090B486B000AFF860B9607A60FB68594A93420CD1584B03F5815314331B68564943F4806201F58153A4
S32D0000D79814331A604FE0FB68524A93420CD1504B03F5815314331B684D4943F4006201F5815314331A603EE0B9
S32D0000D7C0FB684B4A93420CD1474B03F5815314331B68454943F4805201F5815314331A602DE0FB68434A934275
S32D0000D7E80CD13F4B03F5815314331B683C4943F4005201F5815314331A601CE0FB683C4A93420CD1364B03F56D
S32D0000D810815308331B68344943F4806201F5815308331A600BE0304B03F5815308331B682D4943F4006201F54E
S32D0000D838815308331A60FB68DB78DBB223F00C03DAB2FB68DA70FB6800229A70BB684FF47A7202FB03F27B68E5
S32D0000D8601B0192FBF3F39CB2FB681B78DBB223F01F03FB7523461B12DBB203F01F03DAB2FB7D1343DAB2FB6814
S32D0000D8881A70E2B2FB685A70BB684FF4FA4202FB03F27B681B0192FBF3F39AB263019BB2D31A9CB2FB689B7A71
S32D0000D8B0DBB223F01F03FB75E3B203F01F03DAB2FB7D1343DAB2FB689A72FB68DB78DBB243F00C03DAB2FB68A5
S32D0000D8D8DA7000BF1837BD4690BC704700A006400070044000B0064000C0064000D0064000A00E4080B483B0C3
S32D0000D90000AF78607B681B79DBB203F02003002B0CBF01230023DBB2002B00D0F2E77B68DB79DBB218460C3755
S32D0000D928BD4680BC704780B483B000AF78600B46FB707B681B79DBB25BB2DB43DBB2DB09DBB2002B00D0F4E72E
S32D0000D9507B68FA78DA7100BF0C37BD4680BC704780B487B000AFF860B9607A60FB687B617B685A1E7A60002B0D
S32D0000D97814BF01230023DBB2002B06D07B695A1C7A61BA68D2B21A70EEE700BF1C37BD4680BC704780B584B02E
S32D0000D9A000AF786039607B681B6BFB60FA683B689A4252D07B681B79002B35D07B6858787B6803F134010123E8
S32D0000D9C8FA6801F0F5F80346002B14BF01230023DBB2002B01D001233CE07B6800221A717B685A6A7B681B6AFB
S32D0000D9F01344FA689A4217D27B68DB78FB72FB7A012B11D97B681B6AFA681344FB607B6858787B6803F1340122
S32D0000DA180123FA6801F0CCF8FB7A013BFB72EAE73B68002B15D07B6858787B6803F1340101233A6800F0D8FFB7
S32D0000DA400346002B14BF01230023DBB2002B01D0012303E07B683A681A63002318461037BD4680BD80B584B027
S32D0000DA6800AF786000217868FFF794FF0346FB73FB7B002B40F091807B681B78032B7BD17B685B79002B77D0CD
S32D0000DA907B6800221A637B6834334FF4007200211846FFF75DFF7B68552283F832227B68AA2283F833227B688B
S32D0000DAB8522283F834207B68522283F835207B68612283F836207B68412283F837207B68722283F818227B6878
S32D0000DAE0722283F819227B68412283F81A227B68612283F81B227B681B69DAB27B6883F81C227B681B699BB270
S32D0000DB081B12DAB27B6883F81D227B681B691B0CDAB27B6883F81E227B681B691B0EDAB27B6883F81F227B6843
S32D0000DB30DB68DAB27B6883F820227B68DB689BB21B12DAB27B6883F821227B68DB681B0CDAB27B6883F8222210
S32D0000DB587B68DB681B0EDAB27B6883F823227B6858787B6803F134017B685A69012301F01FF87B6800225A71C0
S32D0000DB807B685B7800220021184601F0E1F80346002B14BF01230023DBB2002B01D00123FB73FB7B1846103792
S32D0000DBA8BD4680BD80B582B000AF78600B467B807B68002B08D07B681B78002B04D07B68DB887A889A4201D085
S32D0000DBD0092311E07B685B78184601F03BF9034603F00103002B14BF01230023DBB2002B01D0032300E000239A
S32D0000DBF818460837BD4680BD80B586B000AF78607B681A687B689B8819461046FFF7CAFF0346FB75FB7D002BF5
S32D0000DC2040F0A8807B689B7903F02003002B00F0A1807B689B7903F04003002B1BD07B681B6858787B6803F1E5
S32D0000DC4828017B689A69012300F0B2FF0346002B14BF01230023DBB2002B01D0012386E07B689B7923F04003EC
S32D0000DC70DAB27B689A717B681A687B68DB6919461046FFF78BFE0346FB75FB7D002B71D17B681B6A3B613B6906
S32D0000DC980B331A783B690B3342F02002D2B21A707B68DA683B691C33D2B21A707B68DB689BB21A123B691D3391
S32D0000DCC0D2B21A707B68DB681A0C3B691E33D2B21A707B68DB681A0E3B691F33D2B21A707B681A693B691A3330
S32D0000DCE8D2B21A707B681B699BB21A123B691B33D2B21A707B681B691A0C3B691433D2B21A707B681B691B0C0C
S32D0000DD109BB21A123B691533D2B21A700023FB603B691633FA68D2B21A70FB689BB21A123B691733D2B21A70BF
S32D0000DD38FB681A0C3B691833D2B21A70FB681A0E3B691933D2B21A707B689B7923F02003DAB27B689A717B6824
S32D0000DD601B6801221A717B681B681846FFF77AFE0346FB75FB7D18461837BD4680BD80B584B000AF7860786844
S32D0000DD88FFF73AFF0346FB73FB7B002B02D17B6800221A60FB7B18461037BD4680BDFFFF80B588B000AF786047
S32D0000DDB0396080233B610F23FB604FF0FF337B610223FB61FB69B3F5807F23D80123BB61BB69102B1AD8FB6917
S32D0000DDD8BA6902FB03F33A6802FB03F27B68D31ABB60BB68002B09DBBB687A699A4205D9BB687B61FB693B6197
S32D0000DE00BB69FB60BB690133BB61E1E7FB695B00FB61D7E71D4BDB6A1C4A23F00803D3621A4BDB6A23F47F2397
S32D0000DE2823F47F63BB613B695B081B029AB2FB68013B1B01DBB21A43BB691343114A43F46023D3620F4B5B6ABF
S32D0000DE5003F00803002B0CBF01230023DBB2002B03D00A2001F020F9F0E7084BDB6A074A43F00803D362054B27
S32D0000DE781B6B044A43F48013136300BF2037BD4680BD00BF00100B4080B582B000AF786039607B6800221A60F2
S32D0000DEA0424B434ADA62414BDB6A03F08073002B14BF01230023DBB2002B00D0F3E73B4B0022C3F8C020394BD9
S32D0000DEC84FF481325A60374B28229A62354B4FF001125A643B689B6834491846FFF760FF304B5B6A03F0030315
S32D0000DEF0002B14BF01230023DBB2002B00D0F3E72D4B40F243421A602B4B40F243425A60294B4FF488629A6032
S32D0000DF18274B40F24342DA60254B40F243421A61234B40F243425A61224B03F5815310331B68204943F4003225
S32D0000DF4001F5815310331A60184B4FF6FF721A63164B1B4A5A63154BDB6A144A43F00063D362124BDB6A03F0B0
S32D0000DF680063002B14BF01230023DBB2002B00D0F3E70C4B5B6A03F48033002B14BF01230023DBB2002B02D0EC
S32D0000DF907B6801221A60054B1B6B044A43F080031363002318460837BD4680BD00100B400080000160CC050086
S32D0000DFB800D0044000700440B3007F0080B400AF064B5A6A40F207331340002B14BF01230023DBB21846BD4657
S32D0000DFE080BC704700100B4080B485B000AF7860074B1B6B7A681340FB60FB68002B00D1F6E7FB681846143725
S32D0000E008BD4680BC704700BF00100B4080B584B000AF78607B681B7803F03F03764A52F82330FB60FB68002BF9
S32D0000E03005D17B681B78002B01D00123DCE0714B1B6B704A43F0800313636E4B5B6A03F00103002B14BF0123DB
S32D0000E0580023DBB2002B00D0F3E7684A7B685B689360FB6823F44003FB607B685B789B0503F44003FA6813436A
S32D0000E080FB607B685B78022B03D1FB6843F40013FB607B685B78042B16D1FB6803F44033B3F5003F08D1FB689C
S32D0000E0A823F44033FB60FB6843F44033FB6007E0FB6823F44033FB60FB6843F40033FB604E4B5B684D4A9BB266
S32D0000E0D053607B68DB68002B2AD0FB6803F44033B3F5403F03D0FB6843F40013FB607B681B7A002B03D0FB687C
S32D0000E0F843F01003FB607B68DB68012B03D9FB6843F02003FB607B68DB68B3F1FF3F0BD03A4B5A687B68DB68C7
S32D0000E1201B04384913434B60FB6843F00203FB60344B00221A60334AFB68D3603248FFF753FF0346012B14BF02
S32D0000E14801230023DBB2002B09D02C4B1B6B2B4A43F4702343F001031363012348E0274B1B6B03F08003002B03
S32D0000E17014BF01230023DBB2002B07D0214B1B6B204A43F001131363012335E01D4B1B6B03F48033002B14BFF0
S32D0000E19801230023DBB2002B08D0184B1B6B174A43F0011313634FF0FF3321E0FB6803F44033002B15D0114BD0
S32D0000E1C01A697B681A61FB6803F44033B3F5803F0BD10C4B5A697B685A610A4B9A697B689A61084BDA697B68D9
S32D0000E1E8DA61064B1B6B054A43F001031363002318461037BD4680BD444F010000100B4001000E0080B592B07E
S32D0000E21000AF7860396000237B643B68BB63994B7B637B6B002B02D140F6012362E3964B3B633B6B002B02D195
S32D0000E23840F60B235AE33B6B1B68FB62FB6A002B02D140F60B2351E37B6841F20932934200F242837B68B3F52E
S32D0000E260985F08D87B68032B00F01D837B68092B00F00C8334E37B68A3F59853013B082B00F22E8301A252F806
S32D0000E28823F000BFB1E20000A1E50000FFE70000B7E50000F5E500001FE7000067E70000A9E60000C3E6000095
S32D0000E2B07649786BFFF7ECFD78647B6C002B40F01383002387F84330002387F82B30002387F82A30002387F85B
S32D0000E2D82930002387F84230002387F8283000233B7200237B720023FB6000233B7400237B6107F10803184621
S32D0000E300FFF788FE0346002B14BF01230023DBB2002B02D001237B64EBE240F24C4000F0C3FE08233B72002321
S32D0000E3287B724FF4D573FB6000233B7400237B6107F108031846FFF769FEF863FB6B002B09D1BA69FB689A423D
S32D0000E35002D001237B64CCE2012387F84230012387F8283097F82830002B00F0A58037233B7200237B720023AB
S32D0000E378FB6000233B7400237B6107F108031846FFF744FEF863FB6B002B02D001237B64ABE269233B72002308
S32D0000E3A07B720023FB6000233B7400237B6107F108031846FFF72EFE0346002B14BF01230023DBB2002B02D078
S32D0000E3C801237B6491E2BB6903F44013002B6FD00023FB630A2000F063FEFB6B0133FB6337233B7200237B72CE
S32D0000E3F00023FB6000233B7400237B6107F108031846FFF707FE0346002B14BF01230023DBB2002B02D0012318
S32D0000E4187B6428E069233B7200237B7297F84230002B02D0184BFB6002E04FF44013FB6000233B7400237B6146
S32D0000E44007F108031846FFF7E5FD0346002B14BF01230023DBB2002B02D001237B6406E0BB69002B03DBFB6BE1
S32D0000E468632B00D8B6E77B6C002B40F03B82FB6B632B0BD9002387F8423019E09016002094180020384F010085
S32D0000E49000003040012387F8433097F84230002B0AD0002387F84230BB6903F08043002B02D0012387F84230D2
S32D0000E4B897F82A30002B02D07B6B07221A6097F82930002B02D07B6B08221A6097F82B30002B02D07B6B042265
S32D0000E4E01A6097F84330002B09D07B6B02221A6097F84230002B02D07B6B03221A6097F82B30002B0DD097F806
S32D0000E5084330002B09D07B6B05221A6097F84230002B02D07B6B06221A60A04B00221A609E4B00225A609D4B2D
S32D0000E53000229A609B4B0022DA609A4B00221A61984B00225A61FB6A9A68FB6A5B6819461046FFF729FC934BE0
S32D0000E55840F243421A60914B40F243425A608F4B4FF488629A608D4B40F24342DA608B4B40F243421A61894B71
S32D0000E58040F243425A61884B03F5815310331B68854943F4003201F5815310331A60A8E1B86BFFF737FDF863A7
S32D0000E5A8FB6B002B00F0A08102237B649CE1BB6B002B02D10C237B6497E17A4BDB6A1B0A5B0003F4FF73FB6327
S32D0000E5D0764BDB6A1B0903F00F035A1CFB6B02FB03F3FB63FB6A9A68FB6BB2FBF3F2BB6B1A607EE1BB6B002B12
S32D0000E5F802D10C237B6478E1BB6B1B68002B02D10C237B6471E1FFF7D9FC0346002B0CBF01230023DBB2002BAB
S32D0000E6203ED0604B00221A605E4B00225A605D4B00229A605B4B0022DA605A4B00221A61584B00225A61FB6A05
S32D0000E6489A68BB6B1B6819461046FFF7A9FB534B40F243421A60514B40F243425A604F4B4FF488629A604D4B75
S32D0000E67040F24342DA604B4B40F243421A61494B40F243425A61484B03F5815310331B68454943F4003201F5AB
S32D0000E698815310331A6028E140F60A237B6424E1BB6B002B02D10C237B641EE13D4B5B68C3F30C02BB6B1A6093
S32D0000E6C017E1BB6B002B02D10C237B6411E1FFF779FC0346002B0CBF01230023DBB2002B19D0BB6B1B68B3F52D
S32D0000E6E8805F02D30C237B64FFE02E4B5B682D4A23F4FF5323F01F0353602A4B5A68BB6B1B68C3F30C0327494A
S32D0000E71013434B60EDE040F60A237B64E9E0BB6B002B02D10C237B64E3E0204B9B6A5B0803F00303FB63FB6B7D
S32D0000E738002B03D1BB6B00221A60D6E0FB6B012B03D1BB6B01221A60CFE0FB6B102B03D1BB6B02221A60C8E083
S32D0000E76005237B64C5E0BB6B002B02D10C237B64BFE0FFF727FC0346002B0CBF01230023DBB2002B37D0BB6B8A
S32D0000E7881B68002B10D1074B9B6A064A23F006039362044B034A9B6A9362A6E000D004400070044000100B40DD
S32D0000E7B0BB6B1B68012B0CD1504B9B6A4F4A23F0060393624D4B9B6A4C4A43F0020393628FE0BB6B1B68022B9A
S32D0000E7D80AD1484B9B6A474A23F006039362454B444A9B6A936280E005237B647DE040F60A237B6479E0BB6B61
S32D0000E800002B02D10C237B6473E03C4BDB6A3B4A43F00063D362394BDB6A03F00063002B14BF01230023DBB27E
S32D0000E828002B00D0F3E7334B1B6B03F08003002B14BF01230023DBB2002B08D02D4B1B6B2C4A43F080031363FE
S32D0000E8507B6B00221A60294B5B6A03F48033002B14BF01230023DBB2002B07D07B6B1B68002B06D17B6B0122ED
S32D0000E8781A6002E07B6B00221A607B6B1A68BB6B1A6032E0BB6B1C221A60BB6B043304221A60BB6B08334FF4FB
S32D0000E8A01E721A6025E00220FFF79EFB134B1B6B03F4E003002B14BF01230023DBB2002B07D00E4B1B6B0D4AC2
S32D0000E8C843F4E003136304237B640A4B1B6B094A43F03203136308E040F609237B6404E000BF02E000BF00E033
S32D0000E8F000BF7B6C18464837BD4680BD00100B4080B489B000AF786039607B687B61364B3B613B69002B01D1D2
S32D0000E91800235FE03B691B68022B0BD03B691B68032B07D03B691B68072B03D03B691B68082B0BD12B4B5B6A77
S32D0000E94003F00403002B14BF01230023DBB2002B00D0F3E73B68FB61FB69002B3DD0FB69B3F5007F28BF4FF4B8
S32D0000E9680073FB60FB6803339B08BB61BB69002B2AD01C4B1B6B03F4E003002B14BF01230023DBB2002B09D075
S32D0000E990164B1B6B154A43F4E00343F02003136300231BE0114B5B6A03F40063002B0CBF01230023DBB2002B9F
S32D0000E9B800D0F3E70B497B691A1D7A610A6A1A60BB69013BBB61D1E7FA69FB68D31AFB61BEE70123184624378A
S32D0000E9E0BD4680BC704700BF9016002000100B4080B58EB000AFB9607A601A460346FB731346BB73414B7B6316
S32D0000EA08FB7B002B02D1BB7B002B01D1042375E03D4B1B78DBB203F00103002B14BF01230023DBB2002B01D050
S32D0000EA30032367E0BB68002B01D1002362E07B6B1B7B002B02D17B685B027B60BB7B012B28D111233B750023CF
S32D0000EA587B757B68BB6101233B77BB7B3B6207F11403194641F20230FFF7CCFB0346002B0CBF01230023DBB255
S32D0000EA80002B38D04FF40071B868FFF739FF0346002B14BF01230023DBB2002B2BD00023BB7328E012233B75B4
S32D0000EAA800237B757B68BB6101233B77BB7B3B6207F11403194641F20230FFF7A3FB0346002B0CBF0123002398
S32D0000EAD0DBB2002B0FD0BB7B5B021946B868FFF70FFF0346002B14BF01230023DBB2002B01D00023BB73BB7BCD
S32D0000EAF8002B01D0012300E0002300BF18463837BD4680BD7C1600200000002080B487B000AF786039607B68C1
S32D0000EB20FB603B687B617B69002B3DD07B69B3F5007F28BF4FF400733B617A693B69D31A7B613B6903339B08C0
S32D0000EB483B613B69002BEAD0184B1B6B03F4E003002B14BF01230023DBB2002B0AD0134B1B6B124A43F4E00386
S32D0000EB7043F0100313634FF0FF3316E00D4B5B6A03F48063002B0CBF01230023DBB2002B00D0F3E7FB681A1D24
S32D0000EB98FA60064A1B6813623B69013B3B61D0E7012318461C37BD4680BC704700100B4080B58EB000AFB96019
S32D0000EBC07A601A460346FB731346BB735D4B7B63FB7B002B02D1BB7B002B01D10423ADE0594B1B78DBB203F017
S32D0000EBE80103002B14BF01230023DBB2002B01D003239FE0524B1B78DBB203F00403002B14BF01230023DBB2FF
S32D0000EC10002B01D0022391E0BB68002B01D100238CE07B6B1B7B002B02D17B685B027B60BB7B012B28D118236A
S32D0000EC383B7500237B757B68BB6100233B77BB7B3B6207F11403194641F20230FFF7DAFA0346002B0CBF012344
S32D0000EC600023DBB2002B38D04FF40071B868FFF751FF0346002B14BF01230023DBB2002B2BD00023BB7328E0EF
S32D0000EC8819233B7500237B757B68BB6100233B77BB7B3B6207F11403194641F20230FFF7B1FA0346002B0CBF05
S32D0000ECB001230023DBB2002B0FD0BB7B5B021946B868FFF727FF0346002B14BF01230023DBB2002B01D00023F0
S32D0000ECD8BB730D233B7500237B757B6B1B69BB6100233B7700233B6207F11403194641F20230FFF787FA03463F
S32D0000ED00002B14BF01230023DBB2002B01D0012314E07A6A0D4B1340002B01D001230DE07B6A03F4F853B3F594
S32D0000ED28106F00D0D5E7BB7B002B01D0012300E0002300BF18463837BD4680BD7C160020000000200880D9FF5B
S32D0000ED5080B58CB000AF03463A60FB710B46BB713A4BBB62FB79002B01D0042369E0012387F82F30364B1B7811
S32D0000ED78DBB203F00103002B14BF01230023DBB2002B01D0032358E0BB79032B50D801A252F823F0ADED000099
S32D0000EDA0B5ED0000C5ED0000D5ED0000002387F82F3044E0BB6A9A683B681A60002387F82F303CE03B684FF4C3
S32D0000EDC800721A80002387F82F3034E009233B7200237B72BB6A1B69FB6000233B7400237B6107F108031946DC
S32D0000EDF041F20230FFF70AFA0346002B14BF01230023DBB2002B01D001231AE07B6A03F44003002B0CD13B6A95
S32D0000EE189B0C03F07F035A1C7B6A1B0A03F00303013B9A403B681A60002387F82F3002E0042387F82F3097F88D
S32D0000EE402F3018463037BD4680BD00BF7C1600200000002080B483B000AF0346FB71FB79002B01D0012302E06E
S32D0000EE68034B1B78DBB218460C37BD4680BC70470000002080B483B000AF7860174B03F5815318331B6815490F
S32D0000EE9043F0010201F5815318331A60124A7B689360114B05225A600F4B1B680E4A43F0010313600C4B1B6867
S32D0000EEB803F08003002B0CBF01230023DBB2002B00D0F3E7064B1B68054A23F00103136000BF0C37BD4680BC29
S32D0000EEE0704700BF007004400000044080B582B000AF786039607B68012B07D13B684FF6FF72934202D10348DC
S32D0000EF0800F00EF800BF0837BD4680BD9C18002080B500AF4FF6FF710120FFF7E3FF80BD80B483B000AF786016
S32D0000EF307B6800221A707B6818460C37BD4680BC7047FFFF80B582B000AF78607B681B7883F00103DBB2002B19
S32D0000EF5821D0134B03F5815308334FF400621A60104B4FF440721A620E4B4FF440725A620D4B1B68DA0F134425
S32D0000EF805B104FF4614219460A48FEF7F1FB642000F08AF87B6801221A70012300E0002318460837BD4680BDF6
S32D0000EFA80070044000D00440A018002000B00E4080B582B000AF7860084611461A460346FB700B46BB70134621
S32D0000EFD07B707F210E48FEF7AAFC08210C48FEF7A6FCFB7819460A48FEF7A1FCBB7819460748FEF79CFC7B786C
S32D0000EFF819460548FEF797FCFF210348FEF793FC00BF0837BD4680BD00B00E4080B487B000AFF860B9607A6027
S32D0000F020FB681F4AA2FB03239B09BA6813447B61FB681B4AA2FB031292094FF47A7101FB02F29B1AFB60FB6894
S32D0000F048DB03154AA2FB03239B097A6813443B613B69DB0B7A6913447B613B69C3F30E033B610E4B1B687A69BB
S32D0000F0709A4209D80B4B1B687A699A4206D1094B5B683A699A4201D9012300E00023002B00D0EAE700BF1C37D1
S32D0000F098BD4680BC704700BFD34D621000D0034080B584B000AF7860074B1B68FB60064B5B68BB607B68BA689C
S32D0000F0C0F9681846FFF7A6FF00BF1037BD4680BD00D0034080B584B000AFC7E900010E4B1B68FB600C4B5B6855
S32D0000F0E8BB604FF000020B4BD7E9000104F032FA02460B461046194604F004FD0346BA68F9681846FFF782FF83
S32D0000F11000BF1037BD4680BD00D0034000408F4080B584B000AF134B1B68FB60114B5B68BB60F86804F098F9F6
S32D0000F13802460B46C7E90023B86804F091F94FF000020B4B04F030FB02460B46D7E9000104F04AF802460B46C0
S32D0000F160C7E90023D7E90023104619461037BD4680BD00BF00D003400000E04080B483B000AF0B4B1B684FF46B
S32D0000F1887A7202FB03F37B60074B5B684FF47A7202FB03F3DB0B7A6813447B607B6818460C37BD4680BC7047F4
S32D0000F1B000D0034080B584B000AF78600B46FB700B23FB73FA7BFB781946786800F094F87B6818461037BD46A8
S32D0000F1D880BDFFFF80B485B000AF78607B68103B002B00DA1F335B11FB60FB68022B53D0FB68022B75DCFB689B
S32D0000F200002B03D0FB68012B25D06EE0394BD3F880217B68103B594203F01F0301F01F0158BF4B42012101FA70
S32D0000F22803F332491343C1F88031304B1A687B68103B594203F01F0301F01F0158BF4B42012101FA03F3294972
S32D0000F25013430B6049E0274BD3F884217B68103B594203F01F0301F01F0158BF4B42012101FA03F31F49134360
S32D0000F278C1F884311D4B5A687B68103B594203F01F0301F01F0158BF4B42012101FA03F3164913434B6024E0C6
S32D0000F2A0144BD3F888217B68103B594203F01F0301F01F0158BF4B42012101FA03F30D491343C1F888310B4B53
S32D0000F2C89A687B68103B594203F01F0301F01F0158BF4B42012101FA03F3044913438B6000BF00BF1437BD4616
S32D0000F2F080BC704700E100E080B584B000AF78600B46FB701346BB707B68FA781A70BB78FB737B681B781A46B6
S32D0000F318574B9B5C042B00F2A68001A252F823F03DF3000089F30000D5F300006DF4000021F40000FB7B1B0468
S32D0000F34003F470234D497A68127810464C4A52F8202043F4897343F0010341F82230494B5A697B681B7819467C
S32D0000F368454B53F8213003F01F03012101FA03F3DB43424913404B616720FFF72BFF72E0FB7B1B0403F4702363
S32D0000F3903D497A6812781046394A52F8202043F4897343F0010341F82230384B5A697B681B781946324B53F822
S32D0000F3B8213003F01F03012101FA03F3DB43314913404B616820FFF705FF4CE0FB7B1B0403F470232C497A68F3
S32D0000F3E012781046264A52F8202043F4897343F0010341F82230274B5A697B681B7819461F4B53F8213003F02D
S32D0000F4081F03012101FA03F3DB43204913404B616920FFF7DFFE26E0FB7B1B0403F470231B497A681278104674
S32D0000F430134A52F8202043F4897343F0010341F82230164B5A697B681B7819460C4B53F8213003F01F030121AF
S32D0000F45801FA03F3DB430F4913404B616B20FFF7B9FE00E000BF00BF1037BD4680BD00BF4450010000900440DB
S32D0000F4808850010000F00F4000A0044040F00F4000B0044080F00F4000D0044000F10F4080B58AB000AF3B1D66
S32D0000F4A820220021184605F021FA0B237B600A23BB600723FB6006233B6105237B610423BB610123FB610023E0
S32D0000F4D07B627B6A072B32DC1B4BD3F8A0207B6A9B0007F128010B4453F8243C012101FA03F31340002B14BF1C
S32D0000F4F801230023DBB2002B19D0124A7B6A52F823305A1C0F497B6A41F823200C4BD3F8A0207B6A9B0007F197
S32D0000F52028010B4453F8243C012101FA03F306491340C1F8A0307B6A01337B62C9E700BF2837BD4680BD00BF99
S32D0000F54800A00440CC180020B0B489B000AF234B3C1D1D460FCD0FC495E8030084E803000023FB61FB69052B86
S32D0000F57032DC1D4BD3F8A020FB699B0007F120010B4453F81C3C012101FA03F31340002B14BF01230023DBB22A
S32D0000F598002B19D0FB690833124A52F823200132104941F823200E4BD3F8A020FB699B0007F120010B4453F80B
S32D0000F5C01C3C012101FA03F307491340C1F8A030FB690133FB61C9E700BF2437BD46B0BC704700BF8C51010005
S32D0000F5E800B00440CC180020B0B48DB000AF244B3C461D460FCD0FC40FCD0FC495E8070084E807000023FB6284
S32D0000F610FB6A0A2B32DC1D4BD3F8A020FB6A9B0007F130010B4453F8303C012101FA03F31340002B14BF01237A
S32D0000F6380023DBB2002B19D0FB6A0E33124A52F823200132104941F823200E4BD3F8A020FB6A9B0007F130013C
S32D0000F6600B4453F8303C012101FA03F307491340C1F8A030FB6A0133FB62C9E700BF3437BD46B0BC704700BF82
S32D0000F688A451010000900440CC180020B0B487B000AF224B3C461D460FCD0FC42B68236000237B617B69042B13
S32D0000F6B032DC1D4BD3F8A0207B699B0007F118010B4453F8183C012101FA03F31340002B14BF01230023DBB275
S32D0000F6D8002B19D07B691933124A52F823200132104941F823200E4BD3F8A0207B699B0007F118010B4453F8C1
S32D0000F700183C012101FA03F307491340C1F8A0307B6901337B61C9E700BF1C37BD46B0BC704700BFD05101008B
S32D0000F72800D00440CC18002080B483B000AF78607B681B781A46044B53F8223018460C37BD4680BC704700BF95
S32D0000F750CC18002080B483B000AF78607B681B781946044B002243F8212000BF0C37BD4680BC7047CC180020DB
S32D0000F77880B483B000AF78600B46FB707B68FA781A707B6818460C37BD4680BC7047FFFF80B586B000AF786070
S32D0000F7A07B681B781A46234B53F822303B617B681B781A46204B9B5CFB733B69DBB203F01F03DAB21D4B1A7252
S32D0000F7C83B69DBB203F01F03DAB21A4B5A72FB7B002B13D11749184800F0CCF9164B1B6803F08003802B14BF3E
S32D0000F7F001230023DBB2002B00D0F3E7104B1B697B6112E00D490F4800F0B8F90D4B1B6803F08003802B14BF78
S32D0000F81801230023DBB2002B00D0F3E7074B1B697B617B6918461837BD4680BD0851010064500100BC18002093
S32D0000F84000B0034000B00B4098B500AF204B5C221A701F4B10225A701D4B41F234225A801B4B45F278629A807B
S32D0000F868194B10229A71184B0722DA71164B4FF4C022DA60144B1F221A72134B1F225A721149124800F076F990
S32D0000F8900F49114800F072F90F4800F0D0F80D4800F0CDF80A490C4800F068F90849094800F064F9094A064B9A
S32D0000F8B814460FCB84E80F00064B5C221A70054B0422DA7100BF98BDAC18002000B0034000B00B40BC1800207F
S32D0000F8E080B500AF064B1B680133054A136000F03BF8044B0122C3F80C2100BF80BD00BF5019002000700340D8
S32D0000F90880B500AF0B4800F01BF80B4B0322C3F808210A4BD3F88831084A43F01003C2F88831064B9B68054AB1
S32D0000F93043F01003936000BF80BD00BFA08601000070034000E100E080B483B000AF7860044A7B68C2F8003110
S32D0000F95800BF0C37BD4680BC704700BF0070034080B584B000AF174B1B68FB60FB68002B24D0FB685B78FB719B
S32D0000F980FB689B68184600F023F80346BB71BB79002B13D0FB685B68012B0FDDFB689B681B69BB60BB68002B42
S32D0000F9A808D0BB685B685A1CBB685A60BB681B69BB60F3E7FB68DB68FB60D7E700BF1037BD4680BD4C190020FA
S32D0000F9D080B584B000AF78607868FFF7DDFEF8607B689B695B78FB72FB7A002B0FD17B68DB68FA689A420ADD1E
S32D0000F9F87B689B6901225A707B685B685A1C7B685A60012313E0FB7A012B0FD17B689B68FA689A420ADA7B68D1
S32D0000FA209B6900225A707B685B685A1C7B685A60012300E0002318461037BD4680BD80B485B000AF78607B6830
S32D0000FA481B6A23F040027B681A627B685B6A23F00B027B685A627B685B6A43F007027B685A627B685B6A43F092
S32D0000FA7080027B685A627B681B6803F08003002B0CBF01230023DBB2002B00D0F3E77B685B6A03F04003402B83
S32D0000FA980CBF01230023DBB2002B01D0012364E00023FB817B68DB6CFB817B689B6C9AB2FB891344FB817B6888
S32D0000FAC05B6C9AB2FB891344FB817B681B6C9AB2FB891344FB817B68DB6B9AB2FB891344FB817B689B6B9AB2A0
S32D0000FAE8FB891344FB81FB895B08FB81FB896FEA43436FEA5343FB81FA897B68DA620023FB817B68DB6EFB817F
S32D0000FB107B689B6E9AB2FB891344FB817B685B6E9AB2FB891344FB817B681B6E9AB2FB891344FB817B68DB6DAF
S32D0000FB389AB2FB891344FB817B689B6D9AB2FB891344FB81FB895B08FB81FB896FEA43436FEA5343FB81FA89BA
S32D0000FB607B681A637B685B6A23F080027B685A62002318461437BD4680BC704780B483B000AF786039603B684F
S32D0000FB881B781A467B689A603B685B781A467B68DA603B685B881A467B689A613B689B881A467B68DA613B68E1
S32D0000FBB09B791A467B681A623B68DB791A467B685A623B68DA687B681A653B681B7A1A467B681A603B685B7AAA
S32D0000FBD81A467B685A6000BF0C37BD4680BC704780B483B000AF78607B6818460C37BD4680BC704780B582B03B
S32D0000FC0000AF786039607B68012B07D13B684FF6FF72934202D10348FFF7E6FF00BF0837BD4680BD54190020DD
S32D0000FC2880B500AF4FF6FF710120FFF7E3FF80BD80B582B000AF7860B84B4FF48072DA60B74B4FF480729A644A
S32D0000FC50B54B4FF480721A64B34B4FF480725A64B14B4FF48072DA60B04B5B69AF4A43F008035361AE4B5B6910
S32D0000FC78AD4A43F480235361AB4B5B69AA4A43F480335361A84B5B69A74A43F400335361A54B1B68A44A43F033
S32D0000FCA008031360A24B5B69A14A43F0080353619E4B1B689D4A43F0080313609A4B4FF480725A62984B4FF42A
S32D0000FCC880721A62954B4FF480721A61934B4FF480725A61914B4FF480729A618F4B4FF48072DA618D4B4FF4D1
S32D0000FCF080721A638B4B4FF480725A63894B4FF480729A63874B4FF48072DA63854B4FF480721A64834B4FF4D1
S32D0000FD1880725A64814B4FF480729A647F4B4FF48072DA64814B4FF480721A607F4B4FF480729A607D4B4FF452
S32D0000FD408072DA607B4B4FF480721A61784B5B69774A43F440735361744B5B69734A43F47F2343F0F00353611A
S32D0000FD68734B5B69724A43F01D035361E221786800F030FD1D21786800F0D2FD0221786800F0CEFD0421786888
S32D0000FD9000F0CAFDE021786800F020FD0121786800F0C2FD6420FFF77FF9E021786800F015FD0321786800F026
S32D0000FDB8B7FD0121786800F00DFD0120FFF770F9E621786800F006FD0121786800F0A8FDA021786800F0A4FD4A
S32D0000FDE0FF21786800F0A0FDB021786800F0F6FC1C21786800F098FD0F21786800F094FD0121786800F090FD23
S32D0000FE083F21786800F08CFD0021786800F088FDEF21786800F084FD0021786800F080FDB421786800F0D6FC57
S32D0000FE300121786800F078FD9921786800F074FD0021786800F070FD4521786800F06CFD0221786800F068FDED
S32D0000FE580021786800F064FD0021786800F060FD0021786800F05CFDB621786800F0B2FC0121786800F054FDFA
S32D0000FE800921786800F050FD0021786800F04CFD0E21786800F048FD0221786800F044FD0021786800F040FD2D
S32D0000FEA80021786800F03CFDBA21786800F092FC0F21786800F034FD6420FFF7F1F83A21786800F087FC602106
S32D0000FED0786800F029FD2A21786800F07FFC0021786800F021FD0021786800F01DFD0121786800F019FD3F21F6
S32D0000FEF8786800F015FD2B21786800F06BFC0021786800F00DFD0021786800F009FD0021786800F005FDEF2182
S32D0000FF2078680BE000B0044000A0044080F00F4040F00F4000C00440C0F00F4000F0F4FC3621786800F04AFC82
S32D0000FF480021786800F0ECFCF021786800F042FC0421786800F0E4FCB821786800F03AFC0F21786800F0DCFC07
S32D0000FF700121786800F0D8FC314B1B68304A43F0080313606420FFF78FF83621786800F025FC0021786800F039
S32D0000FF98C7FCF021786800F01DFC0421786800F0BFFC0121786800F0B9F91E226F21786800F082F8AF225621C8
S32D0000FFC0786800F0DBF80021786800F007FA012301221C49786800F028FA2921786800F0FDFB6420FFF760F8FC
S32D0000FFE8BE21786800F0F6FB0E21786800F098FCF021786800F094FC0121786800F090FC0021786800F08CFC50
S32D000100100021786800F088FC0F21786800F084FC786800F025FA0121786800F0D7F90021786800F0ACF900BFC6
S32D000100380837BD4680BD00BF40F00F40E451010080B582B000AF78607B680022DA617B6801221A627B680E22E3
S32D000100605A607B681A229A607B6800225A617B6800229A617B684FF4A072DA607B68F0221A617B6800221A706D
S32D00010088786801F081F97B6818460837BD4680BD80B582B000AF7860064B1B78002B05D1044B01221A7078688F
S32D000100B0FFF7C2FD00BF0837BD4680BD9C19002080B58AB002AFF860B9607A607E23009362237A68B968F868D2
S32D000100D800F015FE40F24E733B610023FB61FA693B699A4240DA0023BB61214AFB6913441B781A46BB6993429A
S32D0001010032DAFB6901331C4AD35C002B06D1FF23FB75FF23BB75FF237B7512E0FB690133154AD35C012B06D184
S32D00010128D423FB750023BB7526237B7505E0B523FB75BA23BB75B0237B757B7DBA7DF97DF86800F0C9F80246BA
S32D00010150FB68DA61F86801F01BF9F86801F054F8BB690133BB61C4E7FB690233FB61BAE700BF2037BD4680BDD5
S32D000101780400002080B58AB002AFF860B9607A602723009395237A68B968F86800F0B7FD40F2E6333B61002323
S32D000101A0FB61FA693B699A4240DA0023BB61214AFB6913441B781A46BB69934232DAFB6901331C4AD35C002B22
S32D000101C806D1FF23FB75FF23BB75FF237B7512E0FB690133154AD35C012B06D10023FB750023BB7500237B7527
S32D000101F005E0D423FB750023BB7526237B757B7DBA7DF97DF86800F06BF80246FB68DA61F86801F0BDF8F86864
S32D0001021800F0F6FFBB690133BB61C4E7FB690233FB61BAE700BF2037BD4680BD5407002080B485B000AF78605C
S32D000102400B46FB70FB78062B29D801A252F823F0750201006D0201007B020100830201008B0201009102010020
S32D00010268990201006FF07F43FB6014E00023FB6011E04FF47F03FB600DE04FF47F43FB6009E0FF23FB6006E033
S32D000102904FF41903FB6002E0044BFB6000BFFB6818461437BD4680BC704700BF9999990080B584B000AF7860BE
S32D000102B839603B681B0CFB733B681B0ABB733B687B737B7BBA7BF97B786800F005F8034618461037BD4680BD25
S32D000102E080B487B000AF7860084611461A460346FB700B46BB7013467B70FB789B107B61BB789B103B617B781D
S32D000103089B10FB607B691A033B699B011A43FB68134318461C37BD4680BC704780B582B000AF78600B46FB7018
S32D00010330FB7819467868FFF77FFF03461946786800F004F800BF0837BD4680BD80B582B000AF7860396039689E
S32D000103587868FFF7A9FF02467B681A62786801F013F8786800F074FB00BF0837BD4680BD80B582B000AF78600A
S32D00010380786800F069FB00BF0837BD4680BD80B582B000AF78600B46FB70FB7819467868FFF74AFF0346194699
S32D000103A8786800F004F800BF0837BD4680BD80B582B000AF7860396039687868FFF774FF02467B681A62786824
S32D000103D000F0DEFF00BF0837BD4680BD80B582B000AF78600B46FB70FB7819467868FFF723FF034619467868F7
S32D000103F800F004F800BF0837BD4680BD80B582B000AF7860396039687868FFF74DFF02467B68DA61786800F02C
S32D00010420B7FF00BF0837BD4680BD80B586B000AFF860B9607A603B6000237B617B69BA6813441B78002B0FD0C0
S32D000104487B69BA6813441B783A687968F86800F095FD7B680C337B607B6901337B61E9E700BF1837BD4680BD21
S32D0001047080B582B000AF7860FDF726F967210120FDF78FF800210220FDF78BF8A0210320FDF787F85021042092
S32D00010498FDF783F820210520FDF77FF820210620FDF77BF877210720FDF777F800210820FDF773F80021092013
S32D000104C0FDF76FF800210A20FDF76BF804210B20FDF767F87B684FF0FF32DA637B684FF0FF321A6400BF08370E
S32D000104E8BD4680BDFFFFFFFF80B586B000AFF860B9607A600020FDF772F80346FB75FB7D03F00203002B00F082
S32D00010510CE80FDF785F8E020FDF736F80220FEF7C3FDFDF78BF80120FEF7BEFDFDF778F8A520FDF729F801205D
S32D00010538FEF7B6FDFDF74BF803469BB21B02BB82FDF745F803469AB2BB8A1343BB82FDF73EF803469BB21B024A
S32D000105607B82FDF738F803469AB27B8A13437B82BB8A1B11BB827B8A1B117B82FDF75EF8FB68DB6BB3F1FF3FAD
S32D0001058834D1FB681B6CB3F1FF3F2FD1BA8AFB68DA637A8AFB681A647B8AC3F57F630F337B82BB8A184602F037
S32D000105B06BFF49A3D3E9002302F0D0FF02460B461046194603F0C2FA0246BB681A607B8A184602F059FF42A3B2
S32D000105D8D3E9002302F0BEFF02460B461046194603F0B0FA02467B681A605AE0FB68DA6BBB8AD31A1946F86803
S32D0001060000F074F80346632B0CDCFB681A6C7B8AD31A1946F86800F069F80346632B01DC012300E00023002BBF
S32D000106282FD0BA8AFB68DA637A8AFB681A647B8AC3F57F630F337B82BB8A184602F020FF23A3D3E9002302F0B2
S32D0001065085FF02460B461046194603F077FA0246BB681A607B8A184602F00EFF1CA3D3E9002302F073FF0246B4
S32D000106780B461046194603F065FA02467B681A600FE0BB68164A1A607B68154A1A60FB684FF0FF32DA63FB683B
S32D000106A04FF0FF321A64002310E001230EE0BB680D4A1A607B680C4A1A60FB684FF0FF32DA63FB684FF0FF328E
S32D000106C81A64002318461837BD4680BDAFF30080144001144001B43F1EE0011EE001AE3F000080BF80B483B025
S32D000106F000AF786039603B68002B02DA3B685B423B603B6818460C37BD4680BC704780B584B000AF7860396073
S32D000107180023FB60786800F05EFAFB683A6813441B78002B12D07B6859697B689869FB683A6813441B78024650
S32D00010740786800F005FC786800F05DFAFB680133FB60E6E700BF1037BD4680BD80B582B000AF78600B46FB70E3
S32D00010768786800F038FA7B6859697B689A69FB78786800F0E9FB786800F041FA00BF0837BD4680BD80B582B0FE
S32D0001079000AF78603960786800F021FA39687868FFF7B5FF786800F005FA00BF0837BD4680BD80B582B000AFE1
S32D000107B878600B46FB70786800F00DFAFB7819467868FFF7C7FF786800F0F0F900BF0837BD4680BD80B483B0DB
S32D000107E000AF78600B46FB704D4B1B684C4A23F0080313604B4B1B684A4A23F480231360484B1B68474A43F4AD
S32D0001080880331360454B1B68444A23F440731360414B1B68404A23F4435323F0300313603E4B1A68FB785B02E3
S32D0001083003F400733B4913430B603A4B1A68FB785B101B0203F48073364913430B60344B1A68FB789B101B0183
S32D0001085803F01003304913430B602F4B1A68FB78DB105B0103F020032B4913430B602A4B1A68FB781B119B01FE
S32D0001088003F04003264913430B60254B1A68FB785B11DB01DBB2224913430B60204B1A68FB789B111B0303F45C
S32D000108A880531D4913430B601B4B1A6897F90330DB115BB25B0303F40053174913430B60164B1B68154A23F460
S32D000108D000331360134B1B68124A43F4003313600F4B1B680E4A43F0080313600D4B1B680C4A43F440731360C5
S32D000108F8094B1B68084A43F4435343F030031360064B1B68054A43F48023136000BF0C37BD4680BC704700BFDB
S32D0001092080F00F4040F00F4080B483B000AF78600B46FB70464B1B68454A23F008031360444B1B68434A43F4B6
S32D0001094880331360414B1B68404A43F4802313603E4B1B683D4A23F4407313603A4B1B68394A23F4435323F059
S32D0001097030031360374B1A68FB785B0203F40073344913430B60334B1A68FB785B101B0203F480732F49134383
S32D000109980B602D4B1A68FB789B101B0103F01003294913430B60284B1A68FB78DB105B0103F0200324491343D0
S32D000109C00B60234B1A68FB781B119B0103F040031F4913430B601E4B1A68FB785B11DB01DBB21B4913430B60BB
S32D000109E8194B1A68FB789B111B0303F48053164913430B60144B1A6897F90330DB115BB25B0303F40053104935
S32D00010A1013430B600F4B1B680E4A23F4003313600C4B1B680B4A43F400331360084B1B68074A43F00803136020
S32D00010A38064B1B68054A23F48023136000BF0C37BD4680BC704700BF80F00F4040F00F4080B586B000AF786058
S32D00010A607B6800225A617B6800229A617B681B6AFB60FB68FB72FB681B0ABB72FB681B0CDBB203F003037B7262
S32D00010A882A217868FFF7A6FE00217868FFF748FF00217868FFF744FF01217868FFF740FF3F217868FFF73CFF5A
S32D00010AB02B217868FFF792FE00217868FFF734FF00217868FFF730FF00217868FFF72CFFEF217868FFF728FFE6
S32D00010AD82C217868FFF77EFE314B1B68304A23F4407313602F4B1B682E4A23F47F2323F0F00313602C4B1B68F9
S32D00010B002B4A23F01D031360274B1A687B681B6B254913430B60254B1A687B685B6B234913430B60224B1A6868
S32D00010B287B689B6B204913430B601E4B1B681D4A23F0080313601A4B1B68194A43F48023136000237B617B692C
S32D00010B50EF2B19D800233B613B69B3F5A07F0FD2114B1B68104A23F4003313600E4B1B680D4A43F4003313605A
S32D00010B783B6901333B61EBE77B6901337B61E2E7084B1B68074A43F008031360044B1B68034A23F48023136027
S32D00010BA000BF1837BD4680BD40F00F4080F00F40C0F00F4080B483B000AF78607B689B69002B07DD7B685B6910
S32D00010BC85A1C7B685A617B6800229A6100BF0C37BD4680BC704780B582B000AF78607B685A697B685B689A42DC
S32D00010BF005DB7B6800225A617868FFF72DFF00BF0837BD4680BD80B582B000AF78607B689B695A1C7B689A61CD
S32D00010C187B689A697B689B689A4205D17868FFF7C5FF7868FFF7D7FF00BF0837BD4680BD80B586B002AFF86037
S32D00010C40B9607A600123009301237A68B968F86800F059F8F86800F0D7FA00BF1037BD4680BD80B485B000AF94
S32D00010C68786039607B681B68FB603B681A687B681A603B68FA681A6000BF1437BD4680BC704780B586B002AF0E
S32D00010C90F860B9607A603B60BA683B681A447B68009313467A68B968F86800F0ABF8BA683B68D118BA683B68F4
S32D00010CB8D0187A68BB691344009303467A68F86800F09CF8BA683B68D1187A68BB69D0187A68BB69134400939A
S32D00010CE0BB680246F86800F08DF87A68BB691A447B680093BB68B968F86800F083F800BF1037BD4680BD80B541
S32D00010D0888B000AFF860B9607A603B60FB681B78022B03D0FB681B78032B11D17B68FB61BA6AFB691344013B99
S32D00010D30BB61FB68DA68BB68D31A3B613B683A69D31A01337B610DE0BB68FB613A68FB691344013BBB617B68E0
S32D00010D587B61BA6A7B691344013B3B612A21F868FFF738FDFB691B0ADBB203F00F03DBB21946F868FFF7D4FD55
S32D00010D80FB69DBB21946F868FFF7CEFDBB691B0ADBB203F00F03DBB21946F868FFF7C4FDBB69DBB21946F86885
S32D00010DA8FFF7BEFD2B21F868FFF714FD7B691B0ADBB203F00F03DBB21946F868FFF7B0FD7B69DBB21946F868FE
S32D00010DD0FFF7AAFD3B691B0ADBB203F00F03DBB21946F868FFF7A0FD3B69DBB21946F868FFF79AFD2C21F868F3
S32D00010DF8FFF7F0FC00BF2037BD4680BD90B58BB000AFF860B9607A603B603A68BB68D31A1946F868FFF766FCB6
S32D00010E20F861BA6B7B68D31A1946F868FFF75EFCB861BA69FB699A42CCBF01230023FB75FB7D002B0CD03A1DB2
S32D00010E4807F1080311461846FFF707FF3B4607F138011846FFF701FFBA683B689A420CDD3A4607F1080311465D
S32D00010E701846FFF7F6FE3B1D07F138011846FFF7F0FE3A68BB689A4206D1BB687A681946F868FFF7D1FE55E00A
S32D00010E98BA6B7B68D31A184602F05EFF04463A68BB68D31A184602F057FF03461946204603F05AF803463B61AF
S32D00010EC07B68184602F04CFF03467B62BB683B623B683A6A9A4235DCFB7D002B14D0786A02F0E4FA4FF00002F1
S32D00010EE8184B02F081F902460B461046194602F0E1FD03463A6A1946F868FFF799FE13E0786A02F0CFFA4FF0E6
S32D00010F1000020E4B02F06CF902460B461046194602F0CCFD03461A46396AF868FFF784FE3969786A02F060FEFF
S32D00010F3803467B623B6A01333B62C5E72C37BD4690BD00BF0000E03F80B584B000AFF860B9607A60FB707A6801
S32D00010F6013465B0013449B00991CBA6813461B011344DA1CFB78F86800F004F800BF1037BD4680BD80B58EB0AB
S32D00010F8802AFF860B9607A60FB70FB780A2B06D1F868FFF720FEF868FFF708FEF2E0FB787D2B02D8FB781F2B00
S32D00010FB001D82023FB70FB78203BFB70112300930C237A68B968F868FFF79DFEFA7813469B0013446F4AD35CC3
S32D00010FD83B75FA7813469B00134401336B4AD35C7B75FA7813469B0013440233674AD35CBB75FA7813469B000D
S32D0001100013440333634AD35CFB75FA7813469B00134404335F4AD35C3B760023BB62BB6A062B00F3A180F86861
S32D0001102800F050F9F86800F0B3F8002387F82F3000237B627B6A042B35DC07F114027B6A13441B7803F001036B
S32D00011050002B14BF01230023FB76FB7E002B11D097F82F3083F00103DBB2002B03D0F86800F0CAF802E0F868F2
S32D0001107800F08EF8F86800F08BF80DE097F82F30002B03D0F86800F01DF902E0F86800F07FF8F86800F07CF854
S32D000110A0FB7E87F82F307B6A01337B62C6E797F82F30002B03D0F86800F008F902E0F86800F06AF8F86800F006
S32D000110C867F8002387F82F3000233B623B6A042B42DC07F114023B6A13441B7803F00103002B14BF012300230E
S32D000110F0BB76BB7E002B11D097F82F3083F00103DBB2002B03D0F86800F07EF802E0F86800F042F8F86800F0E9
S32D000111183FF80DE097F82F30002B03D0F86800F0D1F802E0F86800F033F8F86800F030F8BB7E87F82F3007F19B
S32D0001114014023B6A13441B785B10D9B207F114023B6A13440A461A703B6A01333B62B9E7BB6A0133BB625AE734
S32D00011168F86800F0AFF8002387F82F300123FB61FB69232B06DCF86800F00AF8FB690133FB61F5E73037BD46C0
S32D0001119080BD00BF3C0B002080B483B000AF7860174B1B68164A43F480331360154B1B68144A23F0080313606B
S32D000111B8114B1B68104A43F4802313600E4B1B680D4A23F4003313600B4B1B680A4A43F400331360094B1B68B1
S32D000111E0084A43F008031360054B1B68044A23F48023136000BF0C37BD4680BC704700BF40F00F4080F00F409A
S32D0001120880B483B000AF78602B4B1B682A4A43F480331360294B1B68284A23F008031360254B1B68244A43F46D
S32D0001123080231360224B1B68214A23F440731360204B1B681F4A23F47F2323F0F00313601D4B1B681C4A23F0F4
S32D000112581D031360184B1A687B685B6A164913430B60164B1A687B689B6A144913430B60134B1A687B68DB6A36
S32D00011280114913430B600E4B1B680D4A23F4003313600B4B1B680A4A43F400331360094B1B68084A43F00803C3
S32D000112A81360054B1B68044A23F48023136000BF0C37BD4680BC704740F00F4080F00F40C0F00F4080B483B0BA
S32D000112D000AF78602B4B1B682A4A43F480331360294B1B68284A23F008031360254B1B68244A43F480231360F6
S32D000112F8224B1B68214A23F440731360204B1B681F4A23F47F2323F0F00313601D4B1B681C4A23F01D031360AF
S32D00011320184B1A687B681B6B164913430B60164B1A687B685B6B144913430B60134B1A687B689B6B114913430D
S32D000113480B600E4B1B680D4A23F4003313600B4B1B680A4A43F400331360094B1B68084A43F008031360054BE7
S32D000113701B68044A23F48023136000BF0C37BD4680BC704740F00F4080F00F40C0F00F4080B485B000AF78602B
S32D000113987B681B6AFB60FB68FB72FB681B0ABB72FB681B0CDBB203F003037B727B6800225A627B6800229A621F
S32D000113C07B680022DA627B6800221A637B6800225A637B6800229A637B681A6BFB7A5B0203F400731A437B6893
S32D000113E81A637B681A6BFB7A5B101B0203F480731A437B681A637B685A6BFB7A9B101B0103F010031A437B6823
S32D000114105A637B685A6BFB7ADB105B0103F020031A437B685A637B685A6BFB7A1B119B0103F040031A437B681E
S32D000114385A637B685A6BFB7A5B11DB01DBB21A437B685A637B685A6BFB7A9B111B0303F480531A437B685A632B
S32D000114607B685A6B97F90B30DB115BB25B0303F400531A437B685A637B685A6BBB7A9B0303F480431A437B68D7
S32D000114885A637B685A6BBB7A5B10DB039BB21A437B685A637B685A6BBB7A9B101B0403F480331A437B685A63BA
S32D000114B07B685A6BBB7ADB105B0403F400331A437B685A637B685A6BBB7A1B119B0403F480231A437B685A6380
S32D000114D87B685A6BBB7A5B11DB0403F400231A437B685A637B689A6BBB7A9B1103F001031A437B689A637B68C6
S32D000115009A6B97F90A30DB115BB29B0003F004031A437B689A637B689A6B7B7ADB0003F008031A437B689A632F
S32D000115287B689A6B7B7A5B101B0103F010031A437B689A637B68DB69FB60FB68FB72FB681B0ABB72FB681B0C5C
S32D00011550DBB203F003037B727B685A6AFB7A5B0203F400731A437B685A627B685A6AFB7A5B101B0203F480738C
S32D000115781A437B685A627B689A6AFB7A9B101B0103F010031A437B689A627B689A6AFB7ADB105B0103F020032A
S32D000115A01A437B689A627B689A6AFB7A1B119B0103F040031A437B689A627B689A6AFB7A5B11DB01DBB21A43BC
S32D000115C87B689A627B689A6AFB7A9B111B0303F480531A437B689A627B689A6A97F90B30DB115BB25B0303F4E9
S32D000115F000531A437B689A627B689A6ABB7A9B0303F480431A437B689A627B689A6ABB7A5B10DB039BB21A437E
S32D000116187B689A627B689A6ABB7A9B101B0403F480331A437B689A627B689A6ABB7ADB105B0403F400331A430B
S32D000116407B689A627B689A6ABB7A1B119B0403F480231A437B689A627B689A6ABB7A5B11DB0403F400231A4301
S32D000116687B689A627B68DA6ABB7A9B1103F001031A437B68DA627B68DA6A97F90A30DB115BB29B0003F004037A
S32D000116901A437B68DA627B68DA6A7B7ADB0003F008031A437B68DA627B68DA6A7B7A5B101B0103F010031A4338
S32D000116B87B68DA6200BF1437BD4680BC704780B483B000AF78607B6818460C37BD4680BC704780B584B000AF64
S32D000116E0F860B9607A603B60FB682033B968184603F06EF9FB687A681A60FB683A689A60FB68BA691A61FB6844
S32D00011708FA695A61FB681A68FB681B691A44FB685A60FB689A68FB685B691A44FB68DA60FB683A6A9A61FB6861
S32D000117307A6ADA61FB680022C3F8E82000BF1037BD4680BDF0B585B002AF78607B689B6919461F48FEF756FE84
S32D000117587B6819687B689A687B6818697B685B69009303461848FFF78CFA7B68DB6919461548FEF743FE7B685A
S32D0001178003F120047B681B681D467B681B691E467B682033184603F093F9024613465B0013449B00F31A5B081D
S32D000117A82B4418467B689A687B685B69113BD90F0B445B101344024621460348FEF731FE00BF0C37BD46F0BDA4
S32D000117D05819002080B584B002AF78607B689B6919461F48FEF70EFE7B681B68591C7B689B685A1C7B681B691B
S32D000117F8981E7B685B69023B009303461648FFF740FA7B681B68991C7B689B689A1C7B681B69181F7B685B69C2
S32D00011820043B009303460E48FFF72FFA7B681B68D91C7B689B68DA1C7B681B69981F7B685B69063B00930346F0
S32D000118480548FFF71EFA7B680122C3F8E82000BF0837BD4680BD00BF5819002080B584B002AF786000211F4845
S32D00011870FEF7C8FD7B681B68D91C7B689B68DA1C7B681B69981F7B685B69063B009303461648FFF7FAF97B684C
S32D000118981B68991C7B689B689A1C7B681B69181F7B685B69043B009303460E48FFF7E9F97B681B68591C7B6801
S32D000118C09B685A1C7B681B69981E7B685B69023B009303460548FFF7D8F97B680022C3F8E82000BF0837BD46C6
S32D000118E880BD00BF5819002080B584B000AFF860B9607A603B60FB681B68184602F02CFA0246BB6819461046CA
S32D0001191002F022FC0346002B00F08280FB685B68184602F01DFA0246BB681946104602F01DFC0346002B73D0C3
S32D00011938FB689B68184602F00FFA02467B681946104602F005FC0346002B65D0FB68DB68184602F001FA02460C
S32D000119607B681946104602F001FC0346002B57D03A1D07F1080319462C48FEF7B9FDFB681B68184602F0ECF943
S32D000119880246BB681946104602F0E2FB0346002B44D0FB685B68184602F0DEF90246BB681946104602F0DEFB81
S32D000119B00346002B00D135E0FB689B68184602F0CFF902467B681946104602F0C5FB0346002B00D126E0FB68F0
S32D000119D8DB68184602F0C0F902467B681946104602F0C0FB0346002B00D117E03B68002B10D1FB68D3F8E830D6
S32D00011A00002B03D1F868FFF7E5FE07E0FB68D3F8E830002B02D0F868FFF724FF012301E00023FFE71846103729
S32D00011A28BD4680BD5819002080B586B000AFF860B9607A60BB687B617B683B6179693A690123F868FFF750FF8D
S32D00011A500346002B14BF01230023DBB2002B08D007F1100207F1140319460448FEF740FDE8E700BF1846183718
S32D00011A78BD4680BD58190020B0B592B004AFF860B9607A603B60FB6C7B633B683B63F86C01F0F6FC02460B46C8
S32D00011AA04FF000004E4901F0A1FB02460B4614461D46386D01F0E8FC02460B462046294601F094FB02460B465D
S32D00011AC81046194602F03EF803463B62386801F0D7FC02460B464FF00000404901F082FB02460B4614461D46A3
S32D00011AF0B86C01F0C9FC02460B462046294601F075FB02460B461046194602F01FF80346FB61786802F024F933
S32D00011B1803461946386A02F027FA0346184602F035FB0346BB61B86802F016F903461946F86902F019FA03469B
S32D00011B40184602F027FB03467B6100237B620123BB62BA6ABB689A423DDC0123FB62FA6A7B689A422DDC7B6AD0
S32D00011B68EC2202FB03F3FA68D0187A6A13469B0013449B001A467B6D9918FB6D0393BB6D02937B690193BB69E9
S32D00011B9000933B6B7A6BFFF7A0FD7B6AEC2202FB03F3FA6813441846FFF7CCFD7B6A01337B627A6BBB69134463
S32D00011BB87B63FB6A0133FB62CDE73A6B7B6913443B63FB6C7B63BB6A0133BB62BDE700BF3837BD46B0BD00BF3C
S32D00011BE00000744000006E4080B582B000AF786039607B68012B07D13B684FF6FF72934202D10348FEF720FAAB
S32D00011C0800BF0837BD4680BD5819002080B500AF4FF6FF710120FFF7E3FF80BD80B582B000AF7860174B03F5C7
S32D00011C30815314331B68154943F0400201F5815314331A60124B4FF400725A62104B4FF400721A620F4B14229F
S32D00011C585A700E4B1B7ADBB20C4A43F00103DBB213720A4B80229A7002212B20FBF71EFC3D212A20FBF71AFC4E
S32D00011C807B6818460837BD4680BD00BF0070044000C004400060064080B582B000AF786039607B68012B07D1EA
S32D00011CA83B684FF6FF72934202D10348FFF7B6FF00BF0837BD4680BDA019002080B500AF4FF6FF710120FFF74F
S32D00011CD0E3FF80BD80B582B000AF78600B46FB707B68FA7811461846FDF746FD7B6818460837BD4680BDFFFF1D
S32D00011CF880B582B000AF786039607B68012B08D13B684FF6FF72934203D120210348FFF7DDFF00BF0837BD46ED
S32D00011D2080BD00BFA419002080B500AF4FF6FF710120FFF7E1FF80BD80B483B000AF78607B6800221A707B688E
S32D00011D4818460C37BD4680BC7047FFFF80B582B000AF78607B681B7883F00103DBB2002B54D07B6801221A7090
S32D00011D702B4B03F5815314331B68294943F4806201F5815314331A60264B4FF400725A60244B4FF400729A6024
S32D00011D98234B1B684FF4165219462248FBF7E4FC204BDB78DBB21F4A23F00C03DBB2D3701C4BDB78DBB21B4A93
S32D00011DC043F02003DBB2D370184BDB7ADBB2174A23F02003DBB2D372154BD3F88431144A43F40053C2F88431E9
S32D00011DE8114B5B68104A43F4005353600D4BDB78DBB20C4A43F00C03DBB2D3706420FDF74FF97B6801221A7026
S32D00011E10012300E0002318460837BD4680BD00BF0070044000900440A018002000A0064000E100E080B483B072
S32D00011E3800AF78607B681B7818460C37BD4680BC7047FFFF80B487B000AFF860B9607A60FB700023FB74002364
S32D00011E607B617A697B689A422BD2194B1B78002B00D1FAE7BA687B691344164A12781A70134B00221A70BA6807
S32D00011E887B6913441B780D2B16D0FB7C83F00103DBB2002B0CD0BA687B6913441B78FA789A4202D10123FB7419
S32D00011EB002E07B69013B7B617B6901337B61D0E700BF7B6918461C37BD4680BC704700BFBE190020BF19002082
S32D00011ED880B586B000AFF860B9607A6000237B617A697B689A420BD2BA687B6913441B7819460648FBF717FD55
S32D00011F007B6901337B61EFE77B6918461837BD4680BD00BF00A0064080B483B000AF78603960044A3B68136087
S32D00011F2800BF0C37BD4680BC704700BFA819002080B582B000AF3248FBF7DCFC0346FB71304AFB791370304BF7
S32D00011F5001221A702F4B1B78022B33D0022B4FDC002B02D0012B14D04AE0FB79FF2B44D1284B01221A70284BA3
S32D00011F7800221A70264B1B785A1CD1B2244A11701946244AFB79535433E0214B1B785A1CD1B21F4A1170194666
S32D00011FA01E4AFB7953541C4B1B780D2B27D11C4B1B68194A1278114618489847154B02221A701CE0FB79FF2B50
S32D00011FC810D1124B01221A70114B00221A70104B1B785A1CD1B20E4A117019460D4AFB79535409E00A4B002206
S32D00011FF01A70084B00221A7002E000BF00E000BF00BF0837BD4680BD00A00640BF190020BE190020BD190020F0
S32D00012018BC190020AC190020A819002080B582B000AF78607B681846FFF782FE7B6811491846FFF76DFF7B6859
S32D000120404FF0FF325A600E4B4FF000021A600D4B4FF000021A600C4B4FF000021A600B4B00221A600A4B0022A5
S32D000120681A700A4B00221A707B6818460837BD4680BD00BF0D2C0100CC190020D0190020D4190020D8190020D9
S32D00012090DC190020DD19002080B594B000AF786039607B681846FFF7C5FE034683F00103DBB2002B03D07B6835
S32D000120B81846FFF74BFEAC4B1B7883F00103DBB2002B00F00B837B681846FFF73FFEA64B1B7883F00103DBB229
S32D000120E0002B00F0FF823B68002B02DA00233B6004E03B680B2B01DD0B233B607B683A685A609C48FEF738F920
S32D0001210800233B620023FB64002387F84B3097F84B30002B66D196499448FEF7F4FA2B233B752B237B752B23B5
S32D00012130BB757B6807F1140103221846FFF7CCFE3862786807F108014F230A22FFF77EFEF864FB6C012B02D9C8
S32D000121583B7A4F2B42D087498448FEF713FB86498248FEF70FFB40F6C410FCF799FF786807F1080130230A22EB
S32D00012180FFF764FEF864FB6C012B02D93B7A4F2B24D07C497748FEF7F9FA7B497548FEF7B6FA00237B647B6C70
S32D000121A8FA6C9A420CD907F108027B6C13441B7819466E48FEF7CEFA7B6C01337B64EEE76C496A48FEF7DEFA39
S32D000121D06E496848FEF7DAFA00BF06E0012387F84B3002E0012387F84B3094E768496148FEF78DFA00233B64DA
S32D000121F83B6CFA6C9A420CD907F108023B6C13441B7819465948FEF7A5FA3B6C01333B64EEE758495548FEF741
S32D00012220B5FA5C495348FEF772FA41233B7554237B754D23BB755923FB757B685B68002B00DA03339B10DBB21F
S32D000122483133DBB23B7631237B763023BB767B685B685A4203F0030302F0030258BF5342DBB23033DBB2FB7630
S32D000122700D233B777B6807F1140109221846FFF72BFE3862786807F108014F230A22FFF7DDFDF864FB6C012BED
S32D0001229802D93B7A4F2B04D03D493448FEF772FA1CE20023FB63FB6BFA6C9A420CD907F10802FB6B13441B7878
S32D000122C019462C48FEF74AFAFB6B0133FB63EEE72A492848FEF75AFA30492648FEF717FA41233B7554237B7582
S32D000122E84923BB754423FB757B685B68002B00DA03339B10DBB23133DBB23B7630237B763023BB763023FB760D
S32D000123100D233B777B6807F1140109221846FFF7DBFD3862786807F108014F230A22FFF78DFDF864FB6C012BED
S32D0001233802D93B7A4F2B04D015490C48FEF722FACCE10023BB63BB6BFA6C9A4224D907F10802BB6B13441B7870
S32D0001236019460448FEF7FAF9BB6B0133BB63EEE7C819002058190020185201002C5201003052010048520100D4
S32D00012388605201006C5201007C5201008452010098520100B8520100B549B648FEF7F2F9B549B448FEF7AFF9A5
S32D000123B041233B7554237B754423BB754C23FB757B685B68002B00DA03339B10DBB23133DBB23B7630237B760E
S32D000123D83023BB767B685B685A4203F0030302F0030258BF5342DBB23033DBB2FB760D233B777B6807F11401B4
S32D0001240009221846FFF768FD3862786807F108014F230A22FFF71AFDF864FB6C012B02D93B7A4F2B04D09749F6
S32D000124289448FEF7AFF959E100237B637B6BFA6C9A420CD907F108027B6B13441B7819468C48FEF787F97B6B64
S32D0001245001337B63EEE788498848FEF797F98A498648FEF754F941233B7554237B754423BB754823FB7530232D
S32D000124783B7630237B763023BB763023FB760D233B777B6807F1140109221846FFF720FD3862786807F108010F
S32D000124A04F230A22FFF7D2FCF864FB6C012B02D93B7A4F2B04D073497048FEF767F911E100233B633B6BFA6C56
S32D000124C89A420CD907F108023B6B13441B7819466848FEF73FF93B6B01333B63EEE764496448FEF74FF96749C3
S32D000124F06248FEF70CF941233B7554237B754323BB754823FB7530233B7630237B763123BB764123FB760D235B
S32D000125183B777B6807F1140109221846FFF7D8FC3862786807F108014F230A22FFF78AFCF864FB6C012B02D940
S32D000125403B7A4F2B04D04F494C48FEF71FF9C9E00023FB62FB6AFA6C9A420CD907F10802FB6A13441B781946CB
S32D000125684448FEF7F7F8FB6A0133FB62EEE740494048FEF707F944493E48FEF7C4F841233B7554237B7557234A
S32D00012590BB755223FB750D233B767B6807F1140105221846FFF798FC3862786807F108014F230A22FFF74AFCD2
S32D000125B8F864FB6C012B02D93B7A4F2B04D02F492C48FEF7DFF889E00023BB62BB6AFA6C9A420CD907F1080278
S32D000125E0BB6A13441B7819462448FEF7B7F8BB6A0133BB62EEE720492048FEF7C7F825491E48FEF784F84123D5
S32D000126083B7554237B754323BB754E23FB750D233B767B6807F1140105221846FFF758FC3862786807F10801FA
S32D000126304F230A22FFF70AFCF864FB6C012B02D93B7A4F2B04D00F490C48FEF79FF849E000237B627B6AFA6C68
S32D000126589A421DD907F108027B6A13441B7819460448FEF777F87B6A01337B62EEE700BF2C5201005819002007
S32D00012680CC52010098520100E4520100FC520100145301002853010014491548FEF776F814491348FEF733F8C2
S32D000126A8786800F04BFA034619460F48FEF77DF80F4B01221A70786800F04EFA0346002B0CBF01230023DBB253
S32D000126D0002B00D0F3E709490548FEF757F80448FDF74AFE5037BD4680BD00BF2C520100581900204053010071
S32D000126F8C81900206453010080B582B000AF78600B46FB70FB78402B09D9FB784C2B06D8FB78413B194678689A
S32D00012720FFF7BAFC0BE0FB78602B08D9FB786C2B05D8FB78613B19467868FFF7ADFC00BF0837BD4680BDFFFF04
S32D00012748B0B5ADF5446D06AF3B1D18600123C7F8243C0023C7F8203C0023C7F81C3C07F5326300241D46002C26
S32D0001277005DB2846FEF7A7FFEC35013CF7E707F60C33944A1C4615460FCD0FC42B68236007F56B7307241D4611
S32D00012798002C05DB2846FEF792FFEC35013CF7E707F543738A4A18461146A0231A4602F003F807F508730024F0
S32D000127C01D46002C05DB2846FEF77DFFEC35013CF7E707F503731A460023136053609360D360136107F134037C
S32D000127E801241D46002C05DB2846FEF768FFEC35013CF7E707F10C03764A1C4615460FCD0FC40FCD0FC495E8C9
S32D00012810030084E80300D7F8243C002B00F082810023C7F8203C0023C7F81C3C00216C48FDF78CFD07F5326082
S32D000128386FF07F4305930023049307F60C3303930123029301230193C9230093012301220121FFF711F907F5D7
S32D000128606B706FF07F4305936FF07F43049307F543730393012302930123019301230093282304220221FFF703
S32D00012888FBF8D7F8203C002B42D107F60C4207F5416319465048FDF727FE0346002BF0D00023C7F8183CD7F891
S32D000128B0183C072BE9DC07F56B72D7F8183CEC2101FB03F3D018D7F8101CD7F80C2C0023FFF70EF80346002B36
S32D000128D814BF01230023DBB2002B13D007F56B72D7F8183CEC2101FB03F31344D7F8101CD7F80C2C1846FFF774
S32D0001290097F8D7F8183C0133C7F8203CD7F8183C0133C7F8183CCAE7D7F8203C013B072B78D801A252F823F0A3
