S01200002E2E2F464548526F626F742E7331397E
S32D0000C000000000205DC2000011C3000017C300001DC3000023C3000029C3000000000000000000000000000073
S32D0000C028000000002FC3000035C30000000000003BC3000041C3000019D9000025D9000031D900003DD90000EE
S32D0000C05049D9000055D9000061D900006DD9000079D9000085D9000091D900009DD90000A9D90000B5D9000052
S32D0000C078C1D90000CDD90000D9D90000E5D90000F1D90000FDD9000009DA000015DA000021DA00002DDA000076
S32D0000C0A039DA000045DA000051DA00005DDA000069DA000075DA000081DA00008DDA000099DA0000A5DA000098
S32D0000C0C8B1DA0000BDDA0000C9DA0000D5DA0000E1DA0000EDDA0000F9DA000005DB000011DB00001DDB0000BD
S32D0000C0F029DB00001956010035DB000041DB00004DDB000059DB000065DB000071DB00007DDB000089DB0000DE
S32D0000C11895DB0000A1DB0000ADDB0000B9DB0000C5DB0000D1DB0000DDDB0000E9DB0000F5DB000001DC00007C
S32D0000C1400DDC000019DC000025DC000031DC0000092D01003DDC000049DC000055DC000061DC00006DDC0000B9
S32D0000C16879DC000085DC000091DC00009DDC0000A9DC0000B5DC0000C1DC0000CDDC0000D9DC0000E5DC00003B
S32D0000C190F1DC0000FDDC000009DD0000F5280100A52701005528010095D600009929010015DD000021DD00006E
S32D0000C1B82DDD000038BD020000000020DC16000038BD02000000FF1F00000000DC1600200C0700000000FF1FEE
S32D0000C1E00000000080B489B000AFF860B9607A60BB68FB61FB68BB6100237B617A697B689A420BD2BA69131DFB
S32D0000C208BB61FB69191DF96112681A607B6904337B61EFE700BF2437BD4680BC704780B485B000AF786039609E
S32D0000C2307B68FB600023BB60BA683B689A4208D2FB681A1DFA6000221A60BB680433BB60F2E700BF1437BD46FE
S32D0000C25880BC704780B586B000AF72B6234B4CF220521A80214B4DF628121A80204B4FF4E9721A801F4B7B615F
S32D0000C2807B691F4A934214D27B691A1D7A611B683B617B691A1D7A611B68FB607B691A1D7A611B68BB60BA68E9
S32D0000C2A8F9683869FFF79AFFE6E77B69134A93420ED27B691A1D7A611B68FB607B691A1D7A611B68BB60B9688B
S32D0000C2D0F868FFF7A8FFECE70B4B7B600B4A7B681A6014F069FC62B601F09AFA01F036F9FEE700BF0E20054050
S32D0000C2F800200540BCC10000D4C10000E4C1000008ED00E000C0000080B400AFFEE780B400AFFEE780B400AFF4
S32D0000C320FEE780B400AFFEE780B400AFFEE780B400AFFEE780B400AFFEE780B400AFFEE780B400AFFEE780B426
S32D0000C34800AFFEE7FFFFFFFFFFFFFFFFFFFFFFFFFFFFFFFFFFFFFFFFFFFFFFFFFFFFFFFFFFFFFFFFFFFFFFFF57
S32D0000C370FFFFFFFFFFFFFFFFFFFFFFFFFFFFFFFFFFFFFFFFFFFFFFFFFFFFFFFFFFFFFFFFFFFFFFFFFFFFFFFFC7
S32D0000C398FFFFFFFFFFFFFFFFFFFFFFFFFFFFFFFFFFFFFFFFFFFFFFFFFFFFFFFFFFFFFFFFFFFFFFFFFFFFFFFF9F
S32D0000C3C0FFFFFFFFFFFFFFFFFFFFFFFFFFFFFFFFFFFFFFFFFFFFFFFFFFFFFFFFFFFFFFFFFFFFFFFFFFFFFFFF77
S32D0000C3E8FFFFFFFFFFFFFFFFFFFFFFFFFFFFFFFFFFFFFFFFFFFFFFFFFFFFFFFFFFFFFFFFFFFFFFFFFEFFFFFF50
S32D0000C41010B5054C237833B9044B13B10448AFF300800123237010BDDC16002000000000A8BB020008B5034BDA
S32D0000C4381BB103490348AFF3008008BD00000000E0160020A8BB020080B483B000AF78607B6883F0004318462C
S32D0000C4600C37BD4680BC704780B500AF054801F0A1FC054801F09EFC044801F09BFC00BF80BD00BFF816002021
S32D0000C488001700200817002080B582B000AF78601449786813F0B0F90346002B01D0114B1CE01149786813F05F
S32D0000C4B089F90346002B01D00D4B13E04FF07E51786813F07FF90346002B0AD04FF00001786813F095F903469B
S32D0000C4D8002B02D04FF0000300E07B6818460837BD4680BD0000C8420000C8C2FFFFFFFF80B588B000AFF86053
S32D0000C500B9607A60F86812F027FB5DA3D3E9002312F07AFB02460B46104619465AA3D3E9002312F09BFC024635
S32D0000C5280B46104619464FF00002574B12F068FB02460B461046194612F044FE0346FB61B86812F005FB4CA34F
S32D0000C550D3E9002312F058FB02460B461046194649A3D3E9002312F079FC02460B46104619464FF00002464BD9
S32D0000C57812F046FB02460B461046194612F022FE0346BB61786812F0E3FA3BA3D3E9002312F036FB02460B4635
S32D0000C5A01046194638A3D3E9002312F057FC02460B46104619464FF00002354B12F024FB02460B46104619462B
S32D0000C5C812F000FE03467B61F869FFF75DFFF861B869FFF759FFB8617869FFF755FF78612A4B1B684FF0000150
S32D0000C5F0184613F0E7F80346002B04D0F969264801F01AFC07E0F869FFF722FF03461946214801F011FC214BE4
S32D0000C6181B684FF00001184613F0D0F80346002B04D0B9691C4801F003FC07E0B869FFF70BFF0346194618483A
S32D0000C64001F0FAFB174B1B684FF00001184613F0B9F80346002B04D07969134801F0ECFB07E07869FFF7F4FEA2
S32D0000C668034619460E4801F0E3FB00BF2037BD4680BD00BFAFF30080FB2BED663D192340C7478B3346916D401E
S32D0000C6900000594038170020F81600203C170020001700204017002008170020FFFFFFFF80B584B000AF7860FA
S32D0000C6B839607A683B68D31AFB60F86812F08CFE0346184612F044FA0DA3D3E9002312F097FA02460B4610460A
S32D0000C6E019460BA3D3E9002312F0B8FB02460B461046194612F06AFD034618461037BD4680BD00BFAFF30080C5
S32D0000C708182D4454FB2119400000000000E0734090B583B000AF0346FB71FB79002B1FD0254806F0B9F9034656
S32D0000C730012214464FF07F51184613F043F80346002B01D100231C46E3B2002B06D04FF47F011C4807F0E0F85C
S32D0000C758022327E00321194807F0C6F8002321E0154806F099F90346184612F0F1F901231C460FA3D3E900239A
S32D0000C78012F0B4FC0346002B01D100231C46E3B2002B06D04FF47F010A4807F0BDF8022304E0FF21074807F048
S32D0000C7A8B7F8012318460C37BD4690BDAFF300809A9999999999F13F34170020301A00202DE9F04FB9B006AF6E
S32D0000C7D0F861B9611346FB756B463B610023C7F880300023FB670023BB670023C7F890300023C7F894300023EB
S32D0000C7F8C7F898304FF00003C7F89C304FF00003C7F8A0304FF00003C7F8A4304FF000037B674FF000033B6711
S32D0000C8204FF00003FB664FF00003C7F8A8304FF00003C7F8AC304FF00003C7F8B0304FF00003C7F8B4304FF08C
S32D0000C8480003C7F8B8304FF00003C7F8BC304FF00003C7F8C0304FF00003C7F8C4304FF00003C7F88C30B74B86
S32D0000C870BB664FF080437B664FF000033B66B44BFB65012387F85B30B24AF969B24809F013FE7865B14AB249F1
S32D0000C898AF4809F00DFE3865AE4AB049AC4809F007FEF864AB4AAE49A94809F001FEB864BB695C1E7C642346C3
S32D0000C8C0013318464FF000014FF000024FF000034B0143EAD0634201234601339E002346013318464FF0000190
S32D0000C8E802460B469518BD605B41FB60D7E90223121841EB03034FF000004FF00001590141EAD26150010246B7
S32D0000C9100B4623465A1C13465B0013449B002346013318464FF0000102460B4695183D605B417B60D7E90023AB
S32D0000C938121841EB03034FF000004FF00001590141EAD261500102460B4623465A1C13465B0013449B00073395
S32D0000C960DB08DB00ADEB030D06AB03339B089B003B64BB695D1EFD632B46013318464FF000014FF000024FF0BD
S32D0000C98800034B0143EAD06342012B4601339C002B46013318464FF0000102460B4612EB020A43EB030B524695
S32D0000C9B05B46121841EB03034FF000004FF00001590141EAD261500102460B462B465A1C13465B0013449B00AE
S32D0000C9D82B46013318464FF0000102460B4612EB020843EB030942464B46121841EB03034FF000004FF0000120
S32D0000CA00590141EAD261500102460B462B465A1C13465B0013449B000733DB08DB00ADEB030D06AB03339B08AF
S32D0000CA289B00BB63796D4A4809F08EFE0346002B14BF01230023DBB2002B04D00221494806F052FF5BE30023B4
S32D0000CA50C7F88830796D404809F07AFE0346002B0CBF01230023DBB2002B4AD007F1280207F12C03049307F132
S32D0000CA783003039307F13403029307F12003019307F1240300931346374A796D304809F09BFEB96A3B6CD7F83F
S32D0000CAA0882043F82210B008796A3B6CD7F88820024443F82210B208396A3B6C5000D7F88820024443F8221069
S32D0000CAC8796BBB6BD7F8882043F82210A008396BBB6BD7F88820024443F82210A208F96ABB6B5000D7F88820BC
S32D0000CAF0024443F82210D7F888300133C7F88830A8E7BA69D7F888309A4204DA0221174806F0EEFEF7E2D7F834
S32D0000CB188830BB61796D0E4809F096FDFB7D002B24D003210F4806F0DFFE0120FFF7F0FD0346002B0CBF012307
S32D0000CB400023DBB2002B15D0F3E700BF0000A041CDCCCC3D8C9B0200B81A0020909B0200949B0200A49B020031
S32D0000CB68B09B0200301A0020BC9B0200364805F06FFF364805F06CFF354805F069FF0023C7F88430D7F88420ED
S32D0000CB90BB699A4280F2A5822D4805F04BFFC7F880002C4805F046FFF8672B4805F042FFB8672A4B1B684FF0DF
S32D0000CBB80001184612F002FE0346002B0BD0D7F89010D7F88000FFF76FFD034683F00043C7F89C3007E0D7F83F
S32D0000CBE09010D7F88000FFF763FDC7F89C001C4B1B684FF00001184612F0E4FD0346002B0AD0D7F89410F86FF4
S32D0000CC08FFF752FD034683F00043C7F8A03006E0D7F89410F86FFFF747FDC7F8A0000F4B1B684FF00001184657
S32D0000CC3012F0C8FD0346002B16D0D7F89810B86FFFF736FD034683F00043C7F8A43012E01017002014170020D8
S32D0000CC5818170020381700203C17002040170020D7F89810B86FFFF71FFDC7F8A400D7F88030C7F89030FB6F8B
S32D0000CC80C7F89430BB6FC7F89830D7F89C10D7F8A80012F0F1FA0346C7F8A830D7F8A010D7F8AC0012F0E8FAB5
S32D0000CCA80346C7F8AC30D7F8A410D7F8B00012F0DFFA0346C7F8B030D7F89C0011F048FFBBA3D3E9002312F0C3
S32D0000CCD0C5F802460B461046194612F077FA03467B67D7F8A00011F037FFB3A3D3E9002312F0B4F802460B466B
S32D0000CCF81046194612F066FA03463B67D7F8A40011F026FFAAA3D3E9002312F0A3F802460B461046194612F05A
S32D0000CD2055FA0346FB66D7F89C0011F015FF80468946D7F8A00011F00FFF82468B46D7F8A40011F009FF0246FC
S32D0000CD480B46CDE90423CDE902ABCDE900899A4AF96C9A4809F00CFD3B6CD7F8842053F82230D7F8A810184624
S32D0000CD7012F080FA03461A46934B1A60B1083B6CD7F884200A4453F82230D7F8AC10184612F070FA03461A465C
S32D0000CD988C4B1A60B2083B6C5100D7F884200A4453F82230D7F8B010184612F05FFA03461A46854B1A60824B04
S32D0000CDC01B688449184612F01BFD0346002B40F099817D4B1B68184611F0BEFE804689467A4B1B68184611F01D
S32D0000CDE8B7FE82468B46784B1B68184611F0B0FE02460B46CDE90423CDE902ABCDE900896D4A396D6D4809F059
S32D0000CE10B3FC6D4B1B681946D7F8C00012F02CFA0346C7F8C030694B1B681946D7F8C40012F022FA0346C7F8AD
S32D0000CE38C430654B1B681946D7F88C0012F018FA0346C7F88C305E4B1B68B96E184612F017FB0346184611F0A6
S32D0000CE607BFE80468946786E11F076FE52A3D3E9002311F0C9FE02460B4692469B46D7F8C00011F069FE02460E
S32D0000CE880B465046594611F0BBFE02460B464046494611F0FFFC02460B461046194612F091F90346C7F8B430CC
S32D0000CEB0464B1B68B96E184612F0E6FA0346184611F04AFE80468946786E11F045FE3AA3D3E9002311F098FED7
S32D0000CED802460B4692469B46D7F8C40011F038FE02460B465046594611F08AFE02460B464046494611F0CEFC40
S32D0000CF0002460B461046194612F060F90346C7F8B8302F4B1B68B96E184612F0B5FA0346184611F019FE8046B2
S32D0000CF288946786E11F014FE21A3D3E9002311F067FE02460B4692469B46D7F88C0011F007FE02460B46504628
S32D0000CF50594611F059FE02460B464046494611F09DFC02460B461046194612F02FF90346C7F8BC30BB6BD7F813
S32D0000CF78842053F822304FF00001184612F01EFC0346002B24D10E4B1B684FF00001184612F014FC0346002B27
S32D0000CFA020D04FF00001D7F8B40012F00BFC0346002B17D010E000BF9A9999999999B93FCC9B0200B81A0020B3
S32D0000CFC8381700203C1700204017002000004040D7F8B43083F00043C7F8B430A108BB6BD7F884200A4453F87B
S32D0000CFF022304FF00001184612F0E4FB0346002B12D1444B1B684FF00001184612F0DAFB0346002B0ED04FF0D3
S32D0000D0180001D7F8B80012F0D1FB0346002B05D0D7F8B83083F00043C7F8B830A208BB6B5100D7F884200A4455
S32D0000D04053F822304FF00001184612F0BBFB0346002B12D1304B1B684FF00001184612F0B1FB0346002B0ED0DC
S32D0000D0684FF00001D7F8BC0012F0A8FB0346002B05D0D7F8BC3083F00043C7F8BC30D7F8B40011F065FD804619
S32D0000D0908946D7F8B80011F05FFD82468B46D7F8BC0011F059FD02460B46CDE90423CDE902ABCDE90089194AC9
S32D0000D0B8B96C194809F05CFBD7F8BC20D7F8B810D7F8B400FFF714FA642005F06BF9D7F884300133C7F88430A4
S32D0000D0E054E5FFF7C1F9396D0D4809F0B1FAF96C0B4809F0ADFAB96C094809F0A9FAD7F810D002E000BFD7F811
S32D0000D10810D0CC37BD46BDE8F08F00BF3C17002040170020CC9B0200B81A0020FFFFFFFFF0B583B000AF786090
S32D0000D13039602F4805F090FC2E4805F08DFC2E4805F08AFC7868FFF783F9034619462B4800F072FE7868FFF7B8
S32D0000D1587BF903461946284800F06AFE7868FFF773F903461946254800F062FE1E4805F05DFC04461D4805F0C6
S32D0000D18059FC03461C441C4805F054FC034623441D4A82FB0312DB17D31A184611F0CAFC04460D46386811F0EF
S32D0000D1A8C5FC0FA3D3E9002311F02AFD02460B4601210E462046294611F094FF0346002B01D100231E46F3B2F5
S32D0000D1D0002B00D0CEE7FFF747F900BF0C37BD46F0BD00BFAFF30080CB10C7BAB88D0540101700201417002040
S32D0000D1F818170020F8160020001700200817002056555555B0B584B000AF7860396005F005F902460B46104626
S32D0000D220194611F0D3FF0346FB602E4805F014FC2D4805F011FC2D4805F00EFC7868FFF707F9034619462A48B4
S32D0000D24800F0F6FD7968294800F0F2FD05F0E6F804460D46F86811F07BFC02460B462046294611F015FB024695
S32D0000D2700B4614461D46204B1B68184611F06CFC02460B462046294611F030FF0346002B1DD0144805F0CEFBB4
S32D0000D2980446134805F0CAFB03462344DA0F13445B10184612F098F804461249386812F0E7F80346194620468A
S32D0000D2C012F080FA0346002B01D0012300E00023002B00D0BEE7FFF7C7F800BF1037BD46B0BD00BF1017002087
S32D0000D2E81417002018170020F8160020001700200000002000000C4280B584B000AF78603960294808F0E0FFDA
S32D0000D310F8604FF00001F86812F054FA0346002B0BD0234808F0D4FFF8600221214806F0DFFA322005F03AF8F6
S32D0000D338EBE7F968786811F099FF034623F00043BB601B49B86812F039FA0346002B0BD07968F86812F050FACC
S32D0000D3600346002B15D03B6883F000433B6010E0B968124811F07EFF0346BB607968F86812F020FA0346002B34
S32D0000D38803D03B6883F000433B60B86812F03EFA034619463868FFF7C3FE642005F002F800BF1037BD4680BD9E
S32D0000D3B0981A0020301A0020000034430000B44380B584B000AF4F494F4805F0A1FE012215214E48FFF7F8F9F4
S32D0000D3D8642004F0E7FF0020FFF79AF9F8604A494A48FFF789FFFB68022B0AD100223D214748FFF7E5F90022B5
S32D0000D4003D214648FFF7E0F90CE0FB68012B09D100221F214248FFF7D7F900221F214148FFF7D2F940494FF0C8
S32D0000D4280000FFF769FF3F4808F032FFB860B9683D4811F01BFF034623F000437B603A49B86812F0BBF90346D3
S32D0000D450002B04D079682E48FFF7D8FE03E079683448FFF7D3FE3449274805F051FE00221F213248FFF7A8F9E2
S32D0000D478642004F097FF24494FF00000FFF73CFF284808F005FFB860B9682B4811F0EEFE034623F000437B601C
S32D0000D4A0284B4FF07F521A602549B86812F08AF90346002B04D079681548FFF7A7FE03E079681C48FFF7A2FE6F
S32D0000D4C81E4B1F4A1A601F490D4805F01DFE642004F068FF00221F211B48FFF771F91B49074805F011FE6420DE
S32D0000D4F004F05CFF0C491848FFF702FF00BF1037BD4680BD0000824228170020149C020000009041000087435D
S32D0000D518209C02002C9C0200389C0200449C020000000C42981A002000008C41000090C100003442509C020003
S32D0000D5400000784100000020000020410000AA425C9C020000008C420000AE4380B500AF4FF42F71184805F0C2
S32D0000D56899FD40F64C11164805F0B1FD4FF4FE71144805F08FFD4FF41A61124805F0A7FD1149104805F0C0FDC7
S32D0000D59010490D4805F0BCFD0F4805F05DFA0F4805F05AFA0E4805F057FA0E4808F03CFCFFF706FF0B4808F066
S32D0000D5B87DFE034619460A4806F053FCF6E700BF1C17002028170020000082420000A040101700201417002007
S32D0000D5E018170020981A0020301A002080B582B000AF786039607B68012B2BD13B684FF6FF72934226D1154A7C
S32D0000D6080021154800F094FB124A0121134800F08FFB104A0221124800F08AFB0021114804F046FF022110482A
S32D0000D63004F042FF04210F4804F03EFF00210E4805F010FD01210D4805F00CFD06210C4805F014FA00BF083780
S32D0000D658BD4680BD00001041F816002000170020081700201017002014170020181700201C17002028170020DC
S32D0000D6803417002080B500AF4FF6FF710120FFF7ADFF80BD80B500AF0F4BD3F8A03003F48053002B14BF0123B3
S32D0000D6A80023DBB2002B10D0094BD3F8A030084A23F48053C2F8A030064809F00FF8064B1B68054A23F4005309
S32D0000D6D0136000BF80BD00BF00C00440B81A0020C0F00F4080B400AF124B4FF480725A63114B5B69104A43F426
S32D0000D6F8005353610E4B1B680D4A43F4005313600A4B0C4A1A630C4BD3F888310A4A43F08063C2F88831084B9A
S32D0000D7209B68074A43F08063936000BFBD4680BC704700BF00C00440C0F00F4003010A0000E100E080B400AF55
S32D0000D748324B00225A70314B98221A702F4B9B79DBB203F01003002B14BF01230023DBB2002B00D0F2E7294B4F
S32D0000D7709B79DBB29B0803F00303022B14BF01230023DBB2002B00D0F1E7224B18221A71204B00225A71204BB2
S32D0000D79803F5825304331F4A1A601C4B54225A711A4B9B79DBB203F02003002B0CBF01230023DBB2002B00D0F3
S32D0000D7C0F2E7144B9B79DBB203F04003002B0CBF01230023DBB2002B00D0F2E70D4B1B78DBB20C4A03F03F038B
S32D0000D7E8DBB21370094B9B79DBB29B0803F00303032B14BF01230023DBB2002B00D0F1E700231846BD4680BC0A
S32D0000D810704700BF00400640007004400000130180B500AF344B03F5815318331B68324943F4785201F58153E3
S32D0000D83818331A60FFF752FFFFF780FF2D4B58221A602C4B1B684FF47A7202FB03F32A4A1360294B1B681A467B
S32D0000D860254B03F5825304331B681B0E03F00F030133B2FBF3F31A46224B1A601E4B03F581531C331B681C49FB
S32D0000D88843F0225201F581531C331A60184B03F5815310331B68164943F0006201F5815310331A60164B4FF424
S32D0000D8B080721A61642004F063FC134B5B69124A23F010035361104B00221A600E4B10225A610E4805F0C6FE62
S32D0000D8D805F0CAF905F028FA0B4804F0B1FC0B4809F068F84FF4FA6004F05CFD00BF80BD007004407C19002064
S32D0000D900781900208019002000D00340301A002074190020601D002080B500AFFEF713FD00BF80BD80B500AFFF
S32D0000D928FEF70DFD00BF80BD80B500AFFEF707FD00BF80BD80B500AFFEF701FD00BF80BD80B500AFFEF7FBFC5A
S32D0000D95000BF80BD80B500AFFEF7F5FC00BF80BD80B500AFFEF7EFFC00BF80BD80B500AFFEF7E9FC00BF80BD6D
S32D0000D97880B500AFFEF7E3FC00BF80BD80B500AFFEF7DDFC00BF80BD80B500AFFEF7D7FC00BF80BD80B500AF93
S32D0000D9A0FEF7D1FC00BF80BD80B500AFFEF7CBFC00BF80BD80B500AFFEF7C5FC00BF80BD80B500AFFEF7BFFCD5
S32D0000D9C800BF80BD80B500AFFEF7B9FC00BF80BD80B500AFFEF7B3FC00BF80BD80B500AFFEF7ADFC00BF80BDA9
S32D0000D9F080B500AFFEF7A7FC00BF80BD80B500AFFEF7A1FC00BF80BD80B500AFFEF79BFC00BF80BD80B500AFCF
S32D0000DA18FEF795FC00BF80BD80B500AFFEF78FFC00BF80BD80B500AFFEF789FC00BF80BD80B500AFFEF783FC4C
S32D0000DA4000BF80BD80B500AFFEF77DFC00BF80BD80B500AFFEF777FC00BF80BD80B500AFFEF771FC00BF80BDE4
S32D0000DA6880B500AFFEF76BFC00BF80BD80B500AFFEF765FC00BF80BD80B500AFFEF75FFC00BF80BD80B500AF0A
S32D0000DA90FEF759FC00BF80BD80B500AFFEF753FC00BF80BD80B500AFFEF74DFC00BF80BD80B500AFFEF747FCC4
S32D0000DAB800BF80BD80B500AFFEF741FC00BF80BD80B500AFFEF73BFC00BF80BD80B500AFFEF735FC00BF80BD20
S32D0000DAE080B500AFFEF72FFC00BF80BD80B500AFFEF729FC00BF80BD80B500AFFEF723FC00BF80BD80B500AF46
S32D0000DB08FEF71DFC00BF80BD80B500AFFEF717FC00BF80BD80B500AFFEF711FC00BF80BD80B500AFFEF70BFC3B
S32D0000DB3000BF80BD80B500AFFEF705FC00BF80BD80B500AFFEF7FFFB00BF80BD80B500AFFEF7F9FB00BF80BD5D
S32D0000DB5880B500AFFEF7F3FB00BF80BD80B500AFFEF7EDFB00BF80BD80B500AFFEF7E7FB00BF80BD80B500AF84
S32D0000DB80FEF7E1FB00BF80BD80B500AFFEF7DBFB00BF80BD80B500AFFEF7D5FB00BF80BD80B500AFFEF7CFFBB7
S32D0000DBA800BF80BD80B500AFFEF7C9FB00BF80BD80B500AFFEF7C3FB00BF80BD80B500AFFEF7BDFB00BF80BD9A
S32D0000DBD080B500AFFEF7B7FB00BF80BD80B500AFFEF7B1FB00BF80BD80B500AFFEF7ABFB00BF80BD80B500AFC0
S32D0000DBF8FEF7A5FB00BF80BD80B500AFFEF79FFB00BF80BD80B500AFFEF799FB00BF80BD80B500AFFEF793FB2F
S32D0000DC2000BF80BD80B500AFFEF78DFB00BF80BD80B500AFFEF787FB00BF80BD80B500AFFEF781FB00BF80BDD5
S32D0000DC4880B500AFFEF77BFB00BF80BD80B500AFFEF775FB00BF80BD80B500AFFEF76FFB00BF80BD80B500AFFB
S32D0000DC70FEF769FB00BF80BD80B500AFFEF763FB00BF80BD80B500AFFEF75DFB00BF80BD80B500AFFEF757FBA6
S32D0000DC9800BF80BD80B500AFFEF751FB00BF80BD80B500AFFEF74BFB00BF80BD80B500AFFEF745FB00BF80BD11
S32D0000DCC080B500AFFEF73FFB00BF80BD80B500AFFEF739FB00BF80BD80B500AFFEF733FB00BF80BD80B500AF37
S32D0000DCE8FEF72DFB00BF80BD80B500AFFEF727FB00BF80BD80B500AFFEF721FB00BF80BD80B500AFFEF71BFB1E
S32D0000DD1000BF80BD80B500AFFEF715FB00BF80BD80B500AFFEF70FFB00BF80BD80B500AFFEF709FB00BF80BD4C
S32D0000DD3880B584B000AFF8600B467A60FB72FB68FA7A1A71FB6800225A711749786811F053FD0346002B02D02C
S32D0000DD60134B7B600AE04FF07E51786811F034FD0346002B02D04FF07E537B60786810F0EBFE09A3D3E90023CD
S32D0000DD8810F03EFF02460B461046194611F01AFA0246FB681A60FB6818461037BD4680BDABAAAAAAAAAA204003
S32D0000DDB00000404180B582B000AF78607B685B79002B09D07B6800225A717B6819791E230022034804F072FAC8
S32D0000DDD800BF0837BD4680BD7419002080B584B000AF786039603B687F2B02DD7F23FB7308E03B6813F1800F4F
S32D0000DE0002DA8023FB7301E03B68FB737B685B79FA7B9A4209D07B68FA7B5A717B681979FA7B1E23034804F0A7
S32D0000DE2849FA00BF1037BD4680BD00BF74190020B0B584B000AF786039603749386811F0BDFC0346002B02D0FE
S32D0000DE50334B3B6008E03349386811F0D1FC0346002B01D02F4B3B60386810F075FE04460D467B681B681846EB
S32D0000DE7810F06EFE4FF00002294B10F0EBFF02460B462046294610F0BBFE02460B461046194611F097F9034622
S32D0000DEA03B604FF00001386811F0A0FC0346002B10D0386810F050FE17A3D3E9002310F0A3FE02460B461046D1
S32D0000DEC8194611F037F90346FB6018E0386810F03FFE4FF00002134B10F092FE02460B46104619464FF0000265
S32D0000DEF00D4B10F0B3FF02460B461046194611F01DF90346FB60F9687868FFF76BFF00BF1037BD46B0BD00BF1B
S32D0000DF1852B81E85EB51F43F0000C8C20000C842000059400000604080B483B000AF03460A46FB711346BB7152
S32D0000DF40BB79002B03D1134B00221A7002E0114B01221A703823FB710E4B1A78FB791343FB710D4B9B78DBB2AB
S32D0000DF680B4A43F01003DBB29370094B9B78DBB2074A43F02003DBB29370054AFB79137100BF0C37BD4680BCAD
S32D0000DF90704700BF441700200060064080B483B000AF01237B607B68312B04DC00BF7B6801337B60F7E700BF4A
S32D0000DFB80C37BD4680BC704780B582B000AF03460A46FB711346BB71134B1B7800211846FFF7AAFF00F024F847
S32D0000DFE0104AFB79137100F01FF80E4ABB79137100F01AF80B4B9B78DBB20A4A23F02003DBB29370074B9B7833
S32D0000E008DBB2064A23F01003DBB29370FFF7C2FF00BF0837BD4680BD451700200060064080B483B000AF174BC8
S32D0000E0301B78002B24D100237B60154BDB78DBB203F00203002B0CBF01230023DBB2002B0DD07B6842F210726E
S32D0000E058934203DD0B4B01221A7004E07B6801337B6000BFE5E7084BDB78DBB2064A43F00203DBB2D37000E016
S32D0000E08000BF0C37BD4680BC704700BF461700200060064080B582B000AF0346FB71FB79184600F05FF800BFF5
S32D0000E0A80837BD4680BD80B582B000AF03460A46FB711346BB7100F035F8FB795B00DBB21846FFF7E3FFBB7948
S32D0000E0D01846FFF7DFFF00F037F800BF0837BD4680BD80B500AFFF2000F03CF80346184680BD80B584B000AF70
S32D0000E0F80346FB7100F016F8FB795B005BB243F001035BB2DBB21846FFF7C0FFFFF7E5FF0346FB7300F014F8FA
S32D0000E120FB7B18461037BD4680BDFFFF80B400AF044B9B68034A43F48013936000BFBD4680BC704740F00F4005
S32D0000E14880B400AF044B5B68034A43F48013536000BFBD4680BC704740F00F4080B485B000AF0346FB710023C6
S32D0000E170BB73164BDB6A03F00043012B0CBF01230023DBB2002B03D0FB7B0133FB73F0E70E4BDB6A0D4A43F097
S32D0000E1980043D3620B4AFB7953630A4BDB6A03F40033002B0CBF01230023DBB2002B00D0F3E7044B9B6BBB737C
S32D0000E1C0BB7B18461437BD4680BC704700C00A4080B582B000AF224B03F5815310331B681F4943F4805201F5D6
S32D0000E1E8815310331A601D4B4FF480721A651C4B5B691B4A43F480135361FFF7A1FF174B4FF400725A65154B82
S32D0000E2104FF400729A65134B4FF40072DA65134B134A1A60114B134ADA6000237B607B68092B06DCFF20FFF7A6
S32D0000E2382DFF7B6801337B60F5E705A1D1E9000104F0C6F800BF0837BD4680BDAFF300809A9999999999B93FBC
S32D0000E2600070044000A0044040F00F4000C00A40000C00800500003E90B486B000AFF860B9607A60FB68594A26
S32D0000E28893420CD1584B03F5815314331B68564943F4806201F5815314331A604FE0FB68524A93420CD1504BBF
S32D0000E2B003F5815314331B684D4943F4006201F5815314331A603EE0FB684B4A93420CD1474B03F58153143383
S32D0000E2D81B68454943F4805201F5815314331A602DE0FB68434A93420CD13F4B03F5815314331B683C4943F4E8
S32D0000E300005201F5815314331A601CE0FB683C4A93420CD1364B03F5815308331B68344943F4806201F5815310
S32D0000E32808331A600BE0304B03F5815308331B682D4943F4006201F5815308331A60FB68DB78DBB223F00C032F
S32D0000E350DAB2FB68DA70FB6800229A70BB684FF47A7202FB03F27B681B0192FBF3F39CB2FB681B78DBB223F03D
S32D0000E3781F03FB7523461B12DBB203F01F03DAB2FB7D1343DAB2FB681A70E2B2FB685A70BB684FF4FA4202FB7A
S32D0000E3A003F27B681B0192FBF3F39AB263019BB2D31A9CB2FB689B7ADBB223F01F03FB75E3B203F01F03DAB2D0
S32D0000E3C8FB7D1343DAB2FB689A72FB68DB78DBB243F00C03DAB2FB68DA7000BF1837BD4690BC704700A00640A6
S32D0000E3F00070044000B0064000C0064000D0064000A00E4080B483B000AF78607B681B79DBB203F02003002B18
S32D0000E4180CBF01230023DBB2002B00D0F2E77B68DB79DBB218460C37BD4680BC704780B483B000AF78600B46C9
S32D0000E440FB707B681B79DBB25BB2DB43DBB2DB09DBB2002B00D0F4E77B68FA78DA7100BF0C37BD4680BC7047A8
S32D0000E46880B487B000AFF860B9607A60FB687B61BB683B617B685A1E7A60002B14BF01230023DBB2002B08D019
S32D0000E4903A69531C3B617B69591C796112781A70ECE700BF1C37BD4680BC704780B487B000AFF860B9607A6029
S32D0000E4B8FB687B617B685A1E7A60002B14BF01230023DBB2002B06D07B695A1C7A61BA68D2B21A70EEE700BFF6
S32D0000E4E01C37BD4680BC704780B489B000AFF860B9607A60FB68FB61BB68BB6100237B617B685A1E7A60002B01
S32D0000E5080FD0FB695A1CFA611B781946BB695A1CBA611B78CB1A7B617B69002B01D1012300E00023002B00D0D3
S32D0000E530E6E77B6918462437BD4680BC704780B483B000AF786039607B681B78002B09D07B681B781A463B68E3
S32D0000E558934203D07B6801337B60F1E77B681B7818460C37BD4680BC704780B584B000AF786039607B681B6B24
S32D0000E580FB60FA683B689A4252D07B681B79002B35D07B6858787B6803F134010123FA6803F08CFC0346002B34
S32D0000E5A814BF01230023DBB2002B01D001233CE07B6800221A717B685A6A7B681B6A1344FA689A4217D27B6862
S32D0000E5D0DB78FB72FB7A012B11D97B681B6AFA681344FB607B6858787B6803F134010123FA6803F063FCFB7A4A
S32D0000E5F8013BFB72EAE73B68002B15D07B6858787B6803F1340101233A6803F06FFB0346002B14BF0123002358
S32D0000E620DBB2002B01D0012303E07B683A681A63002318461037BD4680BD80B584B000AF786000217868FFF74B
S32D0000E64894FF0346FB73FB7B002B40F091807B681B78032B7BD17B685B79002B77D07B6800221A637B68343393
S32D0000E6704FF4007200211846FFF718FF7B68552283F832227B68AA2283F833227B68522283F834207B68522216
S32D0000E69883F835207B68612283F836207B68412283F837207B68722283F818227B68722283F819227B68412296
S32D0000E6C083F81A227B68612283F81B227B681B69DAB27B6883F81C227B681B699BB21B12DAB27B6883F81D22BE
S32D0000E6E87B681B691B0CDAB27B6883F81E227B681B691B0EDAB27B6883F81F227B68DB68DAB27B6883F820223F
S32D0000E7107B68DB689BB21B12DAB27B6883F821227B68DB681B0CDAB27B6883F822227B68DB681B0EDAB27B68D5
S32D0000E73883F823227B6858787B6803F134017B685A69012303F0B6FB7B6800225A717B685B780022002118469F
S32D0000E76003F078FC0346002B14BF01230023DBB2002B01D00123FB73FB7B18461037BD4680BD80B483B000AF0A
S32D0000E788786039603B68023B3B607B68DB69023B3A689A4201D3002308E07B689B781A463B6803FB02F27B68E8
S32D0000E7B0DB6A134418460C37BD4680BC704780B586B000AF786039603B68012B04D97B68DB693A689A4201D358
S32D0000E7D80123B5E07B681B78032B7AD0032B00F3AD80012B02D0022B4DD0A7E03B683B613B695B083A6913440F
S32D0000E8003B617B685A6A3B695B0A134419467868FFF7AFFE0346002B14BF01230023DBB2002B40F088803B6943
S32D0000E828C3F308037A68134493F83430FB603B6901333B617B685A6A3B695B0A134419467868FFF792FE0346F5
S32D0000E850002B14BF01230023DBB2002B6DD13B69C3F308037A68134493F834301B021A46FB681343FB603B689E
S32D0000E87803F00103002B02D0FB681B0960E0FB68C3F30B035CE07B685A6A3B681B0A134419467868FFF769FEF2
S32D0000E8A00346002B14BF01230023DBB2002B46D13B685B0003F4FF7330337A68134404337B617B6901331B782C
S32D0000E8C81B021AB27B691B781BB213431BB29BB236E07B685A6A3B68DB09134419467868FFF743FE0346002B00
S32D0000E8F014BF01230023DBB2002B22D13B689B0003F4FE7330337A68134404337B617B6903331B781A067B692F
S32D0000E91802331B781B0413437A6901321278120213437A691278134323F0704308E000BF04E000BF02E000BF16
S32D0000E94000E000BF4FF0FF3318461837BD4680BD80B588B000AFF860B9607A60BB68012B04D9FB68DB69BA6850
S32D0000E9689A4202D30223FB77ECE0FB681B78032B00F09680032B00F3D880012B02D0022B6BD0D2E0BB687B61B3
S32D0000E9907B695B087A6913447B61FB685A6A7B695B0A13441946F868FFF7E3FD0346FB77FB7F002B40F0C080D0
S32D0000E9B87B69C3F308033033FA6813440433BB61BB6803F00103002B0DD0BB691B785BB203F00F035AB27B6843
S32D0000E9E0DBB21B015BB213435BB2DBB201E07B68DBB2BA6913707B6901337B61FB6801221A71FB685A6A7B695C
S32D0000EA085B0A13441946F868FFF7AFFD0346FB77FB7F002B40F08E807B69C3F308033033FA6813440433BB6111
S32D0000EA30BB6803F00103002B03D07B681B09DBB20CE0BB691B7823F00F03DAB27B681B0ADBB203F00F03DBB291
S32D0000EA581343DBB2BA69137071E0FB685A6ABB681B0A13441946F868FFF77FFD0346FB77FB7F002B60D1BB680B
S32D0000EA805B0003F4FF733033FA6813440433BB617B68DAB2BB691A707B689BB21A12BB690133D2B21A704EE028
S32D0000EAA8FB685A6ABB68DB0913441946F868FFF75CFD0346FB77FB7F002B3FD1BB689B0003F4FE733033FA6852
S32D0000EAD013440433BB61BB6903331B781A06BB6902331B781B041343BA690132127812021343BA6912781343B3
S32D0000EAF803F070437A6813437B607B68DAB2BB691A707B689BB21A12BB690133D2B21A707B681A0CBB690233F6
S32D0000EB20D2B21A707B681A0EBB690333D2B21A7009E00223FB7706E000BF04E000BF02E000BF00E000BFFB68DB
S32D0000EB4801221A71FB7F18462037BD4680BD80B584B000AF786039603B68012B04D97B68DB693A689A4202D3D3
S32D0000EB700223FB7338E00023FB737B68DB693A689A4231D239687868FFF719FEB860BB68002B26D0BB68012B5A
S32D0000EB9802D10223FB7323E0BB68B3F1FF3F02D10123FB731CE0002239687868FFF7CCFE0346FB73FB7B002BC5
S32D0000EBC011D17B681B69B3F1FF3F07D07B681B695A1C7B681A617B6801225A71BB683B60CBE700BF00E000BF4B
S32D0000EBE8FB7B18461037BD4680BD80B586B000AF786039603B68002B0DD17B68DB683B613B69002B04D07B6825
S32D0000EC10DB693A699A4215D301233B6112E039687868FFF7CCFDB860BB68012B01D8012364E07B68DB69BA6848
S32D0000EC389A4201D2BB685DE03B683B613B697B617B6901337B617B68DB697A699A4207D302237B617A693B69A4
S32D0000EC609A4201D9002349E079697868FFF7A7FDB860BB68002B0ED0BB68B3F1FF3F02D0BB68012B01D1BB68C9
S32D0000EC8838E07A693B699A42DAD1002332E000BF6FF0704279697868FFF756FE0346FB73FB7B002B09D13B6852
S32D0000ECB0002B06D07A6939687868FFF749FE0346FB73FB7B002B10D17B687A69DA607B681B69B3F1FF3F10D032
S32D0000ECD87B681B695A1E7B681A617B6801225A7107E0FB7B012B02D14FF0FF3300E001237B617B6918461837C2
S32D0000ED00BD4680BD80B487B000AF786039607B685B6A04333B613B685B0A7A6812689278B3FBF2F37B613B691E
S32D0000ED281A1D3A611B68FB60FB68002B01D1002310E07A69FB689A4207D37A69FB68D31A7B613B6904333B6118
S32D0000ED50E9E700BF3B691A687B69134418461C37BD4680BC704780B584B000AF78600B467B807B687A88DA8083
S32D0000ED787B689B68FB60FB68012B05D07B681B68DB69FA689A4201D3022364E0FB68002B08D17B681B681B7843
S32D0000EDA0032B03D17B681B689B6AFB60FB68002B13D17B68FA68DA607B681B681B897A889A4201D302234AE081
S32D0000EDC87B681B689A6A7B881B091A447B681A6135E07B681B689B789BB21B017B817A887B899A421CD37B6829
S32D0000EDF01B68F9681846FFF7E2FCF860FB68B3F1FF3F01D101232AE0FB68012B05D97B681B68DB69FA689A42ED
S32D0000EE1801D302231FE07A887B89D31A7B80DEE77B68FA68DA607B681B68F9681846FFF7A4FC02467B881B0978
S32D0000EE401A447B681A617B681B6803F134027B8803F00F035B011A447B685A61002318461037BD4680BD90B5AB
S32D0000EE6885B000AF786039607B68DB8801333B813B89002B03D07B681B69002B01D10423C4E03B8903F00F0337
S32D0000EE90002B40F0B0807B681B695A1C7B681A617B68DB68002B08D17B681B681B893A899A42C0F0A0800423C4
S32D0000EEB8ACE03B891B097A6812689278013A1340002B40F094807B681A687B68DB6819461046FFF770FCF8605B
S32D0000EEE0FB68012B01D8022394E0FB68B3F1FF3F01D101238EE07B681B68DB69FA689A426DD33B68002B01D192
S32D0000EF08042383E07B681A687B68DB6819461046FFF76BFEF860FB68002B01D1072375E0FB68012B01D10223F5
S32D0000EF3070E0FB68B3F1FF3F01D101236AE07B681B6800211846FFF714FB0346002B14BF01230023DBB2002BAE
S32D0000EF5801D001235AE07B681B6834334FF4007200211846FFF79EFA7B681A687B681C68F9681046FFF701FC57
S32D0000EF80034623630023FB727B681B689B78FA7A9A421CD27B681B6801221A717B681B6800211846FFF7E5FA7F
S32D0000EFA80346002B14BF01230023DBB2002B01D001232BE07B681B681A6B01321A63FB7A0133FB72DCE77B689E
S32D0000EFD01B68196BFA7A7B681B688A1A1A637B68FA68DA607B681B68F9681846FFF7C9FB02467B681A617B682A
S32D0000EFF83A89DA807B681B6803F134023B8903F00F035B011A447B685A61002318461437BD4690BD80B586B096
S32D0000F02000AF786000217868FFF79DFE0346FB75FB7D002B01D0FB7D3CE07B681A687B681B6919461046FFF771
S32D0000F04894FA0346FB75FB7D002B2BD17B685B693B613B691B78FB73FB7B002B02D10423FB7522E03B690B33DD
S32D0000F0701B7803F00803002B0BD17B689B690B2219463869FFF730FA0346002B01D1012300E00023002B0BD132
S32D0000F09800217868FFF7E3FE0346FB75FB7D002B03D1C6E700BF00E000BFFB7D18461837BD4680BD80B584B069
S32D0000F0C000AF786000217868FFF74DFE0346FB73FB7B002B21D17B681A687B681B6919461046FFF746FA03460F
S32D0000F0E8FB73FB7B002B13D17B685B691B78BB73BB7BE52B0DD0BB7B002B0AD001217868FFF7ADFE0346FB73E7
S32D0000F110FB7B002B01D1DEE700BFFB7B002B1FD17B681A687B681B6919461046FFF721FA0346FB73FB7B002B5F
S32D0000F13812D17B685B69BB6020220021B868FFF7B1F97B689B690B221946B868FFF788F97B681B6801221A71C3
S32D0000F160FB7B18461037BD4680BDFFFF80B588B000AF786039603B681B68FB60FB681B782F2B03D0FB681B7801
S32D0000F1885C2B03D1FB680133FB60F3E77B689B69BB600B222021B868FFF784F90023FB7700233B613B697B615B
S32D0000F1B00823BB61FA687B6913441B782E2B2FD17B695A1C7A61FA6813441B78BB77BB7F2E2B0AD17B69022B2F
S32D0000F1D807D83B695A1C3A61BA681344BA7F1A70EAE7BB7F2F2B07D0BB7F5C2B04D0BB7F202B01D90623A7E059
S32D0000F200FA687B691A443B681A60BB7F202B01D8242200E02022BB680B331A70002397E07B695A1C7A61FA683D
S32D0000F22813441B78BB77BB7F202B58D9BB7F2F2B55D0BB7F5C2B52D0BB7F2E2B03D03A69BB699A420FD3BB693B
S32D0000F250082B02D1BB7F2E2B01D0062378E008233B610B23BB61FB7F9B00FB773AE097F91E30002B08DAFB7F8E
S32D0000F27843F00303FB77BB7F803B354AD35CBB77BB7F19463348FFF756F90346002B14BF01230023DBB2002B49
S32D0000F2A001D0062354E0BB7F402B07D9BB7F5A2B04D8FB7F43F00203FB770CE0BB7F602B09D9BB7F7A2B06D87E
S32D0000F2C8FB7F43F00103FB77BB7F203BBB773B695A1C3A61BA681344BA7F1A709CE7FA687B691A443B681A60F9
S32D0000F2F0BB7F202B01D8042300E00023BB773B69002B01D1062323E0BB681B78E52B02D1BB6805221A70BB69D8
S32D0000F318082B02D1FB7F9B00FB77FB7F03F00303012B03D1BB7F43F01003BB77FB7F03F00C03042B03D1BB7F5C
S32D0000F34043F00803BB77BB680B33BA7F1A70002318462037BD4680BD6C9C0200EC9C020080B584B000AF78606F
S32D0000F36839603B681B782F2B03D03B681B785C2B06D13B6801333B607B6800229A6004E07B681B689A697B6846
S32D0000F3909A603B681B781F2B09D800217868FFF7E2FC0346FB737B6800225A6169E03B4619467868FFF7DAFED1
S32D0000F3B80346FB73FB7B002B58D17868FFF72AFE0346FB737B689B69DB7ABB73FB7B002B1DD0FB7B042B4BD138
S32D0000F3E0BB7B03F02003002B0DD07B6800229A607B6800225A610023FB73BB7B03F00403002B3BD135E0BB7BA9
S32D0000F40803F00403002B35D10523FB7332E0BB7B03F00403002B2FD17B685B69BB60BB680B331B7803F01003EC
S32D0000F430002B02D10523FB7323E0BB6815331B781B021AB2BB6814331B781BB213431BB29BB21B04BA681B3268
S32D0000F4581278120211B2BA681A32127812B20A4312B292B21A437B689A609CE700BF04E000BF02E000BF00E074
S32D0000F48000BFFB7B18461037BD4680BD80B582B000AF786039607B6858787B6803F1340101233A6802F026FC24
S32D0000F4A80346002B14BF01230023DBB2002B01D003234AE07B6803F2322301331B781B021AB27B6893F8323220
S32D0000F4D01BB213431BB2214A934201D0022338E07B686A3303331B781A067B686A3302331B781B0413437A68C8
S32D0000F4F86A3201321278120213437A6892F86A20134323F07F43144A934201D100231CE07B68863303331B7879
S32D0000F5201A067B68863302331B781B0413437A68863201321278120213437A6892F88620134323F07F43064A76
S32D0000F548934201D1002300E0012318460837BD4680BD00BF55AAFFFF4641540080B592B000AFF860B960134663
S32D0000F570FB71FB681B68FB62FB6A1B78303B3B643B6C092B0BD8FB6A01331B783A2B06D1FB6A0233FB62FB683C
S32D0000F598FA6A1A6002E0A94B1B783B643B6C002B01D00B2366E2A64A3B6C52F82330BB62BB68BA6A1A60BB6A0F
S32D0000F5C0002B01D10C2359E2BB6A1B78002B1AD0BB6A5B78184602F0BFFD034687F8273097F8273003F00103E9
S32D0000F5E8002B0CD1FB79002B07D097F8273003F00403002B01D00A233CE200233AE2BB6A00221A703B6CDAB20D
S32D0000F610BB6A5A70BB6A5B78184602F02FF9034687F8273097F8273003F00103002B01D0032323E2FB79002BAB
S32D0000F63807D097F8273003F00403002B01D00A2318E20023FB63F96BB86AFFF71BFF034687F8473097F847306E
S32D0000F660012B22D1BB6A03F5F9733B623B6A04331B78002B19D03B6A0B331B781A063B6A0A331B781B04134334
S32D0000F6883A6A09321278120213433A6A083212781343FB63F96BB86AFFF7F4FE034687F8473097F84730032B84
S32D0000F6B001D10123E2E197F84730002B01D00D23DCE1BB6A93F840301B021AB2BB6A93F83F301BB213431BB26C
S32D0000F6D8B3F5007F01D00D23CCE1BB6A93F84B301B021AB2BB6A93F84A301BB213431BB29BB2BB63BB6B002B45
S32D0000F70012D1BB6A93F85B301A06BB6A93F85A301B041343BA6A92F8592012021343BA6A92F858201343BB63C3
S32D0000F728BB6ABA6B1A62BB6A93F84430FB77BB6AFA7FDA70FB7F012B04D0FB7F022B01D00D2397E1FA7FBB6B36
S32D0000F75002FB03F3BB63BB6A93F84130FB77BB6AFA7F9A70FB7F002B05D0FA7FFB7F013B1340002B01D00D2317
S32D0000F77880E1BB6A93F846301B021AB2BB6A93F845301BB213431BB29AB2BB6A1A81BB6A1B8903F00F03002BD9
S32D0000F7A001D00D236AE1BB6A93F848301B021AB2BB6A93F847301BB213431BB29BB27B637B6B002B12D1BB6A83
S32D0000F7C893F857301A06BB6A93F856301B041343BA6A92F8552012021343BA6A92F8542013437B63BB6A93F8A3
S32D0000F7F043301B021AB2BB6A93F842301BB213431BB2BB83BB8B002B01D10D2336E1BA8BBB6B1A44BB6A1B8923
S32D0000F8181B091344BB617A6BBB699A4201D20D2328E17A6BBB69D31ABA6A9278B3FBF2F37B617B69002B05D1C2
S32D0000F8400D231BE14E17002048170020012387F847307B6940F6F572934202D9022387F847307B694FF6F57274
S32D0000F868934202D9032387F847307B699A1CBB6ADA61FA6BBB691A44BB6ADA62BA8BFB6B1A44BB6A5A6297F8EB
S32D0000F8904730032B1ED1BB6A1B89002B01D00D23ECE0BB6A93F863301A06BB6A93F862301B041343BA6A92F82D
S32D0000F8B8612012021343BA6A92F860201A43BB6A9A62BB6ADB699B003B631FE0BB6A1B89002B01D10D23CDE047
S32D0000F8E0BB6A5A6ABB6B1A44BB6A9A6297F84730022B03D1BB6ADB695B000AE0BB6ADA6913465B0013445A08E2
S32D0000F908BB6ADB6903F0010313443B63BB6A1A6A3B6B03F2FF135B0A9A4201D20D23A9E0BB6A4FF0FF321A6149
S32D0000F930BB6A0022DA6097F84730032B40F08680BB6A00225A71BB6A93F865301B021AB2BB6A93F864301BB26D
S32D0000F95813431BB29BB21A46FB6B1A44BB6A5A61BB6A5878BB6A03F13401BB6A5A69012302F0BCF90346002BA3
S32D0000F98039D1BB6A93F833321B021AB2BB6A93F832321BB213431BB23A4A93422BD1BB6A93F837301A06BB6A9C
S32D0000F9A893F836301B041343BA6A92F8352012021343BA6A92F834201343314A934216D1BB6A93F81B321A06B2
S32D0000F9D0BB6A93F81A321B041343BA6A92F8192212021343BA6A92F818221343274A934201D1012300E00023C8
S32D0000F9F8002B27D0BB6A93F823321A06BB6A93F822321B041343BA6A92F8212212021343BA6A92F820221A4379
S32D0000FA20BB6ADA60BB6A93F81F321A06BB6A93F81E321B041343BA6A92F81D2212021343BA6A92F81C221A4323
S32D0000FA48BB6A1A61BB6A97F847201A700E4B1B8801339AB20C4B1A800B4B1A88BB6ADA80BB6A00221A63BB6A7E
S32D0000FA7000221A71BB6A00229A61002318464837BD4680BD55AAFFFF52526141727241614C17002080B582B086
S32D0000FA9800AF78600B467B807B68002B08D07B681B78002B04D07B68DB887A889A4201D0092311E07B685B784A
S32D0000FAC0184602F049FB034603F00103002B14BF01230023DBB2002B01D0032300E0002318460837BD4680BD70
S32D0000FAE880B485B000AF03463960FB71FB79002B01D00B2316E0FB790D4A52F82330FB60FB68002B02D0FB6870
S32D0000FB1000221A703B68002B02D03B6800221A70FB7905493A6841F82320002318461437BD4680BC704700BFCB
S32D0000FB384817002080B592B000AFF860B9601346FB71FB6800221A60FB7903F01F03FB71FB7923F00103DAB2B9
S32D0000FB6007F11C0107F108031846FFF7FBFC034687F8473007F110037B6397F84730002B09D1BA6807F11C03A8
S32D0000FB8811461846FFF7E8FB034687F847303B6B3B6497F84730002B05D13B6C002B02D1062387F84730FB79FE
S32D0000FBB003F01C03002B00F0B08097F84730002B12D097F84730042B07D107F11C031846FFF774FA034687F809
S32D0000FBD84730FB7943F00803FB713B6B3B6412E03B6C0B331B7803F01103002B03D0072387F8473007E0FB793B
S32D0000FC0003F00403002B02D0082387F8473097F84730002B40F09F80FB7903F00803002B00F099800023FB6317
S32D0000FC283B6C0E33FA6BD2B21A70FB6B9BB21A123B6C0F33D2B21A70FB6B1A0C3B6C1033D2B21A70FB6B1A0E6B
S32D0000FC503B6C1133D2B21A703B6C0B3300221A703B6C1C3300221A703B6C1D3300221A703B6C1E3300221A7013
S32D0000FC783B6C1F3300221A703B6C15331B781B021AB23B6C14331B781BB213431BB29BB21B043A6C1B321278F4
S32D0000FCA0120211B23A6C1A32127812B20A4312B292B21343BB633B6C1A3300221A703B6C1B3300221A703B6C6E
S32D0000FCC8143300221A703B6C153300221A70FB6901221A71BB6B002B39D0FB691B6BFB63FB69B96B1846FEF7F1
S32D0000FCF032FF034687F8473097F84730002B2AD1FB69BA6B013ADA60FB69F96B1846FEF730FC034687F84730C6
S32D0000FD181DE097F84730002B19D13B6C0B331B7803F01003002B03D0042387F847300EE0FB7903F00203002B87
S32D0000FD4009D03B6C0B331B7803F00103002B02D0072387F8473097F84730002B0FD1FB7903F00803002B03D0AF
S32D0000FD68FB7943F02003FB71FB691A6BFB68DA61FB683A6C1A6297F84730002B42D1FB68FA799A713B6C153317
S32D0000FD901B781B021AB23B6C14331B781BB213431BB29BB21B043A6C1B321278120211B23A6C1A32127812B258
S32D0000FDB80A4312B292B21A43FB681A613B6C1F331B781A063B6C1E331B781B0413433A6C1D32127812021343F8
S32D0000FDE03A6C1C3212781A43FB68DA60FB6800229A60FB6800229A61FB6800225A62FA69FB681A60FB69DA8837
S32D0000FE08FB689A8097F8473018464837BD4680BD80B58CB000AFF860B9607A603B60BB683B623B6800221A6027
S32D0000FE30FB681A68FB689B8819461046FFF72AFE0346FB77FB7F002B01D0FB7F4EE1FB689B795BB2002B01DA02
S32D0000FE58022347E1FB689B7903F00103002B01D107233FE1FB68DA68FB689B68D31ABB617A68BB699A4201D9AA
S32D0000FE80BB697B607B68002B00F02F81FB689B68C3F30803002B40F0FA80FB689B685B0ADAB2FB681B689B785B
S32D0000FEA8013BDBB21340FB75FB7D002B38D1FB689B68002B03D1FB681B69FB6214E0FB685B6A002B07D0FB68CA
S32D0000FED09B681946F868FEF715FFF86208E0FB681A68FB685B6919461046FEF768FCF862FB6A012B08D8FB68AF
S32D0000FEF89B7963F07F03DAB2FB689A710223F1E0FB6AB3F1FF3F08D1FB689B7963F07F03DAB2FB689A71012379
S32D0000FF20E4E0FB68FA6A5A61FB681A68FB685B6919461046FEF725FC38613B69002B08D1FB689B7963F07F0309
S32D0000FF48DAB2FB689A710223CCE0FB7D3A6913443B617B685B0A7B627B6A002B47D0FA7D7B6A1344FA681268D7
S32D0000FF709278934206D9FB681B689B781A46FB7DD31A7B62FB681B6858787B6ADBB23A69396A01F0AFFE0346B5
S32D0000FF98002B14BF01230023DBB2002B08D0FB689B7963F07F03DAB2FB689A71012399E0FB689B7903F04003D6
S32D0000FFC0002B14D0FB689A693B69D31A7A6A9A420DD9FB689A693B69D31A5B023A6AD018FB6828334FF4007214
S32D0000FFE81946FEF73DFA7B6A5B02BB6264E0FB689B693A699A4243D0FB689B7903F04003002B22D0FB681B6814
S32D000100105878FB6803F12801FB689A69012301F04DFF0346002B14BF01230023DBB2002B08D0FB689B7963F0C2
S32D000100387F03DAB2FB689A71012353E0FB689B7923F04003DAB2FB689A71FB681B685878FB6803F128010123A5
S32D000100603A6901F047FE0346002B14BF01230023DBB2002B08D0FB689B7963F07F03DAB2FB689A71012331E0FF
S32D00010088FB683A699A61FB689B68C3F30803C3F50073BB62BA6A7B689A4201D97B68BB62FB689B68C3F30803F5
S32D000100B02833FA681344BA6A1946386AFEF7D4F93A6ABB6A13443B62FB689A68BB6A1A44FB689A603B681A68FF
S32D000100D8BB6A1A443B681A607A68BB6AD31A7B60CCE6002318463037BD4680BD80B58AB000AFF860B9607A6047
S32D000101003B60BB68BB613B6800221A60FB681A68FB689B8819461046FFF7BCFC0346FB75FB7D002B01D0FB7D44
S32D000101287EE1FB689B795BB2002B01DA022377E1FB689B7903F00203002B01D107236FE1FB68DA687B681A4476
S32D00010150FB68DB689A4201D200237B607B68002B00F05081FB689B68C3F30803002B40F01381FB689B685B0A7D
S32D00010178DAB2FB681B689B78013BDBB21340BB75BB7D002B49D1FB689B68002B10D1FB681B697B627B6A002BC4
S32D000101A01FD1FB681B6800211846FEF722FD7862FB687A6A1A6114E0FB685B6A002B07D0FB689B681946F868E8
S32D000101C8FEF79CFD786208E0FB681A68FB685B6919461046FEF709FD78627B6A002B00F00C817B6A012B08D1AB
S32D000101F0FB689B7963F07F03DAB2FB689A71022312E17B6AB3F1FF3F08D1FB689B7963F07F03DAB2FB689A719C
S32D00010218012305E1FB687A6A5A61FB689B7903F04003002B22D0FB681B685878FB6803F12801FB689A69012321
S32D0001024001F03CFE0346002B14BF01230023DBB2002B08D0FB689B7963F07F03DAB2FB689A710123E0E0FB68B9
S32D000102689B7923F04003DAB2FB689A71FB681A68FB685B6919461046FEF77FFA38613B69002B08D1FB689B791C
S32D0001029063F07F03DAB2FB689A710223C4E0BB7D3A6913443B617B685B0AFB61FB69002B49D0BA7DFB6913449B
S32D000102B8FA6812689278934206D9FB681B689B781A46BB7DD31AFB61FB681B685878FB69DBB23A69B96901F046
S32D000102E0EDFD0346002B14BF01230023DBB2002B08D0FB689B7963F07F03DAB2FB689A71012391E0FB689A69A6
S32D000103083B69D31AFA699A4215D9FB6803F12800FB689A693B69D31A5B02BA6913444FF400721946FEF79CF81E
S32D00010330FB689B7923F04003DAB2FB689A71FB695B023B6248E0FB689B693A699A4220D0FB689A68FB68DB6870
S32D000103589A420ED2FB681B685878FB6803F1280101233A6901F0C2FC0346002B01D0012300E00023002B08D09F
S32D00010380FB689B7963F07F03DAB2FB689A7101234AE0FB683A699A61FB689B68C3F30803C3F500733B623A6A26
S32D000103A87B689A4201D97B683B62FB689B68C3F308032833FA6813443A6AB9691846FEF74FF8FB689B7943F0C8
S32D000103D04003DAB2FB689A71BA693B6A1344BB61FB689A683B6A1A44FB689A603B681A683B6A1A443B681A607C
S32D000103F87A683B6AD31A7B60ACE600BFFB689A68FB68DB689A4203D9FB689A68FB68DA60FB689B7943F02003A4
S32D00010420DAB2FB689A71002318462837BD4680BD80B586B000AF78607B681A687B689B8819461046FFF726FB6A
S32D000104480346FB75FB7D002B40F0A8807B689B7903F02003002B00F0A1807B689B7903F04003002B1BD07B6862
S32D000104701B6858787B6803F128017B689A69012301F01CFD0346002B14BF01230023DBB2002B01D0012386E055
S32D000104987B689B7923F04003DAB27B689A717B681A687B68DB6919461046FEF75EF80346FB75FB7D002B71D144
S32D000104C07B681B6A3B613B690B331A783B690B3342F02002D2B21A707B68DA683B691C33D2B21A707B68DB6805
S32D000104E89BB21A123B691D33D2B21A707B68DB681A0C3B691E33D2B21A707B68DB681A0E3B691F33D2B21A70C9
S32D000105107B681A693B691A33D2B21A707B681B699BB21A123B691B33D2B21A707B681B691A0C3B691433D2B27B
S32D000105381A707B681B691B0C9BB21A123B691533D2B21A700023FB603B691633FA68D2B21A70FB689BB21A1252
S32D000105603B691733D2B21A70FB681A0C3B691833D2B21A70FB681A0E3B691933D2B21A707B689B7923F0200334
S32D00010588DAB27B689A717B681B6801221A717B681B681846FEF74DF80346FB75FB7D18461837BD4680BD80B565
S32D000105B084B000AF78607868FFF73AFF0346FB73FB7B002B02D17B6800221A60FB7B18461037BD4680BD80B518
S32D000105D888B000AFF860B9607A600023FB61FB68BB61BB68013BFA699A421BDA07F1100307F114010122786816
S32D00010600FFF70AFC3B69012B0DD13B7DFB75BB695A1CBA61FA7D1A70FB690133FB61FB7D0A2B02D0E1E700BF49
S32D0001062800E000BFBB6900221A70FB69002B01D0FB6800E0002318462037BD4680BD80B586B000AF034639607D
S32D00010650FB71FB793B7301237B6107F1100307F10C017A693868FFF745FD3B697A699A4201D1012301E04FF0A9
S32D00010678FF3318461837BD4680BD80B584B000AF786039600023FB607B681B78002B18D07B681B78396818462F
S32D000106A0FFF7D1FF0346B3F1FF3F0CBF01230023DBB2002B02D04FF0FF3307E07B6801337B60FB680133FB6062
S32D000106C8E2E7FB6818461037BD4680BD80B485B000AF786039600123FB600023BB600023BB60BA683B689A42CD
S32D000106F008DAFB687A6802FB03F3FB60BB680133BB60F2E7FB6818461437BD4680BC704780B598B000AFF86095
S32D00010718B9607A6000233B643B6CFB63FB6BB3F1FF3F00F0EF82BB685A1CBA601B7887F8473097F84730002BE2
S32D0001074000F0E18297F84730252B0ED097F84730F9681846FFF777FFF863FB6BB3F1FF3F00F0C7820123FB6374
S32D00010768C3E2002387F85F3000233B65BB685A1CBA601B7887F8473097F84730302B09D1012387F85F30BB68FD
S32D000107905A1CBA601B7887F847300CE097F847302D2B08D1022387F85F30BB685A1CBA601B7887F8473097F800
S32D000107B847302E2B05D1BB685A1CBA601B7887F8473097F847302F2B15D997F84730392B11D83A6D13469B00F4
S32D000107E013445B001A4697F847301344303B3B65BB685A1CBA601B7887F84730E5E797F847306C2B03D097F869
S32D0001080847304C2B0BD197F85F3043F0040387F85F30BB685A1CBA601B7887F8473097F84730002B00F06D8245
S32D0001083097F8473087F8463097F84630602B08D997F846307A2B04D897F84630203B87F8463097F84630423BD0
S32D00010858162B00F2748101A252F823F0270B0100110B0100370B0100470B010069090100470B0100470B01004A
S32D00010880470B0100470B0100470B0100470B0100470B0100470B01002F0B0100470B0100470B0100470B010023
S32D000108A8C1080100470B0100370B0100470B0100470B01003F0B01007B681A1D7A601B687B6200237B657A6A95
S32D000108D07B6D13441B78002B03D07B6D01337B65F5E700233B6497F85F3003F00203002B07D17B6D5A1C7A6539
S32D000108F83A6D9A4201D9012300E00023002B09D0F9682020FFF79BFEF863FB6B3A6C13443B64E4E7F968786AAE
S32D00010920FFF7AFFEF863FB6B3A6C13443B647B6D5A1C7A653A6D9A428CBF01230023DBB2002B09D0F968202024
S32D00010948FFF77DFEF863FB6B3A6C13443B64EAE7FB6BB3F1FF3F00F0CA813B6CFB63C6E17B68073323F0070378
S32D0001097003F108027A60D3E90023C7E90C23D7E90C23C7E90A230023FB644FF000024FF00003D7E90C010EF026
S32D00010998A9FB0346002B14D0F9682D20FFF74FFEF863FB6B3A6C13443B643B6B3B637B6B83F000437B63BB6A03
S32D000109C0BB62FB6A83F00043FB62D7E90A010EF0B5FB0346002B0ED04FF00002AA4BD7E90A010EF03BFA02462C
S32D000109E80B46C7E90A23FB6C0133FB64E9E7FB6C013B7B657B6DB3F1FF3F35D07B6D19460A20FFF763FE034685
S32D00010A1018460EF08FF802460B46D7E90C010EF01DFA02460B46104619460EF087FB03463B623A6A954B83FBA3
S32D00010A3802139910D317C91A0B469B000B445B00D31A3B623B6A30333B623B6ADBB2F9681846FFF7F4FDF8630C
S32D00010A60FB6B3A6C13443B647B6D013B7B65C5E7F9682E20FFF7E7FDF863FB6B3A6C13443B643B6D002B01D12A
S32D00010A8803233B650123BB65BA6D3B6D9A4233D8BB6D19460A20FFF719FE034618460EF045F8D7E90C230EF0F2
S32D00010AB0ABF802460B46104619460EF03FFB03463B623A6A714B83FB02139910D317C91A0B469B000B445B0009
S32D00010AD8D31A3B623B6A30333B623B6ADBB2F9681846FFF7ACFDF863FB6B3A6C13443B64BB6D0133BB65C7E7A9
S32D00010B00FB6BB3F1FF3F00F0F8803B6CFB63F4E07B681A1D7A601B68DBB2F9681846FFF792FDF863EAE00223AB
S32D00010B2887F85E3013E0082387F85E300FE00A2387F85E300BE0102387F85E3007E097F84730F9681846FFF770
S32D00010B507AFDF863D2E097F85F3003F00403002B04D07B681A1D7A601B680CE097F84630442B04D17B681A1D15
S32D00010B787A601B6803E07B681A1D7A601B68BB6497F84630442B0BD1BB6C002B08DABB6C5B42BB6497F85F30F3
S32D00010BA043F0080387F85F300023BB6597F85E20BB6CB3FBF2F102FB01F29B1A87F8463097F85E30BA6CB2FB48
S32D00010BC8F3F3BB6497F84630092B0BD997F84730782B01D1272200E0072297F84630134487F84630BB6D5A1C20
S32D00010BF0BA6597F846203032D2B207F160010B4403F8502CBB6C002B03D0BB6D0F2B00D8CCE797F85F3003F09A
S32D00010C180803002B08D0BB6D5A1CBA6507F1600213442D2203F8502CBB6D7B6597F85F3003F00103002B01D052
S32D00010C40302300E0202387F8463000233B6497F85F3003F00203002B07D17B6D5A1C7A653A6D9A4201D9012381
S32D00010C6800E00023002B0FD097F84630F9681846FFF7E5FCF863FB6B3A6C13443B64E2E7000024406766666692
S32D00010C90BB6D013BBB6507F11002BB6D13441B78F9681846FFF7CFFCF863FB6B3A6C13443B64BB6D002B00D095
S32D00010CB8EAE77B6D5A1C7A653A6D9A428CBF01230023DBB2002B09D0F9682020FFF7B7FCF863FB6B3A6C134451
S32D00010CE03B64EAE7FB6BB3F1FF3F07D03B6CFB6304E000BF02E000BF00E000BF3A6CFB6B13443B640EE500BFBA
S32D00010D0800E000BFFB6BB3F1FF3F01D1FB6B00E03B6C18466037BD4680BD00BF80B588B000AF786039608023F2
S32D00010D303B610F23FB604FF0FF337B610223FB61FB69B3F5807F23D80123BB61BB69102B1AD8FB69BA6902FB82
S32D00010D5803F33A6802FB03F27B68D31ABB60BB68002B09DBBB687A699A4205D9BB687B61FB693B61BB69FB6087
S32D00010D80BB690133BB61E1E7FB695B00FB61D7E71D4BDB6A1C4A23F00803D3621A4BDB6A23F47F2323F47F636D
S32D00010DA8BB613B695B081B029AB2FB68013B1B01DBB21A43BB691343114A43F46023D3620F4B5B6A03F008030A
S32D00010DD0002B0CBF01230023DBB2002B03D00A2001F0E4FAF0E7084BDB6A074A43F00803D362054B1B6B044ADC
S32D00010DF843F48013136300BF2037BD4680BD00BF00100B4080B582B000AF786039607B6800221A60424B434AFC
S32D00010E20DA62414BDB6A03F08073002B14BF01230023DBB2002B00D0F3E73B4B0022C3F8C020394B4FF481324C
S32D00010E485A60374B28229A62354B4FF001125A643B689B6834491846FFF760FF304B5B6A03F00303002B14BF5C
S32D00010E7001230023DBB2002B00D0F3E72D4B40F243421A602B4B40F243425A60294B4FF488629A60274B40F2DB
S32D00010E984342DA60254B40F243421A61234B40F243425A61224B03F5815310331B68204943F4003201F581534F
S32D00010EC010331A60184B4FF6FF721A63164B1B4A5A63154BDB6A144A43F00063D362124BDB6A03F00063002B3C
S32D00010EE814BF01230023DBB2002B00D0F3E70C4B5B6A03F48033002B14BF01230023DBB2002B02D07B680122C4
S32D00010F101A60054B1B6B044A43F080031363002318460837BD4680BD00100B400080000160CC050000D00440C7
S32D00010F3800700440B3007F0080B400AF064B5A6A40F207331340002B14BF01230023DBB21846BD4680BC7047C7
S32D00010F6000100B4080B485B000AF7860074B1B6B7A681340FB60FB68002B00D1F6E7FB6818461437BD4680BC28
S32D00010F88704700BF00100B4080B584B000AF78607B681B7803F03F03764A52F82330FB60FB68002B05D17B68CF
S32D00010FB01B78002B01D00123DCE0714B1B6B704A43F0800313636E4B5B6A03F00103002B14BF01230023DBB234
S32D00010FD8002B00D0F3E7684A7B685B689360FB6823F44003FB607B685B789B0503F44003FA681343FB607B682C
S32D000110005B78022B03D1FB6843F40013FB607B685B78042B16D1FB6803F44033B3F5003F08D1FB6823F440339F
S32D00011028FB60FB6843F44033FB6007E0FB6823F44033FB60FB6843F40033FB604E4B5B684D4A9BB253607B68A9
S32D00011050DB68002B2AD0FB6803F44033B3F5403F03D0FB6843F40013FB607B681B7A002B03D0FB6843F010031B
S32D00011078FB607B68DB68012B03D9FB6843F02003FB607B68DB68B3F1FF3F0BD03A4B5A687B68DB681B043849BC
S32D000110A013434B60FB6843F00203FB60344B00221A60334AFB68D3603248FFF753FF0346012B14BF01230023AB
S32D000110C8DBB2002B09D02C4B1B6B2B4A43F4702343F001031363012348E0274B1B6B03F08003002B14BF0123A3
S32D000110F00023DBB2002B07D0214B1B6B204A43F001131363012335E01D4B1B6B03F48033002B14BF01230023F0
S32D00011118DBB2002B08D0184B1B6B174A43F0011313634FF0FF3321E0FB6803F44033002B15D0114B1A697B6800
S32D000111401A61FB6803F44033B3F5803F0BD10C4B5A697B685A610A4B9A697B689A61084BDA697B68DA61064B02
S32D000111681B6B054A43F001031363002318461037BD4680BD089D020000100B4001000E0080B592B000AF7860BF
S32D00011190396000237B643B68BB63994B7B637B6B002B02D140F6012362E3964B3B633B6B002B02D140F60B2308
S32D000111B85AE33B6B1B68FB62FB6A002B02D140F60B2351E37B6841F20932934200F242837B68B3F5985F08D80B
S32D000111E07B68032B00F01D837B68092B00F00C8334E37B68A3F59853013B082B00F22E8301A252F823F000BF5B
S32D000112082D1201001D1501007B17010033150100711501009B160100E3160100251601003F1601007649786B01
S32D00011230FFF7ECFD78647B6C002B40F01383002387F84330002387F82B30002387F82A30002387F829300023D0
S32D0001125887F84230002387F8283000233B7200237B720023FB6000233B7400237B6107F108031846FFF788FE70
S32D000112800346002B14BF01230023DBB2002B02D001237B64EBE240F24C4001F087F808233B7200237B724FF4FE
S32D000112A8D573FB6000233B7400237B6107F108031846FFF769FEF863FB6B002B09D1BA69FB689A4202D00123C7
S32D000112D07B64CCE2012387F84230012387F8283097F82830002B00F0A58037233B7200237B720023FB60002373
S32D000112F83B7400237B6107F108031846FFF744FEF863FB6B002B02D001237B64ABE269233B7200237B720023C6
S32D00011320FB6000233B7400237B6107F108031846FFF72EFE0346002B14BF01230023DBB2002B02D001237B64D4
S32D0001134891E2BB6903F44013002B6FD00023FB630A2001F027F8FB6B0133FB6337233B7200237B720023FB60E3
S32D0001137000233B7400237B6107F108031846FFF707FE0346002B14BF01230023DBB2002B02D001237B6428E0FE
S32D0001139869233B7200237B7297F84230002B02D0184BFB6002E04FF44013FB6000233B7400237B6107F108037A
S32D000113C01846FFF7E5FD0346002B14BF01230023DBB2002B02D001237B6406E0BB69002B03DBFB6B632B00D8CE
S32D000113E8B6E77B6C002B40F03B82FB6B632B0BD9002387F8423019E0681700206C190020FC9C02000000304007
S32D00011410012387F8433097F84230002B0AD0002387F84230BB6903F08043002B02D0012387F8423097F82A30A8
S32D00011438002B02D07B6B07221A6097F82930002B02D07B6B08221A6097F82B30002B02D07B6B04221A6097F894
S32D000114604330002B09D07B6B02221A6097F84230002B02D07B6B03221A6097F82B30002B0DD097F84330002BC0
S32D0001148809D07B6B05221A6097F84230002B02D07B6B06221A60A04B00221A609E4B00225A609D4B00229A60FF
S32D000114B09B4B0022DA609A4B00221A61984B00225A61FB6A9A68FB6A5B6819461046FFF729FC934B40F2434295
S32D000114D81A60914B40F243425A608F4B4FF488629A608D4B40F24342DA608B4B40F243421A61894B40F24342C1
S32D000115005A61884B03F5815310331B68854943F4003201F5815310331A60A8E1B86BFFF737FDF863FB6B002B1C
S32D0001152800F0A08102237B649CE1BB6B002B02D10C237B6497E17A4BDB6A1B0A5B0003F4FF73FB63764BDB6A01
S32D000115501B0903F00F035A1CFB6B02FB03F3FB63FB6A9A68FB6BB2FBF3F2BB6B1A607EE1BB6B002B02D10C2365
S32D000115787B6478E1BB6B1B68002B02D10C237B6471E1FFF7D9FC0346002B0CBF01230023DBB2002B3ED0604B43
S32D000115A000221A605E4B00225A605D4B00229A605B4B0022DA605A4B00221A61584B00225A61FB6A9A68BB6BE6
S32D000115C81B6819461046FFF7A9FB534B40F243421A60514B40F243425A604F4B4FF488629A604D4B40F2434236
S32D000115F0DA604B4B40F243421A61494B40F243425A61484B03F5815310331B68454943F4003201F5815310339B
S32D000116181A6028E140F60A237B6424E1BB6B002B02D10C237B641EE13D4B5B68C3F30C02BB6B1A6017E1BB6BDB
S32D00011640002B02D10C237B6411E1FFF779FC0346002B0CBF01230023DBB2002B19D0BB6B1B68B3F5805F02D3E6
S32D000116680C237B64FFE02E4B5B682D4A23F4FF5323F01F0353602A4B5A68BB6B1B68C3F30C03274913434B604C
S32D00011690EDE040F60A237B64E9E0BB6B002B02D10C237B64E3E0204B9B6A5B0803F00303FB63FB6B002B03D1CF
S32D000116B8BB6B00221A60D6E0FB6B012B03D1BB6B01221A60CFE0FB6B102B03D1BB6B02221A60C8E005237B64CB
S32D000116E0C5E0BB6B002B02D10C237B64BFE0FFF727FC0346002B0CBF01230023DBB2002B37D0BB6B1B68002B33
S32D0001170810D1074B9B6A064A23F006039362044B034A9B6A9362A6E000D004400070044000100B40BB6B1B6831
S32D00011730012B0CD1504B9B6A4F4A23F0060393624D4B9B6A4C4A43F0020393628FE0BB6B1B68022B0AD1484B24
S32D000117589B6A474A23F006039362454B444A9B6A936280E005237B647DE040F60A237B6479E0BB6B002B02D120
S32D000117800C237B6473E03C4BDB6A3B4A43F00063D362394BDB6A03F00063002B14BF01230023DBB2002B00D0D1
S32D000117A8F3E7334B1B6B03F08003002B14BF01230023DBB2002B08D02D4B1B6B2C4A43F0800313637B6B002241
S32D000117D01A60294B5B6A03F48033002B14BF01230023DBB2002B07D07B6B1B68002B06D17B6B01221A6002E0E9
S32D000117F87B6B00221A607B6B1A68BB6B1A6032E0BB6B1C221A60BB6B043304221A60BB6B08334FF41E721A609D
S32D0001182025E00220FFF79EFB134B1B6B03F4E003002B14BF01230023DBB2002B07D00E4B1B6B0D4A43F4E00301
S32D00011848136304237B640A4B1B6B094A43F03203136308E040F609237B6404E000BF02E000BF00E000BF7B6CF6
S32D0001187018464837BD4680BD00100B4080B590B000AF0346FB71A74BFB63A74BBB63BB6BA64A1A60FB79002B69
S32D0001189801D00123ABE1A44B1B78DBB203F00203002B14BF01230023DBB2002B03D09E4B1B78DBB29BE19C4B5D
S32D000118C01B78DBB203F00303002B0CBF01230023DBB2002B01D000238DE1BB6B002B03D0BB6B1B68002B01D1BF
S32D000118E8002384E1FB6B914A1A60FB6B01225A60BB6B00225A60BB6B00229A60BB6B00221A61BB6B00221A736F
S32D00011910BB6B00225A73884B03F5815310331B68854943F4003201F5815310331A60002141F20130FFF728FCD1
S32D000119380346002B14BF01230023DBB2002B01D0002354E10023BB6207F12803194641F20330FFF715FC034699
S32D00011960002B14BF01230023DBB2002B01D0002341E1BB6A022B08D0BB6A032B05D0BB6A052B02D0BB6A062B76
S32D0001198809D1BB6A032B02D0BB6A062B05D1BB6B01221A7301E0002329E100BF02233B7200237B720023FB6002
S32D000119B000233B7400237B6107F10803194641F20230FFF7E1FB0346002B14BF01230023DBB2002B01D0002364
S32D000119D80DE103233B7200237B720023FB6000233B7400237B6107F10803194641F20230FFF7C6FB0346002BCE
S32D00011A0014BF01230023DBB2002B01D00023F2E0BB691B0C1B04BA6B136109233B7200237B72BB6B1B69FB602E
S32D00011A2800233B7400237B6107F10803194641F20230FFF7A5FB0346002B14BF01230023DBB2002B01D0002327
S32D00011A50D1E07B6A03F44003002B1ED13B6A1B0A03F00F033B633B6A03F003037B637B6B9A02FB699B0D1343B0
S32D00011A787B63FB69DB0903F00703FB627B6B5A1CFB6A02339A403B6B093B9A40BB6B9A600CE0BB6B01225A7309
S32D00011AA0FB691B0AC3F315037B637B6B01339A02BB6B9A6007233B7200237B72BB6B1B69FB6000233B7400232B
S32D00011AC87B6107F10803194641F20230FFF758FB0346002B14BF01230023DBB2002B01D0002384E010233B7285
S32D00011AF000237B724FF40073FB6000233B7400237B6107F10803194641F20230FFF73CFB0346002B14BF012376
S32D00011B180023DBB2002B0DD0002368E06C190020501700206417002004000020FC9C020000700440BB6B1B6899
S32D00011B401B68012B49D137233B7200237B72BB6B1B69FB6000233B7400237B6107F10803194641F20230FFF703
S32D00011B680FFB0346002B14BF01230023DBB2002B01D000233BE046233B7200237B720223FB6000233B74002354
S32D00011B907B6107F10803194641F20230FFF7F4FA0346002B14BF01230023DBB2002B01D0002320E00123BB6224
S32D00011BB807F12803194641F20730FFF7E1FA0346002B14BF01230023DBB2002B01D000230DE0094B1B78DBB2A6
S32D00011BE023F00103DAB2064B1A70054B1B78DBB203F00303DBB218464037BD4680BD00BF0400002080B489B0FD
S32D00011C0800AF786039607B687B61364B3B613B69002B01D100235FE03B691B68022B0BD03B691B68032B07D053
S32D00011C303B691B68072B03D03B691B68082B0BD12B4B5B6A03F00403002B14BF01230023DBB2002B00D0F3E747
S32D00011C583B68FB61FB69002B3DD0FB69B3F5007F28BF4FF40073FB60FB6803339B08BB61BB69002B2AD01C4B37
S32D00011C801B6B03F4E003002B14BF01230023DBB2002B09D0164B1B6B154A43F4E00343F02003136300231BE0B5
S32D00011CA8114B5B6A03F40063002B0CBF01230023DBB2002B00D0F3E70B497B691A1D7A610A6A1A60BB69013B5B
S32D00011CD0BB61D1E7FA69FB68D31AFB61BEE7012318462437BD4680BC704700BF6817002000100B4080B58EB05E
S32D00011CF800AFB9607A601A460346FB731346BB73414B7B63FB7B002B02D1BB7B002B01D1042375E03D4B1B78D5
S32D00011D20DBB203F00103002B14BF01230023DBB2002B01D0032367E0BB68002B01D1002362E07B6B1B7B002BA9
S32D00011D4802D17B685B027B60BB7B012B28D111233B7500237B757B68BB6101233B77BB7B3B6207F11403194616
S32D00011D7041F20230FFF708FA0346002B0CBF01230023DBB2002B38D04FF40071B868FFF739FF0346002B14BF58
S32D00011D9801230023DBB2002B2BD00023BB7328E012233B7500237B757B68BB6101233B77BB7B3B6207F114031A
S32D00011DC0194641F20230FFF7DFF90346002B0CBF01230023DBB2002B0FD0BB7B5B021946B868FFF70FFF0346E6
S32D00011DE8002B14BF01230023DBB2002B01D00023BB73BB7B002B01D0012300E0002300BF18463837BD4680BD88
S32D00011E10501700200400002080B487B000AF786039607B68FB603B687B617B69002B3DD07B69B3F5007F28BFA2
S32D00011E384FF400733B617A693B69D31A7B613B6903339B083B613B69002BEAD0184B1B6B03F4E003002B14BF76
S32D00011E6001230023DBB2002B0AD0134B1B6B124A43F4E00343F0100313634FF0FF3316E00D4B5B6A03F4806306
S32D00011E88002B0CBF01230023DBB2002B00D0F3E7FB681A1DFA60064A1B6813623B69013B3B61D0E7012318469B
S32D00011EB01C37BD4680BC704700100B4080B58EB000AFB9607A601A460346FB731346BB735D4B7B63FB7B002B85
S32D00011ED802D1BB7B002B01D10423ADE0594B1B78DBB203F00103002B14BF01230023DBB2002B01D003239FE0F3
S32D00011F00524B1B78DBB203F00403002B14BF01230023DBB2002B01D0022391E0BB68002B01D100238CE07B6B02
S32D00011F281B7B002B02D17B685B027B60BB7B012B28D118233B7500237B757B68BB6100233B77BB7B3B6207F1E3
S32D00011F501403194641F20230FFF716F90346002B0CBF01230023DBB2002B38D04FF40071B868FFF751FF0346D9
S32D00011F78002B14BF01230023DBB2002B2BD00023BB7328E019233B7500237B757B68BB6100233B77BB7B3B6243
S32D00011FA007F11403194641F20230FFF7EDF80346002B0CBF01230023DBB2002B0FD0BB7B5B021946B868FFF73F
S32D00011FC827FF0346002B14BF01230023DBB2002B01D00023BB730D233B7500237B757B6B1B69BB6100233B770E
S32D00011FF000233B6207F11403194641F20230FFF7C3F80346002B14BF01230023DBB2002B01D0012314E07A6A6B
S32D000120180D4B1340002B01D001230DE07B6A03F4F853B3F5106F00D0D5E7BB7B002B01D0012300E0002300BFEF
S32D0001204018463837BD4680BD50170020040000200880D9FF80B58CB000AF03463A60FB710B46BB713A4BBB62CB
S32D00012068FB79002B01D0042369E0012387F82F30364B1B78DBB203F00103002B14BF01230023DBB2002B01D001
S32D00012090032358E0BB79032B50D801A252F823F0B1200100B9200100C9200100D9200100002387F82F3044E084
S32D000120B8BB6A9A683B681A60002387F82F303CE03B684FF400721A80002387F82F3034E009233B7200237B72A8
S32D000120E0BB6A1B69FB6000233B7400237B6107F10803194641F20230FFF746F80346002B14BF01230023DBB2E6
S32D00012108002B01D001231AE07B6A03F44003002B0CD13B6A9B0C03F07F035A1C7B6A1B0A03F00303013B9A4017
S32D000121303B681A60002387F82F3002E0042387F82F3097F82F3018463037BD4680BD00BF50170020040000201E
S32D0001215880B483B000AF0346FB71FB79002B01D0012302E0034B1B78DBB218460C37BD4680BC704704000020EE
S32D0001218080B483B000AF7860174B03F5815318331B68154943F0010201F5815318331A60124A7B689360114B95
S32D000121A805225A600F4B1B680E4A43F0010313600C4B1B6803F08003002B0CBF01230023DBB2002B00D0F3E759
S32D000121D0064B1B68054A23F00103136000BF0C37BD4680BC704700BF007004400000044080B582B000AF786096
S32D000121F839607B68012B07D13B684FF6FF72934202D1034800F00EF800BF0837BD4680BD7419002080B500AF27
S32D000122204FF6FF710120FFF7E3FF80BD80B483B000AF78607B6800221A707B6818460C37BD4680BC7047FFFFAF
S32D0001224880B582B000AF78607B681B7883F00103DBB2002B21D0134B03F5815308334FF400621A60104B4FF4C1
S32D0001227040721A620E4B4FF440725A620D4B1B68DA0F13445B104FF4614219460A48FBF7F3FF642000F08AF810
S32D000122987B6801221A70012300E0002318460837BD4680BD0070044000D004407819002000B00E4080B582B0A5
S32D000122C000AF7860084611461A460346FB700B46BB7013467B707F210E48FCF7ACF808210C48FCF7A8F8FB78DF
S32D000122E819460A48FCF7A3F8BB7819460748FCF79EF87B7819460548FCF799F8FF210348FCF795F800BF083712
S32D00012310BD4680BD00B00E4080B487B000AFF860B9607A60FB681F4AA2FB03239B09BA6813447B61FB681B4AAB
S32D00012338A2FB031292094FF47A7101FB02F29B1AFB60FB68DB03154AA2FB03239B097A6813443B613B69DB0B95
S32D000123607A6913447B613B69C3F30E033B610E4B1B687A699A4209D80B4B1B687A699A4206D1094B5B683A698C
S32D000123889A4201D9012300E00023002B00D0EAE700BF1C37BD4680BC704700BFD34D621000D0034080B584B0A8
S32D000123B000AF7860074B1B68FB60064B5B68BB607B68BA68F9681846FFF7A6FF00BF1037BD4680BD00D0034060
S32D000123D880B584B000AFC7E900010E4B1B68FB600C4B5B68BB604FF000020B4BD7E900010CF006FC02460B46B2
S32D00012400104619460CF0C2FE0346BA68F9681846FFF782FF00BF1037BD4680BD00D0034000408F4080B584B0CA
S32D0001242800AF134B1B68FB60114B5B68BB60F8680CF06CFB02460B46C7E90023B8680CF065FB4FF000020B4B1E
S32D000124500CF004FD02460B46D7E900010CF01EFA02460B46C7E90023D7E90023104619461037BD4680BD00BFA8
S32D0001247800D003400000E04080B483B000AF0B4B1B684FF47A7202FB03F37B60074B5B684FF47A7202FB03F3DF
S32D000124A0DB0B7A6813447B607B6818460C37BD4680BC704700D0034080B584B000AF78600B46FB700B23FB733E
S32D000124C8FA7BFB781946786800F094F87B6818461037BD4680BDFFFF80B485B000AF78607B68103B002B00DA59
S32D000124F01F335B11FB60FB68022B53D0FB68022B75DCFB68002B03D0FB68012B25D06EE0394BD3F880217B680A
S32D00012518103B594203F01F0301F01F0158BF4B42012101FA03F332491343C1F88031304B1A687B68103B5942D0
S32D0001254003F01F0301F01F0158BF4B42012101FA03F3294913430B6049E0274BD3F884217B68103B594203F095
S32D000125681F0301F01F0158BF4B42012101FA03F31F491343C1F884311D4B5A687B68103B594203F01F0301F035
S32D000125901F0158BF4B42012101FA03F3164913434B6024E0144BD3F888217B68103B594203F01F0301F01F011F
S32D000125B858BF4B42012101FA03F30D491343C1F888310B4B9A687B68103B594203F01F0301F01F0158BF4B4234
S32D000125E0012101FA03F3044913438B6000BF00BF1437BD4680BC704700E100E080B584B000AF78600B46FB70FF
S32D000126081346BB707B68FA781A70BB78FB737B681B781A46574B9B5C042B00F2A68001A252F823F04126010081
S32D000126308D260100D92601007127010025270100FB7B1B0403F470234D497A68127810464C4A52F8202043F413
S32D00012658897343F0010341F82230494B5A697B681B781946454B53F8213003F01F03012101FA03F3DB4342496C
S32D0001268013404B616720FFF72BFF72E0FB7B1B0403F470233D497A6812781046394A52F8202043F4897343F059
S32D000126A8010341F82230384B5A697B681B781946324B53F8213003F01F03012101FA03F3DB43314913404B6181
S32D000126D06820FFF705FF4CE0FB7B1B0403F470232C497A6812781046264A52F8202043F4897343F0010341F83A
S32D000126F82230274B5A697B681B7819461F4B53F8213003F01F03012101FA03F3DB43204913404B616920FFF724
S32D00012720DFFE26E0FB7B1B0403F470231B497A6812781046134A52F8202043F4897343F0010341F82230164B25
S32D000127485A697B681B7819460C4B53F8213003F01F03012101FA03F3DB430F4913404B616B20FFF7B9FE00E022
S32D0001277000BF00BF1037BD4680BD00BF089E0200009004404C9E020000F00F4000A0044040F00F4000B0044078
S32D0001279880F00F4000D0044000F10F4080B58AB000AF3B1D2022002118460EF083FE0B237B600A23BB600723CE
S32D000127C0FB6006233B6105237B610423BB610123FB6100237B627B6A072B32DC1B4BD3F8A0207B6A9B0007F175
S32D000127E828010B4453F8243C012101FA03F31340002B14BF01230023DBB2002B19D0124A7B6A52F823305A1CFF
S32D000128100F497B6A41F823200C4BD3F8A0207B6A9B0007F128010B4453F8243C012101FA03F306491340C1F8F5
S32D00012838A0307B6A01337B62C9E700BF2837BD4680BD00BF00A00440A4190020B0B489B000AF234B3C1D1D46A7
S32D000128600FCD0FC495E8030084E803000023FB61FB69052B32DC1D4BD3F8A020FB699B0007F120010B4453F8E5
S32D000128881C3C012101FA03F31340002B14BF01230023DBB2002B19D0FB690833124A52F823200132104941F830
S32D000128B023200E4BD3F8A020FB699B0007F120010B4453F81C3C012101FA03F307491340C1F8A030FB690133F1
S32D000128D8FB61C9E700BF2437BD46B0BC704700BF509F020000B00440A4190020B0B48DB000AF244B3C461D4660
S32D000129000FCD0FC40FCD0FC495E8070084E807000023FB62FB6A0A2B32DC1D4BD3F8A020FB6A9B0007F130010F
