S01200002E2E2F464548526F626F742E7331397E
S32D0000C000000000205DC2000011C3000017C300001DC3000023C3000029C3000000000000000000000000000073
S32D0000C028000000002FC3000035C30000000000003BC3000041C300009DC90000A9C90000B5C90000C1C900001E
S32D0000C050CDC90000D9C90000E5C90000F1C90000FDC9000009CA000015CA000021CA00002DCA000039CA0000C5
S32D0000C07845CA000051CA00005DCA000069CA000075CA000081CA00008DCA000099CA0000A5CA0000B1CA0000E8
S32D0000C0A0BDCA0000C9CA0000D5CA0000E1CA0000EDCA0000F9CA000005CB000011CB00001DCB000029CB00000C
S32D0000C0C835CB000041CB00004DCB000059CB000065CB000071CB00007DCB000089CB000095CB0000A1CB00002E
S32D0000C0F0ADCB000001100100B9CB0000C5CB0000D1CB0000DDCB0000E9CB0000F5CB000001CC00000DCC000026
S32D0000C11819CC000025CC000031CC00003DCC000049CC000055CC000061CC00006DCC000079CC000085CC0000EB
S32D0000C14091CC00009DCC0000A9CC0000B5CC000095F30000C1CC0000CDCC0000D9CC0000E5CC0000F1CC000054
S32D0000C168FDCC000009CD000015CD000021CD00002DCD000039CD000045CD000051CD00005DCD000069CD0000AA
S32D0000C19075CD000081CD00008DCD0000A5F0000055EF000005F0000019C7000049F1000099CD0000A5CD0000D7
S32D0000C1B8B1CD000074300100000000205C150000743001000000FF1F000000005C150020A40400000000FF1F8B
S32D0000C1E00000000080B489B000AFF860B9607A60BB68FB61FB68BB6100237B617A697B689A420BD2BA69131DFB
S32D0000C208BB61FB69191DF96112681A607B6904337B61EFE700BF2437BD4680BC704780B485B000AF786039609E
S32D0000C2307B68FB600023BB60BA683B689A4208D2FB681A1DFA6000221A60BB680433BB60F2E700BF1437BD46FE
S32D0000C25880BC704780B586B000AF72B6234B4CF220521A80214B4DF628121A80204B4FF4E9721A801F4B7B615F
S32D0000C2807B691F4A934214D27B691A1D7A611B683B617B691A1D7A611B68FB607B691A1D7A611B68BB60BA68E9
S32D0000C2A8F9683869FFF79AFFE6E77B69134A93420ED27B691A1D7A611B68FB607B691A1D7A611B68BB60B9688B
S32D0000C2D0F868FFF7A8FFECE70B4B7B600B4A7B681A6005F0C5FF62B600F0DCFA00F020F9FEE700BF0E200540D6
S32D0000C2F800200540BCC10000D4C10000E4C1000008ED00E000C0000080B400AFFEE780B400AFFEE780B400AFF4
S32D0000C320FEE780B400AFFEE780B400AFFEE780B400AFFEE780B400AFFEE780B400AFFEE780B400AFFEE780B426
S32D0000C34800AFFEE7FFFFFFFFFFFFFFFFFFFFFFFFFFFFFFFFFFFFFFFFFFFFFFFFFFFFFFFFFFFFFFFFFFFFFFFF57
S32D0000C370FFFFFFFFFFFFFFFFFFFFFFFFFFFFFFFFFFFFFFFFFFFFFFFFFFFFFFFFFFFFFFFFFFFFFFFFFFFFFFFFC7
S32D0000C398FFFFFFFFFFFFFFFFFFFFFFFFFFFFFFFFFFFFFFFFFFFFFFFFFFFFFFFFFFFFFFFFFFFFFFFFFFFFFFFF9F
S32D0000C3C0FFFFFFFFFFFFFFFFFFFFFFFFFFFFFFFFFFFFFFFFFFFFFFFFFFFFFFFFFFFFFFFFFFFFFFFFFFFFFFFF77
S32D0000C3E8FFFFFFFFFFFFFFFFFFFFFFFFFFFFFFFFFFFFFFFFFFFFFFFFFFFFFFFFFFFFFFFFFFFFFFFFFEFFFFFF50
S32D0000C41010B5054C237833B9044B13B10448AFF300800123237010BD5C150020000000007430010008B5034B1B
S32D0000C4381BB103490348AFF3008008BD00000000601500207430010080B483B000AF78607B6883F0004318466D
S32D0000C4600C37BD4680BC704780B500AF054800F0E5FC054800F0E2FC044800F0DFFC00BF80BD00BF78150020D9
S32D0000C4888015002088150020B0B582B000AF786039601F4802F0B4FE1E4802F0B1FE1E4802F0AEFE7868FFF771
S32D0000C4B0CFFF034619461B4800F002FD79681A4800F0FEFC144802F08DFE0446144802F089FE03462344DA0FD8
S32D0000C4D813445B10184605F0ADFC04461149386805F0FCFC0346012215461946204605F093FE0346002B01D1EF
S32D0000C50000231D46EBB2002B00D0DBE7FFF7ACFF00BF0837BD46B0BD9015002094150020981500207815002016
S32D0000C5288815002000000C4280B500AF4FF42F713E4803F0F3F840F64C113C4803F00BF94FF4FE713A4803F07A
S32D0000C550E9F84FF41A61384803F001F93749364803F01AF93649334803F016F9354802F04BFE354802F048FE44
S32D0000C578344802F045FE3449344803F0F9FD4FF000012B4803F004F94FF000004FF0804102F040FB2749264815
S32D0000C5A003F0FAF84FF000002B4902F037FB4FF080412A48FFF76CFF4FF00000264902F02DFB27491C4803F04F
S32D0000C5C8E7F84FF00000224902F024FB23492148FFF75AFF4FF000001D4902F01BFB4FF07E511F48FFF750FF20
S32D0000C5F04FF00000184902F011FB1C490E4803F0CBF84FF00000144902F008FB15491348FFF73EFF12490848E6
S32D0000C61803F0BEF84FF000000D4902F0FBFA06490F48FFF731FF0023184680BD9C150020A81500200000344221
S32D0000C6400000A040901500209415002098150020382D0100941800200000E03F0000C8C1000082420000404073
S32D0000C6680000C8410000B44280B582B000AF786039607B68012B2BD13B684FF6FF72934226D1154A0021154811
S32D0000C69000F096FB124A0121134800F091FB104A0221124800F08CFB0021114802F0DCFA0221104802F0D8FAD7
S32D0000C6B804210F4802F0D4FA00210E4803F012F801210D4803F00EF806210C4802F0AAFD00BF0837BD4680BDE2
S32D0000C6E0000010417815002080150020881500209015002094150020981500209C150020A8150020B4150020CA
S32D0000C70880B500AF4FF6FF710120FFF7ADFF80BD80B500AF0F4BD3F8A03003F48053002B14BF01230023DBB2F5
S32D0000C730002B10D0094BD3F8A030084A23F48053C2F8A030064804F0D1FD064B1B68054A23F40053136000BF4C
S32D0000C75880BD00BF00C004401C190020C0F00F4080B400AF124B4FF480725A63114B5B69104A43F40053536175
S32D0000C7800E4B1B680D4A43F4005313600A4B0C4A1A630C4BD3F888310A4A43F08063C2F88831084B9B68074AD4
S32D0000C7A843F08063936000BFBD4680BC704700BF00C00440C0F00F4003010A0000E100E080B400AF324B002292
S32D0000C7D05A70314B98221A702F4B9B79DBB203F01003002B14BF01230023DBB2002B00D0F2E7294B9B79DBB2D5
S32D0000C7F89B0803F00303022B14BF01230023DBB2002B00D0F1E7224B18221A71204B00225A71204B03F582530E
S32D0000C82004331F4A1A601C4B54225A711A4B9B79DBB203F02003002B0CBF01230023DBB2002B00D0F2E7144B0F
S32D0000C8489B79DBB203F04003002B0CBF01230023DBB2002B00D0F2E70D4B1B78DBB20C4A03F03F03DBB213703A
S32D0000C870094B9B79DBB29B0803F00303032B14BF01230023DBB2002B00D0F1E700231846BD4680BC704700BF2B
S32D0000C89800400640007004400000130180B500AF344B03F5815318331B68324943F4785201F5815318331A601C
S32D0000C8C0FFF752FFFFF780FF2D4B58221A602C4B1B684FF47A7202FB03F32A4A1360294B1B681A46254B03F560
S32D0000C8E8825304331B681B0E03F00F030133B2FBF3F31A46224B1A601E4B03F581531C331B681C4943F0225244
S32D0000C91001F581531C331A60184B03F5815310331B68164943F0006201F5815310331A60164B4FF480721A61E5
S32D0000C938642002F043F8134B5B69124A23F010035361104B00221A600E4B10225A610E4803F0C8F902F0CEFCC5
S32D0000C96002F02CFD0B4802F091F80B4804F012FD4FF4FA6002F03CF900BF80BD00700440E0170020DC170020CC
S32D0000C988E417002000D0034094180020D81700208C19002080B500AFFFF7D1FC00BF80BD80B500AFFFF7CBFC6F
S32D0000C9B000BF80BD80B500AFFFF7C5FC00BF80BD80B500AFFFF7BFFC00BF80BD80B500AFFFF7B9FC00BF80BDAA
S32D0000C9D880B500AFFFF7B3FC00BF80BD80B500AFFFF7ADFC00BF80BD80B500AFFFF7A7FC00BF80BD80B500AFD0
S32D0000CA00FFF7A1FC00BF80BD80B500AFFFF79BFC00BF80BD80B500AFFFF795FC00BF80BD80B500AFFFF78FFC40
S32D0000CA2800BF80BD80B500AFFFF789FC00BF80BD80B500AFFFF783FC00BF80BD80B500AFFFF77DFC00BF80BDE5
S32D0000CA5080B500AFFFF777FC00BF80BD80B500AFFFF771FC00BF80BD80B500AFFFF76BFC00BF80BD80B500AF0B
S32D0000CA78FFF765FC00BF80BD80B500AFFFF75FFC00BF80BD80B500AFFFF759FC00BF80BD80B500AFFFF753FCB8
S32D0000CAA000BF80BD80B500AFFFF74DFC00BF80BD80B500AFFFF747FC00BF80BD80B500AFFFF741FC00BF80BD21
S32D0000CAC880B500AFFFF73BFC00BF80BD80B500AFFFF735FC00BF80BD80B500AFFFF72FFC00BF80BD80B500AF47
S32D0000CAF0FFF729FC00BF80BD80B500AFFFF723FC00BF80BD80B500AFFFF71DFC00BF80BD80B500AFFFF717FC30
S32D0000CB1800BF80BD80B500AFFFF711FC00BF80BD80B500AFFFF70BFC00BF80BD80B500AFFFF705FC00BF80BD5C
S32D0000CB4080B500AFFFF7FFFB00BF80BD80B500AFFFF7F9FB00BF80BD80B500AFFFF7F3FB00BF80BD80B500AF85
S32D0000CB68FFF7EDFB00BF80BD80B500AFFFF7E7FB00BF80BD80B500AFFFF7E1FB00BF80BD80B500AFFFF7DBFBAB
S32D0000CB9000BF80BD80B500AFFFF7D5FB00BF80BD80B500AFFFF7CFFB00BF80BD80B500AFFFF7C9FB00BF80BD9B
S32D0000CBB880B500AFFFF7C3FB00BF80BD80B500AFFFF7BDFB00BF80BD80B500AFFFF7B7FB00BF80BD80B500AFC1
S32D0000CBE0FFF7B1FB00BF80BD80B500AFFFF7ABFB00BF80BD80B500AFFFF7A5FB00BF80BD80B500AFFFF79FFB23
S32D0000CC0800BF80BD80B500AFFFF799FB00BF80BD80B500AFFFF793FB00BF80BD80B500AFFFF78DFB00BF80BDD6
S32D0000CC3080B500AFFFF787FB00BF80BD80B500AFFFF781FB00BF80BD80B500AFFFF77BFB00BF80BD80B500AFFC
S32D0000CC58FFF775FB00BF80BD80B500AFFFF76FFB00BF80BD80B500AFFFF769FB00BF80BD80B500AFFFF763FB9A
S32D0000CC8000BF80BD80B500AFFFF75DFB00BF80BD80B500AFFFF757FB00BF80BD80B500AFFFF751FB00BF80BD12
S32D0000CCA880B500AFFFF74BFB00BF80BD80B500AFFFF745FB00BF80BD80B500AFFFF73FFB00BF80BD80B500AF38
S32D0000CCD0FFF739FB00BF80BD80B500AFFFF733FB00BF80BD80B500AFFFF72DFB00BF80BD80B500AFFFF727FB12
S32D0000CCF800BF80BD80B500AFFFF721FB00BF80BD80B500AFFFF71BFB00BF80BD80B500AFFFF715FB00BF80BD4E
S32D0000CD2080B500AFFFF70FFB00BF80BD80B500AFFFF709FB00BF80BD80B500AFFFF703FB00BF80BD80B500AF73
S32D0000CD48FFF7FDFA00BF80BD80B500AFFFF7F7FA00BF80BD80B500AFFFF7F1FA00BF80BD80B500AFFFF7EBFA8D
S32D0000CD7000BF80BD80B500AFFFF7E5FA00BF80BD80B500AFFFF7DFFA00BF80BD80B500AFFFF7D9FA00BF80BD8C
S32D0000CD9880B500AFFFF7D3FA00BF80BD80B500AFFFF7CDFA00BF80BD80B500AFFFF7C7FA00BF80BDFFFFFFFF9A
S32D0000CDC080B584B000AFF8600B467A60FB72FB68FA7A1A71FB6800225A711749786805F03DFA0346002B02D0D9
S32D0000CDE8134B7B600AE04FF07E51786805F01EFA0346002B02D04FF07E537B60786804F05DFC09A3D3E9002316
S32D0000CE1004F0B0FC02460B461046194604F004FF0246FB681A60FB6818461037BD4680BDABAAAAAAAAAA204045
S32D0000CE380000404180B582B000AF78607B685B79002B09D07B6800225A717B6819791E230022034801F050FE70
S32D0000CE6000BF0837BD4680BDD817002080B584B000AF786039603B687F2B02DD7F23FB7308E03B6813F1800F74
S32D0000CE8802DA8023FB7301E03B68FB737B685B79FA7B9A4209D07B68FA7B5A717B681979FA7B1E23034801F032
S32D0000CEB027FE00BF1037BD4680BD00BFD8170020B0B584B000AF786039603749386805F0A7F90346002B02D067
S32D0000CED8334B3B6008E03349386805F0BBF90346002B01D02F4B3B60386804F0E7FB04460D467B681B68184635
S32D0000CF0004F0E0FB4FF00002294B04F05DFD02460B462046294604F02DFC02460B461046194604F081FE03469C
S32D0000CF283B604FF00001386805F08AF90346002B10D0386804F0C2FB17A3D3E9002304F015FC02460B461046B6
S32D0000CF50194604F021FE0346FB6018E0386804F0B1FB4FF00002134B04F004FC02460B46104619464FF0000243
S32D0000CF780D4B04F025FD02460B461046194604F007FE0346FB60F9687868FFF76BFF00BF1037BD46B0BD00BF5C
S32D0000CFA052B81E85EB51F43F0000C8C20000C842000059400000604080B483B000AF03460A46FB711346BB71DA
S32D0000CFC8BB79002B03D1134B00221A7002E0114B01221A703823FB710E4B1A78FB791343FB710D4B9B78DBB233
S32D0000CFF00B4A43F01003DBB29370094B9B78DBB2074A43F02003DBB29370054AFB79137100BF0C37BD4680BC35
S32D0000D018704700BFB51500200060064080B483B000AF01237B607B68312B04DC00BF7B6801337B60F7E700BF62
S32D0000D0400C37BD4680BC704780B582B000AF03460A46FB711346BB71134B1B7800211846FFF7AAFF00F024F8CE
S32D0000D068104AFB79137100F01FF80E4ABB79137100F01AF80B4B9B78DBB20A4A23F02003DBB29370074B9B78BA
S32D0000D090DBB2064A23F01003DBB29370FFF7C2FF00BF0837BD4680BDB61500200060064080B483B000AF174BE1
S32D0000D0B81B78002B24D100237B60154BDB78DBB203F00203002B0CBF01230023DBB2002B0DD07B6842F21072F6
S32D0000D0E0934203DD0B4B01221A7004E07B6801337B6000BFE5E7084BDB78DBB2064A43F00203DBB2D37000E09E
S32D0000D10800BF0C37BD4680BC704700BFB71500200060064080B582B000AF0346FB71FB79184600F03BF800BF31
S32D0000D1300837BD4680BD80B582B000AF03460A46FB711346BB7100F011F8FB795B00DBB21846FFF7E3FFBB79F3
S32D0000D1581846FFF7DFFF00F013F800BF0837BD4680BDFFFF80B400AF044B9B68034A43F48013936000BFBD463F
S32D0000D18080BC704740F00F4080B400AF044B5B68034A43F48013536000BFBD4680BC704740F00F4080B485B0B3
S32D0000D1A800AF0346FB710023BB73164BDB6A03F00043012B0CBF01230023DBB2002B03D0FB7B0133FB73F0E710
S32D0000D1D00E4BDB6A0D4A43F00043D3620B4AFB7953630A4BDB6A03F40033002B0CBF01230023DBB2002B00D089
S32D0000D1F8F3E7044B9B6BBB73BB7B18461437BD4680BC704700C00A4080B582B000AF224B03F5815310331B68B8
S32D0000D2201F4943F4805201F5815310331A601D4B4FF480721A651C4B5B691B4A43F480135361FFF7A1FF174BC6
S32D0000D2484FF400725A65154B4FF400729A65134B4FF40072DA65134B134A1A60114B134ADA6000237B607B68D5
S32D0000D270092B06DCFF20FFF751FF7B6801337B60F5E705A1D1E9000101F0C8FC00BF0837BD4680BDAFF30080D1
S32D0000D2989A9999999999B93F0070044000A0044040F00F4000C00A40000C00800500003E90B486B000AFF86068
S32D0000D2C0B9607A60FB68594A93420CD1584B03F5815314331B68564943F4806201F5815314331A604FE0FB6887
S32D0000D2E8524A93420CD1504B03F5815314331B684D4943F4006201F5815314331A603EE0FB684B4A93420CD117
S32D0000D310474B03F5815314331B68454943F4805201F5815314331A602DE0FB68434A93420CD13F4B03F58153A0
S32D0000D33814331B683C4943F4005201F5815314331A601CE0FB683C4A93420CD1364B03F5815308331B68344945
S32D0000D36043F4806201F5815308331A600BE0304B03F5815308331B682D4943F4006201F5815308331A60FB6826
S32D0000D388DB78DBB223F00C03DAB2FB68DA70FB6800229A70BB684FF47A7202FB03F27B681B0192FBF3F39CB2A9
S32D0000D3B0FB681B78DBB223F01F03FB7523461B12DBB203F01F03DAB2FB7D1343DAB2FB681A70E2B2FB685A705B
S32D0000D3D8BB684FF4FA4202FB03F27B681B0192FBF3F39AB263019BB2D31A9CB2FB689B7ADBB223F01F03FB753F
S32D0000D400E3B203F01F03DAB2FB7D1343DAB2FB689A72FB68DB78DBB243F00C03DAB2FB68DA7000BF1837BD4630
S32D0000D42890BC704700A006400070044000B0064000C0064000D0064000A00E4080B483B000AF78607B681B79D4
S32D0000D450DBB203F02003002B0CBF01230023DBB2002B00D0F2E77B68DB79DBB218460C37BD4680BC704780B4DE
S32D0000D47883B000AF78600B46FB707B681B79DBB25BB2DB43DBB2DB09DBB2002B00D0F4E77B68FA78DA7100BFAE
S32D0000D4A00C37BD4680BC704780B487B000AFF860B9607A60FB687B617B685A1E7A60002B14BF01230023DBB27A
S32D0000D4C8002B06D07B695A1C7A61BA68D2B21A70EEE700BF1C37BD4680BC704780B584B000AF786039607B6887
S32D0000D4F01B6BFB60FA683B689A4252D07B681B79002B35D07B6858787B6803F134010123FA6801F0F5F8034617
S32D0000D518002B14BF01230023DBB2002B01D001233CE07B6800221A717B685A6A7B681B6A1344FA689A4217D2BA
S32D0000D5407B68DB78FB72FB7A012B11D97B681B6AFA681344FB607B6858787B6803F134010123FA6801F0CCF819
S32D0000D568FB7A013BFB72EAE73B68002B15D07B6858787B6803F1340101233A6800F0D8FF0346002B14BF01233C
S32D0000D5900023DBB2002B01D0012303E07B683A681A63002318461037BD4680BD80B584B000AF786000217868BF
S32D0000D5B8FFF794FF0346FB73FB7B002B40F091807B681B78032B7BD17B685B79002B77D07B6800221A637B68A5
S32D0000D5E034334FF4007200211846FFF75DFF7B68552283F832227B68AA2283F833227B68522283F834207B687F
S32D0000D608522283F835207B68612283F836207B68412283F837207B68722283F818227B68722283F819227B6825
S32D0000D630412283F81A227B68612283F81B227B681B69DAB27B6883F81C227B681B699BB21B12DAB27B6883F83A
S32D0000D6581D227B681B691B0CDAB27B6883F81E227B681B691B0EDAB27B6883F81F227B68DB68DAB27B6883F8E2
S32D0000D68020227B68DB689BB21B12DAB27B6883F821227B68DB681B0CDAB27B6883F822227B68DB681B0EDAB217
S32D0000D6A87B6883F823227B6858787B6803F134017B685A69012301F01FF87B6800225A717B685B780022002157
S32D0000D6D0184601F0E1F80346002B14BF01230023DBB2002B01D00123FB73FB7B18461037BD4680BD80B582B099
S32D0000D6F800AF78600B467B807B68002B08D07B681B78002B04D07B68DB887A889A4201D0092311E07B685B780E
S32D0000D720184601F03BF9034603F00103002B14BF01230023DBB2002B01D0032300E0002318460837BD4680BD44
S32D0000D74880B586B000AF78607B681A687B689B8819461046FFF7CAFF0346FB75FB7D002B40F0A8807B689B7937
S32D0000D77003F02003002B00F0A1807B689B7903F04003002B1BD07B681B6858787B6803F128017B689A690123B6
S32D0000D79800F0B2FF0346002B14BF01230023DBB2002B01D0012386E07B689B7923F04003DAB27B689A717B6877
S32D0000D7C01A687B68DB6919461046FFF78BFE0346FB75FB7D002B71D17B681B6A3B613B690B331A783B690B3366
S32D0000D7E842F02002D2B21A707B68DA683B691C33D2B21A707B68DB689BB21A123B691D33D2B21A707B68DB68C4
S32D0000D8101A0C3B691E33D2B21A707B68DB681A0E3B691F33D2B21A707B681A693B691A33D2B21A707B681B69A3
S32D0000D8389BB21A123B691B33D2B21A707B681B691A0C3B691433D2B21A707B681B691B0C9BB21A123B691533D0
S32D0000D860D2B21A700023FB603B691633FA68D2B21A70FB689BB21A123B691733D2B21A70FB681A0C3B69183361
S32D0000D888D2B21A70FB681A0E3B691933D2B21A707B689B7923F02003DAB27B689A717B681B6801221A717B683D
S32D0000D8B01B681846FFF77AFE0346FB75FB7D18461837BD4680BD80B584B000AF78607868FFF73AFF0346FB7327
S32D0000D8D8FB7B002B02D17B6800221A60FB7B18461037BD4680BDFFFF80B588B000AF7860396080233B610F23D8
S32D0000D900FB604FF0FF337B610223FB61FB69B3F5807F23D80123BB61BB69102B1AD8FB69BA6902FB03F33A681D
S32D0000D92802FB03F27B68D31ABB60BB68002B09DBBB687A699A4205D9BB687B61FB693B61BB69FB60BB6901332C
S32D0000D950BB61E1E7FB695B00FB61D7E71D4BDB6A1C4A23F00803D3621A4BDB6A23F47F2323F47F63BB613B696A
S32D0000D9785B081B029AB2FB68013B1B01DBB21A43BB691343114A43F46023D3620F4B5B6A03F00803002B0CBF39
S32D0000D9A001230023DBB2002B03D00A2001F020F9F0E7084BDB6A074A43F00803D362054B1B6B044A43F4801332
S32D0000D9C8136300BF2037BD4680BD00BF00100B4080B582B000AF786039607B6800221A60424B434ADA62414B63
S32D0000D9F0DB6A03F08073002B14BF01230023DBB2002B00D0F3E73B4B0022C3F8C020394B4FF481325A60374B3E
S32D0000DA1828229A62354B4FF001125A643B689B6834491846FFF760FF304B5B6A03F00303002B14BF01230023B6
S32D0000DA40DBB2002B00D0F3E72D4B40F243421A602B4B40F243425A60294B4FF488629A60274B40F24342DA60C8
S32D0000DA68254B40F243421A61234B40F243425A61224B03F5815310331B68204943F4003201F5815310331A60B6
S32D0000DA90184B4FF6FF721A63164B1B4A5A63154BDB6A144A43F00063D362124BDB6A03F00063002B14BF012367
S32D0000DAB80023DBB2002B00D0F3E70C4B5B6A03F48033002B14BF01230023DBB2002B02D07B6801221A60054B56
S32D0000DAE01B6B044A43F080031363002318460837BD4680BD00100B400080000160CC050000D004400070044043
S32D0000DB08B3007F0080B400AF064B5A6A40F207331340002B14BF01230023DBB21846BD4680BC704700100B4085
S32D0000DB3080B485B000AF7860074B1B6B7A681340FB60FB68002B00D1F6E7FB6818461437BD4680BC704700BF72
S32D0000DB5800100B4080B584B000AF78607B681B7803F03F03764A52F82330FB60FB68002B05D17B681B78002BEC
S32D0000DB8001D00123DCE0714B1B6B704A43F0800313636E4B5B6A03F00103002B14BF01230023DBB2002B00D05C
S32D0000DBA8F3E7684A7B685B689360FB6823F44003FB607B685B789B0503F44003FA681343FB607B685B78022B8C
S32D0000DBD003D1FB6843F40013FB607B685B78042B16D1FB6803F44033B3F5003F08D1FB6823F44033FB60FB6847
S32D0000DBF843F44033FB6007E0FB6823F44033FB60FB6843F40033FB604E4B5B684D4A9BB253607B68DB68002B5F
S32D0000DC202AD0FB6803F44033B3F5403F03D0FB6843F40013FB607B681B7A002B03D0FB6843F01003FB607B68B0
S32D0000DC48DB68012B03D9FB6843F02003FB607B68DB68B3F1FF3F0BD03A4B5A687B68DB681B04384913434B605E
S32D0000DC70FB6843F00203FB60344B00221A60334AFB68D3603248FFF753FF0346012B14BF01230023DBB2002B59
S32D0000DC9809D02C4B1B6B2B4A43F4702343F001031363012348E0274B1B6B03F08003002B14BF01230023DBB210
S32D0000DCC0002B07D0214B1B6B204A43F001131363012335E01D4B1B6B03F48033002B14BF01230023DBB2002B4D
S32D0000DCE808D0184B1B6B174A43F0011313634FF0FF3321E0FB6803F44033002B15D0114B1A697B681A61FB6840
S32D0000DD1003F44033B3F5803F0BD10C4B5A697B685A610A4B9A697B689A61084BDA697B68DA61064B1B6B054A70
S32D0000DD3843F001031363002318461037BD4680BD502D010000100B4001000E0080B592B000AF78603960002366
S32D0000DD607B643B68BB63994B7B637B6B002B02D140F6012362E3964B3B633B6B002B02D140F60B235AE33B6B46
S32D0000DD881B68FB62FB6A002B02D140F60B2351E37B6841F20932934200F242837B68B3F5985F08D87B68032B42
S32D0000DDB000F01D837B68092B00F00C8334E37B68A3F59853013B082B00F22E8301A252F823F000BFF9DD0000FB
S32D0000DDD8E9E0000047E30000FFE000003DE1000067E20000AFE20000F1E100000BE200007649786BFFF7ECFD13
S32D0000DE0078647B6C002B40F01383002387F84330002387F82B30002387F82A30002387F82930002387F8423023
S32D0000DE28002387F8283000233B7200237B720023FB6000233B7400237B6107F108031846FFF788FE0346002B52
S32D0000DE5014BF01230023DBB2002B02D001237B64EBE240F24C4000F0C3FE08233B7200237B724FF4D573FB60F3
S32D0000DE7800233B7400237B6107F108031846FFF769FEF863FB6B002B09D1BA69FB689A4202D001237B64CCE242
S32D0000DEA0012387F84230012387F8283097F82830002B00F0A58037233B7200237B720023FB6000233B74002393
S32D0000DEC87B6107F108031846FFF744FEF863FB6B002B02D001237B64ABE269233B7200237B720023FB6000237F
S32D0000DEF03B7400237B6107F108031846FFF72EFE0346002B14BF01230023DBB2002B02D001237B6491E2BB6921
S32D0000DF1803F44013002B6FD00023FB630A2000F063FEFB6B0133FB6337233B7200237B720023FB6000233B74CC
S32D0000DF4000237B6107F108031846FFF707FE0346002B14BF01230023DBB2002B02D001237B6428E069233B72FC
S32D0000DF6800237B7297F84230002B02D0184BFB6002E04FF44013FB6000233B7400237B6107F108031846FFF7C4
S32D0000DF90E5FD0346002B14BF01230023DBB2002B02D001237B6406E0BB69002B03DBFB6B632B00D8B6E77B6C03
S32D0000DFB8002B40F03B82FB6B632B0BD9002387F8423019E0CC150020D0170020442D010000003040012387F8B1
S32D0000DFE0433097F84230002B0AD0002387F84230BB6903F08043002B02D0012387F8423097F82A30002B02D0B4
S32D0000E0087B6B07221A6097F82930002B02D07B6B08221A6097F82B30002B02D07B6B04221A6097F84330002B58
S32D0000E03009D07B6B02221A6097F84230002B02D07B6B03221A6097F82B30002B0DD097F84330002B09D07B6B04
S32D0000E05805221A6097F84230002B02D07B6B06221A60A04B00221A609E4B00225A609D4B00229A609B4B00221B
S32D0000E080DA609A4B00221A61984B00225A61FB6A9A68FB6A5B6819461046FFF729FC934B40F243421A60914BAC
S32D0000E0A840F243425A608F4B4FF488629A608D4B40F24342DA608B4B40F243421A61894B40F243425A61884BEE
S32D0000E0D003F5815310331B68854943F4003201F5815310331A60A8E1B86BFFF737FDF863FB6B002B00F0A081FF
S32D0000E0F802237B649CE1BB6B002B02D10C237B6497E17A4BDB6A1B0A5B0003F4FF73FB63764BDB6A1B0903F061
S32D0000E1200F035A1CFB6B02FB03F3FB63FB6A9A68FB6BB2FBF3F2BB6B1A607EE1BB6B002B02D10C237B6478E1A9
S32D0000E148BB6B1B68002B02D10C237B6471E1FFF7D9FC0346002B0CBF01230023DBB2002B3ED0604B00221A6044
S32D0000E1705E4B00225A605D4B00229A605B4B0022DA605A4B00221A61584B00225A61FB6A9A68BB6B1B68194605
S32D0000E1981046FFF7A9FB534B40F243421A60514B40F243425A604F4B4FF488629A604D4B40F24342DA604B4BAD
S32D0000E1C040F243421A61494B40F243425A61484B03F5815310331B68454943F4003201F5815310331A6028E14D
S32D0000E1E840F60A237B6424E1BB6B002B02D10C237B641EE13D4B5B68C3F30C02BB6B1A6017E1BB6B002B02D1C6
S32D0000E2100C237B6411E1FFF779FC0346002B0CBF01230023DBB2002B19D0BB6B1B68B3F5805F02D30C237B643B
S32D0000E238FFE02E4B5B682D4A23F4FF5323F01F0353602A4B5A68BB6B1B68C3F30C03274913434B60EDE040F6BC
S32D0000E2600A237B64E9E0BB6B002B02D10C237B64E3E0204B9B6A5B0803F00303FB63FB6B002B03D1BB6B0022EF
S32D0000E2881A60D6E0FB6B012B03D1BB6B01221A60CFE0FB6B102B03D1BB6B02221A60C8E005237B64C5E0BB6BAD
S32D0000E2B0002B02D10C237B64BFE0FFF727FC0346002B0CBF01230023DBB2002B37D0BB6B1B68002B10D1074B30
S32D0000E2D89B6A064A23F006039362044B034A9B6A9362A6E000D004400070044000100B40BB6B1B68012B0CD1C1
S32D0000E300504B9B6A4F4A23F0060393624D4B9B6A4C4A43F0020393628FE0BB6B1B68022B0AD1484B9B6A474AFC
S32D0000E32823F006039362454B444A9B6A936280E005237B647DE040F60A237B6479E0BB6B002B02D10C237B640D
S32D0000E35073E03C4BDB6A3B4A43F00063D362394BDB6A03F00063002B14BF01230023DBB2002B00D0F3E7334BEC
S32D0000E3781B6B03F08003002B14BF01230023DBB2002B08D02D4B1B6B2C4A43F0800313637B6B00221A60294B10
S32D0000E3A05B6A03F48033002B14BF01230023DBB2002B07D07B6B1B68002B06D17B6B01221A6002E07B6B002234
S32D0000E3C81A607B6B1A68BB6B1A6032E0BB6B1C221A60BB6B043304221A60BB6B08334FF41E721A6025E00220E3
S32D0000E3F0FFF79EFB134B1B6B03F4E003002B14BF01230023DBB2002B07D00E4B1B6B0D4A43F4E00313630423F1
S32D0000E4187B640A4B1B6B094A43F03203136308E040F609237B6404E000BF02E000BF00E000BF7B6C184648371B
S32D0000E440BD4680BD00100B4080B489B000AF786039607B687B61364B3B613B69002B01D100235FE03B691B6880
S32D0000E468022B0BD03B691B68032B07D03B691B68072B03D03B691B68082B0BD12B4B5B6A03F00403002B14BFBD
S32D0000E49001230023DBB2002B00D0F3E73B68FB61FB69002B3DD0FB69B3F5007F28BF4FF40073FB60FB680333FE
S32D0000E4B89B08BB61BB69002B2AD01C4B1B6B03F4E003002B14BF01230023DBB2002B09D0164B1B6B154A43F414
S32D0000E4E0E00343F02003136300231BE0114B5B6A03F40063002B0CBF01230023DBB2002B00D0F3E70B497B69EF
S32D0000E5081A1D7A610A6A1A60BB69013BBB61D1E7FA69FB68D31AFB61BEE7012318462437BD4680BC704700BF6B
S32D0000E530CC15002000100B4080B58EB000AFB9607A601A460346FB731346BB73414B7B63FB7B002B02D1BB7B9A
S32D0000E558002B01D1042375E03D4B1B78DBB203F00103002B14BF01230023DBB2002B01D0032367E0BB68002BF4
S32D0000E58001D1002362E07B6B1B7B002B02D17B685B027B60BB7B012B28D111233B7500237B757B68BB6101232C
S32D0000E5A83B77BB7B3B6207F11403194641F20230FFF7CCFB0346002B0CBF01230023DBB2002B38D04FF4007136
S32D0000E5D0B868FFF739FF0346002B14BF01230023DBB2002B2BD00023BB7328E012233B7500237B757B68BB613E
S32D0000E5F801233B77BB7B3B6207F11403194641F20230FFF7A3FB0346002B0CBF01230023DBB2002B0FD0BB7B92
S32D0000E6205B021946B868FFF70FFF0346002B14BF01230023DBB2002B01D00023BB73BB7B002B01D0012300E04E
S32D0000E648002300BF18463837BD4680BDB81500200000002080B487B000AF786039607B68FB603B687B617B697C
S32D0000E670002B3DD07B69B3F5007F28BF4FF400733B617A693B69D31A7B613B6903339B083B613B69002BEAD00E
S32D0000E698184B1B6B03F4E003002B14BF01230023DBB2002B0AD0134B1B6B124A43F4E00343F0100313634FF065
S32D0000E6C0FF3316E00D4B5B6A03F48063002B0CBF01230023DBB2002B00D0F3E7FB681A1DFA60064A1B68136232
S32D0000E6E83B69013B3B61D0E7012318461C37BD4680BC704700100B4080B58EB000AFB9607A601A460346FB737F
S32D0000E7101346BB735D4B7B63FB7B002B02D1BB7B002B01D10423ADE0594B1B78DBB203F00103002B14BF012396
S32D0000E7380023DBB2002B01D003239FE0524B1B78DBB203F00403002B14BF01230023DBB2002B01D0022391E047
S32D0000E760BB68002B01D100238CE07B6B1B7B002B02D17B685B027B60BB7B012B28D118233B7500237B757B680B
S32D0000E788BB6100233B77BB7B3B6207F11403194641F20230FFF7DAFA0346002B0CBF01230023DBB2002B38D0BC
S32D0000E7B04FF40071B868FFF751FF0346002B14BF01230023DBB2002B2BD00023BB7328E019233B7500237B7588
S32D0000E7D87B68BB6100233B77BB7B3B6207F11403194641F20230FFF7B1FA0346002B0CBF01230023DBB2002BBA
S32D0000E8000FD0BB7B5B021946B868FFF727FF0346002B14BF01230023DBB2002B01D00023BB730D233B75002372
S32D0000E8287B757B6B1B69BB6100233B7700233B6207F11403194641F20230FFF787FA0346002B14BF01230023DF
S32D0000E850DBB2002B01D0012314E07A6A0D4B1340002B01D001230DE07B6A03F4F853B3F5106F00D0D5E7BB7B4D
S32D0000E878002B01D0012300E0002300BF18463837BD4680BDB8150020000000200880D9FF80B58CB000AF0346AD
S32D0000E8A03A60FB710B46BB713A4BBB62FB79002B01D0042369E0012387F82F30364B1B78DBB203F00103002B80
S32D0000E8C814BF01230023DBB2002B01D0032358E0BB79032B50D801A252F823F0F5E80000FDE800000DE90000DF
S32D0000E8F01DE90000002387F82F3044E0BB6A9A683B681A60002387F82F303CE03B684FF400721A80002387F8DA
S32D0000E9182F3034E009233B7200237B72BB6A1B69FB6000233B7400237B6107F10803194641F20230FFF70AFADF
S32D0000E9400346002B14BF01230023DBB2002B01D001231AE07B6A03F44003002B0CD13B6A9B0C03F07F035A1C16
S32D0000E9687B6A1B0A03F00303013B9A403B681A60002387F82F3002E0042387F82F3097F82F3018463037BD46AD
S32D0000E99080BD00BFB81500200000002080B483B000AF0346FB71FB79002B01D0012302E0034B1B78DBB2184643
S32D0000E9B80C37BD4680BC70470000002080B483B000AF7860174B03F5815318331B68154943F0010201F5815390
S32D0000E9E018331A60124A7B689360114B05225A600F4B1B680E4A43F0010313600C4B1B6803F08003002B0CBFB0
S32D0000EA0801230023DBB2002B00D0F3E7064B1B68054A23F00103136000BF0C37BD4680BC704700BF007004401F
S32D0000EA300000044080B582B000AF786039607B68012B07D13B684FF6FF72934202D1034800F00EF800BF0837C6
S32D0000EA58BD4680BDD817002080B500AF4FF6FF710120FFF7E3FF80BD80B483B000AF78607B6800221A707B6812
S32D0000EA8018460C37BD4680BC7047FFFF80B582B000AF78607B681B7883F00103DBB2002B21D0134B03F5815325
S32D0000EAA808334FF400621A60104B4FF440721A620E4B4FF440725A620D4B1B68DA0F13445B104FF46142194645
S32D0000EAD00A48FEF7F1FB642000F08AF87B6801221A70012300E0002318460837BD4680BD0070044000D0044093
S32D0000EAF8DC17002000B00E4080B582B000AF7860084611461A460346FB700B46BB7013467B707F210E48FEF78D
S32D0000EB20AAFC08210C48FEF7A6FCFB7819460A48FEF7A1FCBB7819460748FEF79CFC7B7819460548FEF797FCC2
S32D0000EB48FF210348FEF793FC00BF0837BD4680BD00B00E4080B487B000AFF860B9607A60FB681F4AA2FB032380
S32D0000EB709B09BA6813447B61FB681B4AA2FB031292094FF47A7101FB02F29B1AFB60FB68DB03154AA2FB0323D8
S32D0000EB989B097A6813443B613B69DB0B7A6913447B613B69C3F30E033B610E4B1B687A699A4209D80B4B1B68DA
S32D0000EBC07A699A4206D1094B5B683A699A4201D9012300E00023002B00D0EAE700BF1C37BD4680BC704700BF67
S32D0000EBE8D34D621000D0034080B584B000AF7860074B1B68FB60064B5B68BB607B68BA68F9681846FFF7A6FFAC
S32D0000EC1000BF1037BD4680BD00D0034080B584B000AFC7E900010E4B1B68FB600C4B5B68BB604FF000020B4BB1
S32D0000EC38D7E9000102F09AFD02460B461046194602F0CEFF0346BA68F9681846FFF782FF00BF1037BD4680BD70
S32D0000EC6000D0034000408F4080B584B000AF78600B46FB700B23FB73FA7BFB781946786800F094F87B68184638
S32D0000EC881037BD4680BDFFFF80B485B000AF78607B68103B002B00DA1F335B11FB60FB68022B53D0FB68022B5A
S32D0000ECB075DCFB68002B03D0FB68012B25D06EE0394BD3F880217B68103B594203F01F0301F01F0158BF4B422F
S32D0000ECD8012101FA03F332491343C1F88031304B1A687B68103B594203F01F0301F01F0158BF4B42012101FA13
S32D0000ED0003F3294913430B6049E0274BD3F884217B68103B594203F01F0301F01F0158BF4B42012101FA03F30B
S32D0000ED281F491343C1F884311D4B5A687B68103B594203F01F0301F01F0158BF4B42012101FA03F3164913430C
S32D0000ED504B6024E0144BD3F888217B68103B594203F01F0301F01F0158BF4B42012101FA03F30D491343C1F808
S32D0000ED7888310B4B9A687B68103B594203F01F0301F01F0158BF4B42012101FA03F3044913438B6000BF00BFAA
S32D0000EDA01437BD4680BC704700E100E080B584B000AF78600B46FB701346BB707B68FA781A70BB78FB737B68B0
S32D0000EDC81B781A46574B9B5C042B00F2A68001A252F823F0F1ED00003DEE000089EE000021EF0000D5EE0000F7
S32D0000EDF0FB7B1B0403F470234D497A68127810464C4A52F8202043F4897343F0010341F82230494B5A697B682F
S32D0000EE181B781946454B53F8213003F01F03012101FA03F3DB43424913404B616720FFF72BFF72E0FB7B1B0450
S32D0000EE4003F470233D497A6812781046394A52F8202043F4897343F0010341F82230384B5A697B681B781946B5
S32D0000EE68324B53F8213003F01F03012101FA03F3DB43314913404B616820FFF705FF4CE0FB7B1B0403F47023D7
S32D0000EE902C497A6812781046264A52F8202043F4897343F0010341F82230274B5A697B681B7819461F4B53F86F
S32D0000EEB8213003F01F03012101FA03F3DB43204913404B616920FFF7DFFE26E0FB7B1B0403F470231B497A6866
S32D0000EEE012781046134A52F8202043F4897343F0010341F82230164B5A697B681B7819460C4B53F8213003F069
S32D0000EF081F03012101FA03F3DB430F4913404B616B20FFF7B9FE00E000BF00BF1037BD4680BD00BF502E0100D6
S32D0000EF3000900440942E010000F00F4000A0044040F00F4000B0044080F00F4000D0044000F10F4080B58AB004
S32D0000EF5800AF3B1D20220021184603F06FFC0B237B600A23BB600723FB6006233B6105237B610423BB6101235F
S32D0000EF80FB6100237B627B6A072B32DC1B4BD3F8A0207B6A9B0007F128010B4453F8243C012101FA03F31340F0
S32D0000EFA8002B14BF01230023DBB2002B19D0124A7B6A52F823305A1C0F497B6A41F823200C4BD3F8A0207B6A81
S32D0000EFD09B0007F128010B4453F8243C012101FA03F306491340C1F8A0307B6A01337B62C9E700BF2837BD4658
S32D0000EFF880BD00BF00A0044008180020B0B489B000AF234B3C1D1D460FCD0FC495E8030084E803000023FB6138
S32D0000F020FB69052B32DC1D4BD3F8A020FB699B0007F120010B4453F81C3C012101FA03F31340002B14BF01239B
S32D0000F0480023DBB2002B19D0FB690833124A52F823200132104941F823200E4BD3F8A020FB699B0007F120014A
S32D0000F0700B4453F81C3C012101FA03F307491340C1F8A030FB690133FB61C9E700BF2437BD46B0BC704700BF9E
S32D0000F098982F010000B0044008180020B0B48DB000AF244B3C461D460FCD0FC40FCD0FC495E8070084E8070055
S32D0000F0C00023FB62FB6A0A2B32DC1D4BD3F8A020FB6A9B0007F130010B4453F8303C012101FA03F31340002B47
S32D0000F0E814BF01230023DBB2002B19D0FB6A0E33124A52F823200132104941F823200E4BD3F8A020FB6A9B00C4
S32D0000F11007F130010B4453F8303C012101FA03F307491340C1F8A030FB6A0133FB62C9E700BF3437BD46B0BC24
S32D0000F138704700BFB02F01000090044008180020B0B487B000AF224B3C461D460FCD0FC42B68236000237B61DF
S32D0000F1607B69042B32DC1D4BD3F8A0207B699B0007F118010B4453F8183C012101FA03F31340002B14BF012367
S32D0000F1880023DBB2002B19D07B691933124A52F823200132104941F823200E4BD3F8A0207B699B0007F1180100
S32D0000F1B00B4453F8183C012101FA03F307491340C1F8A0307B6901337B61C9E700BF1C37BD46B0BC704700BF69
S32D0000F1D8DC2F010000D004400818002080B483B000AF78607B681B781A46044B53F8223018460C37BD4680BC19
S32D0000F200704700BF0818002080B483B000AF78607B681B781946044B002243F8212000BF0C37BD4680BC704782
S32D0000F2280818002080B483B000AF78600B46FB707B68FA781A707B6818460C37BD4680BC7047FFFF80B586B00C
S32D0000F25000AF78607B681B781A46234B53F822303B617B681B781A46204B9B5CFB733B69DBB203F01F03DAB214
S32D0000F2781D4B1A723B69DBB203F01F03DAB21A4B5A72FB7B002B13D11749184800F0CCF9164B1B6803F080031D
S32D0000F2A0802B14BF01230023DBB2002B00D0F3E7104B1B697B6112E00D490F4800F0B8F90D4B1B6803F08003CD
S32D0000F2C8802B14BF01230023DBB2002B00D0F3E7074B1B697B617B6918461837BD4680BD142F0100702E01008B
S32D0000F2F0F817002000B0034000B00B4098B500AF204B5C221A701F4B10225A701D4B41F234225A801B4B45F296
S32D0000F31878629A80194B10229A71184B0722DA71164B4FF4C022DA60144B1F221A72134B1F225A721149124850
S32D0000F34000F076F90F49114800F072F90F4800F0D0F80D4800F0CDF80A490C4800F068F90849094800F064F934
S32D0000F368094A064B14460FCB84E80F00064B5C221A70054B0422DA7100BF98BDE817002000B0034000B00B40E9
S32D0000F390F817002080B500AF064B1B680133054A136000F03BF8044B0122C3F80C2100BF80BD00BF8C18002076
S32D0000F3B80070034080B500AF0B4800F01BF80B4B0322C3F808210A4BD3F88831084A43F01003C2F88831064BA6
S32D0000F3E09B68054A43F01003936000BF80BD00BFA08601000070034000E100E080B483B000AF7860044A7B68FF
S32D0000F408C2F8003100BF0C37BD4680BC704700BF0070034080B584B000AF174B1B68FB60FB68002B24D0FB6844
S32D0000F4305B78FB71FB689B68184600F023F80346BB71BB79002B13D0FB685B68012B0FDDFB689B681B69BB60A6
S32D0000F458BB68002B08D0BB685B685A1CBB685A60BB681B69BB60F3E7FB68DB68FB60D7E700BF1037BD4680BD86
S32D0000F4808818002080B584B000AF78607868FFF7DDFEF8607B689B695B78FB72FB7A002B0FD17B68DB68FA6876
S32D0000F4A89A420ADD7B689B6901225A707B685B685A1C7B685A60012313E0FB7A012B0FD17B689B68FA689A422A
S32D0000F4D00ADA7B689B6900225A707B685B685A1C7B685A60012300E0002318461037BD4680BD80B485B000AF7A
S32D0000F4F878607B681B6A23F040027B681A627B685B6A23F00B027B685A627B685B6A43F007027B685A627B6825
S32D0000F5205B6A43F080027B685A627B681B6803F08003002B0CBF01230023DBB2002B00D0F3E77B685B6A03F08E
S32D0000F5484003402B0CBF01230023DBB2002B01D0012364E00023FB817B68DB6CFB817B689B6C9AB2FB8913448E
S32D0000F570FB817B685B6C9AB2FB891344FB817B681B6C9AB2FB891344FB817B68DB6B9AB2FB891344FB817B68E8
S32D0000F5989B6B9AB2FB891344FB81FB895B08FB81FB896FEA43436FEA5343FB81FA897B68DA620023FB817B6847
S32D0000F5C0DB6EFB817B689B6E9AB2FB891344FB817B685B6E9AB2FB891344FB817B681B6E9AB2FB891344FB816B
S32D0000F5E87B68DB6D9AB2FB891344FB817B689B6D9AB2FB891344FB81FB895B08FB81FB896FEA43436FEA5343E4
S32D0000F610FB81FA897B681A637B685B6A23F080027B685A62002318461437BD4680BC704780B483B000AF7860E1
S32D0000F63839603B681B781A467B689A603B685B781A467B68DA603B685B881A467B689A613B689B881A467B68D8
S32D0000F660DA613B689B791A467B681A623B68DB791A467B685A623B68DA687B681A653B681B7A1A467B681A6099
S32D0000F6883B685B7A1A467B685A6000BF0C37BD4680BC704780B483B000AF78607B6818460C37BD4680BC70477F
S32D0000F6B080B582B000AF786039607B68012B07D13B684FF6FF72934202D10348FFF7E6FF00BF0837BD4680BD59
S32D0000F6D89018002080B500AF4FF6FF710120FFF7E3FF80BD80B483B000AF78600B46FB707B68FA781A707B6801
S32D0000F7004FF4FA725A807B6840F6C4129A807B68034A9A607B6818460C37BD4680BC7047000080BF80B483B0FF
S32D0000F72800AF786039603B68B3F5FA7F04DB3B6840F6C412934204DD7B684FF4FA725A8004E03B689AB27B6869
S32D0000F7505A8000BF00BF0C37BD4680BC704780B483B000AF786039603B68B3F5FA7F04DB3B6840F6C41293424C
S32D0000F77804DD7B6840F6C4129A8004E03B689AB27B689A8000BF00BF0C37BD4680BC70472DE9904385B000AF25
S32D0000F7A0786039604FF00001386802F039FD0346002B02D04FF000033B603149386802F04DFD0346002B01D004
S32D0000F7C82D4B3B607B689B681946386802F01AFD0346002B00D04AE07B683A689A607B685C887B689B881A46F8
S32D0000F7F07B685B88D31A184601F052FF4FF00002204B02F0E1F802460B4690469946386801F058FF02460B4652
S32D0000F8184046494601F0AAFF02460B461046194602F0DEF903469BB22344FB81FB897B73FB891B123B737F2112
S32D0000F8401148FDF718FE05210F48FDF714FE7B681B7819460C48FDF70EFE3B7B19460A48FDF709FE7B7B1946D4
S32D0000F8680748FDF704FEFF210548FDF700FE00BF1437BD46BDE89083000034430080664000B00E4080B582B007
S32D0000F89000AF7860B84B4FF48072DA60B74B4FF480729A64B54B4FF480721A64B34B4FF480725A64B14B4FF439
S32D0000F8B88072DA60B04B5B69AF4A43F008035361AE4B5B69AD4A43F480235361AB4B5B69AA4A43F480335361BE
S32D0000F8E0A84B5B69A74A43F400335361A54B1B68A44A43F008031360A24B5B69A14A43F0080353619E4B1B6828
S32D0000F9089D4A43F0080313609A4B4FF480725A62984B4FF480721A62954B4FF480721A61934B4FF480725A6171
S32D0000F930914B4FF480729A618F4B4FF48072DA618D4B4FF480721A638B4B4FF480725A63894B4FF480729A63FB
S32D0000F958874B4FF48072DA63854B4FF480721A64834B4FF480725A64814B4FF480729A647F4B4FF48072DA64BD
S32D0000F980814B4FF480721A607F4B4FF480729A607D4B4FF48072DA607B4B4FF480721A61784B5B69774A43F4B9
S32D0000F9A840735361744B5B69734A43F47F2343F0F0035361734B5B69724A43F01D035361E221786800F0E8FBDC
S32D0000F9D01D21786800F08AFC0221786800F086FC0421786800F082FCE021786800F0D8FB0121786800F07AFC81
S32D0000F9F86420FFF7F9F8E021786800F0CDFB0321786800F06FFC0121786800F0C5FB0120FFF7EAF8E6217868EC
S32D0000FA2000F0BEFB0121786800F060FCA021786800F05CFCFF21786800F058FCB021786800F0AEFB1C2178682D
S32D0000FA4800F050FC0F21786800F04CFC0121786800F048FC3F21786800F044FC0021786800F040FCEF21786849
S32D0000FA7000F03CFC0021786800F038FCB421786800F08EFB0121786800F030FC9921786800F02CFC002178681C
S32D0000FA9800F028FC4521786800F024FC0221786800F020FC0021786800F01CFC0021786800F018FC00217868B8
S32D0000FAC000F014FCB621786800F06AFB0121786800F00CFC0921786800F008FC0021786800F004FC0E21786814
S32D0000FAE800F000FC0221786800F0FCFB0021786800F0F8FB0021786800F0F4FBBA21786800F04AFB0F21786856
S32D0000FB1000F0ECFB6420FFF76BF83A21786800F03FFB6021786800F0E1FB2A21786800F037FB0021786800F043
S32D0000FB38D9FB0021786800F0D5FB0121786800F0D1FB3F21786800F0CDFB2B21786800F023FB0021786800F029
S32D0000FB60C5FB0021786800F0C1FB0021786800F0BDFBEF2178680BE000B0044000A0044080F00F4040F00F4070
S32D0000FB8800C00440C0F00F4000F0ACFB3621786800F002FB0021786800F0A4FBF021786800F0FAFA0421786827
S32D0000FBB000F09CFBB821786800F0F2FA0F21786800F094FB0121786800F090FB314B1B68304A43F008031360D5
S32D0000FBD86420FFF709F83621786800F0DDFA0021786800F07FFBF021786800F0D5FA0421786800F077FB0121E2
S32D0000FC00786800F0B9F91E226F21786800F082F8AF225621786800F0DBF80021786800F0FCF9012301221C49BD
S32D0000FC28786800F01DFA2921786800F0B5FA6420FEF7DAFFBE21786800F0AEFA0E21786800F050FBF02178681A
S32D0000FC5000F04CFB0121786800F048FB0021786800F044FB0021786800F040FB0F21786800F03CFB786800F0B7
S32D0000FC781AFA0121786800F0CCF90021786800F0A1F900BF0837BD4680BD00BF40F00F40F02F010080B582B005
S32D0000FCA000AF78607B680022DA617B6801221A627B680E225A607B681A229A607B6800225A617B6800229A6147
S32D0000FCC87B684FF4A072DA607B68F0221A617B6800221A70786800F02DFF7B6818460837BD4680BD80B582B07A
S32D0000FCF000AF7860064B1B78002B05D1044B01221A707868FFF7C2FD00BF0837BD4680BDD818002080B58AB02C
S32D0000FD1802AFF860B9607A607E23009362237A68B968F86800F066FC40F24E733B610023FB61FA693B699A4262
S32D0000FD4040DA0023BB61214AFB6913441B781A46BB69934232DAFB6901331C4AD35C002B06D1FF23FB75FF233B
S32D0000FD68BB75FF237B7512E0FB690133154AD35C012B06D1D423FB750023BB7526237B7505E0B523FB75BA2313
S32D0000FD90BB75B0237B757B7DBA7DF97DF86800F0C9F80246FB68DA61F86800F0C7FEF86800F000FEBB690133FB
S32D0000FDB8BB61C4E7FB690233FB61BAE700BF2037BD4680BD0400002080B58AB002AFF860B9607A6027230093FE
S32D0000FDE095237A68B968F86800F008FC40F2E6333B610023FB61FA693B699A4240DA0023BB61214AFB6913441E
S32D0000FE081B781A46BB69934232DAFB6901331C4AD35C002B06D1FF23FB75FF23BB75FF237B7512E0FB69013325
S32D0000FE30154AD35C012B06D10023FB750023BB7500237B7505E0D423FB750023BB7526237B757B7DBA7DF97D9D
S32D0000FE58F86800F06BF80246FB68DA61F86800F069FEF86800F0A2FDBB690133BB61C4E7FB690233FB61BAE788
S32D0000FE8000BF2037BD4680BD5407002080B485B000AF78600B46FB70FB78062B29D801A252F823F0C9FE00006B
S32D0000FEA8C1FE0000CFFE0000D7FE0000DFFE0000E5FE0000EDFE00006FF07F43FB6014E00023FB6011E04FF4FE
S32D0000FED07F03FB600DE04FF47F43FB6009E0FF23FB6006E04FF41903FB6002E0044BFB6000BFFB68184614377D
S32D0000FEF8BD4680BC704700BF9999990080B584B000AF786039603B681B0CFB733B681B0ABB733B687B737B7B1E
S32D0000FF20BA7BF97B786800F005F8034618461037BD4680BD80B487B000AF7860084611461A460346FB700B4613
S32D0000FF48BB7013467B70FB789B107B61BB789B103B617B789B10FB607B691A033B699B011A43FB6813431846FA
S32D0000FF701C37BD4680BC704780B582B000AF78600B46FB70FB7819467868FFF77FFF03461946786800F004F8D6
S32D0000FF9800BF0837BD4680BD80B582B000AF7860396039687868FFF7A9FF02467B681A62786800F0BFFD786844
S32D0000FFC000F02CFA00BF0837BD4680BD80B582B000AF78600B46FB70FB7819467868FFF755FF03461946786891
S32D0000FFE800F004F800BF0837BD4680BD80B582B000AF7860396039687868FFF77FFF02467B681A62786800F0CE
S32D0001001095FD00BF0837BD4680BD80B582B000AF78600B46FB70FB7819467868FFF72EFF03461946786800F0FA
S32D0001003804F800BF0837BD4680BD80B582B000AF7860396039687868FFF758FF02467B68DA61786800F06EFD69
S32D0001006000BF0837BD4680BD80B586B000AFF860B9607A603B6000237B617B69BA6813441B78002B0FD07B6956
S32D00010088BA6813441B783A687968F86800F04CFB7B680C337B607B6901337B61E9E700BF1837BD4680BD80B5DF
S32D000100B082B000AF7860FDF7ABF867210120FDF73AF800210220FDF736F8A0210320FDF732F850210420FDF712
S32D000100D82EF820210520FDF72AF820210620FDF726F877210720FDF722F800210820FDF71EF800210920FDF780
S32D000101001AF800210A20FDF716F804210B20FDF712F87B684FF0FF32DA637B684FF0FF321A6400BF0837BD46C1
S32D0001012880BD80B584B000AF786039600023FB60786800F032FAFB683A6813441B78002B12D07B6859697B68E4
S32D000101509869FB683A6813441B780246786800F0CCFA786800F031FAFB680133FB60E6E700BF1037BD4680BDB2
S32D0001017880B582B000AF78603960786800F00DFA39687868FFF7CDFF786800F0F1F900BF0837BD4680BDFFFFC1
S32D000101A080B483B000AF78600B46FB704D4B1B684C4A23F0080313604B4B1B684A4A23F480231360484B1B6854
S32D000101C8474A43F480331360454B1B68444A23F440731360414B1B68404A23F4435323F0300313603E4B1A6832
S32D000101F0FB785B0203F400733B4913430B603A4B1A68FB785B101B0203F48073364913430B60344B1A68FB78C1
S32D000102189B101B0103F01003304913430B602F4B1A68FB78DB105B0103F020032B4913430B602A4B1A68FB7845
S32D000102401B119B0103F04003264913430B60254B1A68FB785B11DB01DBB2224913430B60204B1A68FB789B11EF
S32D000102681B0303F480531D4913430B601B4B1A6897F90330DB115BB25B0303F40053174913430B60164B1B6807
S32D00010290154A23F400331360134B1B68124A43F4003313600F4B1B680E4A43F0080313600D4B1B680C4A43F4BB
S32D000102B840731360094B1B68084A43F4435343F030031360064B1B68054A43F48023136000BF0C37BD4680BC71
S32D000102E0704700BF80F00F4040F00F4080B483B000AF78600B46FB70464B1B68454A23F008031360444B1B684B
S32D00010308434A43F480331360414B1B68404A43F4802313603E4B1B683D4A23F4407313603A4B1B68394A23F484
S32D00010330435323F030031360374B1A68FB785B0203F40073344913430B60334B1A68FB785B101B0203F48073EE
S32D000103582F4913430B602D4B1A68FB789B101B0103F01003294913430B60284B1A68FB78DB105B0103F020030B
S32D00010380244913430B60234B1A68FB781B119B0103F040031F4913430B601E4B1A68FB785B11DB01DBB21B49FF
S32D000103A813430B60194B1A68FB789B111B0303F48053164913430B60144B1A6897F90330DB115BB25B0303F466
S32D000103D00053104913430B600F4B1B680E4A23F4003313600C4B1B680B4A43F400331360084B1B68074A43F039
S32D000103F808031360064B1B68054A23F48023136000BF0C37BD4680BC704700BF80F00F4040F00F4080B586B0A8
S32D0001042000AF78607B6800225A617B6800229A617B681B6AFB60FB68FB72FB681B0ABB72FB681B0CDBB203F014
S32D0001044803037B722A217868FFF7A6FE00217868FFF748FF00217868FFF744FF01217868FFF740FF3F217868DE
S32D00010470FFF73CFF2B217868FFF792FE00217868FFF734FF00217868FFF730FF00217868FFF72CFFEF21786818
S32D00010498FFF728FF2C217868FFF77EFE314B1B68304A23F4407313602F4B1B682E4A23F47F2323F0F00313601C
S32D000104C02C4B1B682B4A23F01D031360274B1A687B681B6B254913430B60254B1A687B685B6B234913430B60A4
S32D000104E8224B1A687B689B6B204913430B601E4B1B681D4A23F0080313601A4B1B68194A43F480231360002344
S32D000105107B617B69EF2B19D800233B613B69B3F5A07F0FD2114B1B68104A23F4003313600E4B1B680D4A43F486
S32D00010538003313603B6901333B61EBE77B6901337B61E2E7084B1B68074A43F008031360044B1B68034A23F4DD
S32D000105608023136000BF1837BD4680BD40F00F4080F00F40C0F00F4080B483B000AF78607B689B69002B07DDE7
S32D000105887B685B695A1C7B685A617B6800229A6100BF0C37BD4680BC704780B582B000AF78607B685A697B681A
S32D000105B05B689A4205DB7B6800225A617868FFF72DFF00BF0837BD4680BD80B582B000AF78607B689B695A1C52
S32D000105D87B689A617B689A697B689B689A4205D17868FFF7C5FF7868FFF7D7FF00BF0837BD4680BD80B588B0A7
S32D0001060000AFF860B9607A603B60FB681B78022B03D0FB681B78032B11D17B68FB61BA6AFB691344013BBB61C4
S32D00010628FB68DA68BB68D31A3B613B683A69D31A01337B610DE0BB68FB613A68FB691344013BBB617B687B612F
S32D00010650BA6A7B691344013B3B612A21F868FFF79FFDFB691B0ADBB203F00F03DBB21946F868FFF73BFEFB690D
S32D00010678DBB21946F868FFF735FEBB691B0ADBB203F00F03DBB21946F868FFF72BFEBB69DBB21946F868FFF732
S32D000106A025FE2B21F868FFF77BFD7B691B0ADBB203F00F03DBB21946F868FFF717FE7B69DBB21946F868FFF7D6
S32D000106C811FE3B691B0ADBB203F00F03DBB21946F868FFF707FE3B69DBB21946F868FFF701FE2C21F868FFF7CA
S32D000106F057FD00BF2037BD4680BD80B584B000AFF860B9607A60FB707A6813465B0013449B00991CBA681346AB
S32D000107181B011344DA1CFB78F86800F005F800BF1037BD4680BDFFFF80B58EB002AFF860B9607A60FB70FB78F8
S32D000107400A2B06D1F868FFF72CFFF868FFF714FFF2E0FB787D2B02D8FB781F2B01D82023FB70FB78203BFB7050
S32D00010768112300930C237A68B968F868FFF742FFFA7813469B0013446F4AD35C3B75FA7813469B00134401338C
S32D000107906B4AD35C7B75FA7813469B0013440233674AD35CBB75FA7813469B0013440333634AD35CFB75FA78B3
S32D000107B813469B00134404335F4AD35C3B760023BB62BB6A062B00F3A180F86800F050F9F86800F0B3F80023A6
S32D000107E087F82F3000237B627B6A042B35DC07F114027B6A13441B7803F00103002B14BF01230023FB76FB7EE4
S32D00010808002B11D097F82F3083F00103DBB2002B03D0F86800F0CAF802E0F86800F08EF8F86800F08BF80DE03B
S32D0001083097F82F30002B03D0F86800F01DF902E0F86800F07FF8F86800F07CF8FB7E87F82F307B6A01337B628D
S32D00010858C6E797F82F30002B03D0F86800F008F902E0F86800F06AF8F86800F067F8002387F82F3000233B6283
S32D000108803B6A042B42DC07F114023B6A13441B7803F00103002B14BF01230023BB76BB7E002B11D097F82F301A
S32D000108A883F00103DBB2002B03D0F86800F07EF802E0F86800F042F8F86800F03FF80DE097F82F30002B03D08D
S32D000108D0F86800F0D1F802E0F86800F033F8F86800F030F8BB7E87F82F3007F114023B6A13441B785B10D9B261
S32D000108F807F114023B6A13440A461A703B6A01333B62B9E7BB6A0133BB625AE7F86800F0AFF8002387F82F3028
S32D000109200123FB61FB69232B06DCF86800F00AF8FB690133FB61F5E73037BD4680BD00BF3C0B002080B483B03E
S32D0001094800AF7860174B1B68164A43F480331360154B1B68144A23F008031360114B1B68104A43F480231360FF
S32D000109700E4B1B680D4A23F4003313600B4B1B680A4A43F400331360094B1B68084A43F008031360054B1B68B1
S32D00010998044A23F48023136000BF0C37BD4680BC704700BF40F00F4080F00F4080B483B000AF78602B4B1B68D9
S32D000109C02A4A43F480331360294B1B68284A23F008031360254B1B68244A43F480231360224B1B68214A23F41D
S32D000109E840731360204B1B681F4A23F47F2323F0F00313601D4B1B681C4A23F01D031360184B1A687B685B6AAD
S32D00010A10164913430B60164B1A687B689B6A144913430B60134B1A687B68DB6A114913430B600E4B1B680D4A58
S32D00010A3823F4003313600B4B1B680A4A43F400331360094B1B68084A43F008031360054B1B68044A23F4802313
S32D00010A60136000BF0C37BD4680BC704740F00F4080F00F40C0F00F4080B483B000AF78602B4B1B682A4A43F42D
S32D00010A8880331360294B1B68284A23F008031360254B1B68244A43F480231360224B1B68214A23F440731360D9
S32D00010AB0204B1B681F4A23F47F2323F0F00313601D4B1B681C4A23F01D031360184B1A687B681B6B1649134394
S32D00010AD80B60164B1A687B685B6B144913430B60134B1A687B689B6B114913430B600E4B1B680D4A23F4003379
S32D00010B0013600B4B1B680A4A43F400331360094B1B68084A43F008031360054B1B68044A23F48023136000BF62
S32D00010B280C37BD4680BC704740F00F4080F00F40C0F00F4080B485B000AF78607B681B6AFB60FB68FB72FB6842
S32D00010B501B0ABB72FB681B0CDBB203F003037B727B6800225A627B6800229A627B680022DA627B6800221A63A2
S32D00010B787B6800225A637B6800229A637B681A6BFB7A5B0203F400731A437B681A637B681A6BFB7A5B101B02C4
S32D00010BA003F480731A437B681A637B685A6BFB7A9B101B0103F010031A437B685A637B685A6BFB7ADB105B0134
S32D00010BC803F020031A437B685A637B685A6BFB7A1B119B0103F040031A437B685A637B685A6BFB7A5B11DB016E
S32D00010BF0DBB21A437B685A637B685A6BFB7A9B111B0303F480531A437B685A637B685A6B97F90B30DB115BB232
S32D00010C185B0303F400531A437B685A637B685A6BBB7A9B0303F480431A437B685A637B685A6BBB7A5B10DB03B0
S32D00010C409BB21A437B685A637B685A6BBB7A9B101B0403F480331A437B685A637B685A6BBB7ADB105B0403F4CF
S32D00010C6800331A437B685A637B685A6BBB7A1B119B0403F480231A437B685A637B685A6BBB7A5B11DB0403F4CF
S32D00010C9000231A437B685A637B689A6BBB7A9B1103F001031A437B689A637B689A6B97F90A30DB115BB29B00D2
S32D00010CB803F004031A437B689A637B689A6B7B7ADB0003F008031A437B689A637B689A6B7B7A5B101B0103F08C
S32D00010CE010031A437B689A637B68DB69FB60FB68FB72FB681B0ABB72FB681B0CDBB203F003037B727B685A6AEA
S32D00010D08FB7A5B0203F400731A437B685A627B685A6AFB7A5B101B0203F480731A437B685A627B689A6AFB7A9E
S32D00010D309B101B0103F010031A437B689A627B689A6AFB7ADB105B0103F020031A437B689A627B689A6AFB7A3A
S32D00010D581B119B0103F040031A437B689A627B689A6AFB7A5B11DB01DBB21A437B689A627B689A6AFB7A9B11BD
S32D00010D801B0303F480531A437B689A627B689A6A97F90B30DB115BB25B0303F400531A437B689A627B689A6AAA
S32D00010DA8BB7A9B0303F480431A437B689A627B689A6ABB7A5B10DB039BB21A437B689A627B689A6ABB7A9B109E
S32D00010DD01B0403F480331A437B689A627B689A6ABB7ADB105B0403F400331A437B689A627B689A6ABB7A1B11DB
S32D00010DF89B0403F480231A437B689A627B689A6ABB7A5B11DB0403F400231A437B689A627B68DA6ABB7A9B1192
S32D00010E2003F001031A437B68DA627B68DA6A97F90A30DB115BB29B0003F004031A437B68DA627B68DA6A7B7A19
S32D00010E48DB0003F008031A437B68DA627B68DA6A7B7A5B101B0103F010031A437B68DA6200BF1437BD4680BCB8
S32D00010E707047FFFF80B582B000AF786039607B68012B07D13B684FF6FF72934202D10348FEF704FF00BF0837EE
S32D00010E98BD4680BD9418002080B500AF4FF6FF710120FFF7E3FF80BD80B582B000AF7860174B03F581531433ED
S32D00010EC01B68154943F0400201F5815314331A60124B4FF400725A62104B4FF400721A620F4B14225A700E4B15
S32D00010EE81B7ADBB20C4A43F00103DBB213720A4B80229A7002212B20FCF7A2F83D212A20FCF79EF87B681846AC
S32D00010F100837BD4680BD00BF0070044000C004400060064080B582B000AF786039607B68012B07D13B684FF6C0
S32D00010F38FF72934202D10348FFF7B6FF00BF0837BD4680BDDC18002080B500AF4FF6FF710120FFF7E3FF80BD5A
S32D00010F6080B582B000AF78600B46FB707B68FA7811461846FEF75AF97B6818460837BD4680BDFFFF80B582B041
S32D00010F8800AF786039607B68012B08D13B684FF6FF72934203D120210348FFF7DDFF00BF0837BD4680BD00BFD5
S32D00010FB0E018002080B500AF4FF6FF710120FFF7E1FF80BD80B483B000AF78607B6800221A707B6818460C372C
S32D00010FD8BD4680BC7047FFFF80B483B000AF78603960044A3B68136000BF0C37BD4680BC704700BFE418002038
S32D0001100080B582B000AF3248FCF71CFA0346FB71304AFB791370304B01221A702F4B1B78022B33D0022B4FDC45
S32D00011028002B02D0012B14D04AE0FB79FF2B44D1284B01221A70284B00221A70264B1B785A1CD1B2244A117084
S32D000110501946244AFB79535433E0214B1B785A1CD1B21F4A117019461E4AFB7953541C4B1B780D2B27D11C4B21
S32D000110781B68194A1278114618489847154B02221A701CE0FB79FF2B10D1124B01221A70114B00221A70104B4D
S32D000110A01B785A1CD1B20E4A117019460D4AFB79535409E00A4B00221A70084B00221A7002E000BF00E000BFC2
S32D000110C800BF0837BD4680BD00A00640FB180020FA180020F9180020F8180020E8180020E418002080B582B06C
S32D000110F000AF78607B681846FFF764FF7B6811491846FFF76DFF7B684FF0FF325A600E4B4FF000021A600D4B3A
S32D000111184FF000021A600C4B4FF000021A600B4B00221A600A4B00221A700A4B00221A707B6818460837BD4664
S32D0001114080BD00BF61110100081900200C1900201019002014190020181900201919002080B582B000AF786064
S32D000111680B46FB703B4B1B78002B6ED07B6801331B781B027A68023212781344184600F059FE03463449184693
S32D0001119000F05CFF03463349184600F099FD03461A46314B1A607B6803331B781B027A6804321278134418467D
S32D000111B800F040FE03462849184600F043FF03462649184600F080FD03461A46254B1A607B6805331B781B02AF
S32D000111E07A68063212781344184600F027FE03461B49184600F02AFF03461A49184600F067FD03461A461A4BE2
S32D000112081A607B680A331B781A46184B1A607B68DA7A174B1A707B680C331B78AA2B0CBF01230023DAB2134BA4
S32D000112301A70134B01221A70104B1B78002B08D0104800F053F8104B1B680F4A23F40053136000BF0837BD4661
S32D0001125880BD00BF04190020000020410000C844081900200C1900201019002014190020181900201919002002
S32D000112801A1900201C190020C0F00F4080B582B000AF786039607B68012B07D13B684FF6FF72934202D10348DE
S32D000112A8FFF720FF00BF0837BD4680BDFC18002080B500AF4FF6FF710120FFF7E3FF80BD80B483B000AF7860D3
S32D000112D0054B00221A60044B00225A607B6818460C37BD4680BC70471C19002080B584B000AF7860154B1B6836
S32D000112F8002B21D00023FB60124B5B68FA689A4214DA114AFB6852F82330002B0AD00E4AFB6852F823301846CB
S32D00011320FCF7D1FA03461A460A4B1A70FB680133FB60E5E7054B00225A60044B00221A60044B1B7818461037FC
S32D00011348BD4680BD1C190020281900202419002080B582B000AF786039607B68012B07D13B684FF6FF72934287
S32D0001137002D10348FFF7A8FF00BF0837BD4680BD1C19002080B500AF4FF6FF710120FFF7E3FF80BD80B483B0CA
S32D0001139800AF78600B4B03F5815310331B68094943F0010201F5815310331A60064B5B68054A43F0320353602A
S32D000113C000BF0C37BD4680BC704700BF0070044000000A4038B5084C4FF41E652846E56000F06EFFA06020B161
S32D000113E80023C0E90053606038BDE060606038BD9019002081F0004102E000BF83F0004330B54FEA41044FEA9F
S32D00011410430594EA050F08BF90EA020F1FBF54EA000C55EA020C7FEA645C7FEA655C00F0E2804FEA5454D4EBC7
S32D000114385555B8BF6D420CDD2C4480EA020281EA030382EA000083EA010180EA020281EA0303362D88BF30BD2C
S32D0001146011F0004F4FEA01314FF4801C4CEA113102D0404261EB410113F0004F4FEA03334CEA133302D05242C6
S32D0001148863EB430394EA050F00F0A780A4F10104D5F1200E0DDB02FA0EFC22FA05F2801841F1000103FA0EF2A1
S32D000114B0801843FA05F359410EE0A5F120050EF1200E012A03FA0EFC28BF4CF0020C43FA05F3C01851EBE371D0
S32D000114D801F0004507D54FF0000EDCF1000C7EEB00006EEB0101B1F5801F1BD3B1F5001F0CD349085FEA300048
S32D000115004FEA3C0C04F101044FEA445212F5800F80F09A80BCF1004F08BF5FEA500C50F1000041EB045141EAFD
S32D00011528050130BD5FEA4C0C404141EB0101013C28BFB1F5801FE9D291F0000F04BF01460020B1FA81F308BF8D
S32D000115502033A3F10B03B3F120020CDA0C3208DD02F1140CC2F10C0201FA0CF021FA02F10CE002F11402D8BF43
S32D00011578C2F1200C01FA02F120FA0CFCDCBF41EA0C019040E41AA2BF01EB0451294330BD6FEA04041F3C1CDA07
S32D000115A00C340EDC04F11404C4F1200220FA04F001FA02F340EA030021FA04F345EA030130BDC4F10C04C4F137
S32D000115C8200220FA02F001FA04F340EA0300294630BD21FA04F0294630BD94F0000F83F4801306BF81F4801178
S32D000115F00134013D4EE77FEA645C18BF7FEA655C29D094EA050F08BF90EA020F05D054EA000C04BF1946104686
S32D0001161830BD91EA030F1EBF0021002030BD5FEA545C05D14000494128BF41F0004130BD14F580043CBF01F5C1
S32D00011640801130BD01F0004545F0FE4141F470014FF0000030BD7FEA645C1ABF194610467FEA655C1CBF0B4674
S32D00011668024650EA013406BF52EA033591EA030F41F4002130BD00BF90F0000F04BF0021704730B54FF480649E
S32D0001169004F132044FF000054FF0000150E700BF90F0000F04BF0021704730B54FF4806404F1320410F00045E0
S32D000116B848BF40424FF000013EE700BF42004FEAE2014FEA31014FEA02701FBF12F07F4393F07F4F81F06051CD
S32D000116E0704732F07F4208BF704793F07F4F04BF41F40021704730B54FF4607401F0004521F000411CE700BF5C
S32D0001170850EA010208BF704730B54FF000050AE050EA010208BF704730B511F0004502D5404261EB41014FF4D4
S32D00011730806404F132045FEA915C3FF4D8AE4FF003025FEADC0C18BF03325FEADC0C18BF033202EBDC02C2F150
S32D00011758200300FA03FC20FA02F001FA03FE40EA0E0021FA02F11444BDE600BF70B54FF0FF0C4CF4E06C1CEA3D
S32D0001178011541DBF1CEA135594EA0C0F95EA0C0F00F0DEF82C4481EA030621EA4C5123EA4C5350EA013518BF13
S32D000117A852EA033541F4801143F4801338D0A0FB02CE4FF00005E1FB02E506F00042E0FB03E54FF00006E1FB78
S32D000117D003569CF0000F18BF4EF0010EA4F1FF04B6F5007F64F5407404D25FEA4E0E6D4146EB060642EAC6218A
S32D000117F841EA55514FEAC52040EA5E504FEACE2EB4F1FD0C88BFBCF5E06F1ED8BEF1004F08BF5FEA500E50F12E
S32D00011820000041EB045170BD06F0004646EA010140EA020081EA0301B4EB5C04C2BFD4EB0C0541EA045170BDE5
S32D0001184841F480114FF0000E013C00F3AB8014F1360FDEBF002001F0004170BDC4F10004203C35DA0C341BDC42
S32D0001187004F11404C4F1200500FA05F320FA04F001FA05F240EA020001F0004221F0004110EBD37021FA04F66C
S32D0001189842EB06015EEA430E08BF20EAD37070BDC4F10C04C4F1200500FA04F320FA05F001FA04F240EA020057
S32D000118C001F0004110EBD37041F100015EEA430E08BF20EAD37070BDC4F1200500FA05F24EEA020E20FA04F358
S32D000118E801FA05F243EA020321FA04F001F0004121FA04F220EA020000EBD3705EEA430E08BF20EAD37070BD47
S32D0001191094F0000F0FD101F00046400041EB010111F4801F08BF013CF7D041EA060195F0000F18BF704703F0DA
S32D000119380046520043EB030313F4801F08BF013DF7D043EA0603704794EA0C0F0CEA135518BF95EA0C0F0CD011
S32D0001196050EA410618BF52EA4306D1D181EA030101F000414FF0000070BD50EA410606BF1046194652EA43064C
S32D0001198819D094EA0C0F02D150EA013613D195EA0C0F05D152EA03361CBF104619460AD181EA030101F0004195
S32D000119B041F0FE4141F470014FF0000070BD41F0FE4141F4780170BD70B54FF0FF0C4CF4E06C1CEA11541DBFF9
S32D000119D81CEA135594EA0C0F95EA0C0F00F0A7F8A4EB050481EA030E52EA03354FEA013100F088804FEA033356
S32D00011A004FF0805545EA131343EA12634FEA022245EA111545EA10654FEA00260EF000419D4208BF964244F105
S32D00011A28FD0404F5407402D25B084FEA3202B61A65EB03055B084FEA32024FF480104FF4002CB6EB020E75EBF2
S32D00011A50030E22BFB61A754640EA0C005B084FEA3202B6EB020E75EB030E22BFB61A754640EA5C005B084FEA34
S32D00011A783202B6EB020E75EB030E22BFB61A754640EA9C005B084FEA3202B6EB020E75EB030E22BFB61A754659
S32D00011AA040EADC0055EA060E18D04FEA051545EA16754FEA06164FEAC30343EA52734FEAC2025FEA1C1CC0D174
S32D00011AC811F4801F0BD141EA00014FF000004FF0004CB6E711F4801F04BF01430020B4F1FD0C88BFBCF5E06F1C
S32D00011AF03FF6AFAEB5EB030C04BFB6EB020C5FEA500C50F1000041EB045170BD0EF0004E4EEA113114EB5C045B
S32D00011B18C2BFD4EB0C0541EA045170BD41F480114FF0000E013C90E645EA060E8DE60CEA135594EA0C0F08BF66
S32D00011B4095EA0C0F3FF43BAF94EA0C0F0AD150EA01347FF434AF95EA0C0F7FF425AF104619462CE795EA0C0F43
S32D00011B6806D152EA03353FF4FDAE1046194622E750EA410618BF52EA43067FF4C5AE50EA41047FF40DAF52EABA
S32D00011B9043057FF4EBAE12E74FEA410212F5001215D211D56FF47873B3EB625212D94FEAC12343F0004343EA2C
S32D00011BB8505311F0004F23FA02F018BF404270474FF00000704750EA013005D111F0004008BF6FF00040704757
S32D00011BE04FF00000704700BF4A0011D212F5001211D20DD56FF47873B3EB62520ED44FEAC12343F0004343EAD4
S32D00011C08505323FA02F070474FF00000704750EA013002D14FF0FF3070474FF0000070474FEA4102B2F1E043B3
S32D00011C3024BFB3F5001CDCF1FE5C0DD901F0004C4FEAC0024CEA5070B2F1004F40EB830008BF20F00100704774
S32D00011C5811F0804F21D113F13872BCBF01F00040704741F480114FEA5252C2F11802C2F1200C10FA0CF320FA18
S32D00011C8002F018BF40F001004FEAC1234FEAD32303FA0CFC40EA0C0023FA02F34FEA4303CCE77FEA625307D17A
S32D00011CA850EA01331EBF4FF0FE4040F44000704701F0004040F0FE4040F40000704700BF80F0004002E000BF80
S32D00011CD081F0004142001FBF5FEA410392EA030F7FEA226C7FEA236C6AD04FEA1262D2EB1363C1BFD218414004
S32D00011CF848404140B8BF5B42192B88BF704710F0004F40F4000020F07F4018BF404211F0004F41F4000121F01C
S32D00011D207F4118BF494292EA030F3FD0A2F1010241FA03FC10EB0C00C3F1200301FA03F100F0004302D54942A3
S32D00011D4860EB4000B0F5000F13D3B0F1807F06D340084FEA310102F10102FE2A51D2B1F1004F40EBC25008BFE5
S32D00011D7020F0010040EA03007047490040EB0000013A28BFB0F5000FEDD2B0FA80FCACF1080CB2EB0C0200FACA
S32D00011D980CF0AABF00EBC25052421843BCBFD0401843704792F0000F81F4000106BF80F400000132013BB5E7E3
S32D00011DC04FEA41037FEA226C18BF7FEA236C21D092EA030F04D092F0000F08BF0846704790EA010F1CBF00207C
S32D00011DE8704712F07F4F04D1400028BF40F00040704712F100723CBF00F50000704700F0004343F0FE4040F42E
S32D00011E10000070477FEA226216BF08467FEA23630146420206BF5FEA412390EA010F40F4800070474FF00003B9
S32D00011E3804E000BF10F0004348BF40425FEA000C08BF704743F0964301464FF000001CE050EA010208BF7047F0
S32D00011E604FF000030AE000BF50EA010208BF704711F0004302D5404261EB41015FEA010C02BF8446014600203A
S32D00011E8843F0B64308BFA3F18053A3F50003BCFA8CF2083AA3EBC25310DB01FA02FC634400FA02FCC2F12002C5
S32D00011EB0BCF1004F20FA02F243EB020008BF20F00100704702F1200201FA02FCC2F1200250EA4C0021FA02F2C2
S32D00011ED843EB020008BF20EADC7070474FF0FF0C1CEAD0521EBF1CEAD15392EA0C0F93EA0C0F6FD01A4480EA28
S32D00011F00010C400218BF5FEA41211ED04FF0006343EA501043EA5111A0FB01310CF00040B1F5000F3EBF490031
S32D00011F2841EAD3715B0040EA010062F17F02FD2A1DD8B3F1004F40EBC25008BF20F00100704790F0000F0CF05B
S32D00011F50004C08BF49024CEA502040EA51207F3AC2BFD2F1FF0340EAC250704740F400004FF00003013A5DDCE7
S32D00011F7812F1190FDCBF00F000407047C2F10002410021FA02F1C2F1200200FA02FC5FEA310040F1000053EAD4
S32D00011FA04C0308BF20EADC70704792F0000F00F0004C02BF400010F4000F013AF9D040EA0C0093F0000F01F051
S32D00011FC8004C02BF490011F4000F013BF9D041EA0C018FE70CEAD15392EA0C0F18BF93EA0C0F0AD030F0004C67
S32D00011FF018BF31F0004CD8D180EA010000F00040704790F0000F17BF90F0004F084691F0000F91F0004F14D0BD
S32D0001201892EA0C0F01D142020FD193EA0C0F03D14B0218BF084608D180EA010000F0004040F0FE4040F4000018
S32D00012040704740F0FE4040F4400070474FF0FF0C1CEAD0521EBF1CEAD15392EA0C0F93EA0C0F69D0A2EB0302AE
S32D0001206880EA010C49024FEA402037D04FF0805343EA111143EA10130CF000408B4238BF5B0042F17D024FF4E6
S32D00012090000C8B4224BF5B1A40EA0C00B3EB510F24BFA3EB510340EA5C00B3EB910F24BFA3EB910340EA9C0068
S32D000120B8B3EBD10F24BFA3EBD10340EADC001B0118BF5FEA1C1CE0D1FD2A3FF650AF8B4240EBC25008BF20F0CF
S32D000120E0010070470CF0004C4CEA50207F32C2BFD2F1FF0340EAC250704740F400004FF00003013A37E792F0F0
S32D00012108000F00F0004C02BF400010F4000F013AF9D040EA0C0093F0000F01F0004C02BF490011F4000F013BE6
S32D00012130F9D041EA0C0195E70CEAD15392EA0C0F08D142027FF47DAF93EA0C0F7FF470AF084676E793EA0C0F29
S32D0001215804D14B023FF44CAF08466EE730F0004C18BF31F0004CCAD130F000427FF45CAF31F000437FF43CAF78
S32D000121805FE700BF4FF0FF3C06E000BF4FF0010C02E000BF4FF0010C4DF804CD4FEA40024FEA41037FEA226CCE
S32D000121A818BF7FEA236C11D001B052EA530C18BF90EA010F58BFB2EB030088BFC81738BF6FEAE17018BF40F026
S32D000121D0010070477FEA226C02D15FEA402C05D17FEA236CE4D15FEA412CE1D05DF8040B704700BF84460846CD
S32D000121F86146FFE70FB5FFF7C9FF002848BF10F1000F0FBD4DF808EDFFF7F4FF0CBF012000205DF808FB00BF58
S32D000122204DF808EDFFF7EAFF34BF012000205DF808FB00BF4DF808EDFFF7E0FF94BF012000205DF808FB00BF71
S32D000122484DF808EDFFF7D2FF94BF012000205DF808FB00BF4DF808EDFFF7C8FF34BF012000205DF808FB00BF79
S32D0001227070B50D4E0D4D761BB61006D0002455F8043B01349847A642F9D1094E094D761B00F0CAFEB61006D030
S32D00012298002455F8043B01349847A642F9D170BD34300100343001006030010034300100704700BF704700BFC8
S32D000122C0024B0146186800F003B800BF1C0D00202DE9F04F01F10B05162D83B0064624D8102900F2B78000F0C1
S32D000122E8FDFA102502211823DFF8F0844344A3F108025C68944200F0B580636823F003032344D4E902515A68F1
S32D00012310E96042F0010230468D605A6000F0E8FA0834204603B0BDE8F08F35F0070500F19180A94200F28E809A
S32D0001233800F0D4FAB5F5FC7FC0F090816B0A00F08C80042B00F26681AB0903F1390103F13807CB00DFF884849A
S32D000123604344A3F108005C68A04206D10CE0002A80F22281E468A04206D0636823F003035A1B0F2AF3DD39469E
S32D00012388D8F81040DFF858C4644577D0626822F00302531B0F2B00F36F81002BC8E904CC80F26081B2F5007F92
S32D000123B080F01081D3080133500901228240D8F8040058F83370A76008EBC30E0243AEF10800E060C8F804200E
S32D000123D848F83340FC608B1001209840904254D8104206D121F003014000104201F10401FAD008EBC1094C4655
S32D000124008E46E768BC4207D114E1002B80F21B81FF68BC4200F00E817A6822F00302531B0F2BF2DDD7E902E48C
S32D00012428791945F001057D6043F00105CEF80C403046C4F808E0C8E90411C1E902CC4D60BB5000F051FA07F14D
S32D00012450080402E00C2333600024204603B0BDE8F08F4FF4007340213F2777E7DC68A34208BF02317FF445AFE7
S32D00012478D8F81040DFF868C3644587D1D8F804208B10012098409042AAD9D8F80840676827F00307BD4202D854
S32D000124A07B1B0F2B77DCDFF84493CA4BD9F800201B6801322B4404EB070A00F02E8103F580530F3323F47F6B64
S32D000124C82BF00F0B5946304600F014FA411C024600F0EB80824500F2E680BD4B196859441960084600F04B81D5
S32D000124F0D9F80010019301311BBFA2EB0A0A5044C9F80020186012F0070A00F01481CAF108010A44CAF5805174
S32D0001251893440831A1EB0B01C1F30B0949463046009200F0E7F9421CDDE9002300F05C81801A00EB090B19688F
S32D00012540C8F808204BF00100494444455060196000F026810F2F40F2258160680C3F27F0070700F0010004EB44
S32D00012568070C38434FF0050E0F2F6060CCE901EE00F2428150681446964B1A688A4238BF1960954B1A688A422E
S32D0001259038BF196090E0621943F0010345F0010565603046C8F80820536000F0A1F90834204603B0BDE8F08F76
S32D000125B82344E1685A68A56842F00102E96030468D605A6000F090F9083442E7B2F5206F4FEA522361D3142BA5
S32D000125E000F2BA8003F15C00C0005B3308EB000758F80000083F874200F09280436823F00303934202D980684A
S32D000126088742F7D1C768D8F80420C4E90207BC60C460E0E6142B59D9542B00F2A1802B0B03F16F0103F16E072D
S32D00012630CB0093E60EF1010E1EF0030F04F108047FF4DFAE51E03A443C465368F96854F8085F43F0010353601E
S32D000126583046E9608D6000F047F9FAE6E90805F1080341E622443046536843F001035360083400F039F9ECE6CD
S32D00012680611943F0010745F0010565603046C8E90411C1E902CC4F60A35000F029F90834DBE6930903F1390048
S32D000126A8C00038339EE7444564D0D8F80840606820F0030B5D45ABEB050302D80F2B3FF766AF304600F010F98A
S32D000126D00024C2E603F15C0103F15B07CB003DE659F808394B4540F0AA8011F0030F01F1FF31F5D1D8F80430FF
S32D000126F823EA0003C8F80430400098423FF6C5AE18B9C2E640000EF1040E1842FAD071466FE603F1100BD5E629
S32D000127209A104FF0010ED8F804300EFA02F21A43C8F804206DE702EB0B014942C1F30B0949463046009200F02A
S32D00012748D9F8431CDDE900237FF4F2AED146F2E6542B26D8130B03F16F00C0006E3341E7B3F5AA7F26D8EB0BFB
S32D0001277003F1780103F17707CB00EFE5164B186858441860B4E6CAF30B0CBCF1000F7FF4AFAED8F80840BB44B6
S32D000127984BF001006060EFE61446EDE6012353608FE7B3F5AA7F33D8D30B03F17800C000773317E740F2545261
S32D000127C0934233D8AB0C03F17D0103F17C07CB00C4E500BFD0190020A0190020C8190020CC19002048110020D6
S32D000127E85011002050150020AAF1080AD344ABEB020B4FF000099EE604F108013046009300F000F9D8F8084081
S32D00012810009B60681968B3E640F2545083420AD8930C03F17D00C0007C33DFE64FF47E737F217E2792E54FF428
S32D000128387E707E23D6E6D8F804305DE7F0B4860746D0541E002A3CD0CAB2034601E0013C37D303F8012B9D0737
S32D00012860F9D1032C2AD9CDB245EA05250F2C45EA054534D9A4F1100222F00F0C03F120071609674403F11002F5
S32D0001288842E9045542E902551032BA42F8D1721C14F00C0F03EB021204F00F0613D0331F23F003030433134480
S32D000128B042F8045B9342FBD106F003042CB1CAB21C4403F8012B9C42FBD1F0BC704734461346002CF3D1F8E733
S32D000128D814460346C1E71A462646E0E70148FFF7E7BC00BFE81900200148FFF7E3BC00BFE819002038B5074D32
S32D000129000022044608462A6000F0CAF9431C00D038BD2B68002BFBD0236038BDFC190020024B13B1024800F00C
